{
	"contracts/token/wstf token /contracts/token/ERC20/implementation.sol": {
		"MyOmniToken": {
			"abi": [
				{
					"inputs": [
						{
							"internalType": "string",
							"name": "name_",
							"type": "string"
						},
						{
							"internalType": "string",
							"name": "symbol_",
							"type": "string"
						},
						{
							"internalType": "uint256",
							"name": "initialSupply",
							"type": "uint256"
						},
						{
							"internalType": "address",
							"name": "initialMinterAddress",
							"type": "address"
						},
						{
							"internalType": "bool",
							"name": "ismainChain",
							"type": "bool"
						}
					],
					"stateMutability": "nonpayable",
					"type": "constructor"
				},
				{
					"inputs": [
						{
							"internalType": "address",
							"name": "spender",
							"type": "address"
						},
						{
							"internalType": "uint256",
							"name": "allowance",
							"type": "uint256"
						},
						{
							"internalType": "uint256",
							"name": "needed",
							"type": "uint256"
						}
					],
					"name": "ERC20InsufficientAllowance",
					"type": "error"
				},
				{
					"inputs": [
						{
							"internalType": "address",
							"name": "sender",
							"type": "address"
						},
						{
							"internalType": "uint256",
							"name": "balance",
							"type": "uint256"
						},
						{
							"internalType": "uint256",
							"name": "needed",
							"type": "uint256"
						}
					],
					"name": "ERC20InsufficientBalance",
					"type": "error"
				},
				{
					"inputs": [
						{
							"internalType": "address",
							"name": "approver",
							"type": "address"
						}
					],
					"name": "ERC20InvalidApprover",
					"type": "error"
				},
				{
					"inputs": [
						{
							"internalType": "address",
							"name": "receiver",
							"type": "address"
						}
					],
					"name": "ERC20InvalidReceiver",
					"type": "error"
				},
				{
					"inputs": [
						{
							"internalType": "address",
							"name": "sender",
							"type": "address"
						}
					],
					"name": "ERC20InvalidSender",
					"type": "error"
				},
				{
					"inputs": [
						{
							"internalType": "address",
							"name": "spender",
							"type": "address"
						}
					],
					"name": "ERC20InvalidSpender",
					"type": "error"
				},
				{
					"anonymous": false,
					"inputs": [
						{
							"indexed": true,
							"internalType": "address",
							"name": "owner",
							"type": "address"
						},
						{
							"indexed": true,
							"internalType": "address",
							"name": "spender",
							"type": "address"
						},
						{
							"indexed": false,
							"internalType": "uint256",
							"name": "value",
							"type": "uint256"
						}
					],
					"name": "Approval",
					"type": "event"
				},
				{
					"anonymous": false,
					"inputs": [
						{
							"indexed": false,
							"internalType": "uint8",
							"name": "conf",
							"type": "uint8"
						}
					],
					"name": "DefaultConfLevelSet",
					"type": "event"
				},
				{
					"anonymous": false,
					"inputs": [
						{
							"indexed": false,
							"internalType": "address",
							"name": "omni",
							"type": "address"
						}
					],
					"name": "OmniPortalSet",
					"type": "event"
				},
				{
					"anonymous": false,
					"inputs": [
						{
							"indexed": true,
							"internalType": "address",
							"name": "from",
							"type": "address"
						},
						{
							"indexed": true,
							"internalType": "address",
							"name": "to",
							"type": "address"
						},
						{
							"indexed": false,
							"internalType": "uint256",
							"name": "value",
							"type": "uint256"
						}
					],
					"name": "Transfer",
					"type": "event"
				},
				{
					"inputs": [
						{
							"internalType": "address",
							"name": "owner",
							"type": "address"
						},
						{
							"internalType": "address",
							"name": "spender",
							"type": "address"
						}
					],
					"name": "allowance",
					"outputs": [
						{
							"internalType": "uint256",
							"name": "",
							"type": "uint256"
						}
					],
					"stateMutability": "view",
					"type": "function"
				},
				{
					"inputs": [
						{
							"internalType": "address",
							"name": "spender",
							"type": "address"
						},
						{
							"internalType": "uint256",
							"name": "value",
							"type": "uint256"
						}
					],
					"name": "approve",
					"outputs": [
						{
							"internalType": "bool",
							"name": "",
							"type": "bool"
						}
					],
					"stateMutability": "nonpayable",
					"type": "function"
				},
				{
					"inputs": [
						{
							"internalType": "address",
							"name": "account",
							"type": "address"
						}
					],
					"name": "balanceOf",
					"outputs": [
						{
							"internalType": "uint256",
							"name": "",
							"type": "uint256"
						}
					],
					"stateMutability": "view",
					"type": "function"
				},
				{
					"inputs": [],
					"name": "decimals",
					"outputs": [
						{
							"internalType": "uint8",
							"name": "",
							"type": "uint8"
						}
					],
					"stateMutability": "view",
					"type": "function"
				},
				{
					"inputs": [],
					"name": "defaultConfLevel",
					"outputs": [
						{
							"internalType": "uint8",
							"name": "",
							"type": "uint8"
						}
					],
					"stateMutability": "view",
					"type": "function"
				},
				{
					"inputs": [
						{
							"internalType": "address",
							"name": "account",
							"type": "address"
						},
						{
							"internalType": "uint256",
							"name": "value",
							"type": "uint256"
						}
					],
					"name": "mint",
					"outputs": [],
					"stateMutability": "nonpayable",
					"type": "function"
				},
				{
					"inputs": [],
					"name": "name",
					"outputs": [
						{
							"internalType": "string",
							"name": "",
							"type": "string"
						}
					],
					"stateMutability": "view",
					"type": "function"
				},
				{
					"inputs": [],
					"name": "omni",
					"outputs": [
						{
							"internalType": "contract IOmniPortal",
							"name": "",
							"type": "address"
						}
					],
					"stateMutability": "view",
					"type": "function"
				},
				{
					"inputs": [
						{
							"internalType": "address",
							"name": "from",
							"type": "address"
						},
						{
							"internalType": "address",
							"name": "to",
							"type": "address"
						},
						{
							"internalType": "uint256",
							"name": "value",
							"type": "uint256"
						}
					],
					"name": "receiveTransfer",
					"outputs": [],
					"stateMutability": "nonpayable",
					"type": "function"
				},
				{
					"inputs": [],
					"name": "symbol",
					"outputs": [
						{
							"internalType": "string",
							"name": "",
							"type": "string"
						}
					],
					"stateMutability": "view",
					"type": "function"
				},
				{
					"inputs": [],
					"name": "totalSupply",
					"outputs": [
						{
							"internalType": "uint256",
							"name": "",
							"type": "uint256"
						}
					],
					"stateMutability": "view",
					"type": "function"
				},
				{
					"inputs": [
						{
							"internalType": "address",
							"name": "to",
							"type": "address"
						},
						{
							"internalType": "uint256",
							"name": "value",
							"type": "uint256"
						}
					],
					"name": "transfer",
					"outputs": [
						{
							"internalType": "bool",
							"name": "",
							"type": "bool"
						}
					],
					"stateMutability": "nonpayable",
					"type": "function"
				},
				{
					"inputs": [
						{
							"internalType": "uint64",
							"name": "destChain",
							"type": "uint64"
						},
						{
							"internalType": "address",
							"name": "destToken",
							"type": "address"
						},
						{
							"internalType": "address",
							"name": "to",
							"type": "address"
						},
						{
							"internalType": "uint256",
							"name": "value",
							"type": "uint256"
						}
					],
					"name": "transfer",
					"outputs": [],
					"stateMutability": "payable",
					"type": "function"
				},
				{
					"inputs": [
						{
							"internalType": "address",
							"name": "from",
							"type": "address"
						},
						{
							"internalType": "address",
							"name": "to",
							"type": "address"
						},
						{
							"internalType": "uint256",
							"name": "value",
							"type": "uint256"
						}
					],
					"name": "transferFrom",
					"outputs": [
						{
							"internalType": "bool",
							"name": "",
							"type": "bool"
						}
					],
					"stateMutability": "nonpayable",
					"type": "function"
				}
			],
			"devdoc": {
				"errors": {
					"ERC20InsufficientAllowance(address,uint256,uint256)": [
						{
							"details": "Indicates a failure with the `spender`’s `allowance`. Used in transfers.",
							"params": {
								"allowance": "Amount of tokens a `spender` is allowed to operate with.",
								"needed": "Minimum amount required to perform a transfer.",
								"spender": "Address that may be allowed to operate on tokens without being their owner."
							}
						}
					],
					"ERC20InsufficientBalance(address,uint256,uint256)": [
						{
							"details": "Indicates an error related to the current `balance` of a `sender`. Used in transfers.",
							"params": {
								"balance": "Current balance for the interacting account.",
								"needed": "Minimum amount required to perform a transfer.",
								"sender": "Address whose tokens are being transferred."
							}
						}
					],
					"ERC20InvalidApprover(address)": [
						{
							"details": "Indicates a failure with the `approver` of a token to be approved. Used in approvals.",
							"params": {
								"approver": "Address initiating an approval operation."
							}
						}
					],
					"ERC20InvalidReceiver(address)": [
						{
							"details": "Indicates a failure with the token `receiver`. Used in transfers.",
							"params": {
								"receiver": "Address to which tokens are being transferred."
							}
						}
					],
					"ERC20InvalidSender(address)": [
						{
							"details": "Indicates a failure with the token `sender`. Used in transfers.",
							"params": {
								"sender": "Address whose tokens are being transferred."
							}
						}
					],
					"ERC20InvalidSpender(address)": [
						{
							"details": "Indicates a failure with the `spender` to be approved. Used in approvals.",
							"params": {
								"spender": "Address that may be allowed to operate on tokens without being their owner."
							}
						}
					]
				},
				"events": {
					"Approval(address,address,uint256)": {
						"details": "Emitted when the allowance of a `spender` for an `owner` is set by a call to {approve}. `value` is the new allowance."
					},
					"DefaultConfLevelSet(uint8)": {
						"params": {
							"conf": "Confirmation level"
						}
					},
					"Transfer(address,address,uint256)": {
						"details": "Emitted when `value` tokens are moved from one account (`from`) to another (`to`). Note that `value` may be zero."
					}
				},
				"kind": "dev",
				"methods": {
					"allowance(address,address)": {
						"details": "Returns the remaining number of tokens that `spender` will be allowed to spend on behalf of `owner` through {transferFrom}. This is zero by default. This value changes when {approve} or {transferFrom} are called."
					},
					"approve(address,uint256)": {
						"details": "Sets a `value` amount of tokens as the allowance of `spender` over the caller's tokens. Returns a boolean value indicating whether the operation succeeded. IMPORTANT: Beware that changing an allowance with this method brings the risk that someone may use both the old and the new allowance by unfortunate transaction ordering. One possible solution to mitigate this race condition is to first reduce the spender's allowance to 0 and set the desired value afterwards: https://github.com/ethereum/EIPs/issues/20#issuecomment-263524729 Emits an {Approval} event."
					},
					"balanceOf(address)": {
						"details": "Returns the value of tokens owned by `account`."
					},
					"decimals()": {
						"details": "Returns the decimals places of the token."
					},
					"name()": {
						"details": "Returns the name of the token."
					},
					"symbol()": {
						"details": "Returns the symbol of the token."
					},
					"totalSupply()": {
						"details": "Returns the value of tokens in existence."
					},
					"transfer(address,uint256)": {
						"details": "Moves a `value` amount of tokens from the caller's account to `to`. Returns a boolean value indicating whether the operation succeeded. Emits a {Transfer} event."
					},
					"transferFrom(address,address,uint256)": {
						"details": "Moves a `value` amount of tokens from `from` to `to` using the allowance mechanism. `value` is then deducted from the caller's allowance. Returns a boolean value indicating whether the operation succeeded. Emits a {Transfer} event."
					}
				},
				"version": 1
			},
			"evm": {
				"assembly": "    /* \"contracts/token/wstf token /contracts/token/ERC20/implementation.sol\":128:1210  contract MyOmniToken is OmniERC20 {... */\n  mstore(0x40, 0x80)\n    /* \"contracts/token/wstf token /contracts/token/ERC20/implementation.sol\":183:225  0xcB60A0451831E4865bC49f41F9C67665Fc9b75C3 */\n  0xcb60a0451831e4865bc49f41f9c67665fc9b75c3\n    /* \"contracts/token/wstf token /contracts/token/ERC20/implementation.sol\":164:225  address omniPortal=0xcB60A0451831E4865bC49f41F9C67665Fc9b75C3 */\n  0x07\n  exp(0x0100, 0x00)\n  dup2\n  sload\n  dup2\n  0xffffffffffffffffffffffffffffffffffffffff\n  mul\n  not\n  and\n  swap1\n  dup4\n  0xffffffffffffffffffffffffffffffffffffffff\n  and\n  mul\n  or\n  swap1\n  sstore\n  pop\n    /* \"contracts/token/wstf token /contracts/token/ERC20/implementation.sol\":231:698  constructor(... */\n  callvalue\n  dup1\n  iszero\n  tag_1\n  jumpi\n  0x00\n  dup1\n  revert\ntag_1:\n  pop\n  mload(0x40)\n  sub(codesize, bytecodeSize)\n  dup1\n  bytecodeSize\n  dup4\n  codecopy\n  dup2\n  dup2\n  add\n  0x40\n  mstore\n  dup2\n  add\n  swap1\n  tag_2\n  swap2\n  swap1\n  tag_3\n  jump\t// in\ntag_2:\n    /* \"contracts/token/wstf token /contracts/token/ERC20/implementation.sol\":414:419  name_ */\n  dup5\n    /* \"contracts/token/wstf token /contracts/token/ERC20/implementation.sol\":421:428  symbol_ */\n  dup5\n    /* \"contracts/token/wstf token /contracts/token/ERC20/implementation.sol\":430:440  omniPortal */\n  0x07\n  0x00\n  swap1\n  sload\n  swap1\n  0x0100\n  exp\n  swap1\n  div\n  0xffffffffffffffffffffffffffffffffffffffff\n  and\n    /* \"contracts/token/wstf token /contracts/token/ERC20/OmniERC20.sol\":849:859  omniPortal */\n  dup1\n    /* \"contracts/token/lib/omni/contracts/core/src/libraries/ConfLevel.sol\":571:572  1 */\n  0x01\n    /* \"contracts/token/lib/omni/contracts/core/src/pkg/XApp.sol\":296:317  _setOmniPortal(omni_) */\n  tag_8\n    /* \"contracts/token/lib/omni/contracts/core/src/pkg/XApp.sol\":311:316  omni_ */\n  dup3\n    /* \"contracts/token/lib/omni/contracts/core/src/pkg/XApp.sol\":296:310  _setOmniPortal */\n  shl(0x20, tag_9)\n    /* \"contracts/token/lib/omni/contracts/core/src/pkg/XApp.sol\":296:317  _setOmniPortal(omni_) */\n  0x20\n  shr\n  jump\t// in\ntag_8:\n    /* \"contracts/token/lib/omni/contracts/core/src/pkg/XApp.sol\":327:366  _setDefaultConfLevel(defaultConfLevel_) */\n  tag_10\n    /* \"contracts/token/lib/omni/contracts/core/src/pkg/XApp.sol\":348:365  defaultConfLevel_ */\n  dup2\n    /* \"contracts/token/lib/omni/contracts/core/src/pkg/XApp.sol\":327:347  _setDefaultConfLevel */\n  shl(0x20, tag_11)\n    /* \"contracts/token/lib/omni/contracts/core/src/pkg/XApp.sol\":327:366  _setDefaultConfLevel(defaultConfLevel_) */\n  0x20\n  shr\n  jump\t// in\ntag_10:\n    /* \"contracts/token/lib/omni/contracts/core/src/pkg/XApp.sol\":234:373  constructor(address omni_, uint8 defaultConfLevel_) {... */\n  pop\n  pop\n    /* \"contracts/token/wstf token /contracts/token/ERC20/OmniERC20.sol\":897:902  name_ */\n  dup3\n    /* \"contracts/token/wstf token /contracts/token/ERC20/OmniERC20.sol\":889:894  _name */\n  0x05\n    /* \"contracts/token/wstf token /contracts/token/ERC20/OmniERC20.sol\":889:902  _name = name_ */\n  swap1\n  dup2\n  tag_13\n  swap2\n  swap1\n  tag_14\n  jump\t// in\ntag_13:\n  pop\n    /* \"contracts/token/wstf token /contracts/token/ERC20/OmniERC20.sol\":922:929  symbol_ */\n  dup2\n    /* \"contracts/token/wstf token /contracts/token/ERC20/OmniERC20.sol\":912:919  _symbol */\n  0x06\n    /* \"contracts/token/wstf token /contracts/token/ERC20/OmniERC20.sol\":912:929  _symbol = symbol_ */\n  swap1\n  dup2\n  tag_15\n  swap2\n  swap1\n  tag_14\n  jump\t// in\ntag_15:\n  pop\n    /* \"contracts/token/wstf token /contracts/token/ERC20/OmniERC20.sol\":768:936  constructor(string memory name_, string memory symbol_, address omniPortal) XApp(omniPortal, ConfLevel.Latest) {... */\n  pop\n  pop\n  pop\n    /* \"contracts/token/wstf token /contracts/token/ERC20/implementation.sol\":548:552  true */\n  0x01\n    /* \"contracts/token/wstf token /contracts/token/ERC20/implementation.sol\":534:552  ismainChain== true */\n  iszero\n  iszero\n    /* \"contracts/token/wstf token /contracts/token/ERC20/implementation.sol\":534:545  ismainChain */\n  dup2\n    /* \"contracts/token/wstf token /contracts/token/ERC20/implementation.sol\":534:552  ismainChain== true */\n  iszero\n  iszero\n  sub\n    /* \"contracts/token/wstf token /contracts/token/ERC20/implementation.sol\":531:692  if(ismainChain== true){... */\n  tag_17\n  jumpi\n    /* \"contracts/token/wstf token /contracts/token/ERC20/implementation.sol\":563:605  _mint(initialMinterAddress, initialSupply) */\n  tag_18\n    /* \"contracts/token/wstf token /contracts/token/ERC20/implementation.sol\":569:589  initialMinterAddress */\n  dup3\n    /* \"contracts/token/wstf token /contracts/token/ERC20/implementation.sol\":591:604  initialSupply */\n  dup5\n    /* \"contracts/token/wstf token /contracts/token/ERC20/implementation.sol\":563:568  _mint */\n  shl(0x20, tag_19)\n    /* \"contracts/token/wstf token /contracts/token/ERC20/implementation.sol\":563:605  _mint(initialMinterAddress, initialSupply) */\n  0x20\n  shr\n  jump\t// in\ntag_18:\n    /* \"contracts/token/wstf token /contracts/token/ERC20/implementation.sol\":531:692  if(ismainChain== true){... */\n  jump(tag_20)\ntag_17:\n    /* \"contracts/token/wstf token /contracts/token/ERC20/implementation.sol\":646:681  _mint(address(this), initialSupply) */\n  tag_21\n    /* \"contracts/token/wstf token /contracts/token/ERC20/implementation.sol\":660:664  this */\n  address\n    /* \"contracts/token/wstf token /contracts/token/ERC20/implementation.sol\":667:680  initialSupply */\n  dup5\n    /* \"contracts/token/wstf token /contracts/token/ERC20/implementation.sol\":646:651  _mint */\n  shl(0x20, tag_19)\n    /* \"contracts/token/wstf token /contracts/token/ERC20/implementation.sol\":646:681  _mint(address(this), initialSupply) */\n  0x20\n  shr\n  jump\t// in\ntag_21:\n    /* \"contracts/token/wstf token /contracts/token/ERC20/implementation.sol\":531:692  if(ismainChain== true){... */\ntag_20:\n    /* \"contracts/token/wstf token /contracts/token/ERC20/implementation.sol\":231:698  constructor(... */\n  pop\n  pop\n  pop\n  pop\n  pop\n    /* \"contracts/token/wstf token /contracts/token/ERC20/implementation.sol\":128:1210  contract MyOmniToken is OmniERC20 {... */\n  jump(tag_22)\n    /* \"contracts/token/lib/omni/contracts/core/src/pkg/XAppBase.sol\":3791:3976  function _setOmniPortal(address _omni) internal {... */\ntag_9:\n    /* \"contracts/token/lib/omni/contracts/core/src/pkg/XAppBase.sol\":3874:3875  0 */\n  0x00\n    /* \"contracts/token/lib/omni/contracts/core/src/pkg/XAppBase.sol\":3857:3876  _omni != address(0) */\n  0xffffffffffffffffffffffffffffffffffffffff\n  and\n    /* \"contracts/token/lib/omni/contracts/core/src/pkg/XAppBase.sol\":3857:3862  _omni */\n  dup2\n    /* \"contracts/token/lib/omni/contracts/core/src/pkg/XAppBase.sol\":3857:3876  _omni != address(0) */\n  0xffffffffffffffffffffffffffffffffffffffff\n  and\n  sub\n    /* \"contracts/token/lib/omni/contracts/core/src/pkg/XAppBase.sol\":3849:3899  require(_omni != address(0), \"XApp: no zero omni\") */\n  tag_24\n  jumpi\n  mload(0x40)\n  0x08c379a000000000000000000000000000000000000000000000000000000000\n  dup2\n  mstore\n  0x04\n  add\n  tag_25\n  swap1\n  tag_26\n  jump\t// in\ntag_25:\n  mload(0x40)\n  dup1\n  swap2\n  sub\n  swap1\n  revert\ntag_24:\n    /* \"contracts/token/lib/omni/contracts/core/src/pkg/XAppBase.sol\":3928:3933  _omni */\n  dup1\n    /* \"contracts/token/lib/omni/contracts/core/src/pkg/XAppBase.sol\":3909:3913  omni */\n  0x00\n  dup1\n    /* \"contracts/token/lib/omni/contracts/core/src/pkg/XAppBase.sol\":3909:3934  omni = IOmniPortal(_omni) */\n  0x0100\n  exp\n  dup2\n  sload\n  dup2\n  0xffffffffffffffffffffffffffffffffffffffff\n  mul\n  not\n  and\n  swap1\n  dup4\n  0xffffffffffffffffffffffffffffffffffffffff\n  and\n  mul\n  or\n  swap1\n  sstore\n  pop\n    /* \"contracts/token/lib/omni/contracts/core/src/pkg/XAppBase.sol\":3949:3969  OmniPortalSet(_omni) */\n  0x79162c8d053a07e70cdc1ccc536f0440b571f8508377d2bef51094fadab98f47\n    /* \"contracts/token/lib/omni/contracts/core/src/pkg/XAppBase.sol\":3963:3968  _omni */\n  dup2\n    /* \"contracts/token/lib/omni/contracts/core/src/pkg/XAppBase.sol\":3949:3969  OmniPortalSet(_omni) */\n  mload(0x40)\n  tag_27\n  swap2\n  swap1\n  tag_28\n  jump\t// in\ntag_27:\n  mload(0x40)\n  dup1\n  swap2\n  sub\n  swap1\n  log1\n    /* \"contracts/token/lib/omni/contracts/core/src/pkg/XAppBase.sol\":3791:3976  function _setOmniPortal(address _omni) internal {... */\n  pop\n  jump\t// out\n    /* \"contracts/token/lib/omni/contracts/core/src/pkg/XAppBase.sol\":3462:3663  function _setDefaultConfLevel(uint8 conf) internal {... */\ntag_11:\n    /* \"contracts/token/lib/omni/contracts/core/src/pkg/XAppBase.sol\":3531:3554  ConfLevel.isValid(conf) */\n  tag_30\n    /* \"contracts/token/lib/omni/contracts/core/src/pkg/XAppBase.sol\":3549:3553  conf */\n  dup2\n    /* \"contracts/token/lib/omni/contracts/core/src/pkg/XAppBase.sol\":3531:3548  ConfLevel.isValid */\n  shl(0x20, tag_31)\n    /* \"contracts/token/lib/omni/contracts/core/src/pkg/XAppBase.sol\":3531:3554  ConfLevel.isValid(conf) */\n  0x20\n  shr\n  jump\t// in\ntag_30:\n    /* \"contracts/token/lib/omni/contracts/core/src/pkg/XAppBase.sol\":3523:3583  require(ConfLevel.isValid(conf), \"XApp: invalid conf level\") */\n  tag_32\n  jumpi\n  mload(0x40)\n  0x08c379a000000000000000000000000000000000000000000000000000000000\n  dup2\n  mstore\n  0x04\n  add\n  tag_33\n  swap1\n  tag_34\n  jump\t// in\ntag_33:\n  mload(0x40)\n  dup1\n  swap2\n  sub\n  swap1\n  revert\ntag_32:\n    /* \"contracts/token/lib/omni/contracts/core/src/pkg/XAppBase.sol\":3612:3616  conf */\n  dup1\n    /* \"contracts/token/lib/omni/contracts/core/src/pkg/XAppBase.sol\":3593:3609  defaultConfLevel */\n  0x00\n  0x14\n    /* \"contracts/token/lib/omni/contracts/core/src/pkg/XAppBase.sol\":3593:3616  defaultConfLevel = conf */\n  0x0100\n  exp\n  dup2\n  sload\n  dup2\n  0xff\n  mul\n  not\n  and\n  swap1\n  dup4\n  0xff\n  and\n  mul\n  or\n  swap1\n  sstore\n  pop\n    /* \"contracts/token/lib/omni/contracts/core/src/pkg/XAppBase.sol\":3631:3656  DefaultConfLevelSet(conf) */\n  0x8de08a798b4e50b4f351c1eaa91a11530043802be3ffac2df87db0c45a2e8483\n    /* \"contracts/token/lib/omni/contracts/core/src/pkg/XAppBase.sol\":3651:3655  conf */\n  dup2\n    /* \"contracts/token/lib/omni/contracts/core/src/pkg/XAppBase.sol\":3631:3656  DefaultConfLevelSet(conf) */\n  mload(0x40)\n  tag_35\n  swap2\n  swap1\n  tag_36\n  jump\t// in\ntag_35:\n  mload(0x40)\n  dup1\n  swap2\n  sub\n  swap1\n  log1\n    /* \"contracts/token/lib/omni/contracts/core/src/pkg/XAppBase.sol\":3462:3663  function _setDefaultConfLevel(uint8 conf) internal {... */\n  pop\n  jump\t// out\n    /* \"contracts/token/wstf token /contracts/token/ERC20/implementation.sol\":1000:1208  function _mint(address account, uint256 value) internal {... */\ntag_19:\n    /* \"contracts/token/wstf token /contracts/token/ERC20/implementation.sol\":1089:1090  0 */\n  0x00\n    /* \"contracts/token/wstf token /contracts/token/ERC20/implementation.sol\":1070:1091  account == address(0) */\n  0xffffffffffffffffffffffffffffffffffffffff\n  and\n    /* \"contracts/token/wstf token /contracts/token/ERC20/implementation.sol\":1070:1077  account */\n  dup3\n    /* \"contracts/token/wstf token /contracts/token/ERC20/implementation.sol\":1070:1091  account == address(0) */\n  0xffffffffffffffffffffffffffffffffffffffff\n  and\n  sub\n    /* \"contracts/token/wstf token /contracts/token/ERC20/implementation.sol\":1066:1157  if (account == address(0)) {... */\n  tag_38\n  jumpi\n    /* \"contracts/token/wstf token /contracts/token/ERC20/implementation.sol\":1143:1144  0 */\n  0x00\n    /* \"contracts/token/wstf token /contracts/token/ERC20/implementation.sol\":1114:1146  ERC20InvalidReceiver(address(0)) */\n  mload(0x40)\n  0xec442f0500000000000000000000000000000000000000000000000000000000\n  dup2\n  mstore\n  0x04\n  add\n  tag_39\n  swap2\n  swap1\n  tag_28\n  jump\t// in\ntag_39:\n  mload(0x40)\n  dup1\n  swap2\n  sub\n  swap1\n  revert\n    /* \"contracts/token/wstf token /contracts/token/ERC20/implementation.sol\":1066:1157  if (account == address(0)) {... */\ntag_38:\n    /* \"contracts/token/wstf token /contracts/token/ERC20/implementation.sol\":1166:1201  _update(address(0), account, value) */\n  tag_40\n    /* \"contracts/token/wstf token /contracts/token/ERC20/implementation.sol\":1182:1183  0 */\n  0x00\n    /* \"contracts/token/wstf token /contracts/token/ERC20/implementation.sol\":1186:1193  account */\n  dup4\n    /* \"contracts/token/wstf token /contracts/token/ERC20/implementation.sol\":1195:1200  value */\n  dup4\n    /* \"contracts/token/wstf token /contracts/token/ERC20/implementation.sol\":1166:1173  _update */\n  shl(0x20, tag_41)\n    /* \"contracts/token/wstf token /contracts/token/ERC20/implementation.sol\":1166:1201  _update(address(0), account, value) */\n  0x20\n  shr\n  jump\t// in\ntag_40:\n    /* \"contracts/token/wstf token /contracts/token/ERC20/implementation.sol\":1000:1208  function _mint(address account, uint256 value) internal {... */\n  pop\n  pop\n  jump\t// out\n    /* \"contracts/token/lib/omni/contracts/core/src/libraries/ConfLevel.sol\":791:911  function isValid(uint8 level) internal pure returns (bool) {... */\ntag_31:\n    /* \"contracts/token/lib/omni/contracts/core/src/libraries/ConfLevel.sol\":844:848  bool */\n  0x00\n    /* \"contracts/token/lib/omni/contracts/core/src/libraries/ConfLevel.sol\":571:572  1 */\n  0x01\n    /* \"contracts/token/lib/omni/contracts/core/src/libraries/ConfLevel.sol\":867:882  level == Latest */\n  0xff\n  and\n    /* \"contracts/token/lib/omni/contracts/core/src/libraries/ConfLevel.sol\":867:872  level */\n  dup3\n    /* \"contracts/token/lib/omni/contracts/core/src/libraries/ConfLevel.sol\":867:882  level == Latest */\n  0xff\n  and\n  eq\n    /* \"contracts/token/lib/omni/contracts/core/src/libraries/ConfLevel.sol\":867:904  level == Latest || level == Finalized */\n  dup1\n  tag_43\n  jumpi\n  pop\n    /* \"contracts/token/lib/omni/contracts/core/src/libraries/ConfLevel.sol\":710:711  4 */\n  0x04\n    /* \"contracts/token/lib/omni/contracts/core/src/libraries/ConfLevel.sol\":886:904  level == Finalized */\n  0xff\n  and\n    /* \"contracts/token/lib/omni/contracts/core/src/libraries/ConfLevel.sol\":886:891  level */\n  dup3\n    /* \"contracts/token/lib/omni/contracts/core/src/libraries/ConfLevel.sol\":886:904  level == Finalized */\n  0xff\n  and\n  eq\n    /* \"contracts/token/lib/omni/contracts/core/src/libraries/ConfLevel.sol\":867:904  level == Latest || level == Finalized */\ntag_43:\n    /* \"contracts/token/lib/omni/contracts/core/src/libraries/ConfLevel.sol\":860:904  return level == Latest || level == Finalized */\n  swap1\n  pop\n    /* \"contracts/token/lib/omni/contracts/core/src/libraries/ConfLevel.sol\":791:911  function isValid(uint8 level) internal pure returns (bool) {... */\n  swap2\n  swap1\n  pop\n  jump\t// out\n    /* \"contracts/token/wstf token /contracts/token/ERC20/OmniERC20.sol\":3290:3996  function _update(address from, address to, uint256 value) internal virtual {... */\ntag_41:\n    /* \"contracts/token/wstf token /contracts/token/ERC20/OmniERC20.sol\":3395:3396  0 */\n  0x00\n    /* \"contracts/token/wstf token /contracts/token/ERC20/OmniERC20.sol\":3379:3397  from == address(0) */\n  0xffffffffffffffffffffffffffffffffffffffff\n  and\n    /* \"contracts/token/wstf token /contracts/token/ERC20/OmniERC20.sol\":3379:3383  from */\n  dup4\n    /* \"contracts/token/wstf token /contracts/token/ERC20/OmniERC20.sol\":3379:3397  from == address(0) */\n  0xffffffffffffffffffffffffffffffffffffffff\n  and\n  sub\n    /* \"contracts/token/wstf token /contracts/token/ERC20/OmniERC20.sol\":3375:3734  if (from == address(0)) {... */\n  tag_45\n  jumpi\n    /* \"contracts/token/wstf token /contracts/token/ERC20/OmniERC20.sol\":3429:3434  value */\n  dup1\n    /* \"contracts/token/wstf token /contracts/token/ERC20/OmniERC20.sol\":3413:3425  _totalSupply */\n  0x04\n  0x00\n    /* \"contracts/token/wstf token /contracts/token/ERC20/OmniERC20.sol\":3413:3434  _totalSupply += value */\n  dup3\n  dup3\n  sload\n  tag_46\n  swap2\n  swap1\n  tag_47\n  jump\t// in\ntag_46:\n  swap3\n  pop\n  pop\n  dup2\n  swap1\n  sstore\n  pop\n    /* \"contracts/token/wstf token /contracts/token/ERC20/OmniERC20.sol\":3375:3734  if (from == address(0)) {... */\n  jump(tag_48)\ntag_45:\n    /* \"contracts/token/wstf token /contracts/token/ERC20/OmniERC20.sol\":3465:3484  uint256 fromBalance */\n  0x00\n    /* \"contracts/token/wstf token /contracts/token/ERC20/OmniERC20.sol\":3487:3496  _balances */\n  0x02\n    /* \"contracts/token/wstf token /contracts/token/ERC20/OmniERC20.sol\":3487:3502  _balances[from] */\n  0x00\n    /* \"contracts/token/wstf token /contracts/token/ERC20/OmniERC20.sol\":3497:3501  from */\n  dup6\n    /* \"contracts/token/wstf token /contracts/token/ERC20/OmniERC20.sol\":3487:3502  _balances[from] */\n  0xffffffffffffffffffffffffffffffffffffffff\n  and\n  0xffffffffffffffffffffffffffffffffffffffff\n  and\n  dup2\n  mstore\n  0x20\n  add\n  swap1\n  dup2\n  mstore\n  0x20\n  add\n  0x00\n  keccak256\n  sload\n    /* \"contracts/token/wstf token /contracts/token/ERC20/OmniERC20.sol\":3465:3502  uint256 fromBalance = _balances[from] */\n  swap1\n  pop\n    /* \"contracts/token/wstf token /contracts/token/ERC20/OmniERC20.sol\":3534:3539  value */\n  dup2\n    /* \"contracts/token/wstf token /contracts/token/ERC20/OmniERC20.sol\":3520:3531  fromBalance */\n  dup2\n    /* \"contracts/token/wstf token /contracts/token/ERC20/OmniERC20.sol\":3520:3539  fromBalance < value */\n  lt\n    /* \"contracts/token/wstf token /contracts/token/ERC20/OmniERC20.sol\":3516:3631  if (fromBalance < value) {... */\n  iszero\n  tag_49\n  jumpi\n    /* \"contracts/token/wstf token /contracts/token/ERC20/OmniERC20.sol\":3591:3595  from */\n  dup4\n    /* \"contracts/token/wstf token /contracts/token/ERC20/OmniERC20.sol\":3597:3608  fromBalance */\n  dup2\n    /* \"contracts/token/wstf token /contracts/token/ERC20/OmniERC20.sol\":3610:3615  value */\n  dup4\n    /* \"contracts/token/wstf token /contracts/token/ERC20/OmniERC20.sol\":3566:3616  ERC20InsufficientBalance(from, fromBalance, value) */\n  mload(0x40)\n  0xe450d38c00000000000000000000000000000000000000000000000000000000\n  dup2\n  mstore\n  0x04\n  add\n  tag_50\n  swap4\n  swap3\n  swap2\n  swap1\n  tag_51\n  jump\t// in\ntag_50:\n  mload(0x40)\n  dup1\n  swap2\n  sub\n  swap1\n  revert\n    /* \"contracts/token/wstf token /contracts/token/ERC20/OmniERC20.sol\":3516:3631  if (fromBalance < value) {... */\ntag_49:\n    /* \"contracts/token/wstf token /contracts/token/ERC20/OmniERC20.sol\":3704:3709  value */\n  dup2\n    /* \"contracts/token/wstf token /contracts/token/ERC20/OmniERC20.sol\":3690:3701  fromBalance */\n  dup2\n    /* \"contracts/token/wstf token /contracts/token/ERC20/OmniERC20.sol\":3690:3709  fromBalance - value */\n  sub\n    /* \"contracts/token/wstf token /contracts/token/ERC20/OmniERC20.sol\":3672:3681  _balances */\n  0x02\n    /* \"contracts/token/wstf token /contracts/token/ERC20/OmniERC20.sol\":3672:3687  _balances[from] */\n  0x00\n    /* \"contracts/token/wstf token /contracts/token/ERC20/OmniERC20.sol\":3682:3686  from */\n  dup7\n    /* \"contracts/token/wstf token /contracts/token/ERC20/OmniERC20.sol\":3672:3687  _balances[from] */\n  0xffffffffffffffffffffffffffffffffffffffff\n  and\n  0xffffffffffffffffffffffffffffffffffffffff\n  and\n  dup2\n  mstore\n  0x20\n  add\n  swap1\n  dup2\n  mstore\n  0x20\n  add\n  0x00\n  keccak256\n    /* \"contracts/token/wstf token /contracts/token/ERC20/OmniERC20.sol\":3672:3709  _balances[from] = fromBalance - value */\n  dup2\n  swap1\n  sstore\n  pop\n    /* \"contracts/token/wstf token /contracts/token/ERC20/OmniERC20.sol\":3451:3734  {... */\n  pop\n    /* \"contracts/token/wstf token /contracts/token/ERC20/OmniERC20.sol\":3375:3734  if (from == address(0)) {... */\ntag_48:\n    /* \"contracts/token/wstf token /contracts/token/ERC20/OmniERC20.sol\":3762:3763  0 */\n  0x00\n    /* \"contracts/token/wstf token /contracts/token/ERC20/OmniERC20.sol\":3748:3764  to == address(0) */\n  0xffffffffffffffffffffffffffffffffffffffff\n  and\n    /* \"contracts/token/wstf token /contracts/token/ERC20/OmniERC20.sol\":3748:3750  to */\n  dup3\n    /* \"contracts/token/wstf token /contracts/token/ERC20/OmniERC20.sol\":3748:3764  to == address(0) */\n  0xffffffffffffffffffffffffffffffffffffffff\n  and\n  sub\n    /* \"contracts/token/wstf token /contracts/token/ERC20/OmniERC20.sol\":3744:3949  if (to == address(0)) {... */\n  tag_52\n  jumpi\n    /* \"contracts/token/wstf token /contracts/token/ERC20/OmniERC20.sol\":3824:3829  value */\n  dup1\n    /* \"contracts/token/wstf token /contracts/token/ERC20/OmniERC20.sol\":3808:3820  _totalSupply */\n  0x04\n  0x00\n    /* \"contracts/token/wstf token /contracts/token/ERC20/OmniERC20.sol\":3808:3829  _totalSupply -= value */\n  dup3\n  dup3\n  sload\n  sub\n  swap3\n  pop\n  pop\n  dup2\n  swap1\n  sstore\n  pop\n    /* \"contracts/token/wstf token /contracts/token/ERC20/OmniERC20.sol\":3744:3949  if (to == address(0)) {... */\n  jump(tag_53)\ntag_52:\n    /* \"contracts/token/wstf token /contracts/token/ERC20/OmniERC20.sol\":3919:3924  value */\n  dup1\n    /* \"contracts/token/wstf token /contracts/token/ERC20/OmniERC20.sol\":3902:3911  _balances */\n  0x02\n    /* \"contracts/token/wstf token /contracts/token/ERC20/OmniERC20.sol\":3902:3915  _balances[to] */\n  0x00\n    /* \"contracts/token/wstf token /contracts/token/ERC20/OmniERC20.sol\":3912:3914  to */\n  dup5\n    /* \"contracts/token/wstf token /contracts/token/ERC20/OmniERC20.sol\":3902:3915  _balances[to] */\n  0xffffffffffffffffffffffffffffffffffffffff\n  and\n  0xffffffffffffffffffffffffffffffffffffffff\n  and\n  dup2\n  mstore\n  0x20\n  add\n  swap1\n  dup2\n  mstore\n  0x20\n  add\n  0x00\n  keccak256\n  0x00\n    /* \"contracts/token/wstf token /contracts/token/ERC20/OmniERC20.sol\":3902:3924  _balances[to] += value */\n  dup3\n  dup3\n  sload\n  add\n  swap3\n  pop\n  pop\n  dup2\n  swap1\n  sstore\n  pop\n    /* \"contracts/token/wstf token /contracts/token/ERC20/OmniERC20.sol\":3744:3949  if (to == address(0)) {... */\ntag_53:\n    /* \"contracts/token/wstf token /contracts/token/ERC20/OmniERC20.sol\":3979:3981  to */\n  dup2\n    /* \"contracts/token/wstf token /contracts/token/ERC20/OmniERC20.sol\":3964:3989  Transfer(from, to, value) */\n  0xffffffffffffffffffffffffffffffffffffffff\n  and\n    /* \"contracts/token/wstf token /contracts/token/ERC20/OmniERC20.sol\":3973:3977  from */\n  dup4\n    /* \"contracts/token/wstf token /contracts/token/ERC20/OmniERC20.sol\":3964:3989  Transfer(from, to, value) */\n  0xffffffffffffffffffffffffffffffffffffffff\n  and\n  0xddf252ad1be2c89b69c2b068fc378daa952ba7f163c4a11628f55a4df523b3ef\n    /* \"contracts/token/wstf token /contracts/token/ERC20/OmniERC20.sol\":3983:3988  value */\n  dup4\n    /* \"contracts/token/wstf token /contracts/token/ERC20/OmniERC20.sol\":3964:3989  Transfer(from, to, value) */\n  mload(0x40)\n  tag_54\n  swap2\n  swap1\n  tag_55\n  jump\t// in\ntag_54:\n  mload(0x40)\n  dup1\n  swap2\n  sub\n  swap1\n  log3\n    /* \"contracts/token/wstf token /contracts/token/ERC20/OmniERC20.sol\":3290:3996  function _update(address from, address to, uint256 value) internal virtual {... */\n  pop\n  pop\n  pop\n  jump\t// out\n    /* \"#utility.yul\":7:82   */\ntag_56:\n    /* \"#utility.yul\":40:46   */\n  0x00\n    /* \"#utility.yul\":73:75   */\n  0x40\n    /* \"#utility.yul\":67:76   */\n  mload\n    /* \"#utility.yul\":57:76   */\n  swap1\n  pop\n    /* \"#utility.yul\":7:82   */\n  swap1\n  jump\t// out\n    /* \"#utility.yul\":88:205   */\ntag_57:\n    /* \"#utility.yul\":197:198   */\n  0x00\n    /* \"#utility.yul\":194:195   */\n  dup1\n    /* \"#utility.yul\":187:199   */\n  revert\n    /* \"#utility.yul\":211:328   */\ntag_58:\n    /* \"#utility.yul\":320:321   */\n  0x00\n    /* \"#utility.yul\":317:318   */\n  dup1\n    /* \"#utility.yul\":310:322   */\n  revert\n    /* \"#utility.yul\":334:451   */\ntag_59:\n    /* \"#utility.yul\":443:444   */\n  0x00\n    /* \"#utility.yul\":440:441   */\n  dup1\n    /* \"#utility.yul\":433:445   */\n  revert\n    /* \"#utility.yul\":457:574   */\ntag_60:\n    /* \"#utility.yul\":566:567   */\n  0x00\n    /* \"#utility.yul\":563:564   */\n  dup1\n    /* \"#utility.yul\":556:568   */\n  revert\n    /* \"#utility.yul\":580:682   */\ntag_61:\n    /* \"#utility.yul\":621:627   */\n  0x00\n    /* \"#utility.yul\":672:674   */\n  0x1f\n    /* \"#utility.yul\":668:675   */\n  not\n    /* \"#utility.yul\":663:665   */\n  0x1f\n    /* \"#utility.yul\":656:661   */\n  dup4\n    /* \"#utility.yul\":652:666   */\n  add\n    /* \"#utility.yul\":648:676   */\n  and\n    /* \"#utility.yul\":638:676   */\n  swap1\n  pop\n    /* \"#utility.yul\":580:682   */\n  swap2\n  swap1\n  pop\n  jump\t// out\n    /* \"#utility.yul\":688:868   */\ntag_62:\n    /* \"#utility.yul\":736:813   */\n  0x4e487b7100000000000000000000000000000000000000000000000000000000\n    /* \"#utility.yul\":733:734   */\n  0x00\n    /* \"#utility.yul\":726:814   */\n  mstore\n    /* \"#utility.yul\":833:837   */\n  0x41\n    /* \"#utility.yul\":830:831   */\n  0x04\n    /* \"#utility.yul\":823:838   */\n  mstore\n    /* \"#utility.yul\":857:861   */\n  0x24\n    /* \"#utility.yul\":854:855   */\n  0x00\n    /* \"#utility.yul\":847:862   */\n  revert\n    /* \"#utility.yul\":874:1155   */\ntag_63:\n    /* \"#utility.yul\":957:984   */\n  tag_116\n    /* \"#utility.yul\":979:983   */\n  dup3\n    /* \"#utility.yul\":957:984   */\n  tag_61\n  jump\t// in\ntag_116:\n    /* \"#utility.yul\":949:955   */\n  dup2\n    /* \"#utility.yul\":945:985   */\n  add\n    /* \"#utility.yul\":1087:1093   */\n  dup2\n    /* \"#utility.yul\":1075:1085   */\n  dup2\n    /* \"#utility.yul\":1072:1094   */\n  lt\n    /* \"#utility.yul\":1051:1069   */\n  0xffffffffffffffff\n    /* \"#utility.yul\":1039:1049   */\n  dup3\n    /* \"#utility.yul\":1036:1070   */\n  gt\n    /* \"#utility.yul\":1033:1095   */\n  or\n    /* \"#utility.yul\":1030:1118   */\n  iszero\n  tag_117\n  jumpi\n    /* \"#utility.yul\":1098:1116   */\n  tag_118\n  tag_62\n  jump\t// in\ntag_118:\n    /* \"#utility.yul\":1030:1118   */\ntag_117:\n    /* \"#utility.yul\":1138:1148   */\n  dup1\n    /* \"#utility.yul\":1134:1136   */\n  0x40\n    /* \"#utility.yul\":1127:1149   */\n  mstore\n    /* \"#utility.yul\":917:1155   */\n  pop\n    /* \"#utility.yul\":874:1155   */\n  pop\n  pop\n  jump\t// out\n    /* \"#utility.yul\":1161:1290   */\ntag_64:\n    /* \"#utility.yul\":1195:1201   */\n  0x00\n    /* \"#utility.yul\":1222:1242   */\n  tag_120\n  tag_56\n  jump\t// in\ntag_120:\n    /* \"#utility.yul\":1212:1242   */\n  swap1\n  pop\n    /* \"#utility.yul\":1251:1284   */\n  tag_121\n    /* \"#utility.yul\":1279:1283   */\n  dup3\n    /* \"#utility.yul\":1271:1277   */\n  dup3\n    /* \"#utility.yul\":1251:1284   */\n  tag_63\n  jump\t// in\ntag_121:\n    /* \"#utility.yul\":1161:1290   */\n  swap2\n  swap1\n  pop\n  jump\t// out\n    /* \"#utility.yul\":1296:1604   */\ntag_65:\n    /* \"#utility.yul\":1358:1362   */\n  0x00\n    /* \"#utility.yul\":1448:1466   */\n  0xffffffffffffffff\n    /* \"#utility.yul\":1440:1446   */\n  dup3\n    /* \"#utility.yul\":1437:1467   */\n  gt\n    /* \"#utility.yul\":1434:1490   */\n  iszero\n  tag_123\n  jumpi\n    /* \"#utility.yul\":1470:1488   */\n  tag_124\n  tag_62\n  jump\t// in\ntag_124:\n    /* \"#utility.yul\":1434:1490   */\ntag_123:\n    /* \"#utility.yul\":1508:1537   */\n  tag_125\n    /* \"#utility.yul\":1530:1536   */\n  dup3\n    /* \"#utility.yul\":1508:1537   */\n  tag_61\n  jump\t// in\ntag_125:\n    /* \"#utility.yul\":1500:1537   */\n  swap1\n  pop\n    /* \"#utility.yul\":1592:1596   */\n  0x20\n    /* \"#utility.yul\":1586:1590   */\n  dup2\n    /* \"#utility.yul\":1582:1597   */\n  add\n    /* \"#utility.yul\":1574:1597   */\n  swap1\n  pop\n    /* \"#utility.yul\":1296:1604   */\n  swap2\n  swap1\n  pop\n  jump\t// out\n    /* \"#utility.yul\":1610:1749   */\ntag_66:\n    /* \"#utility.yul\":1699:1705   */\n  dup3\n    /* \"#utility.yul\":1694:1697   */\n  dup2\n    /* \"#utility.yul\":1689:1692   */\n  dup4\n    /* \"#utility.yul\":1683:1706   */\n  mcopy\n    /* \"#utility.yul\":1740:1741   */\n  0x00\n    /* \"#utility.yul\":1731:1737   */\n  dup4\n    /* \"#utility.yul\":1726:1729   */\n  dup4\n    /* \"#utility.yul\":1722:1738   */\n  add\n    /* \"#utility.yul\":1715:1742   */\n  mstore\n    /* \"#utility.yul\":1610:1749   */\n  pop\n  pop\n  pop\n  jump\t// out\n    /* \"#utility.yul\":1755:2189   */\ntag_67:\n    /* \"#utility.yul\":1844:1849   */\n  0x00\n    /* \"#utility.yul\":1869:1935   */\n  tag_128\n    /* \"#utility.yul\":1885:1934   */\n  tag_129\n    /* \"#utility.yul\":1927:1933   */\n  dup5\n    /* \"#utility.yul\":1885:1934   */\n  tag_65\n  jump\t// in\ntag_129:\n    /* \"#utility.yul\":1869:1935   */\n  tag_64\n  jump\t// in\ntag_128:\n    /* \"#utility.yul\":1860:1935   */\n  swap1\n  pop\n    /* \"#utility.yul\":1958:1964   */\n  dup3\n    /* \"#utility.yul\":1951:1956   */\n  dup2\n    /* \"#utility.yul\":1944:1965   */\n  mstore\n    /* \"#utility.yul\":1996:2000   */\n  0x20\n    /* \"#utility.yul\":1989:1994   */\n  dup2\n    /* \"#utility.yul\":1985:2001   */\n  add\n    /* \"#utility.yul\":2034:2037   */\n  dup5\n    /* \"#utility.yul\":2025:2031   */\n  dup5\n    /* \"#utility.yul\":2020:2023   */\n  dup5\n    /* \"#utility.yul\":2016:2032   */\n  add\n    /* \"#utility.yul\":2013:2038   */\n  gt\n    /* \"#utility.yul\":2010:2122   */\n  iszero\n  tag_130\n  jumpi\n    /* \"#utility.yul\":2041:2120   */\n  tag_131\n  tag_60\n  jump\t// in\ntag_131:\n    /* \"#utility.yul\":2010:2122   */\ntag_130:\n    /* \"#utility.yul\":2131:2183   */\n  tag_132\n    /* \"#utility.yul\":2176:2182   */\n  dup5\n    /* \"#utility.yul\":2171:2174   */\n  dup3\n    /* \"#utility.yul\":2166:2169   */\n  dup6\n    /* \"#utility.yul\":2131:2183   */\n  tag_66\n  jump\t// in\ntag_132:\n    /* \"#utility.yul\":1850:2189   */\n  pop\n    /* \"#utility.yul\":1755:2189   */\n  swap4\n  swap3\n  pop\n  pop\n  pop\n  jump\t// out\n    /* \"#utility.yul\":2209:2564   */\ntag_68:\n    /* \"#utility.yul\":2276:2281   */\n  0x00\n    /* \"#utility.yul\":2325:2328   */\n  dup3\n    /* \"#utility.yul\":2318:2322   */\n  0x1f\n    /* \"#utility.yul\":2310:2316   */\n  dup4\n    /* \"#utility.yul\":2306:2323   */\n  add\n    /* \"#utility.yul\":2302:2329   */\n  slt\n    /* \"#utility.yul\":2292:2414   */\n  tag_134\n  jumpi\n    /* \"#utility.yul\":2333:2412   */\n  tag_135\n  tag_59\n  jump\t// in\ntag_135:\n    /* \"#utility.yul\":2292:2414   */\ntag_134:\n    /* \"#utility.yul\":2443:2449   */\n  dup2\n    /* \"#utility.yul\":2437:2450   */\n  mload\n    /* \"#utility.yul\":2468:2558   */\n  tag_136\n    /* \"#utility.yul\":2554:2557   */\n  dup5\n    /* \"#utility.yul\":2546:2552   */\n  dup3\n    /* \"#utility.yul\":2539:2543   */\n  0x20\n    /* \"#utility.yul\":2531:2537   */\n  dup7\n    /* \"#utility.yul\":2527:2544   */\n  add\n    /* \"#utility.yul\":2468:2558   */\n  tag_67\n  jump\t// in\ntag_136:\n    /* \"#utility.yul\":2459:2558   */\n  swap2\n  pop\n    /* \"#utility.yul\":2282:2564   */\n  pop\n    /* \"#utility.yul\":2209:2564   */\n  swap3\n  swap2\n  pop\n  pop\n  jump\t// out\n    /* \"#utility.yul\":2570:2647   */\ntag_69:\n    /* \"#utility.yul\":2607:2614   */\n  0x00\n    /* \"#utility.yul\":2636:2641   */\n  dup2\n    /* \"#utility.yul\":2625:2641   */\n  swap1\n  pop\n    /* \"#utility.yul\":2570:2647   */\n  swap2\n  swap1\n  pop\n  jump\t// out\n    /* \"#utility.yul\":2653:2775   */\ntag_70:\n    /* \"#utility.yul\":2726:2750   */\n  tag_139\n    /* \"#utility.yul\":2744:2749   */\n  dup2\n    /* \"#utility.yul\":2726:2750   */\n  tag_69\n  jump\t// in\ntag_139:\n    /* \"#utility.yul\":2719:2724   */\n  dup2\n    /* \"#utility.yul\":2716:2751   */\n  eq\n    /* \"#utility.yul\":2706:2769   */\n  tag_140\n  jumpi\n    /* \"#utility.yul\":2765:2766   */\n  0x00\n    /* \"#utility.yul\":2762:2763   */\n  dup1\n    /* \"#utility.yul\":2755:2767   */\n  revert\n    /* \"#utility.yul\":2706:2769   */\ntag_140:\n    /* \"#utility.yul\":2653:2775   */\n  pop\n  jump\t// out\n    /* \"#utility.yul\":2781:2924   */\ntag_71:\n    /* \"#utility.yul\":2838:2843   */\n  0x00\n    /* \"#utility.yul\":2869:2875   */\n  dup2\n    /* \"#utility.yul\":2863:2876   */\n  mload\n    /* \"#utility.yul\":2854:2876   */\n  swap1\n  pop\n    /* \"#utility.yul\":2885:2918   */\n  tag_142\n    /* \"#utility.yul\":2912:2917   */\n  dup2\n    /* \"#utility.yul\":2885:2918   */\n  tag_70\n  jump\t// in\ntag_142:\n    /* \"#utility.yul\":2781:2924   */\n  swap3\n  swap2\n  pop\n  pop\n  jump\t// out\n    /* \"#utility.yul\":2930:3056   */\ntag_72:\n    /* \"#utility.yul\":2967:2974   */\n  0x00\n    /* \"#utility.yul\":3007:3049   */\n  0xffffffffffffffffffffffffffffffffffffffff\n    /* \"#utility.yul\":3000:3005   */\n  dup3\n    /* \"#utility.yul\":2996:3050   */\n  and\n    /* \"#utility.yul\":2985:3050   */\n  swap1\n  pop\n    /* \"#utility.yul\":2930:3056   */\n  swap2\n  swap1\n  pop\n  jump\t// out\n    /* \"#utility.yul\":3062:3158   */\ntag_73:\n    /* \"#utility.yul\":3099:3106   */\n  0x00\n    /* \"#utility.yul\":3128:3152   */\n  tag_145\n    /* \"#utility.yul\":3146:3151   */\n  dup3\n    /* \"#utility.yul\":3128:3152   */\n  tag_72\n  jump\t// in\ntag_145:\n    /* \"#utility.yul\":3117:3152   */\n  swap1\n  pop\n    /* \"#utility.yul\":3062:3158   */\n  swap2\n  swap1\n  pop\n  jump\t// out\n    /* \"#utility.yul\":3164:3286   */\ntag_74:\n    /* \"#utility.yul\":3237:3261   */\n  tag_147\n    /* \"#utility.yul\":3255:3260   */\n  dup2\n    /* \"#utility.yul\":3237:3261   */\n  tag_73\n  jump\t// in\ntag_147:\n    /* \"#utility.yul\":3230:3235   */\n  dup2\n    /* \"#utility.yul\":3227:3262   */\n  eq\n    /* \"#utility.yul\":3217:3280   */\n  tag_148\n  jumpi\n    /* \"#utility.yul\":3276:3277   */\n  0x00\n    /* \"#utility.yul\":3273:3274   */\n  dup1\n    /* \"#utility.yul\":3266:3278   */\n  revert\n    /* \"#utility.yul\":3217:3280   */\ntag_148:\n    /* \"#utility.yul\":3164:3286   */\n  pop\n  jump\t// out\n    /* \"#utility.yul\":3292:3435   */\ntag_75:\n    /* \"#utility.yul\":3349:3354   */\n  0x00\n    /* \"#utility.yul\":3380:3386   */\n  dup2\n    /* \"#utility.yul\":3374:3387   */\n  mload\n    /* \"#utility.yul\":3365:3387   */\n  swap1\n  pop\n    /* \"#utility.yul\":3396:3429   */\n  tag_150\n    /* \"#utility.yul\":3423:3428   */\n  dup2\n    /* \"#utility.yul\":3396:3429   */\n  tag_74\n  jump\t// in\ntag_150:\n    /* \"#utility.yul\":3292:3435   */\n  swap3\n  swap2\n  pop\n  pop\n  jump\t// out\n    /* \"#utility.yul\":3441:3531   */\ntag_76:\n    /* \"#utility.yul\":3475:3482   */\n  0x00\n    /* \"#utility.yul\":3518:3523   */\n  dup2\n    /* \"#utility.yul\":3511:3524   */\n  iszero\n    /* \"#utility.yul\":3504:3525   */\n  iszero\n    /* \"#utility.yul\":3493:3525   */\n  swap1\n  pop\n    /* \"#utility.yul\":3441:3531   */\n  swap2\n  swap1\n  pop\n  jump\t// out\n    /* \"#utility.yul\":3537:3653   */\ntag_77:\n    /* \"#utility.yul\":3607:3628   */\n  tag_153\n    /* \"#utility.yul\":3622:3627   */\n  dup2\n    /* \"#utility.yul\":3607:3628   */\n  tag_76\n  jump\t// in\ntag_153:\n    /* \"#utility.yul\":3600:3605   */\n  dup2\n    /* \"#utility.yul\":3597:3629   */\n  eq\n    /* \"#utility.yul\":3587:3647   */\n  tag_154\n  jumpi\n    /* \"#utility.yul\":3643:3644   */\n  0x00\n    /* \"#utility.yul\":3640:3641   */\n  dup1\n    /* \"#utility.yul\":3633:3645   */\n  revert\n    /* \"#utility.yul\":3587:3647   */\ntag_154:\n    /* \"#utility.yul\":3537:3653   */\n  pop\n  jump\t// out\n    /* \"#utility.yul\":3659:3796   */\ntag_78:\n    /* \"#utility.yul\":3713:3718   */\n  0x00\n    /* \"#utility.yul\":3744:3750   */\n  dup2\n    /* \"#utility.yul\":3738:3751   */\n  mload\n    /* \"#utility.yul\":3729:3751   */\n  swap1\n  pop\n    /* \"#utility.yul\":3760:3790   */\n  tag_156\n    /* \"#utility.yul\":3784:3789   */\n  dup2\n    /* \"#utility.yul\":3760:3790   */\n  tag_77\n  jump\t// in\ntag_156:\n    /* \"#utility.yul\":3659:3796   */\n  swap3\n  swap2\n  pop\n  pop\n  jump\t// out\n    /* \"#utility.yul\":3802:5119   */\ntag_3:\n    /* \"#utility.yul\":3925:3931   */\n  0x00\n    /* \"#utility.yul\":3933:3939   */\n  dup1\n    /* \"#utility.yul\":3941:3947   */\n  0x00\n    /* \"#utility.yul\":3949:3955   */\n  dup1\n    /* \"#utility.yul\":3957:3963   */\n  0x00\n    /* \"#utility.yul\":4006:4009   */\n  0xa0\n    /* \"#utility.yul\":3994:4003   */\n  dup7\n    /* \"#utility.yul\":3985:3992   */\n  dup9\n    /* \"#utility.yul\":3981:4004   */\n  sub\n    /* \"#utility.yul\":3977:4010   */\n  slt\n    /* \"#utility.yul\":3974:4094   */\n  iszero\n  tag_158\n  jumpi\n    /* \"#utility.yul\":4013:4092   */\n  tag_159\n  tag_57\n  jump\t// in\ntag_159:\n    /* \"#utility.yul\":3974:4094   */\ntag_158:\n    /* \"#utility.yul\":4154:4155   */\n  0x00\n    /* \"#utility.yul\":4143:4152   */\n  dup7\n    /* \"#utility.yul\":4139:4156   */\n  add\n    /* \"#utility.yul\":4133:4157   */\n  mload\n    /* \"#utility.yul\":4184:4202   */\n  0xffffffffffffffff\n    /* \"#utility.yul\":4176:4182   */\n  dup2\n    /* \"#utility.yul\":4173:4203   */\n  gt\n    /* \"#utility.yul\":4170:4287   */\n  iszero\n  tag_160\n  jumpi\n    /* \"#utility.yul\":4206:4285   */\n  tag_161\n  tag_58\n  jump\t// in\ntag_161:\n    /* \"#utility.yul\":4170:4287   */\ntag_160:\n    /* \"#utility.yul\":4311:4385   */\n  tag_162\n    /* \"#utility.yul\":4377:4384   */\n  dup9\n    /* \"#utility.yul\":4368:4374   */\n  dup3\n    /* \"#utility.yul\":4357:4366   */\n  dup10\n    /* \"#utility.yul\":4353:4375   */\n  add\n    /* \"#utility.yul\":4311:4385   */\n  tag_68\n  jump\t// in\ntag_162:\n    /* \"#utility.yul\":4301:4385   */\n  swap6\n  pop\n    /* \"#utility.yul\":4104:4395   */\n  pop\n    /* \"#utility.yul\":4455:4457   */\n  0x20\n    /* \"#utility.yul\":4444:4453   */\n  dup7\n    /* \"#utility.yul\":4440:4458   */\n  add\n    /* \"#utility.yul\":4434:4459   */\n  mload\n    /* \"#utility.yul\":4486:4504   */\n  0xffffffffffffffff\n    /* \"#utility.yul\":4478:4484   */\n  dup2\n    /* \"#utility.yul\":4475:4505   */\n  gt\n    /* \"#utility.yul\":4472:4589   */\n  iszero\n  tag_163\n  jumpi\n    /* \"#utility.yul\":4508:4587   */\n  tag_164\n  tag_58\n  jump\t// in\ntag_164:\n    /* \"#utility.yul\":4472:4589   */\ntag_163:\n    /* \"#utility.yul\":4613:4687   */\n  tag_165\n    /* \"#utility.yul\":4679:4686   */\n  dup9\n    /* \"#utility.yul\":4670:4676   */\n  dup3\n    /* \"#utility.yul\":4659:4668   */\n  dup10\n    /* \"#utility.yul\":4655:4677   */\n  add\n    /* \"#utility.yul\":4613:4687   */\n  tag_68\n  jump\t// in\ntag_165:\n    /* \"#utility.yul\":4603:4687   */\n  swap5\n  pop\n    /* \"#utility.yul\":4405:4697   */\n  pop\n    /* \"#utility.yul\":4736:4738   */\n  0x40\n    /* \"#utility.yul\":4762:4826   */\n  tag_166\n    /* \"#utility.yul\":4818:4825   */\n  dup9\n    /* \"#utility.yul\":4809:4815   */\n  dup3\n    /* \"#utility.yul\":4798:4807   */\n  dup10\n    /* \"#utility.yul\":4794:4816   */\n  add\n    /* \"#utility.yul\":4762:4826   */\n  tag_71\n  jump\t// in\ntag_166:\n    /* \"#utility.yul\":4752:4826   */\n  swap4\n  pop\n    /* \"#utility.yul\":4707:4836   */\n  pop\n    /* \"#utility.yul\":4875:4877   */\n  0x60\n    /* \"#utility.yul\":4901:4965   */\n  tag_167\n    /* \"#utility.yul\":4957:4964   */\n  dup9\n    /* \"#utility.yul\":4948:4954   */\n  dup3\n    /* \"#utility.yul\":4937:4946   */\n  dup10\n    /* \"#utility.yul\":4933:4955   */\n  add\n    /* \"#utility.yul\":4901:4965   */\n  tag_75\n  jump\t// in\ntag_167:\n    /* \"#utility.yul\":4891:4965   */\n  swap3\n  pop\n    /* \"#utility.yul\":4846:4975   */\n  pop\n    /* \"#utility.yul\":5014:5017   */\n  0x80\n    /* \"#utility.yul\":5041:5102   */\n  tag_168\n    /* \"#utility.yul\":5094:5101   */\n  dup9\n    /* \"#utility.yul\":5085:5091   */\n  dup3\n    /* \"#utility.yul\":5074:5083   */\n  dup10\n    /* \"#utility.yul\":5070:5092   */\n  add\n    /* \"#utility.yul\":5041:5102   */\n  tag_78\n  jump\t// in\ntag_168:\n    /* \"#utility.yul\":5031:5102   */\n  swap2\n  pop\n    /* \"#utility.yul\":4985:5112   */\n  pop\n    /* \"#utility.yul\":3802:5119   */\n  swap3\n  swap6\n  pop\n  swap3\n  swap6\n  swap1\n  swap4\n  pop\n  jump\t// out\n    /* \"#utility.yul\":5125:5224   */\ntag_79:\n    /* \"#utility.yul\":5177:5183   */\n  0x00\n    /* \"#utility.yul\":5211:5216   */\n  dup2\n    /* \"#utility.yul\":5205:5217   */\n  mload\n    /* \"#utility.yul\":5195:5217   */\n  swap1\n  pop\n    /* \"#utility.yul\":5125:5224   */\n  swap2\n  swap1\n  pop\n  jump\t// out\n    /* \"#utility.yul\":5230:5410   */\ntag_80:\n    /* \"#utility.yul\":5278:5355   */\n  0x4e487b7100000000000000000000000000000000000000000000000000000000\n    /* \"#utility.yul\":5275:5276   */\n  0x00\n    /* \"#utility.yul\":5268:5356   */\n  mstore\n    /* \"#utility.yul\":5375:5379   */\n  0x22\n    /* \"#utility.yul\":5372:5373   */\n  0x04\n    /* \"#utility.yul\":5365:5380   */\n  mstore\n    /* \"#utility.yul\":5399:5403   */\n  0x24\n    /* \"#utility.yul\":5396:5397   */\n  0x00\n    /* \"#utility.yul\":5389:5404   */\n  revert\n    /* \"#utility.yul\":5416:5736   */\ntag_81:\n    /* \"#utility.yul\":5460:5466   */\n  0x00\n    /* \"#utility.yul\":5497:5498   */\n  0x02\n    /* \"#utility.yul\":5491:5495   */\n  dup3\n    /* \"#utility.yul\":5487:5499   */\n  div\n    /* \"#utility.yul\":5477:5499   */\n  swap1\n  pop\n    /* \"#utility.yul\":5544:5545   */\n  0x01\n    /* \"#utility.yul\":5538:5542   */\n  dup3\n    /* \"#utility.yul\":5534:5546   */\n  and\n    /* \"#utility.yul\":5565:5583   */\n  dup1\n    /* \"#utility.yul\":5555:5636   */\n  tag_172\n  jumpi\n    /* \"#utility.yul\":5621:5625   */\n  0x7f\n    /* \"#utility.yul\":5613:5619   */\n  dup3\n    /* \"#utility.yul\":5609:5626   */\n  and\n    /* \"#utility.yul\":5599:5626   */\n  swap2\n  pop\n    /* \"#utility.yul\":5555:5636   */\ntag_172:\n    /* \"#utility.yul\":5683:5685   */\n  0x20\n    /* \"#utility.yul\":5675:5681   */\n  dup3\n    /* \"#utility.yul\":5672:5686   */\n  lt\n    /* \"#utility.yul\":5652:5670   */\n  dup2\n    /* \"#utility.yul\":5649:5687   */\n  sub\n    /* \"#utility.yul\":5646:5730   */\n  tag_173\n  jumpi\n    /* \"#utility.yul\":5702:5720   */\n  tag_174\n  tag_80\n  jump\t// in\ntag_174:\n    /* \"#utility.yul\":5646:5730   */\ntag_173:\n    /* \"#utility.yul\":5467:5736   */\n  pop\n    /* \"#utility.yul\":5416:5736   */\n  swap2\n  swap1\n  pop\n  jump\t// out\n    /* \"#utility.yul\":5742:5883   */\ntag_82:\n    /* \"#utility.yul\":5791:5795   */\n  0x00\n    /* \"#utility.yul\":5814:5817   */\n  dup2\n    /* \"#utility.yul\":5806:5817   */\n  swap1\n  pop\n    /* \"#utility.yul\":5837:5840   */\n  dup2\n    /* \"#utility.yul\":5834:5835   */\n  0x00\n    /* \"#utility.yul\":5827:5841   */\n  mstore\n    /* \"#utility.yul\":5871:5875   */\n  0x20\n    /* \"#utility.yul\":5868:5869   */\n  0x00\n    /* \"#utility.yul\":5858:5876   */\n  keccak256\n    /* \"#utility.yul\":5850:5876   */\n  swap1\n  pop\n    /* \"#utility.yul\":5742:5883   */\n  swap2\n  swap1\n  pop\n  jump\t// out\n    /* \"#utility.yul\":5889:5982   */\ntag_83:\n    /* \"#utility.yul\":5926:5932   */\n  0x00\n    /* \"#utility.yul\":5973:5975   */\n  0x20\n    /* \"#utility.yul\":5968:5970   */\n  0x1f\n    /* \"#utility.yul\":5961:5966   */\n  dup4\n    /* \"#utility.yul\":5957:5971   */\n  add\n    /* \"#utility.yul\":5953:5976   */\n  div\n    /* \"#utility.yul\":5943:5976   */\n  swap1\n  pop\n    /* \"#utility.yul\":5889:5982   */\n  swap2\n  swap1\n  pop\n  jump\t// out\n    /* \"#utility.yul\":5988:6095   */\ntag_84:\n    /* \"#utility.yul\":6032:6040   */\n  0x00\n    /* \"#utility.yul\":6082:6087   */\n  dup3\n    /* \"#utility.yul\":6076:6080   */\n  dup3\n    /* \"#utility.yul\":6072:6088   */\n  shl\n    /* \"#utility.yul\":6051:6088   */\n  swap1\n  pop\n    /* \"#utility.yul\":5988:6095   */\n  swap3\n  swap2\n  pop\n  pop\n  jump\t// out\n    /* \"#utility.yul\":6101:6494   */\ntag_85:\n    /* \"#utility.yul\":6170:6176   */\n  0x00\n    /* \"#utility.yul\":6220:6221   */\n  0x08\n    /* \"#utility.yul\":6208:6218   */\n  dup4\n    /* \"#utility.yul\":6204:6222   */\n  mul\n    /* \"#utility.yul\":6243:6340   */\n  tag_179\n    /* \"#utility.yul\":6273:6339   */\n  0xffffffffffffffffffffffffffffffffffffffffffffffffffffffffffffffff\n    /* \"#utility.yul\":6262:6271   */\n  dup3\n    /* \"#utility.yul\":6243:6340   */\n  tag_84\n  jump\t// in\ntag_179:\n    /* \"#utility.yul\":6361:6400   */\n  tag_180\n    /* \"#utility.yul\":6391:6399   */\n  dup7\n    /* \"#utility.yul\":6380:6389   */\n  dup4\n    /* \"#utility.yul\":6361:6400   */\n  tag_84\n  jump\t// in\ntag_180:\n    /* \"#utility.yul\":6349:6400   */\n  swap6\n  pop\n    /* \"#utility.yul\":6433:6437   */\n  dup1\n    /* \"#utility.yul\":6429:6438   */\n  not\n    /* \"#utility.yul\":6422:6427   */\n  dup5\n    /* \"#utility.yul\":6418:6439   */\n  and\n    /* \"#utility.yul\":6409:6439   */\n  swap4\n  pop\n    /* \"#utility.yul\":6482:6486   */\n  dup1\n    /* \"#utility.yul\":6472:6480   */\n  dup7\n    /* \"#utility.yul\":6468:6487   */\n  and\n    /* \"#utility.yul\":6461:6466   */\n  dup5\n    /* \"#utility.yul\":6458:6488   */\n  or\n    /* \"#utility.yul\":6448:6488   */\n  swap3\n  pop\n    /* \"#utility.yul\":6177:6494   */\n  pop\n  pop\n    /* \"#utility.yul\":6101:6494   */\n  swap4\n  swap3\n  pop\n  pop\n  pop\n  jump\t// out\n    /* \"#utility.yul\":6500:6560   */\ntag_86:\n    /* \"#utility.yul\":6528:6531   */\n  0x00\n    /* \"#utility.yul\":6549:6554   */\n  dup2\n    /* \"#utility.yul\":6542:6554   */\n  swap1\n  pop\n    /* \"#utility.yul\":6500:6560   */\n  swap2\n  swap1\n  pop\n  jump\t// out\n    /* \"#utility.yul\":6566:6708   */\ntag_87:\n    /* \"#utility.yul\":6616:6625   */\n  0x00\n    /* \"#utility.yul\":6649:6702   */\n  tag_183\n    /* \"#utility.yul\":6667:6701   */\n  tag_184\n    /* \"#utility.yul\":6676:6700   */\n  tag_185\n    /* \"#utility.yul\":6694:6699   */\n  dup5\n    /* \"#utility.yul\":6676:6700   */\n  tag_69\n  jump\t// in\ntag_185:\n    /* \"#utility.yul\":6667:6701   */\n  tag_86\n  jump\t// in\ntag_184:\n    /* \"#utility.yul\":6649:6702   */\n  tag_69\n  jump\t// in\ntag_183:\n    /* \"#utility.yul\":6636:6702   */\n  swap1\n  pop\n    /* \"#utility.yul\":6566:6708   */\n  swap2\n  swap1\n  pop\n  jump\t// out\n    /* \"#utility.yul\":6714:6789   */\ntag_88:\n    /* \"#utility.yul\":6757:6760   */\n  0x00\n    /* \"#utility.yul\":6778:6783   */\n  dup2\n    /* \"#utility.yul\":6771:6783   */\n  swap1\n  pop\n    /* \"#utility.yul\":6714:6789   */\n  swap2\n  swap1\n  pop\n  jump\t// out\n    /* \"#utility.yul\":6795:7064   */\ntag_89:\n    /* \"#utility.yul\":6905:6944   */\n  tag_188\n    /* \"#utility.yul\":6936:6943   */\n  dup4\n    /* \"#utility.yul\":6905:6944   */\n  tag_87\n  jump\t// in\ntag_188:\n    /* \"#utility.yul\":6966:7057   */\n  tag_189\n    /* \"#utility.yul\":7015:7056   */\n  tag_190\n    /* \"#utility.yul\":7039:7055   */\n  dup3\n    /* \"#utility.yul\":7015:7056   */\n  tag_88\n  jump\t// in\ntag_190:\n    /* \"#utility.yul\":7007:7013   */\n  dup5\n    /* \"#utility.yul\":7000:7004   */\n  dup5\n    /* \"#utility.yul\":6994:7005   */\n  sload\n    /* \"#utility.yul\":6966:7057   */\n  tag_85\n  jump\t// in\ntag_189:\n    /* \"#utility.yul\":6960:6964   */\n  dup3\n    /* \"#utility.yul\":6953:7058   */\n  sstore\n    /* \"#utility.yul\":6871:7064   */\n  pop\n    /* \"#utility.yul\":6795:7064   */\n  pop\n  pop\n  pop\n  jump\t// out\n    /* \"#utility.yul\":7070:7143   */\ntag_90:\n    /* \"#utility.yul\":7115:7118   */\n  0x00\n    /* \"#utility.yul\":7070:7143   */\n  swap1\n  jump\t// out\n    /* \"#utility.yul\":7149:7338   */\ntag_91:\n    /* \"#utility.yul\":7226:7258   */\n  tag_193\n  tag_90\n  jump\t// in\ntag_193:\n    /* \"#utility.yul\":7267:7332   */\n  tag_194\n    /* \"#utility.yul\":7325:7331   */\n  dup2\n    /* \"#utility.yul\":7317:7323   */\n  dup5\n    /* \"#utility.yul\":7311:7315   */\n  dup5\n    /* \"#utility.yul\":7267:7332   */\n  tag_89\n  jump\t// in\ntag_194:\n    /* \"#utility.yul\":7202:7338   */\n  pop\n    /* \"#utility.yul\":7149:7338   */\n  pop\n  pop\n  jump\t// out\n    /* \"#utility.yul\":7344:7530   */\ntag_92:\n    /* \"#utility.yul\":7404:7524   */\ntag_196:\n    /* \"#utility.yul\":7421:7424   */\n  dup2\n    /* \"#utility.yul\":7414:7419   */\n  dup2\n    /* \"#utility.yul\":7411:7425   */\n  lt\n    /* \"#utility.yul\":7404:7524   */\n  iszero\n  tag_198\n  jumpi\n    /* \"#utility.yul\":7475:7514   */\n  tag_199\n    /* \"#utility.yul\":7512:7513   */\n  0x00\n    /* \"#utility.yul\":7505:7510   */\n  dup3\n    /* \"#utility.yul\":7475:7514   */\n  tag_91\n  jump\t// in\ntag_199:\n    /* \"#utility.yul\":7448:7449   */\n  0x01\n    /* \"#utility.yul\":7441:7446   */\n  dup2\n    /* \"#utility.yul\":7437:7450   */\n  add\n    /* \"#utility.yul\":7428:7450   */\n  swap1\n  pop\n    /* \"#utility.yul\":7404:7524   */\n  jump(tag_196)\ntag_198:\n    /* \"#utility.yul\":7344:7530   */\n  pop\n  pop\n  jump\t// out\n    /* \"#utility.yul\":7536:8079   */\ntag_93:\n    /* \"#utility.yul\":7637:7639   */\n  0x1f\n    /* \"#utility.yul\":7632:7635   */\n  dup3\n    /* \"#utility.yul\":7629:7640   */\n  gt\n    /* \"#utility.yul\":7626:8072   */\n  iszero\n  tag_201\n  jumpi\n    /* \"#utility.yul\":7671:7709   */\n  tag_202\n    /* \"#utility.yul\":7703:7708   */\n  dup2\n    /* \"#utility.yul\":7671:7709   */\n  tag_82\n  jump\t// in\ntag_202:\n    /* \"#utility.yul\":7755:7784   */\n  tag_203\n    /* \"#utility.yul\":7773:7783   */\n  dup5\n    /* \"#utility.yul\":7755:7784   */\n  tag_83\n  jump\t// in\ntag_203:\n    /* \"#utility.yul\":7745:7753   */\n  dup2\n    /* \"#utility.yul\":7741:7785   */\n  add\n    /* \"#utility.yul\":7938:7940   */\n  0x20\n    /* \"#utility.yul\":7926:7936   */\n  dup6\n    /* \"#utility.yul\":7923:7941   */\n  lt\n    /* \"#utility.yul\":7920:7969   */\n  iszero\n  tag_204\n  jumpi\n    /* \"#utility.yul\":7959:7967   */\n  dup2\n    /* \"#utility.yul\":7944:7967   */\n  swap1\n  pop\n    /* \"#utility.yul\":7920:7969   */\ntag_204:\n    /* \"#utility.yul\":7982:8062   */\n  tag_205\n    /* \"#utility.yul\":8038:8060   */\n  tag_206\n    /* \"#utility.yul\":8056:8059   */\n  dup6\n    /* \"#utility.yul\":8038:8060   */\n  tag_83\n  jump\t// in\ntag_206:\n    /* \"#utility.yul\":8028:8036   */\n  dup4\n    /* \"#utility.yul\":8024:8061   */\n  add\n    /* \"#utility.yul\":8011:8022   */\n  dup3\n    /* \"#utility.yul\":7982:8062   */\n  tag_92\n  jump\t// in\ntag_205:\n    /* \"#utility.yul\":7641:8072   */\n  pop\n  pop\n    /* \"#utility.yul\":7626:8072   */\ntag_201:\n    /* \"#utility.yul\":7536:8079   */\n  pop\n  pop\n  pop\n  jump\t// out\n    /* \"#utility.yul\":8085:8202   */\ntag_94:\n    /* \"#utility.yul\":8139:8147   */\n  0x00\n    /* \"#utility.yul\":8189:8194   */\n  dup3\n    /* \"#utility.yul\":8183:8187   */\n  dup3\n    /* \"#utility.yul\":8179:8195   */\n  shr\n    /* \"#utility.yul\":8158:8195   */\n  swap1\n  pop\n    /* \"#utility.yul\":8085:8202   */\n  swap3\n  swap2\n  pop\n  pop\n  jump\t// out\n    /* \"#utility.yul\":8208:8377   */\ntag_95:\n    /* \"#utility.yul\":8252:8258   */\n  0x00\n    /* \"#utility.yul\":8285:8336   */\n  tag_209\n    /* \"#utility.yul\":8333:8334   */\n  0x00\n    /* \"#utility.yul\":8329:8335   */\n  not\n    /* \"#utility.yul\":8321:8326   */\n  dup5\n    /* \"#utility.yul\":8318:8319   */\n  0x08\n    /* \"#utility.yul\":8314:8327   */\n  mul\n    /* \"#utility.yul\":8285:8336   */\n  tag_94\n  jump\t// in\ntag_209:\n    /* \"#utility.yul\":8281:8337   */\n  not\n    /* \"#utility.yul\":8366:8370   */\n  dup1\n    /* \"#utility.yul\":8360:8364   */\n  dup4\n    /* \"#utility.yul\":8356:8371   */\n  and\n    /* \"#utility.yul\":8346:8371   */\n  swap2\n  pop\n    /* \"#utility.yul\":8259:8377   */\n  pop\n    /* \"#utility.yul\":8208:8377   */\n  swap3\n  swap2\n  pop\n  pop\n  jump\t// out\n    /* \"#utility.yul\":8382:8677   */\ntag_96:\n    /* \"#utility.yul\":8458:8462   */\n  0x00\n    /* \"#utility.yul\":8604:8633   */\n  tag_211\n    /* \"#utility.yul\":8629:8632   */\n  dup4\n    /* \"#utility.yul\":8623:8627   */\n  dup4\n    /* \"#utility.yul\":8604:8633   */\n  tag_95\n  jump\t// in\ntag_211:\n    /* \"#utility.yul\":8596:8633   */\n  swap2\n  pop\n    /* \"#utility.yul\":8666:8669   */\n  dup3\n    /* \"#utility.yul\":8663:8664   */\n  0x02\n    /* \"#utility.yul\":8659:8670   */\n  mul\n    /* \"#utility.yul\":8653:8657   */\n  dup3\n    /* \"#utility.yul\":8650:8671   */\n  or\n    /* \"#utility.yul\":8642:8671   */\n  swap1\n  pop\n    /* \"#utility.yul\":8382:8677   */\n  swap3\n  swap2\n  pop\n  pop\n  jump\t// out\n    /* \"#utility.yul\":8682:10077   */\ntag_14:\n    /* \"#utility.yul\":8799:8836   */\n  tag_213\n    /* \"#utility.yul\":8832:8835   */\n  dup3\n    /* \"#utility.yul\":8799:8836   */\n  tag_79\n  jump\t// in\ntag_213:\n    /* \"#utility.yul\":8901:8919   */\n  0xffffffffffffffff\n    /* \"#utility.yul\":8893:8899   */\n  dup2\n    /* \"#utility.yul\":8890:8920   */\n  gt\n    /* \"#utility.yul\":8887:8943   */\n  iszero\n  tag_214\n  jumpi\n    /* \"#utility.yul\":8923:8941   */\n  tag_215\n  tag_62\n  jump\t// in\ntag_215:\n    /* \"#utility.yul\":8887:8943   */\ntag_214:\n    /* \"#utility.yul\":8967:9005   */\n  tag_216\n    /* \"#utility.yul\":8999:9003   */\n  dup3\n    /* \"#utility.yul\":8993:9004   */\n  sload\n    /* \"#utility.yul\":8967:9005   */\n  tag_81\n  jump\t// in\ntag_216:\n    /* \"#utility.yul\":9052:9119   */\n  tag_217\n    /* \"#utility.yul\":9112:9118   */\n  dup3\n    /* \"#utility.yul\":9104:9110   */\n  dup3\n    /* \"#utility.yul\":9098:9102   */\n  dup6\n    /* \"#utility.yul\":9052:9119   */\n  tag_93\n  jump\t// in\ntag_217:\n    /* \"#utility.yul\":9146:9147   */\n  0x00\n    /* \"#utility.yul\":9170:9174   */\n  0x20\n    /* \"#utility.yul\":9157:9174   */\n  swap1\n  pop\n    /* \"#utility.yul\":9202:9204   */\n  0x1f\n    /* \"#utility.yul\":9194:9200   */\n  dup4\n    /* \"#utility.yul\":9191:9205   */\n  gt\n    /* \"#utility.yul\":9219:9220   */\n  0x01\n    /* \"#utility.yul\":9214:9832   */\n  dup2\n  eq\n  tag_219\n  jumpi\n    /* \"#utility.yul\":9876:9877   */\n  0x00\n    /* \"#utility.yul\":9893:9899   */\n  dup5\n    /* \"#utility.yul\":9890:9967   */\n  iszero\n  tag_220\n  jumpi\n    /* \"#utility.yul\":9942:9951   */\n  dup3\n    /* \"#utility.yul\":9937:9940   */\n  dup8\n    /* \"#utility.yul\":9933:9952   */\n  add\n    /* \"#utility.yul\":9927:9953   */\n  mload\n    /* \"#utility.yul\":9918:9953   */\n  swap1\n  pop\n    /* \"#utility.yul\":9890:9967   */\ntag_220:\n    /* \"#utility.yul\":9993:10060   */\n  tag_221\n    /* \"#utility.yul\":10053:10059   */\n  dup6\n    /* \"#utility.yul\":10046:10051   */\n  dup3\n    /* \"#utility.yul\":9993:10060   */\n  tag_96\n  jump\t// in\ntag_221:\n    /* \"#utility.yul\":9987:9991   */\n  dup7\n    /* \"#utility.yul\":9980:10061   */\n  sstore\n    /* \"#utility.yul\":9849:10071   */\n  pop\n    /* \"#utility.yul\":9184:10071   */\n  jump(tag_218)\n    /* \"#utility.yul\":9214:9832   */\ntag_219:\n    /* \"#utility.yul\":9266:9270   */\n  0x1f\n    /* \"#utility.yul\":9262:9271   */\n  not\n    /* \"#utility.yul\":9254:9260   */\n  dup5\n    /* \"#utility.yul\":9250:9272   */\n  and\n    /* \"#utility.yul\":9300:9337   */\n  tag_222\n    /* \"#utility.yul\":9332:9336   */\n  dup7\n    /* \"#utility.yul\":9300:9337   */\n  tag_82\n  jump\t// in\ntag_222:\n    /* \"#utility.yul\":9359:9360   */\n  0x00\n    /* \"#utility.yul\":9373:9581   */\ntag_223:\n    /* \"#utility.yul\":9387:9394   */\n  dup3\n    /* \"#utility.yul\":9384:9385   */\n  dup2\n    /* \"#utility.yul\":9381:9395   */\n  lt\n    /* \"#utility.yul\":9373:9581   */\n  iszero\n  tag_225\n  jumpi\n    /* \"#utility.yul\":9466:9475   */\n  dup5\n    /* \"#utility.yul\":9461:9464   */\n  dup10\n    /* \"#utility.yul\":9457:9476   */\n  add\n    /* \"#utility.yul\":9451:9477   */\n  mload\n    /* \"#utility.yul\":9443:9449   */\n  dup3\n    /* \"#utility.yul\":9436:9478   */\n  sstore\n    /* \"#utility.yul\":9517:9518   */\n  0x01\n    /* \"#utility.yul\":9509:9515   */\n  dup3\n    /* \"#utility.yul\":9505:9519   */\n  add\n    /* \"#utility.yul\":9495:9519   */\n  swap2\n  pop\n    /* \"#utility.yul\":9564:9566   */\n  0x20\n    /* \"#utility.yul\":9553:9562   */\n  dup6\n    /* \"#utility.yul\":9549:9567   */\n  add\n    /* \"#utility.yul\":9536:9567   */\n  swap5\n  pop\n    /* \"#utility.yul\":9410:9414   */\n  0x20\n    /* \"#utility.yul\":9407:9408   */\n  dup2\n    /* \"#utility.yul\":9403:9415   */\n  add\n    /* \"#utility.yul\":9398:9415   */\n  swap1\n  pop\n    /* \"#utility.yul\":9373:9581   */\n  jump(tag_223)\ntag_225:\n    /* \"#utility.yul\":9609:9615   */\n  dup7\n    /* \"#utility.yul\":9600:9607   */\n  dup4\n    /* \"#utility.yul\":9597:9616   */\n  lt\n    /* \"#utility.yul\":9594:9773   */\n  iszero\n  tag_226\n  jumpi\n    /* \"#utility.yul\":9667:9676   */\n  dup5\n    /* \"#utility.yul\":9662:9665   */\n  dup10\n    /* \"#utility.yul\":9658:9677   */\n  add\n    /* \"#utility.yul\":9652:9678   */\n  mload\n    /* \"#utility.yul\":9710:9758   */\n  tag_227\n    /* \"#utility.yul\":9752:9756   */\n  0x1f\n    /* \"#utility.yul\":9744:9750   */\n  dup10\n    /* \"#utility.yul\":9740:9757   */\n  and\n    /* \"#utility.yul\":9729:9738   */\n  dup3\n    /* \"#utility.yul\":9710:9758   */\n  tag_95\n  jump\t// in\ntag_227:\n    /* \"#utility.yul\":9702:9708   */\n  dup4\n    /* \"#utility.yul\":9695:9759   */\n  sstore\n    /* \"#utility.yul\":9617:9773   */\n  pop\n    /* \"#utility.yul\":9594:9773   */\ntag_226:\n    /* \"#utility.yul\":9819:9820   */\n  0x01\n    /* \"#utility.yul\":9815:9816   */\n  0x02\n    /* \"#utility.yul\":9807:9813   */\n  dup9\n    /* \"#utility.yul\":9803:9817   */\n  mul\n    /* \"#utility.yul\":9799:9821   */\n  add\n    /* \"#utility.yul\":9793:9797   */\n  dup9\n    /* \"#utility.yul\":9786:9822   */\n  sstore\n    /* \"#utility.yul\":9221:9832   */\n  pop\n  pop\n  pop\n    /* \"#utility.yul\":9184:10071   */\ntag_218:\n  pop\n    /* \"#utility.yul\":8774:10077   */\n  pop\n  pop\n  pop\n    /* \"#utility.yul\":8682:10077   */\n  pop\n  pop\n  jump\t// out\n    /* \"#utility.yul\":10083:10252   */\ntag_97:\n    /* \"#utility.yul\":10167:10178   */\n  0x00\n    /* \"#utility.yul\":10201:10207   */\n  dup3\n    /* \"#utility.yul\":10196:10199   */\n  dup3\n    /* \"#utility.yul\":10189:10208   */\n  mstore\n    /* \"#utility.yul\":10241:10245   */\n  0x20\n    /* \"#utility.yul\":10236:10239   */\n  dup3\n    /* \"#utility.yul\":10232:10246   */\n  add\n    /* \"#utility.yul\":10217:10246   */\n  swap1\n  pop\n    /* \"#utility.yul\":10083:10252   */\n  swap3\n  swap2\n  pop\n  pop\n  jump\t// out\n    /* \"#utility.yul\":10258:10426   */\ntag_98:\n    /* \"#utility.yul\":10398:10418   */\n  0x584170703a206e6f207a65726f206f6d6e690000000000000000000000000000\n    /* \"#utility.yul\":10394:10395   */\n  0x00\n    /* \"#utility.yul\":10386:10392   */\n  dup3\n    /* \"#utility.yul\":10382:10396   */\n  add\n    /* \"#utility.yul\":10375:10419   */\n  mstore\n    /* \"#utility.yul\":10258:10426   */\n  pop\n  jump\t// out\n    /* \"#utility.yul\":10432:10798   */\ntag_99:\n    /* \"#utility.yul\":10574:10577   */\n  0x00\n    /* \"#utility.yul\":10595:10662   */\n  tag_231\n    /* \"#utility.yul\":10659:10661   */\n  0x12\n    /* \"#utility.yul\":10654:10657   */\n  dup4\n    /* \"#utility.yul\":10595:10662   */\n  tag_97\n  jump\t// in\ntag_231:\n    /* \"#utility.yul\":10588:10662   */\n  swap2\n  pop\n    /* \"#utility.yul\":10671:10764   */\n  tag_232\n    /* \"#utility.yul\":10760:10763   */\n  dup3\n    /* \"#utility.yul\":10671:10764   */\n  tag_98\n  jump\t// in\ntag_232:\n    /* \"#utility.yul\":10789:10791   */\n  0x20\n    /* \"#utility.yul\":10784:10787   */\n  dup3\n    /* \"#utility.yul\":10780:10792   */\n  add\n    /* \"#utility.yul\":10773:10792   */\n  swap1\n  pop\n    /* \"#utility.yul\":10432:10798   */\n  swap2\n  swap1\n  pop\n  jump\t// out\n    /* \"#utility.yul\":10804:11223   */\ntag_26:\n    /* \"#utility.yul\":10970:10974   */\n  0x00\n    /* \"#utility.yul\":11008:11010   */\n  0x20\n    /* \"#utility.yul\":10997:11006   */\n  dup3\n    /* \"#utility.yul\":10993:11011   */\n  add\n    /* \"#utility.yul\":10985:11011   */\n  swap1\n  pop\n    /* \"#utility.yul\":11057:11066   */\n  dup2\n    /* \"#utility.yul\":11051:11055   */\n  dup2\n    /* \"#utility.yul\":11047:11067   */\n  sub\n    /* \"#utility.yul\":11043:11044   */\n  0x00\n    /* \"#utility.yul\":11032:11041   */\n  dup4\n    /* \"#utility.yul\":11028:11045   */\n  add\n    /* \"#utility.yul\":11021:11068   */\n  mstore\n    /* \"#utility.yul\":11085:11216   */\n  tag_234\n    /* \"#utility.yul\":11211:11215   */\n  dup2\n    /* \"#utility.yul\":11085:11216   */\n  tag_99\n  jump\t// in\ntag_234:\n    /* \"#utility.yul\":11077:11216   */\n  swap1\n  pop\n    /* \"#utility.yul\":10804:11223   */\n  swap2\n  swap1\n  pop\n  jump\t// out\n    /* \"#utility.yul\":11229:11347   */\ntag_100:\n    /* \"#utility.yul\":11316:11340   */\n  tag_236\n    /* \"#utility.yul\":11334:11339   */\n  dup2\n    /* \"#utility.yul\":11316:11340   */\n  tag_73\n  jump\t// in\ntag_236:\n    /* \"#utility.yul\":11311:11314   */\n  dup3\n    /* \"#utility.yul\":11304:11341   */\n  mstore\n    /* \"#utility.yul\":11229:11347   */\n  pop\n  pop\n  jump\t// out\n    /* \"#utility.yul\":11353:11575   */\ntag_28:\n    /* \"#utility.yul\":11446:11450   */\n  0x00\n    /* \"#utility.yul\":11484:11486   */\n  0x20\n    /* \"#utility.yul\":11473:11482   */\n  dup3\n    /* \"#utility.yul\":11469:11487   */\n  add\n    /* \"#utility.yul\":11461:11487   */\n  swap1\n  pop\n    /* \"#utility.yul\":11497:11568   */\n  tag_238\n    /* \"#utility.yul\":11565:11566   */\n  0x00\n    /* \"#utility.yul\":11554:11563   */\n  dup4\n    /* \"#utility.yul\":11550:11567   */\n  add\n    /* \"#utility.yul\":11541:11547   */\n  dup5\n    /* \"#utility.yul\":11497:11568   */\n  tag_100\n  jump\t// in\ntag_238:\n    /* \"#utility.yul\":11353:11575   */\n  swap3\n  swap2\n  pop\n  pop\n  jump\t// out\n    /* \"#utility.yul\":11581:11755   */\ntag_101:\n    /* \"#utility.yul\":11721:11747   */\n  0x584170703a20696e76616c696420636f6e66206c6576656c0000000000000000\n    /* \"#utility.yul\":11717:11718   */\n  0x00\n    /* \"#utility.yul\":11709:11715   */\n  dup3\n    /* \"#utility.yul\":11705:11719   */\n  add\n    /* \"#utility.yul\":11698:11748   */\n  mstore\n    /* \"#utility.yul\":11581:11755   */\n  pop\n  jump\t// out\n    /* \"#utility.yul\":11761:12127   */\ntag_102:\n    /* \"#utility.yul\":11903:11906   */\n  0x00\n    /* \"#utility.yul\":11924:11991   */\n  tag_241\n    /* \"#utility.yul\":11988:11990   */\n  0x18\n    /* \"#utility.yul\":11983:11986   */\n  dup4\n    /* \"#utility.yul\":11924:11991   */\n  tag_97\n  jump\t// in\ntag_241:\n    /* \"#utility.yul\":11917:11991   */\n  swap2\n  pop\n    /* \"#utility.yul\":12000:12093   */\n  tag_242\n    /* \"#utility.yul\":12089:12092   */\n  dup3\n    /* \"#utility.yul\":12000:12093   */\n  tag_101\n  jump\t// in\ntag_242:\n    /* \"#utility.yul\":12118:12120   */\n  0x20\n    /* \"#utility.yul\":12113:12116   */\n  dup3\n    /* \"#utility.yul\":12109:12121   */\n  add\n    /* \"#utility.yul\":12102:12121   */\n  swap1\n  pop\n    /* \"#utility.yul\":11761:12127   */\n  swap2\n  swap1\n  pop\n  jump\t// out\n    /* \"#utility.yul\":12133:12552   */\ntag_34:\n    /* \"#utility.yul\":12299:12303   */\n  0x00\n    /* \"#utility.yul\":12337:12339   */\n  0x20\n    /* \"#utility.yul\":12326:12335   */\n  dup3\n    /* \"#utility.yul\":12322:12340   */\n  add\n    /* \"#utility.yul\":12314:12340   */\n  swap1\n  pop\n    /* \"#utility.yul\":12386:12395   */\n  dup2\n    /* \"#utility.yul\":12380:12384   */\n  dup2\n    /* \"#utility.yul\":12376:12396   */\n  sub\n    /* \"#utility.yul\":12372:12373   */\n  0x00\n    /* \"#utility.yul\":12361:12370   */\n  dup4\n    /* \"#utility.yul\":12357:12374   */\n  add\n    /* \"#utility.yul\":12350:12397   */\n  mstore\n    /* \"#utility.yul\":12414:12545   */\n  tag_244\n    /* \"#utility.yul\":12540:12544   */\n  dup2\n    /* \"#utility.yul\":12414:12545   */\n  tag_102\n  jump\t// in\ntag_244:\n    /* \"#utility.yul\":12406:12545   */\n  swap1\n  pop\n    /* \"#utility.yul\":12133:12552   */\n  swap2\n  swap1\n  pop\n  jump\t// out\n    /* \"#utility.yul\":12558:12644   */\ntag_103:\n    /* \"#utility.yul\":12593:12600   */\n  0x00\n    /* \"#utility.yul\":12633:12637   */\n  0xff\n    /* \"#utility.yul\":12626:12631   */\n  dup3\n    /* \"#utility.yul\":12622:12638   */\n  and\n    /* \"#utility.yul\":12611:12638   */\n  swap1\n  pop\n    /* \"#utility.yul\":12558:12644   */\n  swap2\n  swap1\n  pop\n  jump\t// out\n    /* \"#utility.yul\":12650:12762   */\ntag_104:\n    /* \"#utility.yul\":12733:12755   */\n  tag_247\n    /* \"#utility.yul\":12749:12754   */\n  dup2\n    /* \"#utility.yul\":12733:12755   */\n  tag_103\n  jump\t// in\ntag_247:\n    /* \"#utility.yul\":12728:12731   */\n  dup3\n    /* \"#utility.yul\":12721:12756   */\n  mstore\n    /* \"#utility.yul\":12650:12762   */\n  pop\n  pop\n  jump\t// out\n    /* \"#utility.yul\":12768:12982   */\ntag_36:\n    /* \"#utility.yul\":12857:12861   */\n  0x00\n    /* \"#utility.yul\":12895:12897   */\n  0x20\n    /* \"#utility.yul\":12884:12893   */\n  dup3\n    /* \"#utility.yul\":12880:12898   */\n  add\n    /* \"#utility.yul\":12872:12898   */\n  swap1\n  pop\n    /* \"#utility.yul\":12908:12975   */\n  tag_249\n    /* \"#utility.yul\":12972:12973   */\n  0x00\n    /* \"#utility.yul\":12961:12970   */\n  dup4\n    /* \"#utility.yul\":12957:12974   */\n  add\n    /* \"#utility.yul\":12948:12954   */\n  dup5\n    /* \"#utility.yul\":12908:12975   */\n  tag_104\n  jump\t// in\ntag_249:\n    /* \"#utility.yul\":12768:12982   */\n  swap3\n  swap2\n  pop\n  pop\n  jump\t// out\n    /* \"#utility.yul\":12988:13168   */\ntag_105:\n    /* \"#utility.yul\":13036:13113   */\n  0x4e487b7100000000000000000000000000000000000000000000000000000000\n    /* \"#utility.yul\":13033:13034   */\n  0x00\n    /* \"#utility.yul\":13026:13114   */\n  mstore\n    /* \"#utility.yul\":13133:13137   */\n  0x11\n    /* \"#utility.yul\":13130:13131   */\n  0x04\n    /* \"#utility.yul\":13123:13138   */\n  mstore\n    /* \"#utility.yul\":13157:13161   */\n  0x24\n    /* \"#utility.yul\":13154:13155   */\n  0x00\n    /* \"#utility.yul\":13147:13162   */\n  revert\n    /* \"#utility.yul\":13174:13365   */\ntag_47:\n    /* \"#utility.yul\":13214:13217   */\n  0x00\n    /* \"#utility.yul\":13233:13253   */\n  tag_252\n    /* \"#utility.yul\":13251:13252   */\n  dup3\n    /* \"#utility.yul\":13233:13253   */\n  tag_69\n  jump\t// in\ntag_252:\n    /* \"#utility.yul\":13228:13253   */\n  swap2\n  pop\n    /* \"#utility.yul\":13267:13287   */\n  tag_253\n    /* \"#utility.yul\":13285:13286   */\n  dup4\n    /* \"#utility.yul\":13267:13287   */\n  tag_69\n  jump\t// in\ntag_253:\n    /* \"#utility.yul\":13262:13287   */\n  swap3\n  pop\n    /* \"#utility.yul\":13310:13311   */\n  dup3\n    /* \"#utility.yul\":13307:13308   */\n  dup3\n    /* \"#utility.yul\":13303:13312   */\n  add\n    /* \"#utility.yul\":13296:13312   */\n  swap1\n  pop\n    /* \"#utility.yul\":13331:13334   */\n  dup1\n    /* \"#utility.yul\":13328:13329   */\n  dup3\n    /* \"#utility.yul\":13325:13335   */\n  gt\n    /* \"#utility.yul\":13322:13358   */\n  iszero\n  tag_254\n  jumpi\n    /* \"#utility.yul\":13338:13356   */\n  tag_255\n  tag_105\n  jump\t// in\ntag_255:\n    /* \"#utility.yul\":13322:13358   */\ntag_254:\n    /* \"#utility.yul\":13174:13365   */\n  swap3\n  swap2\n  pop\n  pop\n  jump\t// out\n    /* \"#utility.yul\":13371:13489   */\ntag_106:\n    /* \"#utility.yul\":13458:13482   */\n  tag_257\n    /* \"#utility.yul\":13476:13481   */\n  dup2\n    /* \"#utility.yul\":13458:13482   */\n  tag_69\n  jump\t// in\ntag_257:\n    /* \"#utility.yul\":13453:13456   */\n  dup3\n    /* \"#utility.yul\":13446:13483   */\n  mstore\n    /* \"#utility.yul\":13371:13489   */\n  pop\n  pop\n  jump\t// out\n    /* \"#utility.yul\":13495:13937   */\ntag_51:\n    /* \"#utility.yul\":13644:13648   */\n  0x00\n    /* \"#utility.yul\":13682:13684   */\n  0x60\n    /* \"#utility.yul\":13671:13680   */\n  dup3\n    /* \"#utility.yul\":13667:13685   */\n  add\n    /* \"#utility.yul\":13659:13685   */\n  swap1\n  pop\n    /* \"#utility.yul\":13695:13766   */\n  tag_259\n    /* \"#utility.yul\":13763:13764   */\n  0x00\n    /* \"#utility.yul\":13752:13761   */\n  dup4\n    /* \"#utility.yul\":13748:13765   */\n  add\n    /* \"#utility.yul\":13739:13745   */\n  dup7\n    /* \"#utility.yul\":13695:13766   */\n  tag_100\n  jump\t// in\ntag_259:\n    /* \"#utility.yul\":13776:13848   */\n  tag_260\n    /* \"#utility.yul\":13844:13846   */\n  0x20\n    /* \"#utility.yul\":13833:13842   */\n  dup4\n    /* \"#utility.yul\":13829:13847   */\n  add\n    /* \"#utility.yul\":13820:13826   */\n  dup6\n    /* \"#utility.yul\":13776:13848   */\n  tag_106\n  jump\t// in\ntag_260:\n    /* \"#utility.yul\":13858:13930   */\n  tag_261\n    /* \"#utility.yul\":13926:13928   */\n  0x40\n    /* \"#utility.yul\":13915:13924   */\n  dup4\n    /* \"#utility.yul\":13911:13929   */\n  add\n    /* \"#utility.yul\":13902:13908   */\n  dup5\n    /* \"#utility.yul\":13858:13930   */\n  tag_106\n  jump\t// in\ntag_261:\n    /* \"#utility.yul\":13495:13937   */\n  swap5\n  swap4\n  pop\n  pop\n  pop\n  pop\n  jump\t// out\n    /* \"#utility.yul\":13943:14165   */\ntag_55:\n    /* \"#utility.yul\":14036:14040   */\n  0x00\n    /* \"#utility.yul\":14074:14076   */\n  0x20\n    /* \"#utility.yul\":14063:14072   */\n  dup3\n    /* \"#utility.yul\":14059:14077   */\n  add\n    /* \"#utility.yul\":14051:14077   */\n  swap1\n  pop\n    /* \"#utility.yul\":14087:14158   */\n  tag_263\n    /* \"#utility.yul\":14155:14156   */\n  0x00\n    /* \"#utility.yul\":14144:14153   */\n  dup4\n    /* \"#utility.yul\":14140:14157   */\n  add\n    /* \"#utility.yul\":14131:14137   */\n  dup5\n    /* \"#utility.yul\":14087:14158   */\n  tag_106\n  jump\t// in\ntag_263:\n    /* \"#utility.yul\":13943:14165   */\n  swap3\n  swap2\n  pop\n  pop\n  jump\t// out\n    /* \"contracts/token/wstf token /contracts/token/ERC20/implementation.sol\":128:1210  contract MyOmniToken is OmniERC20 {... */\ntag_22:\n  dataSize(sub_0)\n  dup1\n  dataOffset(sub_0)\n  0x00\n  codecopy\n  0x00\n  return\nstop\n\nsub_0: assembly {\n        /* \"contracts/token/wstf token /contracts/token/ERC20/implementation.sol\":128:1210  contract MyOmniToken is OmniERC20 {... */\n      mstore(0x40, 0x80)\n      jumpi(tag_1, lt(calldatasize, 0x04))\n      shr(0xe0, calldataload(0x00))\n      dup1\n      0x4a536a06\n      gt\n      tag_16\n      jumpi\n      dup1\n      0x95d89b41\n      gt\n      tag_17\n      jumpi\n      dup1\n      0x95d89b41\n      eq\n      tag_12\n      jumpi\n      dup1\n      0xa9059cbb\n      eq\n      tag_13\n      jumpi\n      dup1\n      0xbdb3c8e6\n      eq\n      tag_14\n      jumpi\n      dup1\n      0xdd62ed3e\n      eq\n      tag_15\n      jumpi\n      jump(tag_1)\n    tag_17:\n      dup1\n      0x4a536a06\n      eq\n      tag_9\n      jumpi\n      dup1\n      0x70a08231\n      eq\n      tag_10\n      jumpi\n      dup1\n      0x74eeb847\n      eq\n      tag_11\n      jumpi\n      jump(tag_1)\n    tag_16:\n      dup1\n      0x23b872dd\n      gt\n      tag_18\n      jumpi\n      dup1\n      0x23b872dd\n      eq\n      tag_5\n      jumpi\n      dup1\n      0x313ce567\n      eq\n      tag_6\n      jumpi\n      dup1\n      0x39acf9f1\n      eq\n      tag_7\n      jumpi\n      dup1\n      0x40c10f19\n      eq\n      tag_8\n      jumpi\n      jump(tag_1)\n    tag_18:\n      dup1\n      0x06fdde03\n      eq\n      tag_2\n      jumpi\n      dup1\n      0x095ea7b3\n      eq\n      tag_3\n      jumpi\n      dup1\n      0x18160ddd\n      eq\n      tag_4\n      jumpi\n    tag_1:\n      0x00\n      dup1\n      revert\n        /* \"contracts/token/wstf token /contracts/token/ERC20/OmniERC20.sol\":942:1040  function name() public view virtual override returns (string memory) {... */\n    tag_2:\n      callvalue\n      dup1\n      iszero\n      tag_19\n      jumpi\n      0x00\n      dup1\n      revert\n    tag_19:\n      pop\n      tag_20\n      tag_21\n      jump\t// in\n    tag_20:\n      mload(0x40)\n      tag_22\n      swap2\n      swap1\n      tag_23\n      jump\t// in\n    tag_22:\n      mload(0x40)\n      dup1\n      swap2\n      sub\n      swap1\n      return\n        /* \"contracts/token/wstf token /contracts/token/ERC20/OmniERC20.sol\":1650:1845  function approve(address spender, uint256 value) public virtual override returns (bool) {... */\n    tag_3:\n      callvalue\n      dup1\n      iszero\n      tag_24\n      jumpi\n      0x00\n      dup1\n      revert\n    tag_24:\n      pop\n      tag_25\n      0x04\n      dup1\n      calldatasize\n      sub\n      dup2\n      add\n      swap1\n      tag_26\n      swap2\n      swap1\n      tag_27\n      jump\t// in\n    tag_26:\n      tag_28\n      jump\t// in\n    tag_25:\n      mload(0x40)\n      tag_29\n      swap2\n      swap1\n      tag_30\n      jump\t// in\n    tag_29:\n      mload(0x40)\n      dup1\n      swap2\n      sub\n      swap1\n      return\n        /* \"contracts/token/wstf token /contracts/token/ERC20/OmniERC20.sol\":1251:1357  function totalSupply() public view virtual override returns (uint256) {... */\n    tag_4:\n      callvalue\n      dup1\n      iszero\n      tag_31\n      jumpi\n      0x00\n      dup1\n      revert\n    tag_31:\n      pop\n      tag_32\n      tag_33\n      jump\t// in\n    tag_32:\n      mload(0x40)\n      tag_34\n      swap2\n      swap1\n      tag_35\n      jump\t// in\n    tag_34:\n      mload(0x40)\n      dup1\n      swap2\n      sub\n      swap1\n      return\n        /* \"contracts/token/wstf token /contracts/token/ERC20/OmniERC20.sol\":1851:2104  function transferFrom(address from, address to, uint256 value) public virtual override returns (bool) {... */\n    tag_5:\n      callvalue\n      dup1\n      iszero\n      tag_36\n      jumpi\n      0x00\n      dup1\n      revert\n    tag_36:\n      pop\n      tag_37\n      0x04\n      dup1\n      calldatasize\n      sub\n      dup2\n      add\n      swap1\n      tag_38\n      swap2\n      swap1\n      tag_39\n      jump\t// in\n    tag_38:\n      tag_40\n      jump\t// in\n    tag_37:\n      mload(0x40)\n      tag_41\n      swap2\n      swap1\n      tag_30\n      jump\t// in\n    tag_41:\n      mload(0x40)\n      dup1\n      swap2\n      sub\n      swap1\n      return\n        /* \"contracts/token/wstf token /contracts/token/ERC20/OmniERC20.sol\":1154:1245  function decimals() public view virtual override returns (uint8) {... */\n    tag_6:\n      callvalue\n      dup1\n      iszero\n      tag_42\n      jumpi\n      0x00\n      dup1\n      revert\n    tag_42:\n      pop\n      tag_43\n      tag_44\n      jump\t// in\n    tag_43:\n      mload(0x40)\n      tag_45\n      swap2\n      swap1\n      tag_46\n      jump\t// in\n    tag_45:\n      mload(0x40)\n      dup1\n      swap2\n      sub\n      swap1\n      return\n        /* \"contracts/token/lib/omni/contracts/core/src/pkg/XAppBase.sol\":680:703  IOmniPortal public omni */\n    tag_7:\n      callvalue\n      dup1\n      iszero\n      tag_47\n      jumpi\n      0x00\n      dup1\n      revert\n    tag_47:\n      pop\n      tag_48\n      tag_49\n      jump\t// in\n    tag_48:\n      mload(0x40)\n      tag_50\n      swap2\n      swap1\n      tag_51\n      jump\t// in\n    tag_50:\n      mload(0x40)\n      dup1\n      swap2\n      sub\n      swap1\n      return\n        /* \"contracts/token/wstf token /contracts/token/ERC20/implementation.sol\":803:964  function mint(address account, uint256 value) public {... */\n    tag_8:\n      callvalue\n      dup1\n      iszero\n      tag_52\n      jumpi\n      0x00\n      dup1\n      revert\n    tag_52:\n      pop\n      tag_53\n      0x04\n      dup1\n      calldatasize\n      sub\n      dup2\n      add\n      swap1\n      tag_54\n      swap2\n      swap1\n      tag_27\n      jump\t// in\n    tag_54:\n      tag_55\n      jump\t// in\n    tag_53:\n      stop\n        /* \"contracts/token/wstf token /contracts/token/ERC20/OmniERC20.sol\":2764:2968  function receiveTransfer(address from, address to, uint256 value) external xrecv {... */\n    tag_9:\n      callvalue\n      dup1\n      iszero\n      tag_56\n      jumpi\n      0x00\n      dup1\n      revert\n    tag_56:\n      pop\n      tag_57\n      0x04\n      dup1\n      calldatasize\n      sub\n      dup2\n      add\n      swap1\n      tag_58\n      swap2\n      swap1\n      tag_39\n      jump\t// in\n    tag_58:\n      tag_59\n      jump\t// in\n    tag_57:\n      stop\n        /* \"contracts/token/wstf token /contracts/token/ERC20/OmniERC20.sol\":1363:1488  function balanceOf(address account) public view virtual override returns (uint256) {... */\n    tag_10:\n      callvalue\n      dup1\n      iszero\n      tag_60\n      jumpi\n      0x00\n      dup1\n      revert\n    tag_60:\n      pop\n      tag_61\n      0x04\n      dup1\n      calldatasize\n      sub\n      dup2\n      add\n      swap1\n      tag_62\n      swap2\n      swap1\n      tag_63\n      jump\t// in\n    tag_62:\n      tag_64\n      jump\t// in\n    tag_61:\n      mload(0x40)\n      tag_65\n      swap2\n      swap1\n      tag_35\n      jump\t// in\n    tag_65:\n      mload(0x40)\n      dup1\n      swap2\n      sub\n      swap1\n      return\n        /* \"contracts/token/lib/omni/contracts/core/src/pkg/XAppBase.sol\":779:808  uint8 public defaultConfLevel */\n    tag_11:\n      callvalue\n      dup1\n      iszero\n      tag_66\n      jumpi\n      0x00\n      dup1\n      revert\n    tag_66:\n      pop\n      tag_67\n      tag_68\n      jump\t// in\n    tag_67:\n      mload(0x40)\n      tag_69\n      swap2\n      swap1\n      tag_46\n      jump\t// in\n    tag_69:\n      mload(0x40)\n      dup1\n      swap2\n      sub\n      swap1\n      return\n        /* \"contracts/token/wstf token /contracts/token/ERC20/OmniERC20.sol\":1046:1148  function symbol() public view virtual override returns (string memory) {... */\n    tag_12:\n      callvalue\n      dup1\n      iszero\n      tag_70\n      jumpi\n      0x00\n      dup1\n      revert\n    tag_70:\n      pop\n      tag_71\n      tag_72\n      jump\t// in\n    tag_71:\n      mload(0x40)\n      tag_73\n      swap2\n      swap1\n      tag_23\n      jump\t// in\n    tag_73:\n      mload(0x40)\n      dup1\n      swap2\n      sub\n      swap1\n      return\n        /* \"contracts/token/wstf token /contracts/token/ERC20/OmniERC20.sol\":2111:2298  function transfer(address to, uint256 value) public virtual override returns (bool) {... */\n    tag_13:\n      callvalue\n      dup1\n      iszero\n      tag_74\n      jumpi\n      0x00\n      dup1\n      revert\n    tag_74:\n      pop\n      tag_75\n      0x04\n      dup1\n      calldatasize\n      sub\n      dup2\n      add\n      swap1\n      tag_76\n      swap2\n      swap1\n      tag_27\n      jump\t// in\n    tag_76:\n      tag_77\n      jump\t// in\n    tag_75:\n      mload(0x40)\n      tag_78\n      swap2\n      swap1\n      tag_30\n      jump\t// in\n    tag_78:\n      mload(0x40)\n      dup1\n      swap2\n      sub\n      swap1\n      return\n        /* \"contracts/token/wstf token /contracts/token/ERC20/OmniERC20.sol\":2303:2758  function transfer(uint64 destChain, address destToken, address to, uint256 value) external payable {... */\n    tag_14:\n      tag_79\n      0x04\n      dup1\n      calldatasize\n      sub\n      dup2\n      add\n      swap1\n      tag_80\n      swap2\n      swap1\n      tag_81\n      jump\t// in\n    tag_80:\n      tag_82\n      jump\t// in\n    tag_79:\n      stop\n        /* \"contracts/token/wstf token /contracts/token/ERC20/OmniERC20.sol\":1495:1644  function allowance(address owner, address spender) public view virtual override returns (uint256) {... */\n    tag_15:\n      callvalue\n      dup1\n      iszero\n      tag_83\n      jumpi\n      0x00\n      dup1\n      revert\n    tag_83:\n      pop\n      tag_84\n      0x04\n      dup1\n      calldatasize\n      sub\n      dup2\n      add\n      swap1\n      tag_85\n      swap2\n      swap1\n      tag_86\n      jump\t// in\n    tag_85:\n      tag_87\n      jump\t// in\n    tag_84:\n      mload(0x40)\n      tag_88\n      swap2\n      swap1\n      tag_35\n      jump\t// in\n    tag_88:\n      mload(0x40)\n      dup1\n      swap2\n      sub\n      swap1\n      return\n        /* \"contracts/token/wstf token /contracts/token/ERC20/OmniERC20.sol\":942:1040  function name() public view virtual override returns (string memory) {... */\n    tag_21:\n        /* \"contracts/token/wstf token /contracts/token/ERC20/OmniERC20.sol\":996:1009  string memory */\n      0x60\n        /* \"contracts/token/wstf token /contracts/token/ERC20/OmniERC20.sol\":1028:1033  _name */\n      0x05\n        /* \"contracts/token/wstf token /contracts/token/ERC20/OmniERC20.sol\":1021:1033  return _name */\n      dup1\n      sload\n      tag_90\n      swap1\n      tag_91\n      jump\t// in\n    tag_90:\n      dup1\n      0x1f\n      add\n      0x20\n      dup1\n      swap2\n      div\n      mul\n      0x20\n      add\n      mload(0x40)\n      swap1\n      dup2\n      add\n      0x40\n      mstore\n      dup1\n      swap3\n      swap2\n      swap1\n      dup2\n      dup2\n      mstore\n      0x20\n      add\n      dup3\n      dup1\n      sload\n      tag_92\n      swap1\n      tag_91\n      jump\t// in\n    tag_92:\n      dup1\n      iszero\n      tag_93\n      jumpi\n      dup1\n      0x1f\n      lt\n      tag_94\n      jumpi\n      0x0100\n      dup1\n      dup4\n      sload\n      div\n      mul\n      dup4\n      mstore\n      swap2\n      0x20\n      add\n      swap2\n      jump(tag_93)\n    tag_94:\n      dup3\n      add\n      swap2\n      swap1\n      0x00\n      mstore\n      keccak256(0x00, 0x20)\n      swap1\n    tag_95:\n      dup2\n      sload\n      dup2\n      mstore\n      swap1\n      0x01\n      add\n      swap1\n      0x20\n      add\n      dup1\n      dup4\n      gt\n      tag_95\n      jumpi\n      dup3\n      swap1\n      sub\n      0x1f\n      and\n      dup3\n      add\n      swap2\n    tag_93:\n      pop\n      pop\n      pop\n      pop\n      pop\n      swap1\n      pop\n        /* \"contracts/token/wstf token /contracts/token/ERC20/OmniERC20.sol\":942:1040  function name() public view virtual override returns (string memory) {... */\n      swap1\n      jump\t// out\n        /* \"contracts/token/wstf token /contracts/token/ERC20/OmniERC20.sol\":1650:1845  function approve(address spender, uint256 value) public virtual override returns (bool) {... */\n    tag_28:\n        /* \"contracts/token/wstf token /contracts/token/ERC20/OmniERC20.sol\":1732:1736  bool */\n      0x00\n        /* \"contracts/token/wstf token /contracts/token/ERC20/OmniERC20.sol\":1748:1761  address owner */\n      dup1\n        /* \"contracts/token/wstf token /contracts/token/ERC20/OmniERC20.sol\":1764:1776  _msgSender() */\n      tag_97\n        /* \"contracts/token/wstf token /contracts/token/ERC20/OmniERC20.sol\":1764:1774  _msgSender */\n      tag_98\n        /* \"contracts/token/wstf token /contracts/token/ERC20/OmniERC20.sol\":1764:1776  _msgSender() */\n      jump\t// in\n    tag_97:\n        /* \"contracts/token/wstf token /contracts/token/ERC20/OmniERC20.sol\":1748:1776  address owner = _msgSender() */\n      swap1\n      pop\n        /* \"contracts/token/wstf token /contracts/token/ERC20/OmniERC20.sol\":1786:1817  _approve(owner, spender, value) */\n      tag_99\n        /* \"contracts/token/wstf token /contracts/token/ERC20/OmniERC20.sol\":1795:1800  owner */\n      dup2\n        /* \"contracts/token/wstf token /contracts/token/ERC20/OmniERC20.sol\":1802:1809  spender */\n      dup6\n        /* \"contracts/token/wstf token /contracts/token/ERC20/OmniERC20.sol\":1811:1816  value */\n      dup6\n        /* \"contracts/token/wstf token /contracts/token/ERC20/OmniERC20.sol\":1786:1794  _approve */\n      tag_100\n        /* \"contracts/token/wstf token /contracts/token/ERC20/OmniERC20.sol\":1786:1817  _approve(owner, spender, value) */\n      jump\t// in\n    tag_99:\n        /* \"contracts/token/wstf token /contracts/token/ERC20/OmniERC20.sol\":1834:1838  true */\n      0x01\n        /* \"contracts/token/wstf token /contracts/token/ERC20/OmniERC20.sol\":1827:1838  return true */\n      swap2\n      pop\n      pop\n        /* \"contracts/token/wstf token /contracts/token/ERC20/OmniERC20.sol\":1650:1845  function approve(address spender, uint256 value) public virtual override returns (bool) {... */\n      swap3\n      swap2\n      pop\n      pop\n      jump\t// out\n        /* \"contracts/token/wstf token /contracts/token/ERC20/OmniERC20.sol\":1251:1357  function totalSupply() public view virtual override returns (uint256) {... */\n    tag_33:\n        /* \"contracts/token/wstf token /contracts/token/ERC20/OmniERC20.sol\":1312:1319  uint256 */\n      0x00\n        /* \"contracts/token/wstf token /contracts/token/ERC20/OmniERC20.sol\":1338:1350  _totalSupply */\n      sload(0x04)\n        /* \"contracts/token/wstf token /contracts/token/ERC20/OmniERC20.sol\":1331:1350  return _totalSupply */\n      swap1\n      pop\n        /* \"contracts/token/wstf token /contracts/token/ERC20/OmniERC20.sol\":1251:1357  function totalSupply() public view virtual override returns (uint256) {... */\n      swap1\n      jump\t// out\n        /* \"contracts/token/wstf token /contracts/token/ERC20/OmniERC20.sol\":1851:2104  function transferFrom(address from, address to, uint256 value) public virtual override returns (bool) {... */\n    tag_40:\n        /* \"contracts/token/wstf token /contracts/token/ERC20/OmniERC20.sol\":1947:1951  bool */\n      0x00\n        /* \"contracts/token/wstf token /contracts/token/ERC20/OmniERC20.sol\":1963:1978  address spender */\n      dup1\n        /* \"contracts/token/wstf token /contracts/token/ERC20/OmniERC20.sol\":1981:1993  _msgSender() */\n      tag_103\n        /* \"contracts/token/wstf token /contracts/token/ERC20/OmniERC20.sol\":1981:1991  _msgSender */\n      tag_98\n        /* \"contracts/token/wstf token /contracts/token/ERC20/OmniERC20.sol\":1981:1993  _msgSender() */\n      jump\t// in\n    tag_103:\n        /* \"contracts/token/wstf token /contracts/token/ERC20/OmniERC20.sol\":1963:1993  address spender = _msgSender() */\n      swap1\n      pop\n        /* \"contracts/token/wstf token /contracts/token/ERC20/OmniERC20.sol\":2003:2040  _spendAllowance(from, spender, value) */\n      tag_104\n        /* \"contracts/token/wstf token /contracts/token/ERC20/OmniERC20.sol\":2019:2023  from */\n      dup6\n        /* \"contracts/token/wstf token /contracts/token/ERC20/OmniERC20.sol\":2025:2032  spender */\n      dup3\n        /* \"contracts/token/wstf token /contracts/token/ERC20/OmniERC20.sol\":2034:2039  value */\n      dup6\n        /* \"contracts/token/wstf token /contracts/token/ERC20/OmniERC20.sol\":2003:2018  _spendAllowance */\n      tag_105\n        /* \"contracts/token/wstf token /contracts/token/ERC20/OmniERC20.sol\":2003:2040  _spendAllowance(from, spender, value) */\n      jump\t// in\n    tag_104:\n        /* \"contracts/token/wstf token /contracts/token/ERC20/OmniERC20.sol\":2050:2076  _transfer(from, to, value) */\n      tag_106\n        /* \"contracts/token/wstf token /contracts/token/ERC20/OmniERC20.sol\":2060:2064  from */\n      dup6\n        /* \"contracts/token/wstf token /contracts/token/ERC20/OmniERC20.sol\":2066:2068  to */\n      dup6\n        /* \"contracts/token/wstf token /contracts/token/ERC20/OmniERC20.sol\":2070:2075  value */\n      dup6\n        /* \"contracts/token/wstf token /contracts/token/ERC20/OmniERC20.sol\":2050:2059  _transfer */\n      tag_107\n        /* \"contracts/token/wstf token /contracts/token/ERC20/OmniERC20.sol\":2050:2076  _transfer(from, to, value) */\n      jump\t// in\n    tag_106:\n        /* \"contracts/token/wstf token /contracts/token/ERC20/OmniERC20.sol\":2093:2097  true */\n      0x01\n        /* \"contracts/token/wstf token /contracts/token/ERC20/OmniERC20.sol\":2086:2097  return true */\n      swap2\n      pop\n      pop\n        /* \"contracts/token/wstf token /contracts/token/ERC20/OmniERC20.sol\":1851:2104  function transferFrom(address from, address to, uint256 value) public virtual override returns (bool) {... */\n      swap4\n      swap3\n      pop\n      pop\n      pop\n      jump\t// out\n        /* \"contracts/token/wstf token /contracts/token/ERC20/OmniERC20.sol\":1154:1245  function decimals() public view virtual override returns (uint8) {... */\n    tag_44:\n        /* \"contracts/token/wstf token /contracts/token/ERC20/OmniERC20.sol\":1212:1217  uint8 */\n      0x00\n        /* \"contracts/token/wstf token /contracts/token/ERC20/OmniERC20.sol\":1236:1238  18 */\n      0x12\n        /* \"contracts/token/wstf token /contracts/token/ERC20/OmniERC20.sol\":1229:1238  return 18 */\n      swap1\n      pop\n        /* \"contracts/token/wstf token /contracts/token/ERC20/OmniERC20.sol\":1154:1245  function decimals() public view virtual override returns (uint8) {... */\n      swap1\n      jump\t// out\n        /* \"contracts/token/lib/omni/contracts/core/src/pkg/XAppBase.sol\":680:703  IOmniPortal public omni */\n    tag_49:\n      0x00\n      dup1\n      sload\n      swap1\n      0x0100\n      exp\n      swap1\n      div\n      0xffffffffffffffffffffffffffffffffffffffff\n      and\n      dup2\n      jump\t// out\n        /* \"contracts/token/wstf token /contracts/token/ERC20/implementation.sol\":803:964  function mint(address account, uint256 value) public {... */\n    tag_55:\n        /* \"contracts/token/wstf token /contracts/token/ERC20/implementation.sol\":936:957  _mint(account, value) */\n      tag_110\n        /* \"contracts/token/wstf token /contracts/token/ERC20/implementation.sol\":942:949  account */\n      dup3\n        /* \"contracts/token/wstf token /contracts/token/ERC20/implementation.sol\":951:956  value */\n      dup3\n        /* \"contracts/token/wstf token /contracts/token/ERC20/implementation.sol\":936:941  _mint */\n      tag_111\n        /* \"contracts/token/wstf token /contracts/token/ERC20/implementation.sol\":936:957  _mint(account, value) */\n      jump\t// in\n    tag_110:\n        /* \"contracts/token/wstf token /contracts/token/ERC20/implementation.sol\":803:964  function mint(address account, uint256 value) public {... */\n      pop\n      pop\n      jump\t// out\n        /* \"contracts/token/wstf token /contracts/token/ERC20/OmniERC20.sol\":2764:2968  function receiveTransfer(address from, address to, uint256 value) external xrecv {... */\n    tag_59:\n        /* \"contracts/token/lib/omni/contracts/core/src/pkg/XAppBase.sol\":1058:1062  omni */\n      0x00\n      dup1\n      sload\n      swap1\n      0x0100\n      exp\n      swap1\n      div\n      0xffffffffffffffffffffffffffffffffffffffff\n      and\n        /* \"contracts/token/lib/omni/contracts/core/src/pkg/XAppBase.sol\":1058:1067  omni.xmsg */\n      0xffffffffffffffffffffffffffffffffffffffff\n      and\n      0x2f32700e\n        /* \"contracts/token/lib/omni/contracts/core/src/pkg/XAppBase.sol\":1058:1069  omni.xmsg() */\n      mload(0x40)\n      dup2\n      0xffffffff\n      and\n      0xe0\n      shl\n      dup2\n      mstore\n      0x04\n      add\n      0x40\n      dup1\n      mload\n      dup1\n      dup4\n      sub\n      dup2\n      dup7\n      gas\n      staticcall\n      iszero\n      dup1\n      iszero\n      tag_114\n      jumpi\n      returndatasize\n      0x00\n      dup1\n      returndatacopy\n      revert(0x00, returndatasize)\n    tag_114:\n      pop\n      pop\n      pop\n      pop\n      mload(0x40)\n      returndatasize\n      not(0x1f)\n      0x1f\n      dup3\n      add\n      and\n      dup3\n      add\n      dup1\n      0x40\n      mstore\n      pop\n      dup2\n      add\n      swap1\n      tag_115\n      swap2\n      swap1\n      tag_116\n      jump\t// in\n    tag_115:\n        /* \"contracts/token/lib/omni/contracts/core/src/pkg/XAppBase.sol\":1051:1055  xmsg */\n      0x01\n        /* \"contracts/token/lib/omni/contracts/core/src/pkg/XAppBase.sol\":1051:1069  xmsg = omni.xmsg() */\n      0x00\n      dup3\n      add\n      mload\n      dup2\n      0x00\n      add\n      exp(0x0100, 0x00)\n      dup2\n      sload\n      dup2\n      0xffffffffffffffff\n      mul\n      not\n      and\n      swap1\n      dup4\n      0xffffffffffffffff\n      and\n      mul\n      or\n      swap1\n      sstore\n      pop\n      0x20\n      dup3\n      add\n      mload\n      dup2\n      0x00\n      add\n      exp(0x0100, 0x08)\n      dup2\n      sload\n      dup2\n      0xffffffffffffffffffffffffffffffffffffffff\n      mul\n      not\n      and\n      swap1\n      dup4\n      0xffffffffffffffffffffffffffffffffffffffff\n      and\n      mul\n      or\n      swap1\n      sstore\n      pop\n      swap1\n      pop\n      pop\n        /* \"contracts/token/wstf token /contracts/token/ERC20/OmniERC20.sol\":2864:2873  isXCall() */\n      tag_118\n        /* \"contracts/token/wstf token /contracts/token/ERC20/OmniERC20.sol\":2864:2871  isXCall */\n      tag_119\n        /* \"contracts/token/wstf token /contracts/token/ERC20/OmniERC20.sol\":2864:2873  isXCall() */\n      jump\t// in\n    tag_118:\n        /* \"contracts/token/wstf token /contracts/token/ERC20/OmniERC20.sol\":2856:2926  require(isXCall(), \"OmniERC20: Only callable via cross-chain message\") */\n      tag_120\n      jumpi\n      mload(0x40)\n      0x08c379a000000000000000000000000000000000000000000000000000000000\n      dup2\n      mstore\n      0x04\n      add\n      tag_121\n      swap1\n      tag_122\n      jump\t// in\n    tag_121:\n      mload(0x40)\n      dup1\n      swap2\n      sub\n      swap1\n      revert\n    tag_120:\n        /* \"contracts/token/wstf token /contracts/token/ERC20/OmniERC20.sol\":2936:2960  _update(from, to, value) */\n      tag_123\n        /* \"contracts/token/wstf token /contracts/token/ERC20/OmniERC20.sol\":2944:2948  from */\n      dup4\n        /* \"contracts/token/wstf token /contracts/token/ERC20/OmniERC20.sol\":2950:2952  to */\n      dup4\n        /* \"contracts/token/wstf token /contracts/token/ERC20/OmniERC20.sol\":2954:2959  value */\n      dup4\n        /* \"contracts/token/wstf token /contracts/token/ERC20/OmniERC20.sol\":2936:2943  _update */\n      tag_124\n        /* \"contracts/token/wstf token /contracts/token/ERC20/OmniERC20.sol\":2936:2960  _update(from, to, value) */\n      jump\t// in\n    tag_123:\n        /* \"contracts/token/lib/omni/contracts/core/src/pkg/XAppBase.sol\":1097:1101  xmsg */\n      0x01\n      0x00\n        /* \"contracts/token/lib/omni/contracts/core/src/pkg/XAppBase.sol\":1090:1101  delete xmsg */\n      dup1\n      dup3\n      add\n      exp(0x0100, 0x00)\n      dup2\n      sload\n      swap1\n      0xffffffffffffffff\n      mul\n      not\n      and\n      swap1\n      sstore\n      0x00\n      dup3\n      add\n      exp(0x0100, 0x08)\n      dup2\n      sload\n      swap1\n      0xffffffffffffffffffffffffffffffffffffffff\n      mul\n      not\n      and\n      swap1\n      sstore\n      pop\n      pop\n        /* \"contracts/token/wstf token /contracts/token/ERC20/OmniERC20.sol\":2764:2968  function receiveTransfer(address from, address to, uint256 value) external xrecv {... */\n      pop\n      pop\n      pop\n      jump\t// out\n        /* \"contracts/token/wstf token /contracts/token/ERC20/OmniERC20.sol\":1363:1488  function balanceOf(address account) public view virtual override returns (uint256) {... */\n    tag_64:\n        /* \"contracts/token/wstf token /contracts/token/ERC20/OmniERC20.sol\":1437:1444  uint256 */\n      0x00\n        /* \"contracts/token/wstf token /contracts/token/ERC20/OmniERC20.sol\":1463:1472  _balances */\n      0x02\n        /* \"contracts/token/wstf token /contracts/token/ERC20/OmniERC20.sol\":1463:1481  _balances[account] */\n      0x00\n        /* \"contracts/token/wstf token /contracts/token/ERC20/OmniERC20.sol\":1473:1480  account */\n      dup4\n        /* \"contracts/token/wstf token /contracts/token/ERC20/OmniERC20.sol\":1463:1481  _balances[account] */\n      0xffffffffffffffffffffffffffffffffffffffff\n      and\n      0xffffffffffffffffffffffffffffffffffffffff\n      and\n      dup2\n      mstore\n      0x20\n      add\n      swap1\n      dup2\n      mstore\n      0x20\n      add\n      0x00\n      keccak256\n      sload\n        /* \"contracts/token/wstf token /contracts/token/ERC20/OmniERC20.sol\":1456:1481  return _balances[account] */\n      swap1\n      pop\n        /* \"contracts/token/wstf token /contracts/token/ERC20/OmniERC20.sol\":1363:1488  function balanceOf(address account) public view virtual override returns (uint256) {... */\n      swap2\n      swap1\n      pop\n      jump\t// out\n        /* \"contracts/token/lib/omni/contracts/core/src/pkg/XAppBase.sol\":779:808  uint8 public defaultConfLevel */\n    tag_68:\n      0x00\n      0x14\n      swap1\n      sload\n      swap1\n      0x0100\n      exp\n      swap1\n      div\n      0xff\n      and\n      dup2\n      jump\t// out\n        /* \"contracts/token/wstf token /contracts/token/ERC20/OmniERC20.sol\":1046:1148  function symbol() public view virtual override returns (string memory) {... */\n    tag_72:\n        /* \"contracts/token/wstf token /contracts/token/ERC20/OmniERC20.sol\":1102:1115  string memory */\n      0x60\n        /* \"contracts/token/wstf token /contracts/token/ERC20/OmniERC20.sol\":1134:1141  _symbol */\n      0x06\n        /* \"contracts/token/wstf token /contracts/token/ERC20/OmniERC20.sol\":1127:1141  return _symbol */\n      dup1\n      sload\n      tag_127\n      swap1\n      tag_91\n      jump\t// in\n    tag_127:\n      dup1\n      0x1f\n      add\n      0x20\n      dup1\n      swap2\n      div\n      mul\n      0x20\n      add\n      mload(0x40)\n      swap1\n      dup2\n      add\n      0x40\n      mstore\n      dup1\n      swap3\n      swap2\n      swap1\n      dup2\n      dup2\n      mstore\n      0x20\n      add\n      dup3\n      dup1\n      sload\n      tag_128\n      swap1\n      tag_91\n      jump\t// in\n    tag_128:\n      dup1\n      iszero\n      tag_129\n      jumpi\n      dup1\n      0x1f\n      lt\n      tag_130\n      jumpi\n      0x0100\n      dup1\n      dup4\n      sload\n      div\n      mul\n      dup4\n      mstore\n      swap2\n      0x20\n      add\n      swap2\n      jump(tag_129)\n    tag_130:\n      dup3\n      add\n      swap2\n      swap1\n      0x00\n      mstore\n      keccak256(0x00, 0x20)\n      swap1\n    tag_131:\n      dup2\n      sload\n      dup2\n      mstore\n      swap1\n      0x01\n      add\n      swap1\n      0x20\n      add\n      dup1\n      dup4\n      gt\n      tag_131\n      jumpi\n      dup3\n      swap1\n      sub\n      0x1f\n      and\n      dup3\n      add\n      swap2\n    tag_129:\n      pop\n      pop\n      pop\n      pop\n      pop\n      swap1\n      pop\n        /* \"contracts/token/wstf token /contracts/token/ERC20/OmniERC20.sol\":1046:1148  function symbol() public view virtual override returns (string memory) {... */\n      swap1\n      jump\t// out\n        /* \"contracts/token/wstf token /contracts/token/ERC20/OmniERC20.sol\":2111:2298  function transfer(address to, uint256 value) public virtual override returns (bool) {... */\n    tag_77:\n        /* \"contracts/token/wstf token /contracts/token/ERC20/OmniERC20.sol\":2189:2193  bool */\n      0x00\n        /* \"contracts/token/wstf token /contracts/token/ERC20/OmniERC20.sol\":2205:2218  address owner */\n      dup1\n        /* \"contracts/token/wstf token /contracts/token/ERC20/OmniERC20.sol\":2221:2233  _msgSender() */\n      tag_133\n        /* \"contracts/token/wstf token /contracts/token/ERC20/OmniERC20.sol\":2221:2231  _msgSender */\n      tag_98\n        /* \"contracts/token/wstf token /contracts/token/ERC20/OmniERC20.sol\":2221:2233  _msgSender() */\n      jump\t// in\n    tag_133:\n        /* \"contracts/token/wstf token /contracts/token/ERC20/OmniERC20.sol\":2205:2233  address owner = _msgSender() */\n      swap1\n      pop\n        /* \"contracts/token/wstf token /contracts/token/ERC20/OmniERC20.sol\":2243:2270  _transfer(owner, to, value) */\n      tag_134\n        /* \"contracts/token/wstf token /contracts/token/ERC20/OmniERC20.sol\":2253:2258  owner */\n      dup2\n        /* \"contracts/token/wstf token /contracts/token/ERC20/OmniERC20.sol\":2260:2262  to */\n      dup6\n        /* \"contracts/token/wstf token /contracts/token/ERC20/OmniERC20.sol\":2264:2269  value */\n      dup6\n        /* \"contracts/token/wstf token /contracts/token/ERC20/OmniERC20.sol\":2243:2252  _transfer */\n      tag_107\n        /* \"contracts/token/wstf token /contracts/token/ERC20/OmniERC20.sol\":2243:2270  _transfer(owner, to, value) */\n      jump\t// in\n    tag_134:\n        /* \"contracts/token/wstf token /contracts/token/ERC20/OmniERC20.sol\":2287:2291  true */\n      0x01\n        /* \"contracts/token/wstf token /contracts/token/ERC20/OmniERC20.sol\":2280:2291  return true */\n      swap2\n      pop\n      pop\n        /* \"contracts/token/wstf token /contracts/token/ERC20/OmniERC20.sol\":2111:2298  function transfer(address to, uint256 value) public virtual override returns (bool) {... */\n      swap3\n      swap2\n      pop\n      pop\n      jump\t// out\n        /* \"contracts/token/wstf token /contracts/token/ERC20/OmniERC20.sol\":2303:2758  function transfer(uint64 destChain, address destToken, address to, uint256 value) external payable {... */\n    tag_82:\n        /* \"contracts/token/wstf token /contracts/token/ERC20/OmniERC20.sol\":2413:2425  address from */\n      0x00\n        /* \"contracts/token/wstf token /contracts/token/ERC20/OmniERC20.sol\":2428:2440  _msgSender() */\n      tag_136\n        /* \"contracts/token/wstf token /contracts/token/ERC20/OmniERC20.sol\":2428:2438  _msgSender */\n      tag_98\n        /* \"contracts/token/wstf token /contracts/token/ERC20/OmniERC20.sol\":2428:2440  _msgSender() */\n      jump\t// in\n    tag_136:\n        /* \"contracts/token/wstf token /contracts/token/ERC20/OmniERC20.sol\":2413:2440  address from = _msgSender() */\n      swap1\n      pop\n        /* \"contracts/token/wstf token /contracts/token/ERC20/OmniERC20.sol\":2450:2487  _transfer(from, address(this), value) */\n      tag_137\n        /* \"contracts/token/wstf token /contracts/token/ERC20/OmniERC20.sol\":2460:2464  from */\n      dup2\n        /* \"contracts/token/wstf token /contracts/token/ERC20/OmniERC20.sol\":2474:2478  this */\n      address\n        /* \"contracts/token/wstf token /contracts/token/ERC20/OmniERC20.sol\":2481:2486  value */\n      dup5\n        /* \"contracts/token/wstf token /contracts/token/ERC20/OmniERC20.sol\":2450:2459  _transfer */\n      tag_107\n        /* \"contracts/token/wstf token /contracts/token/ERC20/OmniERC20.sol\":2450:2487  _transfer(from, address(this), value) */\n      jump\t// in\n    tag_137:\n        /* \"contracts/token/wstf token /contracts/token/ERC20/OmniERC20.sol\":2534:2551  bytes memory data */\n      0x00\n        /* \"contracts/token/wstf token /contracts/token/ERC20/OmniERC20.sol\":2597:2606  destToken */\n      dup5\n        /* \"contracts/token/wstf token /contracts/token/ERC20/OmniERC20.sol\":2608:2610  to */\n      dup5\n        /* \"contracts/token/wstf token /contracts/token/ERC20/OmniERC20.sol\":2612:2617  value */\n      dup5\n        /* \"contracts/token/wstf token /contracts/token/ERC20/OmniERC20.sol\":2554:2619  abi.encodeCall(OmniERC20.receiveTransfer, (destToken, to, value)) */\n      add(0x24, mload(0x40))\n      tag_138\n      swap4\n      swap3\n      swap2\n      swap1\n      tag_139\n      jump\t// in\n    tag_138:\n      mload(0x40)\n      0x20\n      dup2\n      dup4\n      sub\n      sub\n      dup2\n      mstore\n      swap1\n      0x40\n      mstore\n      shl(0xe0, 0x4a536a06)\n      0x20\n      dup3\n      add\n      dup1\n      mload\n      0xffffffffffffffffffffffffffffffffffffffffffffffffffffffff\n      dup4\n      dup2\n      dup4\n      and\n      or\n      dup4\n      mstore\n      pop\n      pop\n      pop\n      pop\n        /* \"contracts/token/wstf token /contracts/token/ERC20/OmniERC20.sol\":2534:2619  bytes memory data = abi.encodeCall(OmniERC20.receiveTransfer, (destToken, to, value)) */\n      swap1\n      pop\n        /* \"contracts/token/wstf token /contracts/token/ERC20/OmniERC20.sol\":2629:2640  uint256 fee */\n      0x00\n        /* \"contracts/token/wstf token /contracts/token/ERC20/OmniERC20.sol\":2643:2684  xcall(destChain, destToken, data, 150000) */\n      tag_140\n        /* \"contracts/token/wstf token /contracts/token/ERC20/OmniERC20.sol\":2649:2658  destChain */\n      dup8\n        /* \"contracts/token/wstf token /contracts/token/ERC20/OmniERC20.sol\":2660:2669  destToken */\n      dup8\n        /* \"contracts/token/wstf token /contracts/token/ERC20/OmniERC20.sol\":2671:2675  data */\n      dup5\n        /* \"contracts/token/wstf token /contracts/token/ERC20/OmniERC20.sol\":2677:2683  150000 */\n      0x0249f0\n        /* \"contracts/token/wstf token /contracts/token/ERC20/OmniERC20.sol\":2643:2648  xcall */\n      tag_141\n        /* \"contracts/token/wstf token /contracts/token/ERC20/OmniERC20.sol\":2643:2684  xcall(destChain, destToken, data, 150000) */\n      jump\t// in\n    tag_140:\n        /* \"contracts/token/wstf token /contracts/token/ERC20/OmniERC20.sol\":2629:2684  uint256 fee = xcall(destChain, destToken, data, 150000) */\n      swap1\n      pop\n        /* \"contracts/token/wstf token /contracts/token/ERC20/OmniERC20.sol\":2715:2718  fee */\n      dup1\n        /* \"contracts/token/wstf token /contracts/token/ERC20/OmniERC20.sol\":2702:2711  msg.value */\n      callvalue\n        /* \"contracts/token/wstf token /contracts/token/ERC20/OmniERC20.sol\":2702:2718  msg.value >= fee */\n      lt\n      iszero\n        /* \"contracts/token/wstf token /contracts/token/ERC20/OmniERC20.sol\":2694:2750  require(msg.value >= fee, \"OmniERC20: Insufficient fee\") */\n      tag_142\n      jumpi\n      mload(0x40)\n      0x08c379a000000000000000000000000000000000000000000000000000000000\n      dup2\n      mstore\n      0x04\n      add\n      tag_143\n      swap1\n      tag_144\n      jump\t// in\n    tag_143:\n      mload(0x40)\n      dup1\n      swap2\n      sub\n      swap1\n      revert\n    tag_142:\n        /* \"contracts/token/wstf token /contracts/token/ERC20/OmniERC20.sol\":2402:2758  {... */\n      pop\n      pop\n      pop\n        /* \"contracts/token/wstf token /contracts/token/ERC20/OmniERC20.sol\":2303:2758  function transfer(uint64 destChain, address destToken, address to, uint256 value) external payable {... */\n      pop\n      pop\n      pop\n      pop\n      jump\t// out\n        /* \"contracts/token/wstf token /contracts/token/ERC20/OmniERC20.sol\":1495:1644  function allowance(address owner, address spender) public view virtual override returns (uint256) {... */\n    tag_87:\n        /* \"contracts/token/wstf token /contracts/token/ERC20/OmniERC20.sol\":1584:1591  uint256 */\n      0x00\n        /* \"contracts/token/wstf token /contracts/token/ERC20/OmniERC20.sol\":1610:1621  _allowances */\n      0x03\n        /* \"contracts/token/wstf token /contracts/token/ERC20/OmniERC20.sol\":1610:1628  _allowances[owner] */\n      0x00\n        /* \"contracts/token/wstf token /contracts/token/ERC20/OmniERC20.sol\":1622:1627  owner */\n      dup5\n        /* \"contracts/token/wstf token /contracts/token/ERC20/OmniERC20.sol\":1610:1628  _allowances[owner] */\n      0xffffffffffffffffffffffffffffffffffffffff\n      and\n      0xffffffffffffffffffffffffffffffffffffffff\n      and\n      dup2\n      mstore\n      0x20\n      add\n      swap1\n      dup2\n      mstore\n      0x20\n      add\n      0x00\n      keccak256\n        /* \"contracts/token/wstf token /contracts/token/ERC20/OmniERC20.sol\":1610:1637  _allowances[owner][spender] */\n      0x00\n        /* \"contracts/token/wstf token /contracts/token/ERC20/OmniERC20.sol\":1629:1636  spender */\n      dup4\n        /* \"contracts/token/wstf token /contracts/token/ERC20/OmniERC20.sol\":1610:1637  _allowances[owner][spender] */\n      0xffffffffffffffffffffffffffffffffffffffff\n      and\n      0xffffffffffffffffffffffffffffffffffffffff\n      and\n      dup2\n      mstore\n      0x20\n      add\n      swap1\n      dup2\n      mstore\n      0x20\n      add\n      0x00\n      keccak256\n      sload\n        /* \"contracts/token/wstf token /contracts/token/ERC20/OmniERC20.sol\":1603:1637  return _allowances[owner][spender] */\n      swap1\n      pop\n        /* \"contracts/token/wstf token /contracts/token/ERC20/OmniERC20.sol\":1495:1644  function allowance(address owner, address spender) public view virtual override returns (uint256) {... */\n      swap3\n      swap2\n      pop\n      pop\n      jump\t// out\n        /* \"contracts/token/wstf token /contracts/utils/Context.sol\":656:752  function _msgSender() internal view virtual returns (address) {... */\n    tag_98:\n        /* \"contracts/token/wstf token /contracts/utils/Context.sol\":709:716  address */\n      0x00\n        /* \"contracts/token/wstf token /contracts/utils/Context.sol\":735:745  msg.sender */\n      caller\n        /* \"contracts/token/wstf token /contracts/utils/Context.sol\":728:745  return msg.sender */\n      swap1\n      pop\n        /* \"contracts/token/wstf token /contracts/utils/Context.sol\":656:752  function _msgSender() internal view virtual returns (address) {... */\n      swap1\n      jump\t// out\n        /* \"contracts/token/wstf token /contracts/token/ERC20/OmniERC20.sol\":4003:4131  function _approve(address owner, address spender, uint256 value) internal {... */\n    tag_100:\n        /* \"contracts/token/wstf token /contracts/token/ERC20/OmniERC20.sol\":4087:4124  _approve(owner, spender, value, true) */\n      tag_148\n        /* \"contracts/token/wstf token /contracts/token/ERC20/OmniERC20.sol\":4096:4101  owner */\n      dup4\n        /* \"contracts/token/wstf token /contracts/token/ERC20/OmniERC20.sol\":4103:4110  spender */\n      dup4\n        /* \"contracts/token/wstf token /contracts/token/ERC20/OmniERC20.sol\":4112:4117  value */\n      dup4\n        /* \"contracts/token/wstf token /contracts/token/ERC20/OmniERC20.sol\":4119:4123  true */\n      0x01\n        /* \"contracts/token/wstf token /contracts/token/ERC20/OmniERC20.sol\":4087:4095  _approve */\n      tag_149\n        /* \"contracts/token/wstf token /contracts/token/ERC20/OmniERC20.sol\":4087:4124  _approve(owner, spender, value, true) */\n      jump\t// in\n    tag_148:\n        /* \"contracts/token/wstf token /contracts/token/ERC20/OmniERC20.sol\":4003:4131  function _approve(address owner, address spender, uint256 value) internal {... */\n      pop\n      pop\n      pop\n      jump\t// out\n        /* \"contracts/token/wstf token /contracts/token/ERC20/OmniERC20.sol\":4575:5052  function _spendAllowance(address owner, address spender, uint256 value) internal virtual {... */\n    tag_105:\n        /* \"contracts/token/wstf token /contracts/token/ERC20/OmniERC20.sol\":4674:4698  uint256 currentAllowance */\n      0x00\n        /* \"contracts/token/wstf token /contracts/token/ERC20/OmniERC20.sol\":4701:4726  allowance(owner, spender) */\n      tag_151\n        /* \"contracts/token/wstf token /contracts/token/ERC20/OmniERC20.sol\":4711:4716  owner */\n      dup5\n        /* \"contracts/token/wstf token /contracts/token/ERC20/OmniERC20.sol\":4718:4725  spender */\n      dup5\n        /* \"contracts/token/wstf token /contracts/token/ERC20/OmniERC20.sol\":4701:4710  allowance */\n      tag_87\n        /* \"contracts/token/wstf token /contracts/token/ERC20/OmniERC20.sol\":4701:4726  allowance(owner, spender) */\n      jump\t// in\n    tag_151:\n        /* \"contracts/token/wstf token /contracts/token/ERC20/OmniERC20.sol\":4674:4726  uint256 currentAllowance = allowance(owner, spender) */\n      swap1\n      pop\n        /* \"contracts/token/wstf token /contracts/token/ERC20/OmniERC20.sol\":4760:4777  type(uint256).max */\n      0xffffffffffffffffffffffffffffffffffffffffffffffffffffffffffffffff\n        /* \"contracts/token/wstf token /contracts/token/ERC20/OmniERC20.sol\":4740:4756  currentAllowance */\n      dup2\n        /* \"contracts/token/wstf token /contracts/token/ERC20/OmniERC20.sol\":4740:4777  currentAllowance != type(uint256).max */\n      eq\n        /* \"contracts/token/wstf token /contracts/token/ERC20/OmniERC20.sol\":4736:5046  if (currentAllowance != type(uint256).max) {... */\n      tag_152\n      jumpi\n        /* \"contracts/token/wstf token /contracts/token/ERC20/OmniERC20.sol\":4816:4821  value */\n      dup2\n        /* \"contracts/token/wstf token /contracts/token/ERC20/OmniERC20.sol\":4797:4813  currentAllowance */\n      dup2\n        /* \"contracts/token/wstf token /contracts/token/ERC20/OmniERC20.sol\":4797:4821  currentAllowance < value */\n      lt\n        /* \"contracts/token/wstf token /contracts/token/ERC20/OmniERC20.sol\":4793:4923  if (currentAllowance < value) {... */\n      iszero\n      tag_153\n      jumpi\n        /* \"contracts/token/wstf token /contracts/token/ERC20/OmniERC20.sol\":4875:4882  spender */\n      dup3\n        /* \"contracts/token/wstf token /contracts/token/ERC20/OmniERC20.sol\":4884:4900  currentAllowance */\n      dup2\n        /* \"contracts/token/wstf token /contracts/token/ERC20/OmniERC20.sol\":4902:4907  value */\n      dup4\n        /* \"contracts/token/wstf token /contracts/token/ERC20/OmniERC20.sol\":4848:4908  ERC20InsufficientAllowance(spender, currentAllowance, value) */\n      mload(0x40)\n      0xfb8f41b200000000000000000000000000000000000000000000000000000000\n      dup2\n      mstore\n      0x04\n      add\n      tag_154\n      swap4\n      swap3\n      swap2\n      swap1\n      tag_155\n      jump\t// in\n    tag_154:\n      mload(0x40)\n      dup1\n      swap2\n      sub\n      swap1\n      revert\n        /* \"contracts/token/wstf token /contracts/token/ERC20/OmniERC20.sol\":4793:4923  if (currentAllowance < value) {... */\n    tag_153:\n        /* \"contracts/token/wstf token /contracts/token/ERC20/OmniERC20.sol\":4964:5021  _approve(owner, spender, currentAllowance - value, false) */\n      tag_156\n        /* \"contracts/token/wstf token /contracts/token/ERC20/OmniERC20.sol\":4973:4978  owner */\n      dup5\n        /* \"contracts/token/wstf token /contracts/token/ERC20/OmniERC20.sol\":4980:4987  spender */\n      dup5\n        /* \"contracts/token/wstf token /contracts/token/ERC20/OmniERC20.sol\":5008:5013  value */\n      dup5\n        /* \"contracts/token/wstf token /contracts/token/ERC20/OmniERC20.sol\":4989:5005  currentAllowance */\n      dup5\n        /* \"contracts/token/wstf token /contracts/token/ERC20/OmniERC20.sol\":4989:5013  currentAllowance - value */\n      sub\n        /* \"contracts/token/wstf token /contracts/token/ERC20/OmniERC20.sol\":5015:5020  false */\n      0x00\n        /* \"contracts/token/wstf token /contracts/token/ERC20/OmniERC20.sol\":4964:4972  _approve */\n      tag_149\n        /* \"contracts/token/wstf token /contracts/token/ERC20/OmniERC20.sol\":4964:5021  _approve(owner, spender, currentAllowance - value, false) */\n      jump\t// in\n    tag_156:\n        /* \"contracts/token/wstf token /contracts/token/ERC20/OmniERC20.sol\":4736:5046  if (currentAllowance != type(uint256).max) {... */\n    tag_152:\n        /* \"contracts/token/wstf token /contracts/token/ERC20/OmniERC20.sol\":4664:5052  {... */\n      pop\n        /* \"contracts/token/wstf token /contracts/token/ERC20/OmniERC20.sol\":4575:5052  function _spendAllowance(address owner, address spender, uint256 value) internal virtual {... */\n      pop\n      pop\n      pop\n      jump\t// out\n        /* \"contracts/token/wstf token /contracts/token/ERC20/OmniERC20.sol\":2974:3283  function _transfer(address from, address to, uint256 value) internal virtual {... */\n    tag_107:\n        /* \"contracts/token/wstf token /contracts/token/ERC20/OmniERC20.sol\":3081:3082  0 */\n      0x00\n        /* \"contracts/token/wstf token /contracts/token/ERC20/OmniERC20.sol\":3065:3083  from == address(0) */\n      0xffffffffffffffffffffffffffffffffffffffff\n      and\n        /* \"contracts/token/wstf token /contracts/token/ERC20/OmniERC20.sol\":3065:3069  from */\n      dup4\n        /* \"contracts/token/wstf token /contracts/token/ERC20/OmniERC20.sol\":3065:3083  from == address(0) */\n      0xffffffffffffffffffffffffffffffffffffffff\n      and\n      sub\n        /* \"contracts/token/wstf token /contracts/token/ERC20/OmniERC20.sol\":3061:3147  if (from == address(0)) {... */\n      tag_158\n      jumpi\n        /* \"contracts/token/wstf token /contracts/token/ERC20/OmniERC20.sol\":3133:3134  0 */\n      0x00\n        /* \"contracts/token/wstf token /contracts/token/ERC20/OmniERC20.sol\":3106:3136  ERC20InvalidSender(address(0)) */\n      mload(0x40)\n      0x96c6fd1e00000000000000000000000000000000000000000000000000000000\n      dup2\n      mstore\n      0x04\n      add\n      tag_159\n      swap2\n      swap1\n      tag_160\n      jump\t// in\n    tag_159:\n      mload(0x40)\n      dup1\n      swap2\n      sub\n      swap1\n      revert\n        /* \"contracts/token/wstf token /contracts/token/ERC20/OmniERC20.sol\":3061:3147  if (from == address(0)) {... */\n    tag_158:\n        /* \"contracts/token/wstf token /contracts/token/ERC20/OmniERC20.sol\":3174:3175  0 */\n      0x00\n        /* \"contracts/token/wstf token /contracts/token/ERC20/OmniERC20.sol\":3160:3176  to == address(0) */\n      0xffffffffffffffffffffffffffffffffffffffff\n      and\n        /* \"contracts/token/wstf token /contracts/token/ERC20/OmniERC20.sol\":3160:3162  to */\n      dup3\n        /* \"contracts/token/wstf token /contracts/token/ERC20/OmniERC20.sol\":3160:3176  to == address(0) */\n      0xffffffffffffffffffffffffffffffffffffffff\n      and\n      sub\n        /* \"contracts/token/wstf token /contracts/token/ERC20/OmniERC20.sol\":3156:3242  if (to == address(0)) {... */\n      tag_161\n      jumpi\n        /* \"contracts/token/wstf token /contracts/token/ERC20/OmniERC20.sol\":3228:3229  0 */\n      0x00\n        /* \"contracts/token/wstf token /contracts/token/ERC20/OmniERC20.sol\":3199:3231  ERC20InvalidReceiver(address(0)) */\n      mload(0x40)\n      0xec442f0500000000000000000000000000000000000000000000000000000000\n      dup2\n      mstore\n      0x04\n      add\n      tag_162\n      swap2\n      swap1\n      tag_160\n      jump\t// in\n    tag_162:\n      mload(0x40)\n      dup1\n      swap2\n      sub\n      swap1\n      revert\n        /* \"contracts/token/wstf token /contracts/token/ERC20/OmniERC20.sol\":3156:3242  if (to == address(0)) {... */\n    tag_161:\n        /* \"contracts/token/wstf token /contracts/token/ERC20/OmniERC20.sol\":3252:3276  _update(from, to, value) */\n      tag_163\n        /* \"contracts/token/wstf token /contracts/token/ERC20/OmniERC20.sol\":3260:3264  from */\n      dup4\n        /* \"contracts/token/wstf token /contracts/token/ERC20/OmniERC20.sol\":3266:3268  to */\n      dup4\n        /* \"contracts/token/wstf token /contracts/token/ERC20/OmniERC20.sol\":3270:3275  value */\n      dup4\n        /* \"contracts/token/wstf token /contracts/token/ERC20/OmniERC20.sol\":3252:3259  _update */\n      tag_124\n        /* \"contracts/token/wstf token /contracts/token/ERC20/OmniERC20.sol\":3252:3276  _update(from, to, value) */\n      jump\t// in\n    tag_163:\n        /* \"contracts/token/wstf token /contracts/token/ERC20/OmniERC20.sol\":2974:3283  function _transfer(address from, address to, uint256 value) internal virtual {... */\n      pop\n      pop\n      pop\n      jump\t// out\n        /* \"contracts/token/wstf token /contracts/token/ERC20/implementation.sol\":1000:1208  function _mint(address account, uint256 value) internal {... */\n    tag_111:\n        /* \"contracts/token/wstf token /contracts/token/ERC20/implementation.sol\":1089:1090  0 */\n      0x00\n        /* \"contracts/token/wstf token /contracts/token/ERC20/implementation.sol\":1070:1091  account == address(0) */\n      0xffffffffffffffffffffffffffffffffffffffff\n      and\n        /* \"contracts/token/wstf token /contracts/token/ERC20/implementation.sol\":1070:1077  account */\n      dup3\n        /* \"contracts/token/wstf token /contracts/token/ERC20/implementation.sol\":1070:1091  account == address(0) */\n      0xffffffffffffffffffffffffffffffffffffffff\n      and\n      sub\n        /* \"contracts/token/wstf token /contracts/token/ERC20/implementation.sol\":1066:1157  if (account == address(0)) {... */\n      tag_165\n      jumpi\n        /* \"contracts/token/wstf token /contracts/token/ERC20/implementation.sol\":1143:1144  0 */\n      0x00\n        /* \"contracts/token/wstf token /contracts/token/ERC20/implementation.sol\":1114:1146  ERC20InvalidReceiver(address(0)) */\n      mload(0x40)\n      0xec442f0500000000000000000000000000000000000000000000000000000000\n      dup2\n      mstore\n      0x04\n      add\n      tag_166\n      swap2\n      swap1\n      tag_160\n      jump\t// in\n    tag_166:\n      mload(0x40)\n      dup1\n      swap2\n      sub\n      swap1\n      revert\n        /* \"contracts/token/wstf token /contracts/token/ERC20/implementation.sol\":1066:1157  if (account == address(0)) {... */\n    tag_165:\n        /* \"contracts/token/wstf token /contracts/token/ERC20/implementation.sol\":1166:1201  _update(address(0), account, value) */\n      tag_167\n        /* \"contracts/token/wstf token /contracts/token/ERC20/implementation.sol\":1182:1183  0 */\n      0x00\n        /* \"contracts/token/wstf token /contracts/token/ERC20/implementation.sol\":1186:1193  account */\n      dup4\n        /* \"contracts/token/wstf token /contracts/token/ERC20/implementation.sol\":1195:1200  value */\n      dup4\n        /* \"contracts/token/wstf token /contracts/token/ERC20/implementation.sol\":1166:1173  _update */\n      tag_124\n        /* \"contracts/token/wstf token /contracts/token/ERC20/implementation.sol\":1166:1201  _update(address(0), account, value) */\n      jump\t// in\n    tag_167:\n        /* \"contracts/token/wstf token /contracts/token/ERC20/implementation.sol\":1000:1208  function _mint(address account, uint256 value) internal {... */\n      pop\n      pop\n      jump\t// out\n        /* \"contracts/token/lib/omni/contracts/core/src/pkg/XAppBase.sol\":1209:1326  function isXCall() internal view returns (bool) {... */\n    tag_119:\n        /* \"contracts/token/lib/omni/contracts/core/src/pkg/XAppBase.sol\":1251:1255  bool */\n      0x00\n        /* \"contracts/token/lib/omni/contracts/core/src/pkg/XAppBase.sol\":1274:1278  omni */\n      dup1\n      0x00\n      swap1\n      sload\n      swap1\n      0x0100\n      exp\n      swap1\n      div\n      0xffffffffffffffffffffffffffffffffffffffff\n      and\n        /* \"contracts/token/lib/omni/contracts/core/src/pkg/XAppBase.sol\":1274:1286  omni.isXCall */\n      0xffffffffffffffffffffffffffffffffffffffff\n      and\n      0x55e2448e\n        /* \"contracts/token/lib/omni/contracts/core/src/pkg/XAppBase.sol\":1274:1288  omni.isXCall() */\n      mload(0x40)\n      dup2\n      0xffffffff\n      and\n      0xe0\n      shl\n      dup2\n      mstore\n      0x04\n      add\n      0x20\n      mload(0x40)\n      dup1\n      dup4\n      sub\n      dup2\n      dup7\n      gas\n      staticcall\n      iszero\n      dup1\n      iszero\n      tag_170\n      jumpi\n      returndatasize\n      0x00\n      dup1\n      returndatacopy\n      revert(0x00, returndatasize)\n    tag_170:\n      pop\n      pop\n      pop\n      pop\n      mload(0x40)\n      returndatasize\n      not(0x1f)\n      0x1f\n      dup3\n      add\n      and\n      dup3\n      add\n      dup1\n      0x40\n      mstore\n      pop\n      dup2\n      add\n      swap1\n      tag_171\n      swap2\n      swap1\n      tag_172\n      jump\t// in\n    tag_171:\n        /* \"contracts/token/lib/omni/contracts/core/src/pkg/XAppBase.sol\":1274:1319  omni.isXCall() && msg.sender == address(omni) */\n      dup1\n      iszero\n      tag_173\n      jumpi\n      pop\n        /* \"contracts/token/lib/omni/contracts/core/src/pkg/XAppBase.sol\":1314:1318  omni */\n      0x00\n      dup1\n      sload\n      swap1\n      0x0100\n      exp\n      swap1\n      div\n      0xffffffffffffffffffffffffffffffffffffffff\n      and\n        /* \"contracts/token/lib/omni/contracts/core/src/pkg/XAppBase.sol\":1292:1319  msg.sender == address(omni) */\n      0xffffffffffffffffffffffffffffffffffffffff\n      and\n        /* \"contracts/token/lib/omni/contracts/core/src/pkg/XAppBase.sol\":1292:1302  msg.sender */\n      caller\n        /* \"contracts/token/lib/omni/contracts/core/src/pkg/XAppBase.sol\":1292:1319  msg.sender == address(omni) */\n      0xffffffffffffffffffffffffffffffffffffffff\n      and\n      eq\n        /* \"contracts/token/lib/omni/contracts/core/src/pkg/XAppBase.sol\":1274:1319  omni.isXCall() && msg.sender == address(omni) */\n    tag_173:\n        /* \"contracts/token/lib/omni/contracts/core/src/pkg/XAppBase.sol\":1267:1319  return omni.isXCall() && msg.sender == address(omni) */\n      swap1\n      pop\n        /* \"contracts/token/lib/omni/contracts/core/src/pkg/XAppBase.sol\":1209:1326  function isXCall() internal view returns (bool) {... */\n      swap1\n      jump\t// out\n        /* \"contracts/token/wstf token /contracts/token/ERC20/OmniERC20.sol\":3290:3996  function _update(address from, address to, uint256 value) internal virtual {... */\n    tag_124:\n        /* \"contracts/token/wstf token /contracts/token/ERC20/OmniERC20.sol\":3395:3396  0 */\n      0x00\n        /* \"contracts/token/wstf token /contracts/token/ERC20/OmniERC20.sol\":3379:3397  from == address(0) */\n      0xffffffffffffffffffffffffffffffffffffffff\n      and\n        /* \"contracts/token/wstf token /contracts/token/ERC20/OmniERC20.sol\":3379:3383  from */\n      dup4\n        /* \"contracts/token/wstf token /contracts/token/ERC20/OmniERC20.sol\":3379:3397  from == address(0) */\n      0xffffffffffffffffffffffffffffffffffffffff\n      and\n      sub\n        /* \"contracts/token/wstf token /contracts/token/ERC20/OmniERC20.sol\":3375:3734  if (from == address(0)) {... */\n      tag_175\n      jumpi\n        /* \"contracts/token/wstf token /contracts/token/ERC20/OmniERC20.sol\":3429:3434  value */\n      dup1\n        /* \"contracts/token/wstf token /contracts/token/ERC20/OmniERC20.sol\":3413:3425  _totalSupply */\n      0x04\n      0x00\n        /* \"contracts/token/wstf token /contracts/token/ERC20/OmniERC20.sol\":3413:3434  _totalSupply += value */\n      dup3\n      dup3\n      sload\n      tag_176\n      swap2\n      swap1\n      tag_177\n      jump\t// in\n    tag_176:\n      swap3\n      pop\n      pop\n      dup2\n      swap1\n      sstore\n      pop\n        /* \"contracts/token/wstf token /contracts/token/ERC20/OmniERC20.sol\":3375:3734  if (from == address(0)) {... */\n      jump(tag_178)\n    tag_175:\n        /* \"contracts/token/wstf token /contracts/token/ERC20/OmniERC20.sol\":3465:3484  uint256 fromBalance */\n      0x00\n        /* \"contracts/token/wstf token /contracts/token/ERC20/OmniERC20.sol\":3487:3496  _balances */\n      0x02\n        /* \"contracts/token/wstf token /contracts/token/ERC20/OmniERC20.sol\":3487:3502  _balances[from] */\n      0x00\n        /* \"contracts/token/wstf token /contracts/token/ERC20/OmniERC20.sol\":3497:3501  from */\n      dup6\n        /* \"contracts/token/wstf token /contracts/token/ERC20/OmniERC20.sol\":3487:3502  _balances[from] */\n      0xffffffffffffffffffffffffffffffffffffffff\n      and\n      0xffffffffffffffffffffffffffffffffffffffff\n      and\n      dup2\n      mstore\n      0x20\n      add\n      swap1\n      dup2\n      mstore\n      0x20\n      add\n      0x00\n      keccak256\n      sload\n        /* \"contracts/token/wstf token /contracts/token/ERC20/OmniERC20.sol\":3465:3502  uint256 fromBalance = _balances[from] */\n      swap1\n      pop\n        /* \"contracts/token/wstf token /contracts/token/ERC20/OmniERC20.sol\":3534:3539  value */\n      dup2\n        /* \"contracts/token/wstf token /contracts/token/ERC20/OmniERC20.sol\":3520:3531  fromBalance */\n      dup2\n        /* \"contracts/token/wstf token /contracts/token/ERC20/OmniERC20.sol\":3520:3539  fromBalance < value */\n      lt\n        /* \"contracts/token/wstf token /contracts/token/ERC20/OmniERC20.sol\":3516:3631  if (fromBalance < value) {... */\n      iszero\n      tag_179\n      jumpi\n        /* \"contracts/token/wstf token /contracts/token/ERC20/OmniERC20.sol\":3591:3595  from */\n      dup4\n        /* \"contracts/token/wstf token /contracts/token/ERC20/OmniERC20.sol\":3597:3608  fromBalance */\n      dup2\n        /* \"contracts/token/wstf token /contracts/token/ERC20/OmniERC20.sol\":3610:3615  value */\n      dup4\n        /* \"contracts/token/wstf token /contracts/token/ERC20/OmniERC20.sol\":3566:3616  ERC20InsufficientBalance(from, fromBalance, value) */\n      mload(0x40)\n      0xe450d38c00000000000000000000000000000000000000000000000000000000\n      dup2\n      mstore\n      0x04\n      add\n      tag_180\n      swap4\n      swap3\n      swap2\n      swap1\n      tag_155\n      jump\t// in\n    tag_180:\n      mload(0x40)\n      dup1\n      swap2\n      sub\n      swap1\n      revert\n        /* \"contracts/token/wstf token /contracts/token/ERC20/OmniERC20.sol\":3516:3631  if (fromBalance < value) {... */\n    tag_179:\n        /* \"contracts/token/wstf token /contracts/token/ERC20/OmniERC20.sol\":3704:3709  value */\n      dup2\n        /* \"contracts/token/wstf token /contracts/token/ERC20/OmniERC20.sol\":3690:3701  fromBalance */\n      dup2\n        /* \"contracts/token/wstf token /contracts/token/ERC20/OmniERC20.sol\":3690:3709  fromBalance - value */\n      sub\n        /* \"contracts/token/wstf token /contracts/token/ERC20/OmniERC20.sol\":3672:3681  _balances */\n      0x02\n        /* \"contracts/token/wstf token /contracts/token/ERC20/OmniERC20.sol\":3672:3687  _balances[from] */\n      0x00\n        /* \"contracts/token/wstf token /contracts/token/ERC20/OmniERC20.sol\":3682:3686  from */\n      dup7\n        /* \"contracts/token/wstf token /contracts/token/ERC20/OmniERC20.sol\":3672:3687  _balances[from] */\n      0xffffffffffffffffffffffffffffffffffffffff\n      and\n      0xffffffffffffffffffffffffffffffffffffffff\n      and\n      dup2\n      mstore\n      0x20\n      add\n      swap1\n      dup2\n      mstore\n      0x20\n      add\n      0x00\n      keccak256\n        /* \"contracts/token/wstf token /contracts/token/ERC20/OmniERC20.sol\":3672:3709  _balances[from] = fromBalance - value */\n      dup2\n      swap1\n      sstore\n      pop\n        /* \"contracts/token/wstf token /contracts/token/ERC20/OmniERC20.sol\":3451:3734  {... */\n      pop\n        /* \"contracts/token/wstf token /contracts/token/ERC20/OmniERC20.sol\":3375:3734  if (from == address(0)) {... */\n    tag_178:\n        /* \"contracts/token/wstf token /contracts/token/ERC20/OmniERC20.sol\":3762:3763  0 */\n      0x00\n        /* \"contracts/token/wstf token /contracts/token/ERC20/OmniERC20.sol\":3748:3764  to == address(0) */\n      0xffffffffffffffffffffffffffffffffffffffff\n      and\n        /* \"contracts/token/wstf token /contracts/token/ERC20/OmniERC20.sol\":3748:3750  to */\n      dup3\n        /* \"contracts/token/wstf token /contracts/token/ERC20/OmniERC20.sol\":3748:3764  to == address(0) */\n      0xffffffffffffffffffffffffffffffffffffffff\n      and\n      sub\n        /* \"contracts/token/wstf token /contracts/token/ERC20/OmniERC20.sol\":3744:3949  if (to == address(0)) {... */\n      tag_181\n      jumpi\n        /* \"contracts/token/wstf token /contracts/token/ERC20/OmniERC20.sol\":3824:3829  value */\n      dup1\n        /* \"contracts/token/wstf token /contracts/token/ERC20/OmniERC20.sol\":3808:3820  _totalSupply */\n      0x04\n      0x00\n        /* \"contracts/token/wstf token /contracts/token/ERC20/OmniERC20.sol\":3808:3829  _totalSupply -= value */\n      dup3\n      dup3\n      sload\n      sub\n      swap3\n      pop\n      pop\n      dup2\n      swap1\n      sstore\n      pop\n        /* \"contracts/token/wstf token /contracts/token/ERC20/OmniERC20.sol\":3744:3949  if (to == address(0)) {... */\n      jump(tag_182)\n    tag_181:\n        /* \"contracts/token/wstf token /contracts/token/ERC20/OmniERC20.sol\":3919:3924  value */\n      dup1\n        /* \"contracts/token/wstf token /contracts/token/ERC20/OmniERC20.sol\":3902:3911  _balances */\n      0x02\n        /* \"contracts/token/wstf token /contracts/token/ERC20/OmniERC20.sol\":3902:3915  _balances[to] */\n      0x00\n        /* \"contracts/token/wstf token /contracts/token/ERC20/OmniERC20.sol\":3912:3914  to */\n      dup5\n        /* \"contracts/token/wstf token /contracts/token/ERC20/OmniERC20.sol\":3902:3915  _balances[to] */\n      0xffffffffffffffffffffffffffffffffffffffff\n      and\n      0xffffffffffffffffffffffffffffffffffffffff\n      and\n      dup2\n      mstore\n      0x20\n      add\n      swap1\n      dup2\n      mstore\n      0x20\n      add\n      0x00\n      keccak256\n      0x00\n        /* \"contracts/token/wstf token /contracts/token/ERC20/OmniERC20.sol\":3902:3924  _balances[to] += value */\n      dup3\n      dup3\n      sload\n      add\n      swap3\n      pop\n      pop\n      dup2\n      swap1\n      sstore\n      pop\n        /* \"contracts/token/wstf token /contracts/token/ERC20/OmniERC20.sol\":3744:3949  if (to == address(0)) {... */\n    tag_182:\n        /* \"contracts/token/wstf token /contracts/token/ERC20/OmniERC20.sol\":3979:3981  to */\n      dup2\n        /* \"contracts/token/wstf token /contracts/token/ERC20/OmniERC20.sol\":3964:3989  Transfer(from, to, value) */\n      0xffffffffffffffffffffffffffffffffffffffff\n      and\n        /* \"contracts/token/wstf token /contracts/token/ERC20/OmniERC20.sol\":3973:3977  from */\n      dup4\n        /* \"contracts/token/wstf token /contracts/token/ERC20/OmniERC20.sol\":3964:3989  Transfer(from, to, value) */\n      0xffffffffffffffffffffffffffffffffffffffff\n      and\n      0xddf252ad1be2c89b69c2b068fc378daa952ba7f163c4a11628f55a4df523b3ef\n        /* \"contracts/token/wstf token /contracts/token/ERC20/OmniERC20.sol\":3983:3988  value */\n      dup4\n        /* \"contracts/token/wstf token /contracts/token/ERC20/OmniERC20.sol\":3964:3989  Transfer(from, to, value) */\n      mload(0x40)\n      tag_183\n      swap2\n      swap1\n      tag_35\n      jump\t// in\n    tag_183:\n      mload(0x40)\n      dup1\n      swap2\n      sub\n      swap1\n      log3\n        /* \"contracts/token/wstf token /contracts/token/ERC20/OmniERC20.sol\":3290:3996  function _update(address from, address to, uint256 value) internal virtual {... */\n      pop\n      pop\n      pop\n      jump\t// out\n        /* \"contracts/token/lib/omni/contracts/core/src/pkg/XAppBase.sol\":2156:2537  function xcall(uint64 destChainId, address to, bytes memory data, uint64 gasLimit) internal returns (uint256) {... */\n    tag_141:\n        /* \"contracts/token/lib/omni/contracts/core/src/pkg/XAppBase.sol\":2257:2264  uint256 */\n      0x00\n        /* \"contracts/token/lib/omni/contracts/core/src/pkg/XAppBase.sol\":2276:2287  uint256 fee */\n      dup1\n        /* \"contracts/token/lib/omni/contracts/core/src/pkg/XAppBase.sol\":2290:2294  omni */\n      0x00\n      dup1\n      sload\n      swap1\n      0x0100\n      exp\n      swap1\n      div\n      0xffffffffffffffffffffffffffffffffffffffff\n      and\n        /* \"contracts/token/lib/omni/contracts/core/src/pkg/XAppBase.sol\":2290:2301  omni.feeFor */\n      0xffffffffffffffffffffffffffffffffffffffff\n      and\n      0x8dd9523c\n        /* \"contracts/token/lib/omni/contracts/core/src/pkg/XAppBase.sol\":2302:2313  destChainId */\n      dup8\n        /* \"contracts/token/lib/omni/contracts/core/src/pkg/XAppBase.sol\":2315:2319  data */\n      dup7\n        /* \"contracts/token/lib/omni/contracts/core/src/pkg/XAppBase.sol\":2321:2329  gasLimit */\n      dup7\n        /* \"contracts/token/lib/omni/contracts/core/src/pkg/XAppBase.sol\":2290:2330  omni.feeFor(destChainId, data, gasLimit) */\n      mload(0x40)\n      dup5\n      0xffffffff\n      and\n      0xe0\n      shl\n      dup2\n      mstore\n      0x04\n      add\n      tag_185\n      swap4\n      swap3\n      swap2\n      swap1\n      tag_186\n      jump\t// in\n    tag_185:\n      0x20\n      mload(0x40)\n      dup1\n      dup4\n      sub\n      dup2\n      dup7\n      gas\n      staticcall\n      iszero\n      dup1\n      iszero\n      tag_188\n      jumpi\n      returndatasize\n      0x00\n      dup1\n      returndatacopy\n      revert(0x00, returndatasize)\n    tag_188:\n      pop\n      pop\n      pop\n      pop\n      mload(0x40)\n      returndatasize\n      not(0x1f)\n      0x1f\n      dup3\n      add\n      and\n      dup3\n      add\n      dup1\n      0x40\n      mstore\n      pop\n      dup2\n      add\n      swap1\n      tag_189\n      swap2\n      swap1\n      tag_190\n      jump\t// in\n    tag_189:\n        /* \"contracts/token/lib/omni/contracts/core/src/pkg/XAppBase.sol\":2276:2330  uint256 fee = omni.feeFor(destChainId, data, gasLimit) */\n      swap1\n      pop\n        /* \"contracts/token/lib/omni/contracts/core/src/pkg/XAppBase.sol\":2373:2376  fee */\n      dup1\n        /* \"contracts/token/lib/omni/contracts/core/src/pkg/XAppBase.sol\":2348:2369  address(this).balance */\n      selfbalance\n        /* \"contracts/token/lib/omni/contracts/core/src/pkg/XAppBase.sol\":2348:2376  address(this).balance >= fee */\n      lt\n      iszero\n        /* \"contracts/token/lib/omni/contracts/core/src/pkg/XAppBase.sol\":2348:2396  address(this).balance >= fee || msg.value >= fee */\n      dup1\n      tag_191\n      jumpi\n      pop\n        /* \"contracts/token/lib/omni/contracts/core/src/pkg/XAppBase.sol\":2393:2396  fee */\n      dup1\n        /* \"contracts/token/lib/omni/contracts/core/src/pkg/XAppBase.sol\":2380:2389  msg.value */\n      callvalue\n        /* \"contracts/token/lib/omni/contracts/core/src/pkg/XAppBase.sol\":2380:2396  msg.value >= fee */\n      lt\n      iszero\n        /* \"contracts/token/lib/omni/contracts/core/src/pkg/XAppBase.sol\":2348:2396  address(this).balance >= fee || msg.value >= fee */\n    tag_191:\n        /* \"contracts/token/lib/omni/contracts/core/src/pkg/XAppBase.sol\":2340:2425  require(address(this).balance >= fee || msg.value >= fee, \"XApp: insufficient funds\") */\n      tag_192\n      jumpi\n      mload(0x40)\n      0x08c379a000000000000000000000000000000000000000000000000000000000\n      dup2\n      mstore\n      0x04\n      add\n      tag_193\n      swap1\n      tag_194\n      jump\t// in\n    tag_193:\n      mload(0x40)\n      dup1\n      swap2\n      sub\n      swap1\n      revert\n    tag_192:\n        /* \"contracts/token/lib/omni/contracts/core/src/pkg/XAppBase.sol\":2435:2439  omni */\n      0x00\n      dup1\n      sload\n      swap1\n      0x0100\n      exp\n      swap1\n      div\n      0xffffffffffffffffffffffffffffffffffffffff\n      and\n        /* \"contracts/token/lib/omni/contracts/core/src/pkg/XAppBase.sol\":2435:2445  omni.xcall */\n      0xffffffffffffffffffffffffffffffffffffffff\n      and\n      0xc21dda4f\n        /* \"contracts/token/lib/omni/contracts/core/src/pkg/XAppBase.sol\":2454:2457  fee */\n      dup3\n        /* \"contracts/token/lib/omni/contracts/core/src/pkg/XAppBase.sol\":2460:2471  destChainId */\n      dup9\n        /* \"contracts/token/lib/omni/contracts/core/src/pkg/XAppBase.sol\":2473:2489  defaultConfLevel */\n      0x00\n      0x14\n      swap1\n      sload\n      swap1\n      0x0100\n      exp\n      swap1\n      div\n      0xff\n      and\n        /* \"contracts/token/lib/omni/contracts/core/src/pkg/XAppBase.sol\":2491:2493  to */\n      dup10\n        /* \"contracts/token/lib/omni/contracts/core/src/pkg/XAppBase.sol\":2495:2499  data */\n      dup10\n        /* \"contracts/token/lib/omni/contracts/core/src/pkg/XAppBase.sol\":2501:2509  gasLimit */\n      dup10\n        /* \"contracts/token/lib/omni/contracts/core/src/pkg/XAppBase.sol\":2435:2510  omni.xcall{ value: fee }(destChainId, defaultConfLevel, to, data, gasLimit) */\n      mload(0x40)\n      dup8\n      0xffffffff\n      and\n      0xe0\n      shl\n      dup2\n      mstore\n      0x04\n      add\n      tag_195\n      swap6\n      swap5\n      swap4\n      swap3\n      swap2\n      swap1\n      tag_196\n      jump\t// in\n    tag_195:\n      0x00\n      mload(0x40)\n      dup1\n      dup4\n      sub\n      dup2\n      dup6\n      dup9\n      dup1\n      extcodesize\n      iszero\n      dup1\n      iszero\n      tag_197\n      jumpi\n      0x00\n      dup1\n      revert\n    tag_197:\n      pop\n      gas\n      call\n      iszero\n      dup1\n      iszero\n      tag_199\n      jumpi\n      returndatasize\n      0x00\n      dup1\n      returndatacopy\n      revert(0x00, returndatasize)\n    tag_199:\n      pop\n      pop\n      pop\n      pop\n      pop\n        /* \"contracts/token/lib/omni/contracts/core/src/pkg/XAppBase.sol\":2527:2530  fee */\n      dup1\n        /* \"contracts/token/lib/omni/contracts/core/src/pkg/XAppBase.sol\":2520:2530  return fee */\n      swap2\n      pop\n      pop\n        /* \"contracts/token/lib/omni/contracts/core/src/pkg/XAppBase.sol\":2156:2537  function xcall(uint64 destChainId, address to, bytes memory data, uint64 gasLimit) internal returns (uint256) {... */\n      swap5\n      swap4\n      pop\n      pop\n      pop\n      pop\n      jump\t// out\n        /* \"contracts/token/wstf token /contracts/token/ERC20/OmniERC20.sol\":4137:4569  function _approve(address owner, address spender, uint256 value, bool emitEvent) internal virtual {... */\n    tag_149:\n        /* \"contracts/token/wstf token /contracts/token/ERC20/OmniERC20.sol\":4266:4267  0 */\n      0x00\n        /* \"contracts/token/wstf token /contracts/token/ERC20/OmniERC20.sol\":4249:4268  owner == address(0) */\n      0xffffffffffffffffffffffffffffffffffffffff\n      and\n        /* \"contracts/token/wstf token /contracts/token/ERC20/OmniERC20.sol\":4249:4254  owner */\n      dup5\n        /* \"contracts/token/wstf token /contracts/token/ERC20/OmniERC20.sol\":4249:4268  owner == address(0) */\n      0xffffffffffffffffffffffffffffffffffffffff\n      and\n      sub\n        /* \"contracts/token/wstf token /contracts/token/ERC20/OmniERC20.sol\":4245:4334  if (owner == address(0)) {... */\n      tag_201\n      jumpi\n        /* \"contracts/token/wstf token /contracts/token/ERC20/OmniERC20.sol\":4320:4321  0 */\n      0x00\n        /* \"contracts/token/wstf token /contracts/token/ERC20/OmniERC20.sol\":4291:4323  ERC20InvalidApprover(address(0)) */\n      mload(0x40)\n      0xe602df0500000000000000000000000000000000000000000000000000000000\n      dup2\n      mstore\n      0x04\n      add\n      tag_202\n      swap2\n      swap1\n      tag_160\n      jump\t// in\n    tag_202:\n      mload(0x40)\n      dup1\n      swap2\n      sub\n      swap1\n      revert\n        /* \"contracts/token/wstf token /contracts/token/ERC20/OmniERC20.sol\":4245:4334  if (owner == address(0)) {... */\n    tag_201:\n        /* \"contracts/token/wstf token /contracts/token/ERC20/OmniERC20.sol\":4366:4367  0 */\n      0x00\n        /* \"contracts/token/wstf token /contracts/token/ERC20/OmniERC20.sol\":4347:4368  spender == address(0) */\n      0xffffffffffffffffffffffffffffffffffffffff\n      and\n        /* \"contracts/token/wstf token /contracts/token/ERC20/OmniERC20.sol\":4347:4354  spender */\n      dup4\n        /* \"contracts/token/wstf token /contracts/token/ERC20/OmniERC20.sol\":4347:4368  spender == address(0) */\n      0xffffffffffffffffffffffffffffffffffffffff\n      and\n      sub\n        /* \"contracts/token/wstf token /contracts/token/ERC20/OmniERC20.sol\":4343:4433  if (spender == address(0)) {... */\n      tag_203\n      jumpi\n        /* \"contracts/token/wstf token /contracts/token/ERC20/OmniERC20.sol\":4419:4420  0 */\n      0x00\n        /* \"contracts/token/wstf token /contracts/token/ERC20/OmniERC20.sol\":4391:4422  ERC20InvalidSpender(address(0)) */\n      mload(0x40)\n      0x94280d6200000000000000000000000000000000000000000000000000000000\n      dup2\n      mstore\n      0x04\n      add\n      tag_204\n      swap2\n      swap1\n      tag_160\n      jump\t// in\n    tag_204:\n      mload(0x40)\n      dup1\n      swap2\n      sub\n      swap1\n      revert\n        /* \"contracts/token/wstf token /contracts/token/ERC20/OmniERC20.sol\":4343:4433  if (spender == address(0)) {... */\n    tag_203:\n        /* \"contracts/token/wstf token /contracts/token/ERC20/OmniERC20.sol\":4472:4477  value */\n      dup2\n        /* \"contracts/token/wstf token /contracts/token/ERC20/OmniERC20.sol\":4442:4453  _allowances */\n      0x03\n        /* \"contracts/token/wstf token /contracts/token/ERC20/OmniERC20.sol\":4442:4460  _allowances[owner] */\n      0x00\n        /* \"contracts/token/wstf token /contracts/token/ERC20/OmniERC20.sol\":4454:4459  owner */\n      dup7\n        /* \"contracts/token/wstf token /contracts/token/ERC20/OmniERC20.sol\":4442:4460  _allowances[owner] */\n      0xffffffffffffffffffffffffffffffffffffffff\n      and\n      0xffffffffffffffffffffffffffffffffffffffff\n      and\n      dup2\n      mstore\n      0x20\n      add\n      swap1\n      dup2\n      mstore\n      0x20\n      add\n      0x00\n      keccak256\n        /* \"contracts/token/wstf token /contracts/token/ERC20/OmniERC20.sol\":4442:4469  _allowances[owner][spender] */\n      0x00\n        /* \"contracts/token/wstf token /contracts/token/ERC20/OmniERC20.sol\":4461:4468  spender */\n      dup6\n        /* \"contracts/token/wstf token /contracts/token/ERC20/OmniERC20.sol\":4442:4469  _allowances[owner][spender] */\n      0xffffffffffffffffffffffffffffffffffffffff\n      and\n      0xffffffffffffffffffffffffffffffffffffffff\n      and\n      dup2\n      mstore\n      0x20\n      add\n      swap1\n      dup2\n      mstore\n      0x20\n      add\n      0x00\n      keccak256\n        /* \"contracts/token/wstf token /contracts/token/ERC20/OmniERC20.sol\":4442:4477  _allowances[owner][spender] = value */\n      dup2\n      swap1\n      sstore\n      pop\n        /* \"contracts/token/wstf token /contracts/token/ERC20/OmniERC20.sol\":4491:4500  emitEvent */\n      dup1\n        /* \"contracts/token/wstf token /contracts/token/ERC20/OmniERC20.sol\":4487:4563  if (emitEvent) {... */\n      iszero\n      tag_205\n      jumpi\n        /* \"contracts/token/wstf token /contracts/token/ERC20/OmniERC20.sol\":4537:4544  spender */\n      dup3\n        /* \"contracts/token/wstf token /contracts/token/ERC20/OmniERC20.sol\":4521:4552  Approval(owner, spender, value) */\n      0xffffffffffffffffffffffffffffffffffffffff\n      and\n        /* \"contracts/token/wstf token /contracts/token/ERC20/OmniERC20.sol\":4530:4535  owner */\n      dup5\n        /* \"contracts/token/wstf token /contracts/token/ERC20/OmniERC20.sol\":4521:4552  Approval(owner, spender, value) */\n      0xffffffffffffffffffffffffffffffffffffffff\n      and\n      0x8c5be1e5ebec7d5bd14f71427d1e84f3dd0314c0f7b2291e5b200ac8c7c3b925\n        /* \"contracts/token/wstf token /contracts/token/ERC20/OmniERC20.sol\":4546:4551  value */\n      dup5\n        /* \"contracts/token/wstf token /contracts/token/ERC20/OmniERC20.sol\":4521:4552  Approval(owner, spender, value) */\n      mload(0x40)\n      tag_206\n      swap2\n      swap1\n      tag_35\n      jump\t// in\n    tag_206:\n      mload(0x40)\n      dup1\n      swap2\n      sub\n      swap1\n      log3\n        /* \"contracts/token/wstf token /contracts/token/ERC20/OmniERC20.sol\":4487:4563  if (emitEvent) {... */\n    tag_205:\n        /* \"contracts/token/wstf token /contracts/token/ERC20/OmniERC20.sol\":4137:4569  function _approve(address owner, address spender, uint256 value, bool emitEvent) internal virtual {... */\n      pop\n      pop\n      pop\n      pop\n      jump\t// out\n        /* \"#utility.yul\":7:106   */\n    tag_207:\n        /* \"#utility.yul\":59:65   */\n      0x00\n        /* \"#utility.yul\":93:98   */\n      dup2\n        /* \"#utility.yul\":87:99   */\n      mload\n        /* \"#utility.yul\":77:99   */\n      swap1\n      pop\n        /* \"#utility.yul\":7:106   */\n      swap2\n      swap1\n      pop\n      jump\t// out\n        /* \"#utility.yul\":112:281   */\n    tag_208:\n        /* \"#utility.yul\":196:207   */\n      0x00\n        /* \"#utility.yul\":230:236   */\n      dup3\n        /* \"#utility.yul\":225:228   */\n      dup3\n        /* \"#utility.yul\":218:237   */\n      mstore\n        /* \"#utility.yul\":270:274   */\n      0x20\n        /* \"#utility.yul\":265:268   */\n      dup3\n        /* \"#utility.yul\":261:275   */\n      add\n        /* \"#utility.yul\":246:275   */\n      swap1\n      pop\n        /* \"#utility.yul\":112:281   */\n      swap3\n      swap2\n      pop\n      pop\n      jump\t// out\n        /* \"#utility.yul\":287:426   */\n    tag_209:\n        /* \"#utility.yul\":376:382   */\n      dup3\n        /* \"#utility.yul\":371:374   */\n      dup2\n        /* \"#utility.yul\":366:369   */\n      dup4\n        /* \"#utility.yul\":360:383   */\n      mcopy\n        /* \"#utility.yul\":417:418   */\n      0x00\n        /* \"#utility.yul\":408:414   */\n      dup4\n        /* \"#utility.yul\":403:406   */\n      dup4\n        /* \"#utility.yul\":399:415   */\n      add\n        /* \"#utility.yul\":392:419   */\n      mstore\n        /* \"#utility.yul\":287:426   */\n      pop\n      pop\n      pop\n      jump\t// out\n        /* \"#utility.yul\":432:534   */\n    tag_210:\n        /* \"#utility.yul\":473:479   */\n      0x00\n        /* \"#utility.yul\":524:526   */\n      0x1f\n        /* \"#utility.yul\":520:527   */\n      not\n        /* \"#utility.yul\":515:517   */\n      0x1f\n        /* \"#utility.yul\":508:513   */\n      dup4\n        /* \"#utility.yul\":504:518   */\n      add\n        /* \"#utility.yul\":500:528   */\n      and\n        /* \"#utility.yul\":490:528   */\n      swap1\n      pop\n        /* \"#utility.yul\":432:534   */\n      swap2\n      swap1\n      pop\n      jump\t// out\n        /* \"#utility.yul\":540:917   */\n    tag_211:\n        /* \"#utility.yul\":628:631   */\n      0x00\n        /* \"#utility.yul\":656:695   */\n      tag_265\n        /* \"#utility.yul\":689:694   */\n      dup3\n        /* \"#utility.yul\":656:695   */\n      tag_207\n      jump\t// in\n    tag_265:\n        /* \"#utility.yul\":711:782   */\n      tag_266\n        /* \"#utility.yul\":775:781   */\n      dup2\n        /* \"#utility.yul\":770:773   */\n      dup6\n        /* \"#utility.yul\":711:782   */\n      tag_208\n      jump\t// in\n    tag_266:\n        /* \"#utility.yul\":704:782   */\n      swap4\n      pop\n        /* \"#utility.yul\":791:856   */\n      tag_267\n        /* \"#utility.yul\":849:855   */\n      dup2\n        /* \"#utility.yul\":844:847   */\n      dup6\n        /* \"#utility.yul\":837:841   */\n      0x20\n        /* \"#utility.yul\":830:835   */\n      dup7\n        /* \"#utility.yul\":826:842   */\n      add\n        /* \"#utility.yul\":791:856   */\n      tag_209\n      jump\t// in\n    tag_267:\n        /* \"#utility.yul\":881:910   */\n      tag_268\n        /* \"#utility.yul\":903:909   */\n      dup2\n        /* \"#utility.yul\":881:910   */\n      tag_210\n      jump\t// in\n    tag_268:\n        /* \"#utility.yul\":876:879   */\n      dup5\n        /* \"#utility.yul\":872:911   */\n      add\n        /* \"#utility.yul\":865:911   */\n      swap2\n      pop\n        /* \"#utility.yul\":632:917   */\n      pop\n        /* \"#utility.yul\":540:917   */\n      swap3\n      swap2\n      pop\n      pop\n      jump\t// out\n        /* \"#utility.yul\":923:1236   */\n    tag_23:\n        /* \"#utility.yul\":1036:1040   */\n      0x00\n        /* \"#utility.yul\":1074:1076   */\n      0x20\n        /* \"#utility.yul\":1063:1072   */\n      dup3\n        /* \"#utility.yul\":1059:1077   */\n      add\n        /* \"#utility.yul\":1051:1077   */\n      swap1\n      pop\n        /* \"#utility.yul\":1123:1132   */\n      dup2\n        /* \"#utility.yul\":1117:1121   */\n      dup2\n        /* \"#utility.yul\":1113:1133   */\n      sub\n        /* \"#utility.yul\":1109:1110   */\n      0x00\n        /* \"#utility.yul\":1098:1107   */\n      dup4\n        /* \"#utility.yul\":1094:1111   */\n      add\n        /* \"#utility.yul\":1087:1134   */\n      mstore\n        /* \"#utility.yul\":1151:1229   */\n      tag_270\n        /* \"#utility.yul\":1224:1228   */\n      dup2\n        /* \"#utility.yul\":1215:1221   */\n      dup5\n        /* \"#utility.yul\":1151:1229   */\n      tag_211\n      jump\t// in\n    tag_270:\n        /* \"#utility.yul\":1143:1229   */\n      swap1\n      pop\n        /* \"#utility.yul\":923:1236   */\n      swap3\n      swap2\n      pop\n      pop\n      jump\t// out\n        /* \"#utility.yul\":1242:1317   */\n    tag_212:\n        /* \"#utility.yul\":1275:1281   */\n      0x00\n        /* \"#utility.yul\":1308:1310   */\n      0x40\n        /* \"#utility.yul\":1302:1311   */\n      mload\n        /* \"#utility.yul\":1292:1311   */\n      swap1\n      pop\n        /* \"#utility.yul\":1242:1317   */\n      swap1\n      jump\t// out\n        /* \"#utility.yul\":1323:1440   */\n    tag_213:\n        /* \"#utility.yul\":1432:1433   */\n      0x00\n        /* \"#utility.yul\":1429:1430   */\n      dup1\n        /* \"#utility.yul\":1422:1434   */\n      revert\n        /* \"#utility.yul\":1569:1695   */\n    tag_215:\n        /* \"#utility.yul\":1606:1613   */\n      0x00\n        /* \"#utility.yul\":1646:1688   */\n      0xffffffffffffffffffffffffffffffffffffffff\n        /* \"#utility.yul\":1639:1644   */\n      dup3\n        /* \"#utility.yul\":1635:1689   */\n      and\n        /* \"#utility.yul\":1624:1689   */\n      swap1\n      pop\n        /* \"#utility.yul\":1569:1695   */\n      swap2\n      swap1\n      pop\n      jump\t// out\n        /* \"#utility.yul\":1701:1797   */\n    tag_216:\n        /* \"#utility.yul\":1738:1745   */\n      0x00\n        /* \"#utility.yul\":1767:1791   */\n      tag_276\n        /* \"#utility.yul\":1785:1790   */\n      dup3\n        /* \"#utility.yul\":1767:1791   */\n      tag_215\n      jump\t// in\n    tag_276:\n        /* \"#utility.yul\":1756:1791   */\n      swap1\n      pop\n        /* \"#utility.yul\":1701:1797   */\n      swap2\n      swap1\n      pop\n      jump\t// out\n        /* \"#utility.yul\":1803:1925   */\n    tag_217:\n        /* \"#utility.yul\":1876:1900   */\n      tag_278\n        /* \"#utility.yul\":1894:1899   */\n      dup2\n        /* \"#utility.yul\":1876:1900   */\n      tag_216\n      jump\t// in\n    tag_278:\n        /* \"#utility.yul\":1869:1874   */\n      dup2\n        /* \"#utility.yul\":1866:1901   */\n      eq\n        /* \"#utility.yul\":1856:1919   */\n      tag_279\n      jumpi\n        /* \"#utility.yul\":1915:1916   */\n      0x00\n        /* \"#utility.yul\":1912:1913   */\n      dup1\n        /* \"#utility.yul\":1905:1917   */\n      revert\n        /* \"#utility.yul\":1856:1919   */\n    tag_279:\n        /* \"#utility.yul\":1803:1925   */\n      pop\n      jump\t// out\n        /* \"#utility.yul\":1931:2070   */\n    tag_218:\n        /* \"#utility.yul\":1977:1982   */\n      0x00\n        /* \"#utility.yul\":2015:2021   */\n      dup2\n        /* \"#utility.yul\":2002:2022   */\n      calldataload\n        /* \"#utility.yul\":1993:2022   */\n      swap1\n      pop\n        /* \"#utility.yul\":2031:2064   */\n      tag_281\n        /* \"#utility.yul\":2058:2063   */\n      dup2\n        /* \"#utility.yul\":2031:2064   */\n      tag_217\n      jump\t// in\n    tag_281:\n        /* \"#utility.yul\":1931:2070   */\n      swap3\n      swap2\n      pop\n      pop\n      jump\t// out\n        /* \"#utility.yul\":2076:2153   */\n    tag_219:\n        /* \"#utility.yul\":2113:2120   */\n      0x00\n        /* \"#utility.yul\":2142:2147   */\n      dup2\n        /* \"#utility.yul\":2131:2147   */\n      swap1\n      pop\n        /* \"#utility.yul\":2076:2153   */\n      swap2\n      swap1\n      pop\n      jump\t// out\n        /* \"#utility.yul\":2159:2281   */\n    tag_220:\n        /* \"#utility.yul\":2232:2256   */\n      tag_284\n        /* \"#utility.yul\":2250:2255   */\n      dup2\n        /* \"#utility.yul\":2232:2256   */\n      tag_219\n      jump\t// in\n    tag_284:\n        /* \"#utility.yul\":2225:2230   */\n      dup2\n        /* \"#utility.yul\":2222:2257   */\n      eq\n        /* \"#utility.yul\":2212:2275   */\n      tag_285\n      jumpi\n        /* \"#utility.yul\":2271:2272   */\n      0x00\n        /* \"#utility.yul\":2268:2269   */\n      dup1\n        /* \"#utility.yul\":2261:2273   */\n      revert\n        /* \"#utility.yul\":2212:2275   */\n    tag_285:\n        /* \"#utility.yul\":2159:2281   */\n      pop\n      jump\t// out\n        /* \"#utility.yul\":2287:2426   */\n    tag_221:\n        /* \"#utility.yul\":2333:2338   */\n      0x00\n        /* \"#utility.yul\":2371:2377   */\n      dup2\n        /* \"#utility.yul\":2358:2378   */\n      calldataload\n        /* \"#utility.yul\":2349:2378   */\n      swap1\n      pop\n        /* \"#utility.yul\":2387:2420   */\n      tag_287\n        /* \"#utility.yul\":2414:2419   */\n      dup2\n        /* \"#utility.yul\":2387:2420   */\n      tag_220\n      jump\t// in\n    tag_287:\n        /* \"#utility.yul\":2287:2426   */\n      swap3\n      swap2\n      pop\n      pop\n      jump\t// out\n        /* \"#utility.yul\":2432:2906   */\n    tag_27:\n        /* \"#utility.yul\":2500:2506   */\n      0x00\n        /* \"#utility.yul\":2508:2514   */\n      dup1\n        /* \"#utility.yul\":2557:2559   */\n      0x40\n        /* \"#utility.yul\":2545:2554   */\n      dup4\n        /* \"#utility.yul\":2536:2543   */\n      dup6\n        /* \"#utility.yul\":2532:2555   */\n      sub\n        /* \"#utility.yul\":2528:2560   */\n      slt\n        /* \"#utility.yul\":2525:2644   */\n      iszero\n      tag_289\n      jumpi\n        /* \"#utility.yul\":2563:2642   */\n      tag_290\n      tag_213\n      jump\t// in\n    tag_290:\n        /* \"#utility.yul\":2525:2644   */\n    tag_289:\n        /* \"#utility.yul\":2683:2684   */\n      0x00\n        /* \"#utility.yul\":2708:2761   */\n      tag_291\n        /* \"#utility.yul\":2753:2760   */\n      dup6\n        /* \"#utility.yul\":2744:2750   */\n      dup3\n        /* \"#utility.yul\":2733:2742   */\n      dup7\n        /* \"#utility.yul\":2729:2751   */\n      add\n        /* \"#utility.yul\":2708:2761   */\n      tag_218\n      jump\t// in\n    tag_291:\n        /* \"#utility.yul\":2698:2761   */\n      swap3\n      pop\n        /* \"#utility.yul\":2654:2771   */\n      pop\n        /* \"#utility.yul\":2810:2812   */\n      0x20\n        /* \"#utility.yul\":2836:2889   */\n      tag_292\n        /* \"#utility.yul\":2881:2888   */\n      dup6\n        /* \"#utility.yul\":2872:2878   */\n      dup3\n        /* \"#utility.yul\":2861:2870   */\n      dup7\n        /* \"#utility.yul\":2857:2879   */\n      add\n        /* \"#utility.yul\":2836:2889   */\n      tag_221\n      jump\t// in\n    tag_292:\n        /* \"#utility.yul\":2826:2889   */\n      swap2\n      pop\n        /* \"#utility.yul\":2781:2899   */\n      pop\n        /* \"#utility.yul\":2432:2906   */\n      swap3\n      pop\n      swap3\n      swap1\n      pop\n      jump\t// out\n        /* \"#utility.yul\":2912:3002   */\n    tag_222:\n        /* \"#utility.yul\":2946:2953   */\n      0x00\n        /* \"#utility.yul\":2989:2994   */\n      dup2\n        /* \"#utility.yul\":2982:2995   */\n      iszero\n        /* \"#utility.yul\":2975:2996   */\n      iszero\n        /* \"#utility.yul\":2964:2996   */\n      swap1\n      pop\n        /* \"#utility.yul\":2912:3002   */\n      swap2\n      swap1\n      pop\n      jump\t// out\n        /* \"#utility.yul\":3008:3117   */\n    tag_223:\n        /* \"#utility.yul\":3089:3110   */\n      tag_295\n        /* \"#utility.yul\":3104:3109   */\n      dup2\n        /* \"#utility.yul\":3089:3110   */\n      tag_222\n      jump\t// in\n    tag_295:\n        /* \"#utility.yul\":3084:3087   */\n      dup3\n        /* \"#utility.yul\":3077:3111   */\n      mstore\n        /* \"#utility.yul\":3008:3117   */\n      pop\n      pop\n      jump\t// out\n        /* \"#utility.yul\":3123:3333   */\n    tag_30:\n        /* \"#utility.yul\":3210:3214   */\n      0x00\n        /* \"#utility.yul\":3248:3250   */\n      0x20\n        /* \"#utility.yul\":3237:3246   */\n      dup3\n        /* \"#utility.yul\":3233:3251   */\n      add\n        /* \"#utility.yul\":3225:3251   */\n      swap1\n      pop\n        /* \"#utility.yul\":3261:3326   */\n      tag_297\n        /* \"#utility.yul\":3323:3324   */\n      0x00\n        /* \"#utility.yul\":3312:3321   */\n      dup4\n        /* \"#utility.yul\":3308:3325   */\n      add\n        /* \"#utility.yul\":3299:3305   */\n      dup5\n        /* \"#utility.yul\":3261:3326   */\n      tag_223\n      jump\t// in\n    tag_297:\n        /* \"#utility.yul\":3123:3333   */\n      swap3\n      swap2\n      pop\n      pop\n      jump\t// out\n        /* \"#utility.yul\":3339:3457   */\n    tag_224:\n        /* \"#utility.yul\":3426:3450   */\n      tag_299\n        /* \"#utility.yul\":3444:3449   */\n      dup2\n        /* \"#utility.yul\":3426:3450   */\n      tag_219\n      jump\t// in\n    tag_299:\n        /* \"#utility.yul\":3421:3424   */\n      dup3\n        /* \"#utility.yul\":3414:3451   */\n      mstore\n        /* \"#utility.yul\":3339:3457   */\n      pop\n      pop\n      jump\t// out\n        /* \"#utility.yul\":3463:3685   */\n    tag_35:\n        /* \"#utility.yul\":3556:3560   */\n      0x00\n        /* \"#utility.yul\":3594:3596   */\n      0x20\n        /* \"#utility.yul\":3583:3592   */\n      dup3\n        /* \"#utility.yul\":3579:3597   */\n      add\n        /* \"#utility.yul\":3571:3597   */\n      swap1\n      pop\n        /* \"#utility.yul\":3607:3678   */\n      tag_301\n        /* \"#utility.yul\":3675:3676   */\n      0x00\n        /* \"#utility.yul\":3664:3673   */\n      dup4\n        /* \"#utility.yul\":3660:3677   */\n      add\n        /* \"#utility.yul\":3651:3657   */\n      dup5\n        /* \"#utility.yul\":3607:3678   */\n      tag_224\n      jump\t// in\n    tag_301:\n        /* \"#utility.yul\":3463:3685   */\n      swap3\n      swap2\n      pop\n      pop\n      jump\t// out\n        /* \"#utility.yul\":3691:4310   */\n    tag_39:\n        /* \"#utility.yul\":3768:3774   */\n      0x00\n        /* \"#utility.yul\":3776:3782   */\n      dup1\n        /* \"#utility.yul\":3784:3790   */\n      0x00\n        /* \"#utility.yul\":3833:3835   */\n      0x60\n        /* \"#utility.yul\":3821:3830   */\n      dup5\n        /* \"#utility.yul\":3812:3819   */\n      dup7\n        /* \"#utility.yul\":3808:3831   */\n      sub\n        /* \"#utility.yul\":3804:3836   */\n      slt\n        /* \"#utility.yul\":3801:3920   */\n      iszero\n      tag_303\n      jumpi\n        /* \"#utility.yul\":3839:3918   */\n      tag_304\n      tag_213\n      jump\t// in\n    tag_304:\n        /* \"#utility.yul\":3801:3920   */\n    tag_303:\n        /* \"#utility.yul\":3959:3960   */\n      0x00\n        /* \"#utility.yul\":3984:4037   */\n      tag_305\n        /* \"#utility.yul\":4029:4036   */\n      dup7\n        /* \"#utility.yul\":4020:4026   */\n      dup3\n        /* \"#utility.yul\":4009:4018   */\n      dup8\n        /* \"#utility.yul\":4005:4027   */\n      add\n        /* \"#utility.yul\":3984:4037   */\n      tag_218\n      jump\t// in\n    tag_305:\n        /* \"#utility.yul\":3974:4037   */\n      swap4\n      pop\n        /* \"#utility.yul\":3930:4047   */\n      pop\n        /* \"#utility.yul\":4086:4088   */\n      0x20\n        /* \"#utility.yul\":4112:4165   */\n      tag_306\n        /* \"#utility.yul\":4157:4164   */\n      dup7\n        /* \"#utility.yul\":4148:4154   */\n      dup3\n        /* \"#utility.yul\":4137:4146   */\n      dup8\n        /* \"#utility.yul\":4133:4155   */\n      add\n        /* \"#utility.yul\":4112:4165   */\n      tag_218\n      jump\t// in\n    tag_306:\n        /* \"#utility.yul\":4102:4165   */\n      swap3\n      pop\n        /* \"#utility.yul\":4057:4175   */\n      pop\n        /* \"#utility.yul\":4214:4216   */\n      0x40\n        /* \"#utility.yul\":4240:4293   */\n      tag_307\n        /* \"#utility.yul\":4285:4292   */\n      dup7\n        /* \"#utility.yul\":4276:4282   */\n      dup3\n        /* \"#utility.yul\":4265:4274   */\n      dup8\n        /* \"#utility.yul\":4261:4283   */\n      add\n        /* \"#utility.yul\":4240:4293   */\n      tag_221\n      jump\t// in\n    tag_307:\n        /* \"#utility.yul\":4230:4293   */\n      swap2\n      pop\n        /* \"#utility.yul\":4185:4303   */\n      pop\n        /* \"#utility.yul\":3691:4310   */\n      swap3\n      pop\n      swap3\n      pop\n      swap3\n      jump\t// out\n        /* \"#utility.yul\":4316:4402   */\n    tag_225:\n        /* \"#utility.yul\":4351:4358   */\n      0x00\n        /* \"#utility.yul\":4391:4395   */\n      0xff\n        /* \"#utility.yul\":4384:4389   */\n      dup3\n        /* \"#utility.yul\":4380:4396   */\n      and\n        /* \"#utility.yul\":4369:4396   */\n      swap1\n      pop\n        /* \"#utility.yul\":4316:4402   */\n      swap2\n      swap1\n      pop\n      jump\t// out\n        /* \"#utility.yul\":4408:4520   */\n    tag_226:\n        /* \"#utility.yul\":4491:4513   */\n      tag_310\n        /* \"#utility.yul\":4507:4512   */\n      dup2\n        /* \"#utility.yul\":4491:4513   */\n      tag_225\n      jump\t// in\n    tag_310:\n        /* \"#utility.yul\":4486:4489   */\n      dup3\n        /* \"#utility.yul\":4479:4514   */\n      mstore\n        /* \"#utility.yul\":4408:4520   */\n      pop\n      pop\n      jump\t// out\n        /* \"#utility.yul\":4526:4740   */\n    tag_46:\n        /* \"#utility.yul\":4615:4619   */\n      0x00\n        /* \"#utility.yul\":4653:4655   */\n      0x20\n        /* \"#utility.yul\":4642:4651   */\n      dup3\n        /* \"#utility.yul\":4638:4656   */\n      add\n        /* \"#utility.yul\":4630:4656   */\n      swap1\n      pop\n        /* \"#utility.yul\":4666:4733   */\n      tag_312\n        /* \"#utility.yul\":4730:4731   */\n      0x00\n        /* \"#utility.yul\":4719:4728   */\n      dup4\n        /* \"#utility.yul\":4715:4732   */\n      add\n        /* \"#utility.yul\":4706:4712   */\n      dup5\n        /* \"#utility.yul\":4666:4733   */\n      tag_226\n      jump\t// in\n    tag_312:\n        /* \"#utility.yul\":4526:4740   */\n      swap3\n      swap2\n      pop\n      pop\n      jump\t// out\n        /* \"#utility.yul\":4746:4806   */\n    tag_227:\n        /* \"#utility.yul\":4774:4777   */\n      0x00\n        /* \"#utility.yul\":4795:4800   */\n      dup2\n        /* \"#utility.yul\":4788:4800   */\n      swap1\n      pop\n        /* \"#utility.yul\":4746:4806   */\n      swap2\n      swap1\n      pop\n      jump\t// out\n        /* \"#utility.yul\":4812:4954   */\n    tag_228:\n        /* \"#utility.yul\":4862:4871   */\n      0x00\n        /* \"#utility.yul\":4895:4948   */\n      tag_315\n        /* \"#utility.yul\":4913:4947   */\n      tag_316\n        /* \"#utility.yul\":4922:4946   */\n      tag_317\n        /* \"#utility.yul\":4940:4945   */\n      dup5\n        /* \"#utility.yul\":4922:4946   */\n      tag_215\n      jump\t// in\n    tag_317:\n        /* \"#utility.yul\":4913:4947   */\n      tag_227\n      jump\t// in\n    tag_316:\n        /* \"#utility.yul\":4895:4948   */\n      tag_215\n      jump\t// in\n    tag_315:\n        /* \"#utility.yul\":4882:4948   */\n      swap1\n      pop\n        /* \"#utility.yul\":4812:4954   */\n      swap2\n      swap1\n      pop\n      jump\t// out\n        /* \"#utility.yul\":4960:5086   */\n    tag_229:\n        /* \"#utility.yul\":5010:5019   */\n      0x00\n        /* \"#utility.yul\":5043:5080   */\n      tag_319\n        /* \"#utility.yul\":5074:5079   */\n      dup3\n        /* \"#utility.yul\":5043:5080   */\n      tag_228\n      jump\t// in\n    tag_319:\n        /* \"#utility.yul\":5030:5080   */\n      swap1\n      pop\n        /* \"#utility.yul\":4960:5086   */\n      swap2\n      swap1\n      pop\n      jump\t// out\n        /* \"#utility.yul\":5092:5237   */\n    tag_230:\n        /* \"#utility.yul\":5161:5170   */\n      0x00\n        /* \"#utility.yul\":5194:5231   */\n      tag_321\n        /* \"#utility.yul\":5225:5230   */\n      dup3\n        /* \"#utility.yul\":5194:5231   */\n      tag_229\n      jump\t// in\n    tag_321:\n        /* \"#utility.yul\":5181:5231   */\n      swap1\n      pop\n        /* \"#utility.yul\":5092:5237   */\n      swap2\n      swap1\n      pop\n      jump\t// out\n        /* \"#utility.yul\":5243:5412   */\n    tag_231:\n        /* \"#utility.yul\":5349:5405   */\n      tag_323\n        /* \"#utility.yul\":5399:5404   */\n      dup2\n        /* \"#utility.yul\":5349:5405   */\n      tag_230\n      jump\t// in\n    tag_323:\n        /* \"#utility.yul\":5344:5347   */\n      dup3\n        /* \"#utility.yul\":5337:5406   */\n      mstore\n        /* \"#utility.yul\":5243:5412   */\n      pop\n      pop\n      jump\t// out\n        /* \"#utility.yul\":5418:5678   */\n    tag_51:\n        /* \"#utility.yul\":5530:5534   */\n      0x00\n        /* \"#utility.yul\":5568:5570   */\n      0x20\n        /* \"#utility.yul\":5557:5566   */\n      dup3\n        /* \"#utility.yul\":5553:5571   */\n      add\n        /* \"#utility.yul\":5545:5571   */\n      swap1\n      pop\n        /* \"#utility.yul\":5581:5671   */\n      tag_325\n        /* \"#utility.yul\":5668:5669   */\n      0x00\n        /* \"#utility.yul\":5657:5666   */\n      dup4\n        /* \"#utility.yul\":5653:5670   */\n      add\n        /* \"#utility.yul\":5644:5650   */\n      dup5\n        /* \"#utility.yul\":5581:5671   */\n      tag_231\n      jump\t// in\n    tag_325:\n        /* \"#utility.yul\":5418:5678   */\n      swap3\n      swap2\n      pop\n      pop\n      jump\t// out\n        /* \"#utility.yul\":5684:6013   */\n    tag_63:\n        /* \"#utility.yul\":5743:5749   */\n      0x00\n        /* \"#utility.yul\":5792:5794   */\n      0x20\n        /* \"#utility.yul\":5780:5789   */\n      dup3\n        /* \"#utility.yul\":5771:5778   */\n      dup5\n        /* \"#utility.yul\":5767:5790   */\n      sub\n        /* \"#utility.yul\":5763:5795   */\n      slt\n        /* \"#utility.yul\":5760:5879   */\n      iszero\n      tag_327\n      jumpi\n        /* \"#utility.yul\":5798:5877   */\n      tag_328\n      tag_213\n      jump\t// in\n    tag_328:\n        /* \"#utility.yul\":5760:5879   */\n    tag_327:\n        /* \"#utility.yul\":5918:5919   */\n      0x00\n        /* \"#utility.yul\":5943:5996   */\n      tag_329\n        /* \"#utility.yul\":5988:5995   */\n      dup5\n        /* \"#utility.yul\":5979:5985   */\n      dup3\n        /* \"#utility.yul\":5968:5977   */\n      dup6\n        /* \"#utility.yul\":5964:5986   */\n      add\n        /* \"#utility.yul\":5943:5996   */\n      tag_218\n      jump\t// in\n    tag_329:\n        /* \"#utility.yul\":5933:5996   */\n      swap2\n      pop\n        /* \"#utility.yul\":5889:6006   */\n      pop\n        /* \"#utility.yul\":5684:6013   */\n      swap3\n      swap2\n      pop\n      pop\n      jump\t// out\n        /* \"#utility.yul\":6019:6120   */\n    tag_232:\n        /* \"#utility.yul\":6055:6062   */\n      0x00\n        /* \"#utility.yul\":6095:6113   */\n      0xffffffffffffffff\n        /* \"#utility.yul\":6088:6093   */\n      dup3\n        /* \"#utility.yul\":6084:6114   */\n      and\n        /* \"#utility.yul\":6073:6114   */\n      swap1\n      pop\n        /* \"#utility.yul\":6019:6120   */\n      swap2\n      swap1\n      pop\n      jump\t// out\n        /* \"#utility.yul\":6126:6246   */\n    tag_233:\n        /* \"#utility.yul\":6198:6221   */\n      tag_332\n        /* \"#utility.yul\":6215:6220   */\n      dup2\n        /* \"#utility.yul\":6198:6221   */\n      tag_232\n      jump\t// in\n    tag_332:\n        /* \"#utility.yul\":6191:6196   */\n      dup2\n        /* \"#utility.yul\":6188:6222   */\n      eq\n        /* \"#utility.yul\":6178:6240   */\n      tag_333\n      jumpi\n        /* \"#utility.yul\":6236:6237   */\n      0x00\n        /* \"#utility.yul\":6233:6234   */\n      dup1\n        /* \"#utility.yul\":6226:6238   */\n      revert\n        /* \"#utility.yul\":6178:6240   */\n    tag_333:\n        /* \"#utility.yul\":6126:6246   */\n      pop\n      jump\t// out\n        /* \"#utility.yul\":6252:6389   */\n    tag_234:\n        /* \"#utility.yul\":6297:6302   */\n      0x00\n        /* \"#utility.yul\":6335:6341   */\n      dup2\n        /* \"#utility.yul\":6322:6342   */\n      calldataload\n        /* \"#utility.yul\":6313:6342   */\n      swap1\n      pop\n        /* \"#utility.yul\":6351:6383   */\n      tag_335\n        /* \"#utility.yul\":6377:6382   */\n      dup2\n        /* \"#utility.yul\":6351:6383   */\n      tag_233\n      jump\t// in\n    tag_335:\n        /* \"#utility.yul\":6252:6389   */\n      swap3\n      swap2\n      pop\n      pop\n      jump\t// out\n        /* \"#utility.yul\":6395:7158   */\n    tag_81:\n        /* \"#utility.yul\":6480:6486   */\n      0x00\n        /* \"#utility.yul\":6488:6494   */\n      dup1\n        /* \"#utility.yul\":6496:6502   */\n      0x00\n        /* \"#utility.yul\":6504:6510   */\n      dup1\n        /* \"#utility.yul\":6553:6556   */\n      0x80\n        /* \"#utility.yul\":6541:6550   */\n      dup6\n        /* \"#utility.yul\":6532:6539   */\n      dup8\n        /* \"#utility.yul\":6528:6551   */\n      sub\n        /* \"#utility.yul\":6524:6557   */\n      slt\n        /* \"#utility.yul\":6521:6641   */\n      iszero\n      tag_337\n      jumpi\n        /* \"#utility.yul\":6560:6639   */\n      tag_338\n      tag_213\n      jump\t// in\n    tag_338:\n        /* \"#utility.yul\":6521:6641   */\n    tag_337:\n        /* \"#utility.yul\":6680:6681   */\n      0x00\n        /* \"#utility.yul\":6705:6757   */\n      tag_339\n        /* \"#utility.yul\":6749:6756   */\n      dup8\n        /* \"#utility.yul\":6740:6746   */\n      dup3\n        /* \"#utility.yul\":6729:6738   */\n      dup9\n        /* \"#utility.yul\":6725:6747   */\n      add\n        /* \"#utility.yul\":6705:6757   */\n      tag_234\n      jump\t// in\n    tag_339:\n        /* \"#utility.yul\":6695:6757   */\n      swap5\n      pop\n        /* \"#utility.yul\":6651:6767   */\n      pop\n        /* \"#utility.yul\":6806:6808   */\n      0x20\n        /* \"#utility.yul\":6832:6885   */\n      tag_340\n        /* \"#utility.yul\":6877:6884   */\n      dup8\n        /* \"#utility.yul\":6868:6874   */\n      dup3\n        /* \"#utility.yul\":6857:6866   */\n      dup9\n        /* \"#utility.yul\":6853:6875   */\n      add\n        /* \"#utility.yul\":6832:6885   */\n      tag_218\n      jump\t// in\n    tag_340:\n        /* \"#utility.yul\":6822:6885   */\n      swap4\n      pop\n        /* \"#utility.yul\":6777:6895   */\n      pop\n        /* \"#utility.yul\":6934:6936   */\n      0x40\n        /* \"#utility.yul\":6960:7013   */\n      tag_341\n        /* \"#utility.yul\":7005:7012   */\n      dup8\n        /* \"#utility.yul\":6996:7002   */\n      dup3\n        /* \"#utility.yul\":6985:6994   */\n      dup9\n        /* \"#utility.yul\":6981:7003   */\n      add\n        /* \"#utility.yul\":6960:7013   */\n      tag_218\n      jump\t// in\n    tag_341:\n        /* \"#utility.yul\":6950:7013   */\n      swap3\n      pop\n        /* \"#utility.yul\":6905:7023   */\n      pop\n        /* \"#utility.yul\":7062:7064   */\n      0x60\n        /* \"#utility.yul\":7088:7141   */\n      tag_342\n        /* \"#utility.yul\":7133:7140   */\n      dup8\n        /* \"#utility.yul\":7124:7130   */\n      dup3\n        /* \"#utility.yul\":7113:7122   */\n      dup9\n        /* \"#utility.yul\":7109:7131   */\n      add\n        /* \"#utility.yul\":7088:7141   */\n      tag_221\n      jump\t// in\n    tag_342:\n        /* \"#utility.yul\":7078:7141   */\n      swap2\n      pop\n        /* \"#utility.yul\":7033:7151   */\n      pop\n        /* \"#utility.yul\":6395:7158   */\n      swap3\n      swap6\n      swap2\n      swap5\n      pop\n      swap3\n      pop\n      jump\t// out\n        /* \"#utility.yul\":7164:7638   */\n    tag_86:\n        /* \"#utility.yul\":7232:7238   */\n      0x00\n        /* \"#utility.yul\":7240:7246   */\n      dup1\n        /* \"#utility.yul\":7289:7291   */\n      0x40\n        /* \"#utility.yul\":7277:7286   */\n      dup4\n        /* \"#utility.yul\":7268:7275   */\n      dup6\n        /* \"#utility.yul\":7264:7287   */\n      sub\n        /* \"#utility.yul\":7260:7292   */\n      slt\n        /* \"#utility.yul\":7257:7376   */\n      iszero\n      tag_344\n      jumpi\n        /* \"#utility.yul\":7295:7374   */\n      tag_345\n      tag_213\n      jump\t// in\n    tag_345:\n        /* \"#utility.yul\":7257:7376   */\n    tag_344:\n        /* \"#utility.yul\":7415:7416   */\n      0x00\n        /* \"#utility.yul\":7440:7493   */\n      tag_346\n        /* \"#utility.yul\":7485:7492   */\n      dup6\n        /* \"#utility.yul\":7476:7482   */\n      dup3\n        /* \"#utility.yul\":7465:7474   */\n      dup7\n        /* \"#utility.yul\":7461:7483   */\n      add\n        /* \"#utility.yul\":7440:7493   */\n      tag_218\n      jump\t// in\n    tag_346:\n        /* \"#utility.yul\":7430:7493   */\n      swap3\n      pop\n        /* \"#utility.yul\":7386:7503   */\n      pop\n        /* \"#utility.yul\":7542:7544   */\n      0x20\n        /* \"#utility.yul\":7568:7621   */\n      tag_347\n        /* \"#utility.yul\":7613:7620   */\n      dup6\n        /* \"#utility.yul\":7604:7610   */\n      dup3\n        /* \"#utility.yul\":7593:7602   */\n      dup7\n        /* \"#utility.yul\":7589:7611   */\n      add\n        /* \"#utility.yul\":7568:7621   */\n      tag_218\n      jump\t// in\n    tag_347:\n        /* \"#utility.yul\":7558:7621   */\n      swap2\n      pop\n        /* \"#utility.yul\":7513:7631   */\n      pop\n        /* \"#utility.yul\":7164:7638   */\n      swap3\n      pop\n      swap3\n      swap1\n      pop\n      jump\t// out\n        /* \"#utility.yul\":7644:7824   */\n    tag_235:\n        /* \"#utility.yul\":7692:7769   */\n      0x4e487b7100000000000000000000000000000000000000000000000000000000\n        /* \"#utility.yul\":7689:7690   */\n      0x00\n        /* \"#utility.yul\":7682:7770   */\n      mstore\n        /* \"#utility.yul\":7789:7793   */\n      0x22\n        /* \"#utility.yul\":7786:7787   */\n      0x04\n        /* \"#utility.yul\":7779:7794   */\n      mstore\n        /* \"#utility.yul\":7813:7817   */\n      0x24\n        /* \"#utility.yul\":7810:7811   */\n      0x00\n        /* \"#utility.yul\":7803:7818   */\n      revert\n        /* \"#utility.yul\":7830:8150   */\n    tag_91:\n        /* \"#utility.yul\":7874:7880   */\n      0x00\n        /* \"#utility.yul\":7911:7912   */\n      0x02\n        /* \"#utility.yul\":7905:7909   */\n      dup3\n        /* \"#utility.yul\":7901:7913   */\n      div\n        /* \"#utility.yul\":7891:7913   */\n      swap1\n      pop\n        /* \"#utility.yul\":7958:7959   */\n      0x01\n        /* \"#utility.yul\":7952:7956   */\n      dup3\n        /* \"#utility.yul\":7948:7960   */\n      and\n        /* \"#utility.yul\":7979:7997   */\n      dup1\n        /* \"#utility.yul\":7969:8050   */\n      tag_350\n      jumpi\n        /* \"#utility.yul\":8035:8039   */\n      0x7f\n        /* \"#utility.yul\":8027:8033   */\n      dup3\n        /* \"#utility.yul\":8023:8040   */\n      and\n        /* \"#utility.yul\":8013:8040   */\n      swap2\n      pop\n        /* \"#utility.yul\":7969:8050   */\n    tag_350:\n        /* \"#utility.yul\":8097:8099   */\n      0x20\n        /* \"#utility.yul\":8089:8095   */\n      dup3\n        /* \"#utility.yul\":8086:8100   */\n      lt\n        /* \"#utility.yul\":8066:8084   */\n      dup2\n        /* \"#utility.yul\":8063:8101   */\n      sub\n        /* \"#utility.yul\":8060:8144   */\n      tag_351\n      jumpi\n        /* \"#utility.yul\":8116:8134   */\n      tag_352\n      tag_235\n      jump\t// in\n    tag_352:\n        /* \"#utility.yul\":8060:8144   */\n    tag_351:\n        /* \"#utility.yul\":7881:8150   */\n      pop\n        /* \"#utility.yul\":7830:8150   */\n      swap2\n      swap1\n      pop\n      jump\t// out\n        /* \"#utility.yul\":8156:8273   */\n    tag_236:\n        /* \"#utility.yul\":8265:8266   */\n      0x00\n        /* \"#utility.yul\":8262:8263   */\n      dup1\n        /* \"#utility.yul\":8255:8267   */\n      revert\n        /* \"#utility.yul\":8279:8459   */\n    tag_237:\n        /* \"#utility.yul\":8327:8404   */\n      0x4e487b7100000000000000000000000000000000000000000000000000000000\n        /* \"#utility.yul\":8324:8325   */\n      0x00\n        /* \"#utility.yul\":8317:8405   */\n      mstore\n        /* \"#utility.yul\":8424:8428   */\n      0x41\n        /* \"#utility.yul\":8421:8422   */\n      0x04\n        /* \"#utility.yul\":8414:8429   */\n      mstore\n        /* \"#utility.yul\":8448:8452   */\n      0x24\n        /* \"#utility.yul\":8445:8446   */\n      0x00\n        /* \"#utility.yul\":8438:8453   */\n      revert\n        /* \"#utility.yul\":8465:8746   */\n    tag_238:\n        /* \"#utility.yul\":8548:8575   */\n      tag_356\n        /* \"#utility.yul\":8570:8574   */\n      dup3\n        /* \"#utility.yul\":8548:8575   */\n      tag_210\n      jump\t// in\n    tag_356:\n        /* \"#utility.yul\":8540:8546   */\n      dup2\n        /* \"#utility.yul\":8536:8576   */\n      add\n        /* \"#utility.yul\":8678:8684   */\n      dup2\n        /* \"#utility.yul\":8666:8676   */\n      dup2\n        /* \"#utility.yul\":8663:8685   */\n      lt\n        /* \"#utility.yul\":8642:8660   */\n      0xffffffffffffffff\n        /* \"#utility.yul\":8630:8640   */\n      dup3\n        /* \"#utility.yul\":8627:8661   */\n      gt\n        /* \"#utility.yul\":8624:8686   */\n      or\n        /* \"#utility.yul\":8621:8709   */\n      iszero\n      tag_357\n      jumpi\n        /* \"#utility.yul\":8689:8707   */\n      tag_358\n      tag_237\n      jump\t// in\n    tag_358:\n        /* \"#utility.yul\":8621:8709   */\n    tag_357:\n        /* \"#utility.yul\":8729:8739   */\n      dup1\n        /* \"#utility.yul\":8725:8727   */\n      0x40\n        /* \"#utility.yul\":8718:8740   */\n      mstore\n        /* \"#utility.yul\":8508:8746   */\n      pop\n        /* \"#utility.yul\":8465:8746   */\n      pop\n      pop\n      jump\t// out\n        /* \"#utility.yul\":8752:8881   */\n    tag_239:\n        /* \"#utility.yul\":8786:8792   */\n      0x00\n        /* \"#utility.yul\":8813:8833   */\n      tag_360\n      tag_212\n      jump\t// in\n    tag_360:\n        /* \"#utility.yul\":8803:8833   */\n      swap1\n      pop\n        /* \"#utility.yul\":8842:8875   */\n      tag_361\n        /* \"#utility.yul\":8870:8874   */\n      dup3\n        /* \"#utility.yul\":8862:8868   */\n      dup3\n        /* \"#utility.yul\":8842:8875   */\n      tag_238\n      jump\t// in\n    tag_361:\n        /* \"#utility.yul\":8752:8881   */\n      swap2\n      swap1\n      pop\n      jump\t// out\n        /* \"#utility.yul\":9010:9151   */\n    tag_241:\n        /* \"#utility.yul\":9066:9071   */\n      0x00\n        /* \"#utility.yul\":9097:9103   */\n      dup2\n        /* \"#utility.yul\":9091:9104   */\n      mload\n        /* \"#utility.yul\":9082:9104   */\n      swap1\n      pop\n        /* \"#utility.yul\":9113:9145   */\n      tag_364\n        /* \"#utility.yul\":9139:9144   */\n      dup2\n        /* \"#utility.yul\":9113:9145   */\n      tag_233\n      jump\t// in\n    tag_364:\n        /* \"#utility.yul\":9010:9151   */\n      swap3\n      swap2\n      pop\n      pop\n      jump\t// out\n        /* \"#utility.yul\":9157:9300   */\n    tag_242:\n        /* \"#utility.yul\":9214:9219   */\n      0x00\n        /* \"#utility.yul\":9245:9251   */\n      dup2\n        /* \"#utility.yul\":9239:9252   */\n      mload\n        /* \"#utility.yul\":9230:9252   */\n      swap1\n      pop\n        /* \"#utility.yul\":9261:9294   */\n      tag_366\n        /* \"#utility.yul\":9288:9293   */\n      dup2\n        /* \"#utility.yul\":9261:9294   */\n      tag_217\n      jump\t// in\n    tag_366:\n        /* \"#utility.yul\":9157:9300   */\n      swap3\n      swap2\n      pop\n      pop\n      jump\t// out\n        /* \"#utility.yul\":9338:9957   */\n    tag_243:\n        /* \"#utility.yul\":9425:9430   */\n      0x00\n        /* \"#utility.yul\":9469:9473   */\n      0x40\n        /* \"#utility.yul\":9457:9466   */\n      dup3\n        /* \"#utility.yul\":9452:9455   */\n      dup5\n        /* \"#utility.yul\":9448:9467   */\n      sub\n        /* \"#utility.yul\":9444:9474   */\n      slt\n        /* \"#utility.yul\":9441:9558   */\n      iszero\n      tag_368\n      jumpi\n        /* \"#utility.yul\":9477:9556   */\n      tag_369\n      tag_236\n      jump\t// in\n    tag_369:\n        /* \"#utility.yul\":9441:9558   */\n    tag_368:\n        /* \"#utility.yul\":9576:9597   */\n      tag_370\n        /* \"#utility.yul\":9592:9596   */\n      0x40\n        /* \"#utility.yul\":9576:9597   */\n      tag_239\n      jump\t// in\n    tag_370:\n        /* \"#utility.yul\":9567:9597   */\n      swap1\n      pop\n        /* \"#utility.yul\":9665:9666   */\n      0x00\n        /* \"#utility.yul\":9705:9764   */\n      tag_371\n        /* \"#utility.yul\":9760:9763   */\n      dup5\n        /* \"#utility.yul\":9751:9757   */\n      dup3\n        /* \"#utility.yul\":9740:9749   */\n      dup6\n        /* \"#utility.yul\":9736:9758   */\n      add\n        /* \"#utility.yul\":9705:9764   */\n      tag_241\n      jump\t// in\n    tag_371:\n        /* \"#utility.yul\":9698:9702   */\n      0x00\n        /* \"#utility.yul\":9691:9696   */\n      dup4\n        /* \"#utility.yul\":9687:9703   */\n      add\n        /* \"#utility.yul\":9680:9765   */\n      mstore\n        /* \"#utility.yul\":9607:9776   */\n      pop\n        /* \"#utility.yul\":9837:9839   */\n      0x20\n        /* \"#utility.yul\":9878:9938   */\n      tag_372\n        /* \"#utility.yul\":9934:9937   */\n      dup5\n        /* \"#utility.yul\":9925:9931   */\n      dup3\n        /* \"#utility.yul\":9914:9923   */\n      dup6\n        /* \"#utility.yul\":9910:9932   */\n      add\n        /* \"#utility.yul\":9878:9938   */\n      tag_242\n      jump\t// in\n    tag_372:\n        /* \"#utility.yul\":9871:9875   */\n      0x20\n        /* \"#utility.yul\":9864:9869   */\n      dup4\n        /* \"#utility.yul\":9860:9876   */\n      add\n        /* \"#utility.yul\":9853:9939   */\n      mstore\n        /* \"#utility.yul\":9786:9950   */\n      pop\n        /* \"#utility.yul\":9338:9957   */\n      swap3\n      swap2\n      pop\n      pop\n      jump\t// out\n        /* \"#utility.yul\":9963:10368   */\n    tag_116:\n        /* \"#utility.yul\":10060:10066   */\n      0x00\n        /* \"#utility.yul\":10109:10111   */\n      0x40\n        /* \"#utility.yul\":10097:10106   */\n      dup3\n        /* \"#utility.yul\":10088:10095   */\n      dup5\n        /* \"#utility.yul\":10084:10107   */\n      sub\n        /* \"#utility.yul\":10080:10112   */\n      slt\n        /* \"#utility.yul\":10077:10196   */\n      iszero\n      tag_374\n      jumpi\n        /* \"#utility.yul\":10115:10194   */\n      tag_375\n      tag_213\n      jump\t// in\n    tag_375:\n        /* \"#utility.yul\":10077:10196   */\n    tag_374:\n        /* \"#utility.yul\":10235:10236   */\n      0x00\n        /* \"#utility.yul\":10260:10351   */\n      tag_376\n        /* \"#utility.yul\":10343:10350   */\n      dup5\n        /* \"#utility.yul\":10334:10340   */\n      dup3\n        /* \"#utility.yul\":10323:10332   */\n      dup6\n        /* \"#utility.yul\":10319:10341   */\n      add\n        /* \"#utility.yul\":10260:10351   */\n      tag_243\n      jump\t// in\n    tag_376:\n        /* \"#utility.yul\":10250:10351   */\n      swap2\n      pop\n        /* \"#utility.yul\":10206:10361   */\n      pop\n        /* \"#utility.yul\":9963:10368   */\n      swap3\n      swap2\n      pop\n      pop\n      jump\t// out\n        /* \"#utility.yul\":10374:10609   */\n    tag_244:\n        /* \"#utility.yul\":10514:10548   */\n      0x4f6d6e6945524332303a204f6e6c792063616c6c61626c65207669612063726f\n        /* \"#utility.yul\":10510:10511   */\n      0x00\n        /* \"#utility.yul\":10502:10508   */\n      dup3\n        /* \"#utility.yul\":10498:10512   */\n      add\n        /* \"#utility.yul\":10491:10549   */\n      mstore\n        /* \"#utility.yul\":10583:10601   */\n      0x73732d636861696e206d65737361676500000000000000000000000000000000\n        /* \"#utility.yul\":10578:10580   */\n      0x20\n        /* \"#utility.yul\":10570:10576   */\n      dup3\n        /* \"#utility.yul\":10566:10581   */\n      add\n        /* \"#utility.yul\":10559:10602   */\n      mstore\n        /* \"#utility.yul\":10374:10609   */\n      pop\n      jump\t// out\n        /* \"#utility.yul\":10615:10981   */\n    tag_245:\n        /* \"#utility.yul\":10757:10760   */\n      0x00\n        /* \"#utility.yul\":10778:10845   */\n      tag_379\n        /* \"#utility.yul\":10842:10844   */\n      0x30\n        /* \"#utility.yul\":10837:10840   */\n      dup4\n        /* \"#utility.yul\":10778:10845   */\n      tag_208\n      jump\t// in\n    tag_379:\n        /* \"#utility.yul\":10771:10845   */\n      swap2\n      pop\n        /* \"#utility.yul\":10854:10947   */\n      tag_380\n        /* \"#utility.yul\":10943:10946   */\n      dup3\n        /* \"#utility.yul\":10854:10947   */\n      tag_244\n      jump\t// in\n    tag_380:\n        /* \"#utility.yul\":10972:10974   */\n      0x40\n        /* \"#utility.yul\":10967:10970   */\n      dup3\n        /* \"#utility.yul\":10963:10975   */\n      add\n        /* \"#utility.yul\":10956:10975   */\n      swap1\n      pop\n        /* \"#utility.yul\":10615:10981   */\n      swap2\n      swap1\n      pop\n      jump\t// out\n        /* \"#utility.yul\":10987:11406   */\n    tag_122:\n        /* \"#utility.yul\":11153:11157   */\n      0x00\n        /* \"#utility.yul\":11191:11193   */\n      0x20\n        /* \"#utility.yul\":11180:11189   */\n      dup3\n        /* \"#utility.yul\":11176:11194   */\n      add\n        /* \"#utility.yul\":11168:11194   */\n      swap1\n      pop\n        /* \"#utility.yul\":11240:11249   */\n      dup2\n        /* \"#utility.yul\":11234:11238   */\n      dup2\n        /* \"#utility.yul\":11230:11250   */\n      sub\n        /* \"#utility.yul\":11226:11227   */\n      0x00\n        /* \"#utility.yul\":11215:11224   */\n      dup4\n        /* \"#utility.yul\":11211:11228   */\n      add\n        /* \"#utility.yul\":11204:11251   */\n      mstore\n        /* \"#utility.yul\":11268:11399   */\n      tag_382\n        /* \"#utility.yul\":11394:11398   */\n      dup2\n        /* \"#utility.yul\":11268:11399   */\n      tag_245\n      jump\t// in\n    tag_382:\n        /* \"#utility.yul\":11260:11399   */\n      swap1\n      pop\n        /* \"#utility.yul\":10987:11406   */\n      swap2\n      swap1\n      pop\n      jump\t// out\n        /* \"#utility.yul\":11412:11530   */\n    tag_246:\n        /* \"#utility.yul\":11499:11523   */\n      tag_384\n        /* \"#utility.yul\":11517:11522   */\n      dup2\n        /* \"#utility.yul\":11499:11523   */\n      tag_216\n      jump\t// in\n    tag_384:\n        /* \"#utility.yul\":11494:11497   */\n      dup3\n        /* \"#utility.yul\":11487:11524   */\n      mstore\n        /* \"#utility.yul\":11412:11530   */\n      pop\n      pop\n      jump\t// out\n        /* \"#utility.yul\":11536:11978   */\n    tag_139:\n        /* \"#utility.yul\":11685:11689   */\n      0x00\n        /* \"#utility.yul\":11723:11725   */\n      0x60\n        /* \"#utility.yul\":11712:11721   */\n      dup3\n        /* \"#utility.yul\":11708:11726   */\n      add\n        /* \"#utility.yul\":11700:11726   */\n      swap1\n      pop\n        /* \"#utility.yul\":11736:11807   */\n      tag_386\n        /* \"#utility.yul\":11804:11805   */\n      0x00\n        /* \"#utility.yul\":11793:11802   */\n      dup4\n        /* \"#utility.yul\":11789:11806   */\n      add\n        /* \"#utility.yul\":11780:11786   */\n      dup7\n        /* \"#utility.yul\":11736:11807   */\n      tag_246\n      jump\t// in\n    tag_386:\n        /* \"#utility.yul\":11817:11889   */\n      tag_387\n        /* \"#utility.yul\":11885:11887   */\n      0x20\n        /* \"#utility.yul\":11874:11883   */\n      dup4\n        /* \"#utility.yul\":11870:11888   */\n      add\n        /* \"#utility.yul\":11861:11867   */\n      dup6\n        /* \"#utility.yul\":11817:11889   */\n      tag_246\n      jump\t// in\n    tag_387:\n        /* \"#utility.yul\":11899:11971   */\n      tag_388\n        /* \"#utility.yul\":11967:11969   */\n      0x40\n        /* \"#utility.yul\":11956:11965   */\n      dup4\n        /* \"#utility.yul\":11952:11970   */\n      add\n        /* \"#utility.yul\":11943:11949   */\n      dup5\n        /* \"#utility.yul\":11899:11971   */\n      tag_224\n      jump\t// in\n    tag_388:\n        /* \"#utility.yul\":11536:11978   */\n      swap5\n      swap4\n      pop\n      pop\n      pop\n      pop\n      jump\t// out\n        /* \"#utility.yul\":11984:12161   */\n    tag_247:\n        /* \"#utility.yul\":12124:12153   */\n      0x4f6d6e6945524332303a20496e73756666696369656e74206665650000000000\n        /* \"#utility.yul\":12120:12121   */\n      0x00\n        /* \"#utility.yul\":12112:12118   */\n      dup3\n        /* \"#utility.yul\":12108:12122   */\n      add\n        /* \"#utility.yul\":12101:12154   */\n      mstore\n        /* \"#utility.yul\":11984:12161   */\n      pop\n      jump\t// out\n        /* \"#utility.yul\":12167:12533   */\n    tag_248:\n        /* \"#utility.yul\":12309:12312   */\n      0x00\n        /* \"#utility.yul\":12330:12397   */\n      tag_391\n        /* \"#utility.yul\":12394:12396   */\n      0x1b\n        /* \"#utility.yul\":12389:12392   */\n      dup4\n        /* \"#utility.yul\":12330:12397   */\n      tag_208\n      jump\t// in\n    tag_391:\n        /* \"#utility.yul\":12323:12397   */\n      swap2\n      pop\n        /* \"#utility.yul\":12406:12499   */\n      tag_392\n        /* \"#utility.yul\":12495:12498   */\n      dup3\n        /* \"#utility.yul\":12406:12499   */\n      tag_247\n      jump\t// in\n    tag_392:\n        /* \"#utility.yul\":12524:12526   */\n      0x20\n        /* \"#utility.yul\":12519:12522   */\n      dup3\n        /* \"#utility.yul\":12515:12527   */\n      add\n        /* \"#utility.yul\":12508:12527   */\n      swap1\n      pop\n        /* \"#utility.yul\":12167:12533   */\n      swap2\n      swap1\n      pop\n      jump\t// out\n        /* \"#utility.yul\":12539:12958   */\n    tag_144:\n        /* \"#utility.yul\":12705:12709   */\n      0x00\n        /* \"#utility.yul\":12743:12745   */\n      0x20\n        /* \"#utility.yul\":12732:12741   */\n      dup3\n        /* \"#utility.yul\":12728:12746   */\n      add\n        /* \"#utility.yul\":12720:12746   */\n      swap1\n      pop\n        /* \"#utility.yul\":12792:12801   */\n      dup2\n        /* \"#utility.yul\":12786:12790   */\n      dup2\n        /* \"#utility.yul\":12782:12802   */\n      sub\n        /* \"#utility.yul\":12778:12779   */\n      0x00\n        /* \"#utility.yul\":12767:12776   */\n      dup4\n        /* \"#utility.yul\":12763:12780   */\n      add\n        /* \"#utility.yul\":12756:12803   */\n      mstore\n        /* \"#utility.yul\":12820:12951   */\n      tag_394\n        /* \"#utility.yul\":12946:12950   */\n      dup2\n        /* \"#utility.yul\":12820:12951   */\n      tag_248\n      jump\t// in\n    tag_394:\n        /* \"#utility.yul\":12812:12951   */\n      swap1\n      pop\n        /* \"#utility.yul\":12539:12958   */\n      swap2\n      swap1\n      pop\n      jump\t// out\n        /* \"#utility.yul\":12964:13406   */\n    tag_155:\n        /* \"#utility.yul\":13113:13117   */\n      0x00\n        /* \"#utility.yul\":13151:13153   */\n      0x60\n        /* \"#utility.yul\":13140:13149   */\n      dup3\n        /* \"#utility.yul\":13136:13154   */\n      add\n        /* \"#utility.yul\":13128:13154   */\n      swap1\n      pop\n        /* \"#utility.yul\":13164:13235   */\n      tag_396\n        /* \"#utility.yul\":13232:13233   */\n      0x00\n        /* \"#utility.yul\":13221:13230   */\n      dup4\n        /* \"#utility.yul\":13217:13234   */\n      add\n        /* \"#utility.yul\":13208:13214   */\n      dup7\n        /* \"#utility.yul\":13164:13235   */\n      tag_246\n      jump\t// in\n    tag_396:\n        /* \"#utility.yul\":13245:13317   */\n      tag_397\n        /* \"#utility.yul\":13313:13315   */\n      0x20\n        /* \"#utility.yul\":13302:13311   */\n      dup4\n        /* \"#utility.yul\":13298:13316   */\n      add\n        /* \"#utility.yul\":13289:13295   */\n      dup6\n        /* \"#utility.yul\":13245:13317   */\n      tag_224\n      jump\t// in\n    tag_397:\n        /* \"#utility.yul\":13327:13399   */\n      tag_398\n        /* \"#utility.yul\":13395:13397   */\n      0x40\n        /* \"#utility.yul\":13384:13393   */\n      dup4\n        /* \"#utility.yul\":13380:13398   */\n      add\n        /* \"#utility.yul\":13371:13377   */\n      dup5\n        /* \"#utility.yul\":13327:13399   */\n      tag_224\n      jump\t// in\n    tag_398:\n        /* \"#utility.yul\":12964:13406   */\n      swap5\n      swap4\n      pop\n      pop\n      pop\n      pop\n      jump\t// out\n        /* \"#utility.yul\":13412:13634   */\n    tag_160:\n        /* \"#utility.yul\":13505:13509   */\n      0x00\n        /* \"#utility.yul\":13543:13545   */\n      0x20\n        /* \"#utility.yul\":13532:13541   */\n      dup3\n        /* \"#utility.yul\":13528:13546   */\n      add\n        /* \"#utility.yul\":13520:13546   */\n      swap1\n      pop\n        /* \"#utility.yul\":13556:13627   */\n      tag_400\n        /* \"#utility.yul\":13624:13625   */\n      0x00\n        /* \"#utility.yul\":13613:13622   */\n      dup4\n        /* \"#utility.yul\":13609:13626   */\n      add\n        /* \"#utility.yul\":13600:13606   */\n      dup5\n        /* \"#utility.yul\":13556:13627   */\n      tag_246\n      jump\t// in\n    tag_400:\n        /* \"#utility.yul\":13412:13634   */\n      swap3\n      swap2\n      pop\n      pop\n      jump\t// out\n        /* \"#utility.yul\":13640:13756   */\n    tag_249:\n        /* \"#utility.yul\":13710:13731   */\n      tag_402\n        /* \"#utility.yul\":13725:13730   */\n      dup2\n        /* \"#utility.yul\":13710:13731   */\n      tag_222\n      jump\t// in\n    tag_402:\n        /* \"#utility.yul\":13703:13708   */\n      dup2\n        /* \"#utility.yul\":13700:13732   */\n      eq\n        /* \"#utility.yul\":13690:13750   */\n      tag_403\n      jumpi\n        /* \"#utility.yul\":13746:13747   */\n      0x00\n        /* \"#utility.yul\":13743:13744   */\n      dup1\n        /* \"#utility.yul\":13736:13748   */\n      revert\n        /* \"#utility.yul\":13690:13750   */\n    tag_403:\n        /* \"#utility.yul\":13640:13756   */\n      pop\n      jump\t// out\n        /* \"#utility.yul\":13762:13899   */\n    tag_250:\n        /* \"#utility.yul\":13816:13821   */\n      0x00\n        /* \"#utility.yul\":13847:13853   */\n      dup2\n        /* \"#utility.yul\":13841:13854   */\n      mload\n        /* \"#utility.yul\":13832:13854   */\n      swap1\n      pop\n        /* \"#utility.yul\":13863:13893   */\n      tag_405\n        /* \"#utility.yul\":13887:13892   */\n      dup2\n        /* \"#utility.yul\":13863:13893   */\n      tag_249\n      jump\t// in\n    tag_405:\n        /* \"#utility.yul\":13762:13899   */\n      swap3\n      swap2\n      pop\n      pop\n      jump\t// out\n        /* \"#utility.yul\":13905:14250   */\n    tag_172:\n        /* \"#utility.yul\":13972:13978   */\n      0x00\n        /* \"#utility.yul\":14021:14023   */\n      0x20\n        /* \"#utility.yul\":14009:14018   */\n      dup3\n        /* \"#utility.yul\":14000:14007   */\n      dup5\n        /* \"#utility.yul\":13996:14019   */\n      sub\n        /* \"#utility.yul\":13992:14024   */\n      slt\n        /* \"#utility.yul\":13989:14108   */\n      iszero\n      tag_407\n      jumpi\n        /* \"#utility.yul\":14027:14106   */\n      tag_408\n      tag_213\n      jump\t// in\n    tag_408:\n        /* \"#utility.yul\":13989:14108   */\n    tag_407:\n        /* \"#utility.yul\":14147:14148   */\n      0x00\n        /* \"#utility.yul\":14172:14233   */\n      tag_409\n        /* \"#utility.yul\":14225:14232   */\n      dup5\n        /* \"#utility.yul\":14216:14222   */\n      dup3\n        /* \"#utility.yul\":14205:14214   */\n      dup6\n        /* \"#utility.yul\":14201:14223   */\n      add\n        /* \"#utility.yul\":14172:14233   */\n      tag_250\n      jump\t// in\n    tag_409:\n        /* \"#utility.yul\":14162:14233   */\n      swap2\n      pop\n        /* \"#utility.yul\":14118:14243   */\n      pop\n        /* \"#utility.yul\":13905:14250   */\n      swap3\n      swap2\n      pop\n      pop\n      jump\t// out\n        /* \"#utility.yul\":14256:14436   */\n    tag_251:\n        /* \"#utility.yul\":14304:14381   */\n      0x4e487b7100000000000000000000000000000000000000000000000000000000\n        /* \"#utility.yul\":14301:14302   */\n      0x00\n        /* \"#utility.yul\":14294:14382   */\n      mstore\n        /* \"#utility.yul\":14401:14405   */\n      0x11\n        /* \"#utility.yul\":14398:14399   */\n      0x04\n        /* \"#utility.yul\":14391:14406   */\n      mstore\n        /* \"#utility.yul\":14425:14429   */\n      0x24\n        /* \"#utility.yul\":14422:14423   */\n      0x00\n        /* \"#utility.yul\":14415:14430   */\n      revert\n        /* \"#utility.yul\":14442:14633   */\n    tag_177:\n        /* \"#utility.yul\":14482:14485   */\n      0x00\n        /* \"#utility.yul\":14501:14521   */\n      tag_412\n        /* \"#utility.yul\":14519:14520   */\n      dup3\n        /* \"#utility.yul\":14501:14521   */\n      tag_219\n      jump\t// in\n    tag_412:\n        /* \"#utility.yul\":14496:14521   */\n      swap2\n      pop\n        /* \"#utility.yul\":14535:14555   */\n      tag_413\n        /* \"#utility.yul\":14553:14554   */\n      dup4\n        /* \"#utility.yul\":14535:14555   */\n      tag_219\n      jump\t// in\n    tag_413:\n        /* \"#utility.yul\":14530:14555   */\n      swap3\n      pop\n        /* \"#utility.yul\":14578:14579   */\n      dup3\n        /* \"#utility.yul\":14575:14576   */\n      dup3\n        /* \"#utility.yul\":14571:14580   */\n      add\n        /* \"#utility.yul\":14564:14580   */\n      swap1\n      pop\n        /* \"#utility.yul\":14599:14602   */\n      dup1\n        /* \"#utility.yul\":14596:14597   */\n      dup3\n        /* \"#utility.yul\":14593:14603   */\n      gt\n        /* \"#utility.yul\":14590:14626   */\n      iszero\n      tag_414\n      jumpi\n        /* \"#utility.yul\":14606:14624   */\n      tag_415\n      tag_251\n      jump\t// in\n    tag_415:\n        /* \"#utility.yul\":14590:14626   */\n    tag_414:\n        /* \"#utility.yul\":14442:14633   */\n      swap3\n      swap2\n      pop\n      pop\n      jump\t// out\n        /* \"#utility.yul\":14639:14754   */\n    tag_252:\n        /* \"#utility.yul\":14724:14747   */\n      tag_417\n        /* \"#utility.yul\":14741:14746   */\n      dup2\n        /* \"#utility.yul\":14724:14747   */\n      tag_232\n      jump\t// in\n    tag_417:\n        /* \"#utility.yul\":14719:14722   */\n      dup3\n        /* \"#utility.yul\":14712:14748   */\n      mstore\n        /* \"#utility.yul\":14639:14754   */\n      pop\n      pop\n      jump\t// out\n        /* \"#utility.yul\":14760:14858   */\n    tag_253:\n        /* \"#utility.yul\":14811:14817   */\n      0x00\n        /* \"#utility.yul\":14845:14850   */\n      dup2\n        /* \"#utility.yul\":14839:14851   */\n      mload\n        /* \"#utility.yul\":14829:14851   */\n      swap1\n      pop\n        /* \"#utility.yul\":14760:14858   */\n      swap2\n      swap1\n      pop\n      jump\t// out\n        /* \"#utility.yul\":14864:15032   */\n    tag_254:\n        /* \"#utility.yul\":14947:14958   */\n      0x00\n        /* \"#utility.yul\":14981:14987   */\n      dup3\n        /* \"#utility.yul\":14976:14979   */\n      dup3\n        /* \"#utility.yul\":14969:14988   */\n      mstore\n        /* \"#utility.yul\":15021:15025   */\n      0x20\n        /* \"#utility.yul\":15016:15019   */\n      dup3\n        /* \"#utility.yul\":15012:15026   */\n      add\n        /* \"#utility.yul\":14997:15026   */\n      swap1\n      pop\n        /* \"#utility.yul\":14864:15032   */\n      swap3\n      swap2\n      pop\n      pop\n      jump\t// out\n        /* \"#utility.yul\":15038:15411   */\n    tag_255:\n        /* \"#utility.yul\":15124:15127   */\n      0x00\n        /* \"#utility.yul\":15152:15190   */\n      tag_421\n        /* \"#utility.yul\":15184:15189   */\n      dup3\n        /* \"#utility.yul\":15152:15190   */\n      tag_253\n      jump\t// in\n    tag_421:\n        /* \"#utility.yul\":15206:15276   */\n      tag_422\n        /* \"#utility.yul\":15269:15275   */\n      dup2\n        /* \"#utility.yul\":15264:15267   */\n      dup6\n        /* \"#utility.yul\":15206:15276   */\n      tag_254\n      jump\t// in\n    tag_422:\n        /* \"#utility.yul\":15199:15276   */\n      swap4\n      pop\n        /* \"#utility.yul\":15285:15350   */\n      tag_423\n        /* \"#utility.yul\":15343:15349   */\n      dup2\n        /* \"#utility.yul\":15338:15341   */\n      dup6\n        /* \"#utility.yul\":15331:15335   */\n      0x20\n        /* \"#utility.yul\":15324:15329   */\n      dup7\n        /* \"#utility.yul\":15320:15336   */\n      add\n        /* \"#utility.yul\":15285:15350   */\n      tag_209\n      jump\t// in\n    tag_423:\n        /* \"#utility.yul\":15375:15404   */\n      tag_424\n        /* \"#utility.yul\":15397:15403   */\n      dup2\n        /* \"#utility.yul\":15375:15404   */\n      tag_210\n      jump\t// in\n    tag_424:\n        /* \"#utility.yul\":15370:15373   */\n      dup5\n        /* \"#utility.yul\":15366:15405   */\n      add\n        /* \"#utility.yul\":15359:15405   */\n      swap2\n      pop\n        /* \"#utility.yul\":15128:15411   */\n      pop\n        /* \"#utility.yul\":15038:15411   */\n      swap3\n      swap2\n      pop\n      pop\n      jump\t// out\n        /* \"#utility.yul\":15417:15938   */\n    tag_186:\n        /* \"#utility.yul\":15580:15584   */\n      0x00\n        /* \"#utility.yul\":15618:15620   */\n      0x60\n        /* \"#utility.yul\":15607:15616   */\n      dup3\n        /* \"#utility.yul\":15603:15621   */\n      add\n        /* \"#utility.yul\":15595:15621   */\n      swap1\n      pop\n        /* \"#utility.yul\":15631:15700   */\n      tag_426\n        /* \"#utility.yul\":15697:15698   */\n      0x00\n        /* \"#utility.yul\":15686:15695   */\n      dup4\n        /* \"#utility.yul\":15682:15699   */\n      add\n        /* \"#utility.yul\":15673:15679   */\n      dup7\n        /* \"#utility.yul\":15631:15700   */\n      tag_252\n      jump\t// in\n    tag_426:\n        /* \"#utility.yul\":15747:15756   */\n      dup2\n        /* \"#utility.yul\":15741:15745   */\n      dup2\n        /* \"#utility.yul\":15737:15757   */\n      sub\n        /* \"#utility.yul\":15732:15734   */\n      0x20\n        /* \"#utility.yul\":15721:15730   */\n      dup4\n        /* \"#utility.yul\":15717:15735   */\n      add\n        /* \"#utility.yul\":15710:15758   */\n      mstore\n        /* \"#utility.yul\":15775:15851   */\n      tag_427\n        /* \"#utility.yul\":15846:15850   */\n      dup2\n        /* \"#utility.yul\":15837:15843   */\n      dup6\n        /* \"#utility.yul\":15775:15851   */\n      tag_255\n      jump\t// in\n    tag_427:\n        /* \"#utility.yul\":15767:15851   */\n      swap1\n      pop\n        /* \"#utility.yul\":15861:15931   */\n      tag_428\n        /* \"#utility.yul\":15927:15929   */\n      0x40\n        /* \"#utility.yul\":15916:15925   */\n      dup4\n        /* \"#utility.yul\":15912:15930   */\n      add\n        /* \"#utility.yul\":15903:15909   */\n      dup5\n        /* \"#utility.yul\":15861:15931   */\n      tag_252\n      jump\t// in\n    tag_428:\n        /* \"#utility.yul\":15417:15938   */\n      swap5\n      swap4\n      pop\n      pop\n      pop\n      pop\n      jump\t// out\n        /* \"#utility.yul\":15944:16087   */\n    tag_256:\n        /* \"#utility.yul\":16001:16006   */\n      0x00\n        /* \"#utility.yul\":16032:16038   */\n      dup2\n        /* \"#utility.yul\":16026:16039   */\n      mload\n        /* \"#utility.yul\":16017:16039   */\n      swap1\n      pop\n        /* \"#utility.yul\":16048:16081   */\n      tag_430\n        /* \"#utility.yul\":16075:16080   */\n      dup2\n        /* \"#utility.yul\":16048:16081   */\n      tag_220\n      jump\t// in\n    tag_430:\n        /* \"#utility.yul\":15944:16087   */\n      swap3\n      swap2\n      pop\n      pop\n      jump\t// out\n        /* \"#utility.yul\":16093:16444   */\n    tag_190:\n        /* \"#utility.yul\":16163:16169   */\n      0x00\n        /* \"#utility.yul\":16212:16214   */\n      0x20\n        /* \"#utility.yul\":16200:16209   */\n      dup3\n        /* \"#utility.yul\":16191:16198   */\n      dup5\n        /* \"#utility.yul\":16187:16210   */\n      sub\n        /* \"#utility.yul\":16183:16215   */\n      slt\n        /* \"#utility.yul\":16180:16299   */\n      iszero\n      tag_432\n      jumpi\n        /* \"#utility.yul\":16218:16297   */\n      tag_433\n      tag_213\n      jump\t// in\n    tag_433:\n        /* \"#utility.yul\":16180:16299   */\n    tag_432:\n        /* \"#utility.yul\":16338:16339   */\n      0x00\n        /* \"#utility.yul\":16363:16427   */\n      tag_434\n        /* \"#utility.yul\":16419:16426   */\n      dup5\n        /* \"#utility.yul\":16410:16416   */\n      dup3\n        /* \"#utility.yul\":16399:16408   */\n      dup6\n        /* \"#utility.yul\":16395:16417   */\n      add\n        /* \"#utility.yul\":16363:16427   */\n      tag_256\n      jump\t// in\n    tag_434:\n        /* \"#utility.yul\":16353:16427   */\n      swap2\n      pop\n        /* \"#utility.yul\":16309:16437   */\n      pop\n        /* \"#utility.yul\":16093:16444   */\n      swap3\n      swap2\n      pop\n      pop\n      jump\t// out\n        /* \"#utility.yul\":16450:16624   */\n    tag_257:\n        /* \"#utility.yul\":16590:16616   */\n      0x584170703a20696e73756666696369656e742066756e64730000000000000000\n        /* \"#utility.yul\":16586:16587   */\n      0x00\n        /* \"#utility.yul\":16578:16584   */\n      dup3\n        /* \"#utility.yul\":16574:16588   */\n      add\n        /* \"#utility.yul\":16567:16617   */\n      mstore\n        /* \"#utility.yul\":16450:16624   */\n      pop\n      jump\t// out\n        /* \"#utility.yul\":16630:16996   */\n    tag_258:\n        /* \"#utility.yul\":16772:16775   */\n      0x00\n        /* \"#utility.yul\":16793:16860   */\n      tag_437\n        /* \"#utility.yul\":16857:16859   */\n      0x18\n        /* \"#utility.yul\":16852:16855   */\n      dup4\n        /* \"#utility.yul\":16793:16860   */\n      tag_208\n      jump\t// in\n    tag_437:\n        /* \"#utility.yul\":16786:16860   */\n      swap2\n      pop\n        /* \"#utility.yul\":16869:16962   */\n      tag_438\n        /* \"#utility.yul\":16958:16961   */\n      dup3\n        /* \"#utility.yul\":16869:16962   */\n      tag_257\n      jump\t// in\n    tag_438:\n        /* \"#utility.yul\":16987:16989   */\n      0x20\n        /* \"#utility.yul\":16982:16985   */\n      dup3\n        /* \"#utility.yul\":16978:16990   */\n      add\n        /* \"#utility.yul\":16971:16990   */\n      swap1\n      pop\n        /* \"#utility.yul\":16630:16996   */\n      swap2\n      swap1\n      pop\n      jump\t// out\n        /* \"#utility.yul\":17002:17421   */\n    tag_194:\n        /* \"#utility.yul\":17168:17172   */\n      0x00\n        /* \"#utility.yul\":17206:17208   */\n      0x20\n        /* \"#utility.yul\":17195:17204   */\n      dup3\n        /* \"#utility.yul\":17191:17209   */\n      add\n        /* \"#utility.yul\":17183:17209   */\n      swap1\n      pop\n        /* \"#utility.yul\":17255:17264   */\n      dup2\n        /* \"#utility.yul\":17249:17253   */\n      dup2\n        /* \"#utility.yul\":17245:17265   */\n      sub\n        /* \"#utility.yul\":17241:17242   */\n      0x00\n        /* \"#utility.yul\":17230:17239   */\n      dup4\n        /* \"#utility.yul\":17226:17243   */\n      add\n        /* \"#utility.yul\":17219:17266   */\n      mstore\n        /* \"#utility.yul\":17283:17414   */\n      tag_440\n        /* \"#utility.yul\":17409:17413   */\n      dup2\n        /* \"#utility.yul\":17283:17414   */\n      tag_258\n      jump\t// in\n    tag_440:\n        /* \"#utility.yul\":17275:17414   */\n      swap1\n      pop\n        /* \"#utility.yul\":17002:17421   */\n      swap2\n      swap1\n      pop\n      jump\t// out\n        /* \"#utility.yul\":17427:18162   */\n    tag_196:\n        /* \"#utility.yul\":17642:17646   */\n      0x00\n        /* \"#utility.yul\":17680:17683   */\n      0xa0\n        /* \"#utility.yul\":17669:17678   */\n      dup3\n        /* \"#utility.yul\":17665:17684   */\n      add\n        /* \"#utility.yul\":17657:17684   */\n      swap1\n      pop\n        /* \"#utility.yul\":17694:17763   */\n      tag_442\n        /* \"#utility.yul\":17760:17761   */\n      0x00\n        /* \"#utility.yul\":17749:17758   */\n      dup4\n        /* \"#utility.yul\":17745:17762   */\n      add\n        /* \"#utility.yul\":17736:17742   */\n      dup9\n        /* \"#utility.yul\":17694:17763   */\n      tag_252\n      jump\t// in\n    tag_442:\n        /* \"#utility.yul\":17773:17841   */\n      tag_443\n        /* \"#utility.yul\":17837:17839   */\n      0x20\n        /* \"#utility.yul\":17826:17835   */\n      dup4\n        /* \"#utility.yul\":17822:17840   */\n      add\n        /* \"#utility.yul\":17813:17819   */\n      dup8\n        /* \"#utility.yul\":17773:17841   */\n      tag_226\n      jump\t// in\n    tag_443:\n        /* \"#utility.yul\":17851:17923   */\n      tag_444\n        /* \"#utility.yul\":17919:17921   */\n      0x40\n        /* \"#utility.yul\":17908:17917   */\n      dup4\n        /* \"#utility.yul\":17904:17922   */\n      add\n        /* \"#utility.yul\":17895:17901   */\n      dup7\n        /* \"#utility.yul\":17851:17923   */\n      tag_246\n      jump\t// in\n    tag_444:\n        /* \"#utility.yul\":17970:17979   */\n      dup2\n        /* \"#utility.yul\":17964:17968   */\n      dup2\n        /* \"#utility.yul\":17960:17980   */\n      sub\n        /* \"#utility.yul\":17955:17957   */\n      0x60\n        /* \"#utility.yul\":17944:17953   */\n      dup4\n        /* \"#utility.yul\":17940:17958   */\n      add\n        /* \"#utility.yul\":17933:17981   */\n      mstore\n        /* \"#utility.yul\":17998:18074   */\n      tag_445\n        /* \"#utility.yul\":18069:18073   */\n      dup2\n        /* \"#utility.yul\":18060:18066   */\n      dup6\n        /* \"#utility.yul\":17998:18074   */\n      tag_255\n      jump\t// in\n    tag_445:\n        /* \"#utility.yul\":17990:18074   */\n      swap1\n      pop\n        /* \"#utility.yul\":18084:18155   */\n      tag_446\n        /* \"#utility.yul\":18150:18153   */\n      0x80\n        /* \"#utility.yul\":18139:18148   */\n      dup4\n        /* \"#utility.yul\":18135:18154   */\n      add\n        /* \"#utility.yul\":18126:18132   */\n      dup5\n        /* \"#utility.yul\":18084:18155   */\n      tag_252\n      jump\t// in\n    tag_446:\n        /* \"#utility.yul\":17427:18162   */\n      swap7\n      swap6\n      pop\n      pop\n      pop\n      pop\n      pop\n      pop\n      jump\t// out\n\n    auxdata: 0xa264697066735822122072d49278d078cd142369df4ce9c0eee6ef87864c9262b30d4f0bbaec1485823564736f6c634300081a0033\n}\n",
				"bytecode": {
					"linkReferences": {},
					"object": "608060405273cb60a0451831e4865bc49f41f9c67665fc9b75c360075f6101000a81548173ffffffffffffffffffffffffffffffffffffffff021916908373ffffffffffffffffffffffffffffffffffffffff160217905550348015610063575f80fd5b5060405161277038038061277083398181016040528101906100859190610787565b848460075f9054906101000a900473ffffffffffffffffffffffffffffffffffffffff168060016100bb8261012b60201b60201c565b6100ca8161021260201b60201c565b505082600590816100db9190610a3a565b5081600690816100eb9190610a3a565b5050505060011515811515036101105761010b82846102b460201b60201c565b610121565b61012030846102b460201b60201c565b5b5050505050610d02565b5f73ffffffffffffffffffffffffffffffffffffffff168173ffffffffffffffffffffffffffffffffffffffff1603610199576040517f08c379a000000000000000000000000000000000000000000000000000000000815260040161019090610b63565b60405180910390fd5b805f806101000a81548173ffffffffffffffffffffffffffffffffffffffff021916908373ffffffffffffffffffffffffffffffffffffffff1602179055507f79162c8d053a07e70cdc1ccc536f0440b571f8508377d2bef51094fadab98f47816040516102079190610b90565b60405180910390a150565b6102218161033960201b60201c565b610260576040517f08c379a000000000000000000000000000000000000000000000000000000000815260040161025790610bf3565b60405180910390fd5b805f60146101000a81548160ff021916908360ff1602179055507f8de08a798b4e50b4f351c1eaa91a11530043802be3ffac2df87db0c45a2e8483816040516102a99190610c2c565b60405180910390a150565b5f73ffffffffffffffffffffffffffffffffffffffff168273ffffffffffffffffffffffffffffffffffffffff1603610324575f6040517fec442f0500000000000000000000000000000000000000000000000000000000815260040161031b9190610b90565b60405180910390fd5b6103355f838361035c60201b60201c565b5050565b5f600160ff168260ff1614806103555750600460ff168260ff16145b9050919050565b5f73ffffffffffffffffffffffffffffffffffffffff168373ffffffffffffffffffffffffffffffffffffffff16036103ac578060045f8282546103a09190610c72565b9250508190555061047c565b5f60025f8573ffffffffffffffffffffffffffffffffffffffff1673ffffffffffffffffffffffffffffffffffffffff1681526020019081526020015f2054905081811015610436578381836040517fe450d38c00000000000000000000000000000000000000000000000000000000815260040161042d93929190610cb4565b60405180910390fd5b81810360025f8673ffffffffffffffffffffffffffffffffffffffff1673ffffffffffffffffffffffffffffffffffffffff1681526020019081526020015f2081905550505b5f73ffffffffffffffffffffffffffffffffffffffff168273ffffffffffffffffffffffffffffffffffffffff16036104c3578060045f828254039250508190555061050e565b8060025f8473ffffffffffffffffffffffffffffffffffffffff1673ffffffffffffffffffffffffffffffffffffffff1681526020019081526020015f205f82825401925050819055505b8173ffffffffffffffffffffffffffffffffffffffff168373ffffffffffffffffffffffffffffffffffffffff167fddf252ad1be2c89b69c2b068fc378daa952ba7f163c4a11628f55a4df523b3ef8360405161056b9190610ce9565b60405180910390a3505050565b5f604051905090565b5f80fd5b5f80fd5b5f80fd5b5f80fd5b5f601f19601f8301169050919050565b7f4e487b71000000000000000000000000000000000000000000000000000000005f52604160045260245ffd5b6105d782610591565b810181811067ffffffffffffffff821117156105f6576105f56105a1565b5b80604052505050565b5f610608610578565b905061061482826105ce565b919050565b5f67ffffffffffffffff821115610633576106326105a1565b5b61063c82610591565b9050602081019050919050565b8281835e5f83830152505050565b5f61066961066484610619565b6105ff565b9050828152602081018484840111156106855761068461058d565b5b610690848285610649565b509392505050565b5f82601f8301126106ac576106ab610589565b5b81516106bc848260208601610657565b91505092915050565b5f819050919050565b6106d7816106c5565b81146106e1575f80fd5b50565b5f815190506106f2816106ce565b92915050565b5f73ffffffffffffffffffffffffffffffffffffffff82169050919050565b5f610721826106f8565b9050919050565b61073181610717565b811461073b575f80fd5b50565b5f8151905061074c81610728565b92915050565b5f8115159050919050565b61076681610752565b8114610770575f80fd5b50565b5f815190506107818161075d565b92915050565b5f805f805f60a086880312156107a05761079f610581565b5b5f86015167ffffffffffffffff8111156107bd576107bc610585565b5b6107c988828901610698565b955050602086015167ffffffffffffffff8111156107ea576107e9610585565b5b6107f688828901610698565b9450506040610807888289016106e4565b93505060606108188882890161073e565b925050608061082988828901610773565b9150509295509295909350565b5f81519050919050565b7f4e487b71000000000000000000000000000000000000000000000000000000005f52602260045260245ffd5b5f600282049050600182168061088457607f821691505b60208210810361089757610896610840565b5b50919050565b5f819050815f5260205f209050919050565b5f6020601f8301049050919050565b5f82821b905092915050565b5f600883026108f97fffffffffffffffffffffffffffffffffffffffffffffffffffffffffffffffff826108be565b61090386836108be565b95508019841693508086168417925050509392505050565b5f819050919050565b5f61093e610939610934846106c5565b61091b565b6106c5565b9050919050565b5f819050919050565b61095783610924565b61096b61096382610945565b8484546108ca565b825550505050565b5f90565b61097f610973565b61098a81848461094e565b505050565b5b818110156109ad576109a25f82610977565b600181019050610990565b5050565b601f8211156109f2576109c38161089d565b6109cc846108af565b810160208510156109db578190505b6109ef6109e7856108af565b83018261098f565b50505b505050565b5f82821c905092915050565b5f610a125f19846008026109f7565b1980831691505092915050565b5f610a2a8383610a03565b9150826002028217905092915050565b610a4382610836565b67ffffffffffffffff811115610a5c57610a5b6105a1565b5b610a66825461086d565b610a718282856109b1565b5f60209050601f831160018114610aa2575f8415610a90578287015190505b610a9a8582610a1f565b865550610b01565b601f198416610ab08661089d565b5f5b82811015610ad757848901518255600182019150602085019450602081019050610ab2565b86831015610af45784890151610af0601f891682610a03565b8355505b6001600288020188555050505b505050505050565b5f82825260208201905092915050565b7f584170703a206e6f207a65726f206f6d6e6900000000000000000000000000005f82015250565b5f610b4d601283610b09565b9150610b5882610b19565b602082019050919050565b5f6020820190508181035f830152610b7a81610b41565b9050919050565b610b8a81610717565b82525050565b5f602082019050610ba35f830184610b81565b92915050565b7f584170703a20696e76616c696420636f6e66206c6576656c00000000000000005f82015250565b5f610bdd601883610b09565b9150610be882610ba9565b602082019050919050565b5f6020820190508181035f830152610c0a81610bd1565b9050919050565b5f60ff82169050919050565b610c2681610c11565b82525050565b5f602082019050610c3f5f830184610c1d565b92915050565b7f4e487b71000000000000000000000000000000000000000000000000000000005f52601160045260245ffd5b5f610c7c826106c5565b9150610c87836106c5565b9250828201905080821115610c9f57610c9e610c45565b5b92915050565b610cae816106c5565b82525050565b5f606082019050610cc75f830186610b81565b610cd46020830185610ca5565b610ce16040830184610ca5565b949350505050565b5f602082019050610cfc5f830184610ca5565b92915050565b611a6180610d0f5f395ff3fe6080604052600436106100dc575f3560e01c80634a536a061161007e57806395d89b411161005857806395d89b41146102b6578063a9059cbb146102e0578063bdb3c8e61461031c578063dd62ed3e14610338576100dc565b80634a536a061461022857806370a082311461025057806374eeb8471461028c576100dc565b806323b872dd116100ba57806323b872dd14610170578063313ce567146101ac57806339acf9f1146101d657806340c10f1914610200576100dc565b806306fdde03146100e0578063095ea7b31461010a57806318160ddd14610146575b5f80fd5b3480156100eb575f80fd5b506100f4610374565b6040516101019190611184565b60405180910390f35b348015610115575f80fd5b50610130600480360381019061012b919061123e565b610404565b60405161013d9190611296565b60405180910390f35b348015610151575f80fd5b5061015a610426565b60405161016791906112be565b60405180910390f35b34801561017b575f80fd5b50610196600480360381019061019191906112d7565b61042f565b6040516101a39190611296565b60405180910390f35b3480156101b7575f80fd5b506101c061045d565b6040516101cd9190611342565b60405180910390f35b3480156101e1575f80fd5b506101ea610465565b6040516101f791906113b6565b60405180910390f35b34801561020b575f80fd5b506102266004803603810190610221919061123e565b610488565b005b348015610233575f80fd5b5061024e600480360381019061024991906112d7565b610496565b005b34801561025b575f80fd5b50610276600480360381019061027191906113cf565b610633565b60405161028391906112be565b60405180910390f35b348015610297575f80fd5b506102a0610679565b6040516102ad9190611342565b60405180910390f35b3480156102c1575f80fd5b506102ca61068b565b6040516102d79190611184565b60405180910390f35b3480156102eb575f80fd5b506103066004803603810190610301919061123e565b61071b565b6040516103139190611296565b60405180910390f35b61033660048036038101906103319190611437565b61073d565b005b348015610343575f80fd5b5061035e6004803603810190610359919061149b565b61080e565b60405161036b91906112be565b60405180910390f35b60606005805461038390611506565b80601f01602080910402602001604051908101604052809291908181526020018280546103af90611506565b80156103fa5780601f106103d1576101008083540402835291602001916103fa565b820191905f5260205f20905b8154815290600101906020018083116103dd57829003601f168201915b5050505050905090565b5f8061040e610890565b905061041b818585610897565b600191505092915050565b5f600454905090565b5f80610439610890565b90506104468582856108a9565b61045185858561093b565b60019150509392505050565b5f6012905090565b5f8054906101000a900473ffffffffffffffffffffffffffffffffffffffff1681565b6104928282610a2b565b5050565b5f8054906101000a900473ffffffffffffffffffffffffffffffffffffffff1673ffffffffffffffffffffffffffffffffffffffff16632f32700e6040518163ffffffff1660e01b81526004016040805180830381865afa1580156104fd573d5f803e3d5ffd5b505050506040513d601f19601f820116820180604052508101906105219190611627565b60015f820151815f015f6101000a81548167ffffffffffffffff021916908367ffffffffffffffff1602179055506020820151815f0160086101000a81548173ffffffffffffffffffffffffffffffffffffffff021916908373ffffffffffffffffffffffffffffffffffffffff1602179055509050506105a0610aaa565b6105df576040517f08c379a00000000000000000000000000000000000000000000000000000000081526004016105d6906116c2565b60405180910390fd5b6105ea838383610b93565b60015f8082015f6101000a81549067ffffffffffffffff02191690555f820160086101000a81549073ffffffffffffffffffffffffffffffffffffffff02191690555050505050565b5f60025f8373ffffffffffffffffffffffffffffffffffffffff1673ffffffffffffffffffffffffffffffffffffffff1681526020019081526020015f20549050919050565b5f60149054906101000a900460ff1681565b60606006805461069a90611506565b80601f01602080910402602001604051908101604052809291908181526020018280546106c690611506565b80156107115780601f106106e857610100808354040283529160200191610711565b820191905f5260205f20905b8154815290600101906020018083116106f457829003601f168201915b5050505050905090565b5f80610725610890565b905061073281858561093b565b600191505092915050565b5f610746610890565b905061075381308461093b565b5f848484604051602401610769939291906116ef565b604051602081830303815290604052634a536a0660e01b6020820180517bffffffffffffffffffffffffffffffffffffffffffffffffffffffff838183161783525050505090505f6107c0878784620249f0610daf565b905080341015610805576040517f08c379a00000000000000000000000000000000000000000000000000000000081526004016107fc9061176e565b60405180910390fd5b50505050505050565b5f60035f8473ffffffffffffffffffffffffffffffffffffffff1673ffffffffffffffffffffffffffffffffffffffff1681526020019081526020015f205f8373ffffffffffffffffffffffffffffffffffffffff1673ffffffffffffffffffffffffffffffffffffffff1681526020019081526020015f2054905092915050565b5f33905090565b6108a48383836001610f45565b505050565b5f6108b4848461080e565b90507fffffffffffffffffffffffffffffffffffffffffffffffffffffffffffffffff81146109355781811015610926578281836040517ffb8f41b200000000000000000000000000000000000000000000000000000000815260040161091d9392919061178c565b60405180910390fd5b61093484848484035f610f45565b5b50505050565b5f73ffffffffffffffffffffffffffffffffffffffff168373ffffffffffffffffffffffffffffffffffffffff16036109ab575f6040517f96c6fd1e0000000000000000000000000000000000000000000000000000000081526004016109a291906117c1565b60405180910390fd5b5f73ffffffffffffffffffffffffffffffffffffffff168273ffffffffffffffffffffffffffffffffffffffff1603610a1b575f6040517fec442f05000000000000000000000000000000000000000000000000000000008152600401610a1291906117c1565b60405180910390fd5b610a26838383610b93565b505050565b5f73ffffffffffffffffffffffffffffffffffffffff168273ffffffffffffffffffffffffffffffffffffffff1603610a9b575f6040517fec442f05000000000000000000000000000000000000000000000000000000008152600401610a9291906117c1565b60405180910390fd5b610aa65f8383610b93565b5050565b5f805f9054906101000a900473ffffffffffffffffffffffffffffffffffffffff1673ffffffffffffffffffffffffffffffffffffffff166355e2448e6040518163ffffffff1660e01b8152600401602060405180830381865afa158015610b14573d5f803e3d5ffd5b505050506040513d601f19601f82011682018060405250810190610b389190611804565b8015610b8e57505f8054906101000a900473ffffffffffffffffffffffffffffffffffffffff1673ffffffffffffffffffffffffffffffffffffffff163373ffffffffffffffffffffffffffffffffffffffff16145b905090565b5f73ffffffffffffffffffffffffffffffffffffffff168373ffffffffffffffffffffffffffffffffffffffff1603610be3578060045f828254610bd7919061185c565b92505081905550610cb3565b5f60025f8573ffffffffffffffffffffffffffffffffffffffff1673ffffffffffffffffffffffffffffffffffffffff1681526020019081526020015f2054905081811015610c6d578381836040517fe450d38c000000000000000000000000000000000000000000000000000000008152600401610c649392919061178c565b60405180910390fd5b81810360025f8673ffffffffffffffffffffffffffffffffffffffff1673ffffffffffffffffffffffffffffffffffffffff1681526020019081526020015f2081905550505b5f73ffffffffffffffffffffffffffffffffffffffff168273ffffffffffffffffffffffffffffffffffffffff1603610cfa578060045f8282540392505081905550610d45565b8060025f8473ffffffffffffffffffffffffffffffffffffffff1673ffffffffffffffffffffffffffffffffffffffff1681526020019081526020015f205f82825401925050819055505b8173ffffffffffffffffffffffffffffffffffffffff168373ffffffffffffffffffffffffffffffffffffffff167fddf252ad1be2c89b69c2b068fc378daa952ba7f163c4a11628f55a4df523b3ef83604051610da291906112be565b60405180910390a3505050565b5f805f8054906101000a900473ffffffffffffffffffffffffffffffffffffffff1673ffffffffffffffffffffffffffffffffffffffff16638dd9523c8786866040518463ffffffff1660e01b8152600401610e0d939291906118f0565b602060405180830381865afa158015610e28573d5f803e3d5ffd5b505050506040513d601f19601f82011682018060405250810190610e4c9190611940565b90508047101580610e5d5750803410155b610e9c576040517f08c379a0000000000000000000000000000000000000000000000000000000008152600401610e93906119b5565b60405180910390fd5b5f8054906101000a900473ffffffffffffffffffffffffffffffffffffffff1673ffffffffffffffffffffffffffffffffffffffff1663c21dda4f82885f60149054906101000a900460ff168989896040518763ffffffff1660e01b8152600401610f0b9594939291906119d3565b5f604051808303818588803b158015610f22575f80fd5b505af1158015610f34573d5f803e3d5ffd5b505050505080915050949350505050565b5f73ffffffffffffffffffffffffffffffffffffffff168473ffffffffffffffffffffffffffffffffffffffff1603610fb5575f6040517fe602df05000000000000000000000000000000000000000000000000000000008152600401610fac91906117c1565b60405180910390fd5b5f73ffffffffffffffffffffffffffffffffffffffff168373ffffffffffffffffffffffffffffffffffffffff1603611025575f6040517f94280d6200000000000000000000000000000000000000000000000000000000815260040161101c91906117c1565b60405180910390fd5b8160035f8673ffffffffffffffffffffffffffffffffffffffff1673ffffffffffffffffffffffffffffffffffffffff1681526020019081526020015f205f8573ffffffffffffffffffffffffffffffffffffffff1673ffffffffffffffffffffffffffffffffffffffff1681526020019081526020015f2081905550801561110e578273ffffffffffffffffffffffffffffffffffffffff168473ffffffffffffffffffffffffffffffffffffffff167f8c5be1e5ebec7d5bd14f71427d1e84f3dd0314c0f7b2291e5b200ac8c7c3b9258460405161110591906112be565b60405180910390a35b50505050565b5f81519050919050565b5f82825260208201905092915050565b8281835e5f83830152505050565b5f601f19601f8301169050919050565b5f61115682611114565b611160818561111e565b935061117081856020860161112e565b6111798161113c565b840191505092915050565b5f6020820190508181035f83015261119c818461114c565b905092915050565b5f604051905090565b5f80fd5b5f73ffffffffffffffffffffffffffffffffffffffff82169050919050565b5f6111da826111b1565b9050919050565b6111ea816111d0565b81146111f4575f80fd5b50565b5f81359050611205816111e1565b92915050565b5f819050919050565b61121d8161120b565b8114611227575f80fd5b50565b5f8135905061123881611214565b92915050565b5f8060408385031215611254576112536111ad565b5b5f611261858286016111f7565b92505060206112728582860161122a565b9150509250929050565b5f8115159050919050565b6112908161127c565b82525050565b5f6020820190506112a95f830184611287565b92915050565b6112b88161120b565b82525050565b5f6020820190506112d15f8301846112af565b92915050565b5f805f606084860312156112ee576112ed6111ad565b5b5f6112fb868287016111f7565b935050602061130c868287016111f7565b925050604061131d8682870161122a565b9150509250925092565b5f60ff82169050919050565b61133c81611327565b82525050565b5f6020820190506113555f830184611333565b92915050565b5f819050919050565b5f61137e611379611374846111b1565b61135b565b6111b1565b9050919050565b5f61138f82611364565b9050919050565b5f6113a082611385565b9050919050565b6113b081611396565b82525050565b5f6020820190506113c95f8301846113a7565b92915050565b5f602082840312156113e4576113e36111ad565b5b5f6113f1848285016111f7565b91505092915050565b5f67ffffffffffffffff82169050919050565b611416816113fa565b8114611420575f80fd5b50565b5f813590506114318161140d565b92915050565b5f805f806080858703121561144f5761144e6111ad565b5b5f61145c87828801611423565b945050602061146d878288016111f7565b935050604061147e878288016111f7565b925050606061148f8782880161122a565b91505092959194509250565b5f80604083850312156114b1576114b06111ad565b5b5f6114be858286016111f7565b92505060206114cf858286016111f7565b9150509250929050565b7f4e487b71000000000000000000000000000000000000000000000000000000005f52602260045260245ffd5b5f600282049050600182168061151d57607f821691505b6020821081036115305761152f6114d9565b5b50919050565b5f80fd5b7f4e487b71000000000000000000000000000000000000000000000000000000005f52604160045260245ffd5b6115708261113c565b810181811067ffffffffffffffff8211171561158f5761158e61153a565b5b80604052505050565b5f6115a16111a4565b90506115ad8282611567565b919050565b5f815190506115c08161140d565b92915050565b5f815190506115d4816111e1565b92915050565b5f604082840312156115ef576115ee611536565b5b6115f96040611598565b90505f611608848285016115b2565b5f83015250602061161b848285016115c6565b60208301525092915050565b5f6040828403121561163c5761163b6111ad565b5b5f611649848285016115da565b91505092915050565b7f4f6d6e6945524332303a204f6e6c792063616c6c61626c65207669612063726f5f8201527f73732d636861696e206d65737361676500000000000000000000000000000000602082015250565b5f6116ac60308361111e565b91506116b782611652565b604082019050919050565b5f6020820190508181035f8301526116d9816116a0565b9050919050565b6116e9816111d0565b82525050565b5f6060820190506117025f8301866116e0565b61170f60208301856116e0565b61171c60408301846112af565b949350505050565b7f4f6d6e6945524332303a20496e73756666696369656e742066656500000000005f82015250565b5f611758601b8361111e565b915061176382611724565b602082019050919050565b5f6020820190508181035f8301526117858161174c565b9050919050565b5f60608201905061179f5f8301866116e0565b6117ac60208301856112af565b6117b960408301846112af565b949350505050565b5f6020820190506117d45f8301846116e0565b92915050565b6117e38161127c565b81146117ed575f80fd5b50565b5f815190506117fe816117da565b92915050565b5f60208284031215611819576118186111ad565b5b5f611826848285016117f0565b91505092915050565b7f4e487b71000000000000000000000000000000000000000000000000000000005f52601160045260245ffd5b5f6118668261120b565b91506118718361120b565b92508282019050808211156118895761188861182f565b5b92915050565b611898816113fa565b82525050565b5f81519050919050565b5f82825260208201905092915050565b5f6118c28261189e565b6118cc81856118a8565b93506118dc81856020860161112e565b6118e58161113c565b840191505092915050565b5f6060820190506119035f83018661188f565b818103602083015261191581856118b8565b9050611924604083018461188f565b949350505050565b5f8151905061193a81611214565b92915050565b5f60208284031215611955576119546111ad565b5b5f6119628482850161192c565b91505092915050565b7f584170703a20696e73756666696369656e742066756e647300000000000000005f82015250565b5f61199f60188361111e565b91506119aa8261196b565b602082019050919050565b5f6020820190508181035f8301526119cc81611993565b9050919050565b5f60a0820190506119e65f83018861188f565b6119f36020830187611333565b611a0060408301866116e0565b8181036060830152611a1281856118b8565b9050611a21608083018461188f565b969550505050505056fea264697066735822122072d49278d078cd142369df4ce9c0eee6ef87864c9262b30d4f0bbaec1485823564736f6c634300081a0033",
					"opcodes": "PUSH1 0x80 PUSH1 0x40 MSTORE PUSH20 0xCB60A0451831E4865BC49F41F9C67665FC9B75C3 PUSH1 0x7 PUSH0 PUSH2 0x100 EXP DUP2 SLOAD DUP2 PUSH20 0xFFFFFFFFFFFFFFFFFFFFFFFFFFFFFFFFFFFFFFFF MUL NOT AND SWAP1 DUP4 PUSH20 0xFFFFFFFFFFFFFFFFFFFFFFFFFFFFFFFFFFFFFFFF AND MUL OR SWAP1 SSTORE POP CALLVALUE DUP1 ISZERO PUSH2 0x63 JUMPI PUSH0 DUP1 REVERT JUMPDEST POP PUSH1 0x40 MLOAD PUSH2 0x2770 CODESIZE SUB DUP1 PUSH2 0x2770 DUP4 CODECOPY DUP2 DUP2 ADD PUSH1 0x40 MSTORE DUP2 ADD SWAP1 PUSH2 0x85 SWAP2 SWAP1 PUSH2 0x787 JUMP JUMPDEST DUP5 DUP5 PUSH1 0x7 PUSH0 SWAP1 SLOAD SWAP1 PUSH2 0x100 EXP SWAP1 DIV PUSH20 0xFFFFFFFFFFFFFFFFFFFFFFFFFFFFFFFFFFFFFFFF AND DUP1 PUSH1 0x1 PUSH2 0xBB DUP3 PUSH2 0x12B PUSH1 0x20 SHL PUSH1 0x20 SHR JUMP JUMPDEST PUSH2 0xCA DUP2 PUSH2 0x212 PUSH1 0x20 SHL PUSH1 0x20 SHR JUMP JUMPDEST POP POP DUP3 PUSH1 0x5 SWAP1 DUP2 PUSH2 0xDB SWAP2 SWAP1 PUSH2 0xA3A JUMP JUMPDEST POP DUP2 PUSH1 0x6 SWAP1 DUP2 PUSH2 0xEB SWAP2 SWAP1 PUSH2 0xA3A JUMP JUMPDEST POP POP POP POP PUSH1 0x1 ISZERO ISZERO DUP2 ISZERO ISZERO SUB PUSH2 0x110 JUMPI PUSH2 0x10B DUP3 DUP5 PUSH2 0x2B4 PUSH1 0x20 SHL PUSH1 0x20 SHR JUMP JUMPDEST PUSH2 0x121 JUMP JUMPDEST PUSH2 0x120 ADDRESS DUP5 PUSH2 0x2B4 PUSH1 0x20 SHL PUSH1 0x20 SHR JUMP JUMPDEST JUMPDEST POP POP POP POP POP PUSH2 0xD02 JUMP JUMPDEST PUSH0 PUSH20 0xFFFFFFFFFFFFFFFFFFFFFFFFFFFFFFFFFFFFFFFF AND DUP2 PUSH20 0xFFFFFFFFFFFFFFFFFFFFFFFFFFFFFFFFFFFFFFFF AND SUB PUSH2 0x199 JUMPI PUSH1 0x40 MLOAD PUSH32 0x8C379A000000000000000000000000000000000000000000000000000000000 DUP2 MSTORE PUSH1 0x4 ADD PUSH2 0x190 SWAP1 PUSH2 0xB63 JUMP JUMPDEST PUSH1 0x40 MLOAD DUP1 SWAP2 SUB SWAP1 REVERT JUMPDEST DUP1 PUSH0 DUP1 PUSH2 0x100 EXP DUP2 SLOAD DUP2 PUSH20 0xFFFFFFFFFFFFFFFFFFFFFFFFFFFFFFFFFFFFFFFF MUL NOT AND SWAP1 DUP4 PUSH20 0xFFFFFFFFFFFFFFFFFFFFFFFFFFFFFFFFFFFFFFFF AND MUL OR SWAP1 SSTORE POP PUSH32 0x79162C8D053A07E70CDC1CCC536F0440B571F8508377D2BEF51094FADAB98F47 DUP2 PUSH1 0x40 MLOAD PUSH2 0x207 SWAP2 SWAP1 PUSH2 0xB90 JUMP JUMPDEST PUSH1 0x40 MLOAD DUP1 SWAP2 SUB SWAP1 LOG1 POP JUMP JUMPDEST PUSH2 0x221 DUP2 PUSH2 0x339 PUSH1 0x20 SHL PUSH1 0x20 SHR JUMP JUMPDEST PUSH2 0x260 JUMPI PUSH1 0x40 MLOAD PUSH32 0x8C379A000000000000000000000000000000000000000000000000000000000 DUP2 MSTORE PUSH1 0x4 ADD PUSH2 0x257 SWAP1 PUSH2 0xBF3 JUMP JUMPDEST PUSH1 0x40 MLOAD DUP1 SWAP2 SUB SWAP1 REVERT JUMPDEST DUP1 PUSH0 PUSH1 0x14 PUSH2 0x100 EXP DUP2 SLOAD DUP2 PUSH1 0xFF MUL NOT AND SWAP1 DUP4 PUSH1 0xFF AND MUL OR SWAP1 SSTORE POP PUSH32 0x8DE08A798B4E50B4F351C1EAA91A11530043802BE3FFAC2DF87DB0C45A2E8483 DUP2 PUSH1 0x40 MLOAD PUSH2 0x2A9 SWAP2 SWAP1 PUSH2 0xC2C JUMP JUMPDEST PUSH1 0x40 MLOAD DUP1 SWAP2 SUB SWAP1 LOG1 POP JUMP JUMPDEST PUSH0 PUSH20 0xFFFFFFFFFFFFFFFFFFFFFFFFFFFFFFFFFFFFFFFF AND DUP3 PUSH20 0xFFFFFFFFFFFFFFFFFFFFFFFFFFFFFFFFFFFFFFFF AND SUB PUSH2 0x324 JUMPI PUSH0 PUSH1 0x40 MLOAD PUSH32 0xEC442F0500000000000000000000000000000000000000000000000000000000 DUP2 MSTORE PUSH1 0x4 ADD PUSH2 0x31B SWAP2 SWAP1 PUSH2 0xB90 JUMP JUMPDEST PUSH1 0x40 MLOAD DUP1 SWAP2 SUB SWAP1 REVERT JUMPDEST PUSH2 0x335 PUSH0 DUP4 DUP4 PUSH2 0x35C PUSH1 0x20 SHL PUSH1 0x20 SHR JUMP JUMPDEST POP POP JUMP JUMPDEST PUSH0 PUSH1 0x1 PUSH1 0xFF AND DUP3 PUSH1 0xFF AND EQ DUP1 PUSH2 0x355 JUMPI POP PUSH1 0x4 PUSH1 0xFF AND DUP3 PUSH1 0xFF AND EQ JUMPDEST SWAP1 POP SWAP2 SWAP1 POP JUMP JUMPDEST PUSH0 PUSH20 0xFFFFFFFFFFFFFFFFFFFFFFFFFFFFFFFFFFFFFFFF AND DUP4 PUSH20 0xFFFFFFFFFFFFFFFFFFFFFFFFFFFFFFFFFFFFFFFF AND SUB PUSH2 0x3AC JUMPI DUP1 PUSH1 0x4 PUSH0 DUP3 DUP3 SLOAD PUSH2 0x3A0 SWAP2 SWAP1 PUSH2 0xC72 JUMP JUMPDEST SWAP3 POP POP DUP2 SWAP1 SSTORE POP PUSH2 0x47C JUMP JUMPDEST PUSH0 PUSH1 0x2 PUSH0 DUP6 PUSH20 0xFFFFFFFFFFFFFFFFFFFFFFFFFFFFFFFFFFFFFFFF AND PUSH20 0xFFFFFFFFFFFFFFFFFFFFFFFFFFFFFFFFFFFFFFFF AND DUP2 MSTORE PUSH1 0x20 ADD SWAP1 DUP2 MSTORE PUSH1 0x20 ADD PUSH0 KECCAK256 SLOAD SWAP1 POP DUP2 DUP2 LT ISZERO PUSH2 0x436 JUMPI DUP4 DUP2 DUP4 PUSH1 0x40 MLOAD PUSH32 0xE450D38C00000000000000000000000000000000000000000000000000000000 DUP2 MSTORE PUSH1 0x4 ADD PUSH2 0x42D SWAP4 SWAP3 SWAP2 SWAP1 PUSH2 0xCB4 JUMP JUMPDEST PUSH1 0x40 MLOAD DUP1 SWAP2 SUB SWAP1 REVERT JUMPDEST DUP2 DUP2 SUB PUSH1 0x2 PUSH0 DUP7 PUSH20 0xFFFFFFFFFFFFFFFFFFFFFFFFFFFFFFFFFFFFFFFF AND PUSH20 0xFFFFFFFFFFFFFFFFFFFFFFFFFFFFFFFFFFFFFFFF AND DUP2 MSTORE PUSH1 0x20 ADD SWAP1 DUP2 MSTORE PUSH1 0x20 ADD PUSH0 KECCAK256 DUP2 SWAP1 SSTORE POP POP JUMPDEST PUSH0 PUSH20 0xFFFFFFFFFFFFFFFFFFFFFFFFFFFFFFFFFFFFFFFF AND DUP3 PUSH20 0xFFFFFFFFFFFFFFFFFFFFFFFFFFFFFFFFFFFFFFFF AND SUB PUSH2 0x4C3 JUMPI DUP1 PUSH1 0x4 PUSH0 DUP3 DUP3 SLOAD SUB SWAP3 POP POP DUP2 SWAP1 SSTORE POP PUSH2 0x50E JUMP JUMPDEST DUP1 PUSH1 0x2 PUSH0 DUP5 PUSH20 0xFFFFFFFFFFFFFFFFFFFFFFFFFFFFFFFFFFFFFFFF AND PUSH20 0xFFFFFFFFFFFFFFFFFFFFFFFFFFFFFFFFFFFFFFFF AND DUP2 MSTORE PUSH1 0x20 ADD SWAP1 DUP2 MSTORE PUSH1 0x20 ADD PUSH0 KECCAK256 PUSH0 DUP3 DUP3 SLOAD ADD SWAP3 POP POP DUP2 SWAP1 SSTORE POP JUMPDEST DUP2 PUSH20 0xFFFFFFFFFFFFFFFFFFFFFFFFFFFFFFFFFFFFFFFF AND DUP4 PUSH20 0xFFFFFFFFFFFFFFFFFFFFFFFFFFFFFFFFFFFFFFFF AND PUSH32 0xDDF252AD1BE2C89B69C2B068FC378DAA952BA7F163C4A11628F55A4DF523B3EF DUP4 PUSH1 0x40 MLOAD PUSH2 0x56B SWAP2 SWAP1 PUSH2 0xCE9 JUMP JUMPDEST PUSH1 0x40 MLOAD DUP1 SWAP2 SUB SWAP1 LOG3 POP POP POP JUMP JUMPDEST PUSH0 PUSH1 0x40 MLOAD SWAP1 POP SWAP1 JUMP JUMPDEST PUSH0 DUP1 REVERT JUMPDEST PUSH0 DUP1 REVERT JUMPDEST PUSH0 DUP1 REVERT JUMPDEST PUSH0 DUP1 REVERT JUMPDEST PUSH0 PUSH1 0x1F NOT PUSH1 0x1F DUP4 ADD AND SWAP1 POP SWAP2 SWAP1 POP JUMP JUMPDEST PUSH32 0x4E487B7100000000000000000000000000000000000000000000000000000000 PUSH0 MSTORE PUSH1 0x41 PUSH1 0x4 MSTORE PUSH1 0x24 PUSH0 REVERT JUMPDEST PUSH2 0x5D7 DUP3 PUSH2 0x591 JUMP JUMPDEST DUP2 ADD DUP2 DUP2 LT PUSH8 0xFFFFFFFFFFFFFFFF DUP3 GT OR ISZERO PUSH2 0x5F6 JUMPI PUSH2 0x5F5 PUSH2 0x5A1 JUMP JUMPDEST JUMPDEST DUP1 PUSH1 0x40 MSTORE POP POP POP JUMP JUMPDEST PUSH0 PUSH2 0x608 PUSH2 0x578 JUMP JUMPDEST SWAP1 POP PUSH2 0x614 DUP3 DUP3 PUSH2 0x5CE JUMP JUMPDEST SWAP2 SWAP1 POP JUMP JUMPDEST PUSH0 PUSH8 0xFFFFFFFFFFFFFFFF DUP3 GT ISZERO PUSH2 0x633 JUMPI PUSH2 0x632 PUSH2 0x5A1 JUMP JUMPDEST JUMPDEST PUSH2 0x63C DUP3 PUSH2 0x591 JUMP JUMPDEST SWAP1 POP PUSH1 0x20 DUP2 ADD SWAP1 POP SWAP2 SWAP1 POP JUMP JUMPDEST DUP3 DUP2 DUP4 MCOPY PUSH0 DUP4 DUP4 ADD MSTORE POP POP POP JUMP JUMPDEST PUSH0 PUSH2 0x669 PUSH2 0x664 DUP5 PUSH2 0x619 JUMP JUMPDEST PUSH2 0x5FF JUMP JUMPDEST SWAP1 POP DUP3 DUP2 MSTORE PUSH1 0x20 DUP2 ADD DUP5 DUP5 DUP5 ADD GT ISZERO PUSH2 0x685 JUMPI PUSH2 0x684 PUSH2 0x58D JUMP JUMPDEST JUMPDEST PUSH2 0x690 DUP5 DUP3 DUP6 PUSH2 0x649 JUMP JUMPDEST POP SWAP4 SWAP3 POP POP POP JUMP JUMPDEST PUSH0 DUP3 PUSH1 0x1F DUP4 ADD SLT PUSH2 0x6AC JUMPI PUSH2 0x6AB PUSH2 0x589 JUMP JUMPDEST JUMPDEST DUP2 MLOAD PUSH2 0x6BC DUP5 DUP3 PUSH1 0x20 DUP7 ADD PUSH2 0x657 JUMP JUMPDEST SWAP2 POP POP SWAP3 SWAP2 POP POP JUMP JUMPDEST PUSH0 DUP2 SWAP1 POP SWAP2 SWAP1 POP JUMP JUMPDEST PUSH2 0x6D7 DUP2 PUSH2 0x6C5 JUMP JUMPDEST DUP2 EQ PUSH2 0x6E1 JUMPI PUSH0 DUP1 REVERT JUMPDEST POP JUMP JUMPDEST PUSH0 DUP2 MLOAD SWAP1 POP PUSH2 0x6F2 DUP2 PUSH2 0x6CE JUMP JUMPDEST SWAP3 SWAP2 POP POP JUMP JUMPDEST PUSH0 PUSH20 0xFFFFFFFFFFFFFFFFFFFFFFFFFFFFFFFFFFFFFFFF DUP3 AND SWAP1 POP SWAP2 SWAP1 POP JUMP JUMPDEST PUSH0 PUSH2 0x721 DUP3 PUSH2 0x6F8 JUMP JUMPDEST SWAP1 POP SWAP2 SWAP1 POP JUMP JUMPDEST PUSH2 0x731 DUP2 PUSH2 0x717 JUMP JUMPDEST DUP2 EQ PUSH2 0x73B JUMPI PUSH0 DUP1 REVERT JUMPDEST POP JUMP JUMPDEST PUSH0 DUP2 MLOAD SWAP1 POP PUSH2 0x74C DUP2 PUSH2 0x728 JUMP JUMPDEST SWAP3 SWAP2 POP POP JUMP JUMPDEST PUSH0 DUP2 ISZERO ISZERO SWAP1 POP SWAP2 SWAP1 POP JUMP JUMPDEST PUSH2 0x766 DUP2 PUSH2 0x752 JUMP JUMPDEST DUP2 EQ PUSH2 0x770 JUMPI PUSH0 DUP1 REVERT JUMPDEST POP JUMP JUMPDEST PUSH0 DUP2 MLOAD SWAP1 POP PUSH2 0x781 DUP2 PUSH2 0x75D JUMP JUMPDEST SWAP3 SWAP2 POP POP JUMP JUMPDEST PUSH0 DUP1 PUSH0 DUP1 PUSH0 PUSH1 0xA0 DUP7 DUP9 SUB SLT ISZERO PUSH2 0x7A0 JUMPI PUSH2 0x79F PUSH2 0x581 JUMP JUMPDEST JUMPDEST PUSH0 DUP7 ADD MLOAD PUSH8 0xFFFFFFFFFFFFFFFF DUP2 GT ISZERO PUSH2 0x7BD JUMPI PUSH2 0x7BC PUSH2 0x585 JUMP JUMPDEST JUMPDEST PUSH2 0x7C9 DUP9 DUP3 DUP10 ADD PUSH2 0x698 JUMP JUMPDEST SWAP6 POP POP PUSH1 0x20 DUP7 ADD MLOAD PUSH8 0xFFFFFFFFFFFFFFFF DUP2 GT ISZERO PUSH2 0x7EA JUMPI PUSH2 0x7E9 PUSH2 0x585 JUMP JUMPDEST JUMPDEST PUSH2 0x7F6 DUP9 DUP3 DUP10 ADD PUSH2 0x698 JUMP JUMPDEST SWAP5 POP POP PUSH1 0x40 PUSH2 0x807 DUP9 DUP3 DUP10 ADD PUSH2 0x6E4 JUMP JUMPDEST SWAP4 POP POP PUSH1 0x60 PUSH2 0x818 DUP9 DUP3 DUP10 ADD PUSH2 0x73E JUMP JUMPDEST SWAP3 POP POP PUSH1 0x80 PUSH2 0x829 DUP9 DUP3 DUP10 ADD PUSH2 0x773 JUMP JUMPDEST SWAP2 POP POP SWAP3 SWAP6 POP SWAP3 SWAP6 SWAP1 SWAP4 POP JUMP JUMPDEST PUSH0 DUP2 MLOAD SWAP1 POP SWAP2 SWAP1 POP JUMP JUMPDEST PUSH32 0x4E487B7100000000000000000000000000000000000000000000000000000000 PUSH0 MSTORE PUSH1 0x22 PUSH1 0x4 MSTORE PUSH1 0x24 PUSH0 REVERT JUMPDEST PUSH0 PUSH1 0x2 DUP3 DIV SWAP1 POP PUSH1 0x1 DUP3 AND DUP1 PUSH2 0x884 JUMPI PUSH1 0x7F DUP3 AND SWAP2 POP JUMPDEST PUSH1 0x20 DUP3 LT DUP2 SUB PUSH2 0x897 JUMPI PUSH2 0x896 PUSH2 0x840 JUMP JUMPDEST JUMPDEST POP SWAP2 SWAP1 POP JUMP JUMPDEST PUSH0 DUP2 SWAP1 POP DUP2 PUSH0 MSTORE PUSH1 0x20 PUSH0 KECCAK256 SWAP1 POP SWAP2 SWAP1 POP JUMP JUMPDEST PUSH0 PUSH1 0x20 PUSH1 0x1F DUP4 ADD DIV SWAP1 POP SWAP2 SWAP1 POP JUMP JUMPDEST PUSH0 DUP3 DUP3 SHL SWAP1 POP SWAP3 SWAP2 POP POP JUMP JUMPDEST PUSH0 PUSH1 0x8 DUP4 MUL PUSH2 0x8F9 PUSH32 0xFFFFFFFFFFFFFFFFFFFFFFFFFFFFFFFFFFFFFFFFFFFFFFFFFFFFFFFFFFFFFFFF DUP3 PUSH2 0x8BE JUMP JUMPDEST PUSH2 0x903 DUP7 DUP4 PUSH2 0x8BE JUMP JUMPDEST SWAP6 POP DUP1 NOT DUP5 AND SWAP4 POP DUP1 DUP7 AND DUP5 OR SWAP3 POP POP POP SWAP4 SWAP3 POP POP POP JUMP JUMPDEST PUSH0 DUP2 SWAP1 POP SWAP2 SWAP1 POP JUMP JUMPDEST PUSH0 PUSH2 0x93E PUSH2 0x939 PUSH2 0x934 DUP5 PUSH2 0x6C5 JUMP JUMPDEST PUSH2 0x91B JUMP JUMPDEST PUSH2 0x6C5 JUMP JUMPDEST SWAP1 POP SWAP2 SWAP1 POP JUMP JUMPDEST PUSH0 DUP2 SWAP1 POP SWAP2 SWAP1 POP JUMP JUMPDEST PUSH2 0x957 DUP4 PUSH2 0x924 JUMP JUMPDEST PUSH2 0x96B PUSH2 0x963 DUP3 PUSH2 0x945 JUMP JUMPDEST DUP5 DUP5 SLOAD PUSH2 0x8CA JUMP JUMPDEST DUP3 SSTORE POP POP POP POP JUMP JUMPDEST PUSH0 SWAP1 JUMP JUMPDEST PUSH2 0x97F PUSH2 0x973 JUMP JUMPDEST PUSH2 0x98A DUP2 DUP5 DUP5 PUSH2 0x94E JUMP JUMPDEST POP POP POP JUMP JUMPDEST JUMPDEST DUP2 DUP2 LT ISZERO PUSH2 0x9AD JUMPI PUSH2 0x9A2 PUSH0 DUP3 PUSH2 0x977 JUMP JUMPDEST PUSH1 0x1 DUP2 ADD SWAP1 POP PUSH2 0x990 JUMP JUMPDEST POP POP JUMP JUMPDEST PUSH1 0x1F DUP3 GT ISZERO PUSH2 0x9F2 JUMPI PUSH2 0x9C3 DUP2 PUSH2 0x89D JUMP JUMPDEST PUSH2 0x9CC DUP5 PUSH2 0x8AF JUMP JUMPDEST DUP2 ADD PUSH1 0x20 DUP6 LT ISZERO PUSH2 0x9DB JUMPI DUP2 SWAP1 POP JUMPDEST PUSH2 0x9EF PUSH2 0x9E7 DUP6 PUSH2 0x8AF JUMP JUMPDEST DUP4 ADD DUP3 PUSH2 0x98F JUMP JUMPDEST POP POP JUMPDEST POP POP POP JUMP JUMPDEST PUSH0 DUP3 DUP3 SHR SWAP1 POP SWAP3 SWAP2 POP POP JUMP JUMPDEST PUSH0 PUSH2 0xA12 PUSH0 NOT DUP5 PUSH1 0x8 MUL PUSH2 0x9F7 JUMP JUMPDEST NOT DUP1 DUP4 AND SWAP2 POP POP SWAP3 SWAP2 POP POP JUMP JUMPDEST PUSH0 PUSH2 0xA2A DUP4 DUP4 PUSH2 0xA03 JUMP JUMPDEST SWAP2 POP DUP3 PUSH1 0x2 MUL DUP3 OR SWAP1 POP SWAP3 SWAP2 POP POP JUMP JUMPDEST PUSH2 0xA43 DUP3 PUSH2 0x836 JUMP JUMPDEST PUSH8 0xFFFFFFFFFFFFFFFF DUP2 GT ISZERO PUSH2 0xA5C JUMPI PUSH2 0xA5B PUSH2 0x5A1 JUMP JUMPDEST JUMPDEST PUSH2 0xA66 DUP3 SLOAD PUSH2 0x86D JUMP JUMPDEST PUSH2 0xA71 DUP3 DUP3 DUP6 PUSH2 0x9B1 JUMP JUMPDEST PUSH0 PUSH1 0x20 SWAP1 POP PUSH1 0x1F DUP4 GT PUSH1 0x1 DUP2 EQ PUSH2 0xAA2 JUMPI PUSH0 DUP5 ISZERO PUSH2 0xA90 JUMPI DUP3 DUP8 ADD MLOAD SWAP1 POP JUMPDEST PUSH2 0xA9A DUP6 DUP3 PUSH2 0xA1F JUMP JUMPDEST DUP7 SSTORE POP PUSH2 0xB01 JUMP JUMPDEST PUSH1 0x1F NOT DUP5 AND PUSH2 0xAB0 DUP7 PUSH2 0x89D JUMP JUMPDEST PUSH0 JUMPDEST DUP3 DUP2 LT ISZERO PUSH2 0xAD7 JUMPI DUP5 DUP10 ADD MLOAD DUP3 SSTORE PUSH1 0x1 DUP3 ADD SWAP2 POP PUSH1 0x20 DUP6 ADD SWAP5 POP PUSH1 0x20 DUP2 ADD SWAP1 POP PUSH2 0xAB2 JUMP JUMPDEST DUP7 DUP4 LT ISZERO PUSH2 0xAF4 JUMPI DUP5 DUP10 ADD MLOAD PUSH2 0xAF0 PUSH1 0x1F DUP10 AND DUP3 PUSH2 0xA03 JUMP JUMPDEST DUP4 SSTORE POP JUMPDEST PUSH1 0x1 PUSH1 0x2 DUP9 MUL ADD DUP9 SSTORE POP POP POP JUMPDEST POP POP POP POP POP POP JUMP JUMPDEST PUSH0 DUP3 DUP3 MSTORE PUSH1 0x20 DUP3 ADD SWAP1 POP SWAP3 SWAP2 POP POP JUMP JUMPDEST PUSH32 0x584170703A206E6F207A65726F206F6D6E690000000000000000000000000000 PUSH0 DUP3 ADD MSTORE POP JUMP JUMPDEST PUSH0 PUSH2 0xB4D PUSH1 0x12 DUP4 PUSH2 0xB09 JUMP JUMPDEST SWAP2 POP PUSH2 0xB58 DUP3 PUSH2 0xB19 JUMP JUMPDEST PUSH1 0x20 DUP3 ADD SWAP1 POP SWAP2 SWAP1 POP JUMP JUMPDEST PUSH0 PUSH1 0x20 DUP3 ADD SWAP1 POP DUP2 DUP2 SUB PUSH0 DUP4 ADD MSTORE PUSH2 0xB7A DUP2 PUSH2 0xB41 JUMP JUMPDEST SWAP1 POP SWAP2 SWAP1 POP JUMP JUMPDEST PUSH2 0xB8A DUP2 PUSH2 0x717 JUMP JUMPDEST DUP3 MSTORE POP POP JUMP JUMPDEST PUSH0 PUSH1 0x20 DUP3 ADD SWAP1 POP PUSH2 0xBA3 PUSH0 DUP4 ADD DUP5 PUSH2 0xB81 JUMP JUMPDEST SWAP3 SWAP2 POP POP JUMP JUMPDEST PUSH32 0x584170703A20696E76616C696420636F6E66206C6576656C0000000000000000 PUSH0 DUP3 ADD MSTORE POP JUMP JUMPDEST PUSH0 PUSH2 0xBDD PUSH1 0x18 DUP4 PUSH2 0xB09 JUMP JUMPDEST SWAP2 POP PUSH2 0xBE8 DUP3 PUSH2 0xBA9 JUMP JUMPDEST PUSH1 0x20 DUP3 ADD SWAP1 POP SWAP2 SWAP1 POP JUMP JUMPDEST PUSH0 PUSH1 0x20 DUP3 ADD SWAP1 POP DUP2 DUP2 SUB PUSH0 DUP4 ADD MSTORE PUSH2 0xC0A DUP2 PUSH2 0xBD1 JUMP JUMPDEST SWAP1 POP SWAP2 SWAP1 POP JUMP JUMPDEST PUSH0 PUSH1 0xFF DUP3 AND SWAP1 POP SWAP2 SWAP1 POP JUMP JUMPDEST PUSH2 0xC26 DUP2 PUSH2 0xC11 JUMP JUMPDEST DUP3 MSTORE POP POP JUMP JUMPDEST PUSH0 PUSH1 0x20 DUP3 ADD SWAP1 POP PUSH2 0xC3F PUSH0 DUP4 ADD DUP5 PUSH2 0xC1D JUMP JUMPDEST SWAP3 SWAP2 POP POP JUMP JUMPDEST PUSH32 0x4E487B7100000000000000000000000000000000000000000000000000000000 PUSH0 MSTORE PUSH1 0x11 PUSH1 0x4 MSTORE PUSH1 0x24 PUSH0 REVERT JUMPDEST PUSH0 PUSH2 0xC7C DUP3 PUSH2 0x6C5 JUMP JUMPDEST SWAP2 POP PUSH2 0xC87 DUP4 PUSH2 0x6C5 JUMP JUMPDEST SWAP3 POP DUP3 DUP3 ADD SWAP1 POP DUP1 DUP3 GT ISZERO PUSH2 0xC9F JUMPI PUSH2 0xC9E PUSH2 0xC45 JUMP JUMPDEST JUMPDEST SWAP3 SWAP2 POP POP JUMP JUMPDEST PUSH2 0xCAE DUP2 PUSH2 0x6C5 JUMP JUMPDEST DUP3 MSTORE POP POP JUMP JUMPDEST PUSH0 PUSH1 0x60 DUP3 ADD SWAP1 POP PUSH2 0xCC7 PUSH0 DUP4 ADD DUP7 PUSH2 0xB81 JUMP JUMPDEST PUSH2 0xCD4 PUSH1 0x20 DUP4 ADD DUP6 PUSH2 0xCA5 JUMP JUMPDEST PUSH2 0xCE1 PUSH1 0x40 DUP4 ADD DUP5 PUSH2 0xCA5 JUMP JUMPDEST SWAP5 SWAP4 POP POP POP POP JUMP JUMPDEST PUSH0 PUSH1 0x20 DUP3 ADD SWAP1 POP PUSH2 0xCFC PUSH0 DUP4 ADD DUP5 PUSH2 0xCA5 JUMP JUMPDEST SWAP3 SWAP2 POP POP JUMP JUMPDEST PUSH2 0x1A61 DUP1 PUSH2 0xD0F PUSH0 CODECOPY PUSH0 RETURN INVALID PUSH1 0x80 PUSH1 0x40 MSTORE PUSH1 0x4 CALLDATASIZE LT PUSH2 0xDC JUMPI PUSH0 CALLDATALOAD PUSH1 0xE0 SHR DUP1 PUSH4 0x4A536A06 GT PUSH2 0x7E JUMPI DUP1 PUSH4 0x95D89B41 GT PUSH2 0x58 JUMPI DUP1 PUSH4 0x95D89B41 EQ PUSH2 0x2B6 JUMPI DUP1 PUSH4 0xA9059CBB EQ PUSH2 0x2E0 JUMPI DUP1 PUSH4 0xBDB3C8E6 EQ PUSH2 0x31C JUMPI DUP1 PUSH4 0xDD62ED3E EQ PUSH2 0x338 JUMPI PUSH2 0xDC JUMP JUMPDEST DUP1 PUSH4 0x4A536A06 EQ PUSH2 0x228 JUMPI DUP1 PUSH4 0x70A08231 EQ PUSH2 0x250 JUMPI DUP1 PUSH4 0x74EEB847 EQ PUSH2 0x28C JUMPI PUSH2 0xDC JUMP JUMPDEST DUP1 PUSH4 0x23B872DD GT PUSH2 0xBA JUMPI DUP1 PUSH4 0x23B872DD EQ PUSH2 0x170 JUMPI DUP1 PUSH4 0x313CE567 EQ PUSH2 0x1AC JUMPI DUP1 PUSH4 0x39ACF9F1 EQ PUSH2 0x1D6 JUMPI DUP1 PUSH4 0x40C10F19 EQ PUSH2 0x200 JUMPI PUSH2 0xDC JUMP JUMPDEST DUP1 PUSH4 0x6FDDE03 EQ PUSH2 0xE0 JUMPI DUP1 PUSH4 0x95EA7B3 EQ PUSH2 0x10A JUMPI DUP1 PUSH4 0x18160DDD EQ PUSH2 0x146 JUMPI JUMPDEST PUSH0 DUP1 REVERT JUMPDEST CALLVALUE DUP1 ISZERO PUSH2 0xEB JUMPI PUSH0 DUP1 REVERT JUMPDEST POP PUSH2 0xF4 PUSH2 0x374 JUMP JUMPDEST PUSH1 0x40 MLOAD PUSH2 0x101 SWAP2 SWAP1 PUSH2 0x1184 JUMP JUMPDEST PUSH1 0x40 MLOAD DUP1 SWAP2 SUB SWAP1 RETURN JUMPDEST CALLVALUE DUP1 ISZERO PUSH2 0x115 JUMPI PUSH0 DUP1 REVERT JUMPDEST POP PUSH2 0x130 PUSH1 0x4 DUP1 CALLDATASIZE SUB DUP2 ADD SWAP1 PUSH2 0x12B SWAP2 SWAP1 PUSH2 0x123E JUMP JUMPDEST PUSH2 0x404 JUMP JUMPDEST PUSH1 0x40 MLOAD PUSH2 0x13D SWAP2 SWAP1 PUSH2 0x1296 JUMP JUMPDEST PUSH1 0x40 MLOAD DUP1 SWAP2 SUB SWAP1 RETURN JUMPDEST CALLVALUE DUP1 ISZERO PUSH2 0x151 JUMPI PUSH0 DUP1 REVERT JUMPDEST POP PUSH2 0x15A PUSH2 0x426 JUMP JUMPDEST PUSH1 0x40 MLOAD PUSH2 0x167 SWAP2 SWAP1 PUSH2 0x12BE JUMP JUMPDEST PUSH1 0x40 MLOAD DUP1 SWAP2 SUB SWAP1 RETURN JUMPDEST CALLVALUE DUP1 ISZERO PUSH2 0x17B JUMPI PUSH0 DUP1 REVERT JUMPDEST POP PUSH2 0x196 PUSH1 0x4 DUP1 CALLDATASIZE SUB DUP2 ADD SWAP1 PUSH2 0x191 SWAP2 SWAP1 PUSH2 0x12D7 JUMP JUMPDEST PUSH2 0x42F JUMP JUMPDEST PUSH1 0x40 MLOAD PUSH2 0x1A3 SWAP2 SWAP1 PUSH2 0x1296 JUMP JUMPDEST PUSH1 0x40 MLOAD DUP1 SWAP2 SUB SWAP1 RETURN JUMPDEST CALLVALUE DUP1 ISZERO PUSH2 0x1B7 JUMPI PUSH0 DUP1 REVERT JUMPDEST POP PUSH2 0x1C0 PUSH2 0x45D JUMP JUMPDEST PUSH1 0x40 MLOAD PUSH2 0x1CD SWAP2 SWAP1 PUSH2 0x1342 JUMP JUMPDEST PUSH1 0x40 MLOAD DUP1 SWAP2 SUB SWAP1 RETURN JUMPDEST CALLVALUE DUP1 ISZERO PUSH2 0x1E1 JUMPI PUSH0 DUP1 REVERT JUMPDEST POP PUSH2 0x1EA PUSH2 0x465 JUMP JUMPDEST PUSH1 0x40 MLOAD PUSH2 0x1F7 SWAP2 SWAP1 PUSH2 0x13B6 JUMP JUMPDEST PUSH1 0x40 MLOAD DUP1 SWAP2 SUB SWAP1 RETURN JUMPDEST CALLVALUE DUP1 ISZERO PUSH2 0x20B JUMPI PUSH0 DUP1 REVERT JUMPDEST POP PUSH2 0x226 PUSH1 0x4 DUP1 CALLDATASIZE SUB DUP2 ADD SWAP1 PUSH2 0x221 SWAP2 SWAP1 PUSH2 0x123E JUMP JUMPDEST PUSH2 0x488 JUMP JUMPDEST STOP JUMPDEST CALLVALUE DUP1 ISZERO PUSH2 0x233 JUMPI PUSH0 DUP1 REVERT JUMPDEST POP PUSH2 0x24E PUSH1 0x4 DUP1 CALLDATASIZE SUB DUP2 ADD SWAP1 PUSH2 0x249 SWAP2 SWAP1 PUSH2 0x12D7 JUMP JUMPDEST PUSH2 0x496 JUMP JUMPDEST STOP JUMPDEST CALLVALUE DUP1 ISZERO PUSH2 0x25B JUMPI PUSH0 DUP1 REVERT JUMPDEST POP PUSH2 0x276 PUSH1 0x4 DUP1 CALLDATASIZE SUB DUP2 ADD SWAP1 PUSH2 0x271 SWAP2 SWAP1 PUSH2 0x13CF JUMP JUMPDEST PUSH2 0x633 JUMP JUMPDEST PUSH1 0x40 MLOAD PUSH2 0x283 SWAP2 SWAP1 PUSH2 0x12BE JUMP JUMPDEST PUSH1 0x40 MLOAD DUP1 SWAP2 SUB SWAP1 RETURN JUMPDEST CALLVALUE DUP1 ISZERO PUSH2 0x297 JUMPI PUSH0 DUP1 REVERT JUMPDEST POP PUSH2 0x2A0 PUSH2 0x679 JUMP JUMPDEST PUSH1 0x40 MLOAD PUSH2 0x2AD SWAP2 SWAP1 PUSH2 0x1342 JUMP JUMPDEST PUSH1 0x40 MLOAD DUP1 SWAP2 SUB SWAP1 RETURN JUMPDEST CALLVALUE DUP1 ISZERO PUSH2 0x2C1 JUMPI PUSH0 DUP1 REVERT JUMPDEST POP PUSH2 0x2CA PUSH2 0x68B JUMP JUMPDEST PUSH1 0x40 MLOAD PUSH2 0x2D7 SWAP2 SWAP1 PUSH2 0x1184 JUMP JUMPDEST PUSH1 0x40 MLOAD DUP1 SWAP2 SUB SWAP1 RETURN JUMPDEST CALLVALUE DUP1 ISZERO PUSH2 0x2EB JUMPI PUSH0 DUP1 REVERT JUMPDEST POP PUSH2 0x306 PUSH1 0x4 DUP1 CALLDATASIZE SUB DUP2 ADD SWAP1 PUSH2 0x301 SWAP2 SWAP1 PUSH2 0x123E JUMP JUMPDEST PUSH2 0x71B JUMP JUMPDEST PUSH1 0x40 MLOAD PUSH2 0x313 SWAP2 SWAP1 PUSH2 0x1296 JUMP JUMPDEST PUSH1 0x40 MLOAD DUP1 SWAP2 SUB SWAP1 RETURN JUMPDEST PUSH2 0x336 PUSH1 0x4 DUP1 CALLDATASIZE SUB DUP2 ADD SWAP1 PUSH2 0x331 SWAP2 SWAP1 PUSH2 0x1437 JUMP JUMPDEST PUSH2 0x73D JUMP JUMPDEST STOP JUMPDEST CALLVALUE DUP1 ISZERO PUSH2 0x343 JUMPI PUSH0 DUP1 REVERT JUMPDEST POP PUSH2 0x35E PUSH1 0x4 DUP1 CALLDATASIZE SUB DUP2 ADD SWAP1 PUSH2 0x359 SWAP2 SWAP1 PUSH2 0x149B JUMP JUMPDEST PUSH2 0x80E JUMP JUMPDEST PUSH1 0x40 MLOAD PUSH2 0x36B SWAP2 SWAP1 PUSH2 0x12BE JUMP JUMPDEST PUSH1 0x40 MLOAD DUP1 SWAP2 SUB SWAP1 RETURN JUMPDEST PUSH1 0x60 PUSH1 0x5 DUP1 SLOAD PUSH2 0x383 SWAP1 PUSH2 0x1506 JUMP JUMPDEST DUP1 PUSH1 0x1F ADD PUSH1 0x20 DUP1 SWAP2 DIV MUL PUSH1 0x20 ADD PUSH1 0x40 MLOAD SWAP1 DUP2 ADD PUSH1 0x40 MSTORE DUP1 SWAP3 SWAP2 SWAP1 DUP2 DUP2 MSTORE PUSH1 0x20 ADD DUP3 DUP1 SLOAD PUSH2 0x3AF SWAP1 PUSH2 0x1506 JUMP JUMPDEST DUP1 ISZERO PUSH2 0x3FA JUMPI DUP1 PUSH1 0x1F LT PUSH2 0x3D1 JUMPI PUSH2 0x100 DUP1 DUP4 SLOAD DIV MUL DUP4 MSTORE SWAP2 PUSH1 0x20 ADD SWAP2 PUSH2 0x3FA JUMP JUMPDEST DUP3 ADD SWAP2 SWAP1 PUSH0 MSTORE PUSH1 0x20 PUSH0 KECCAK256 SWAP1 JUMPDEST DUP2 SLOAD DUP2 MSTORE SWAP1 PUSH1 0x1 ADD SWAP1 PUSH1 0x20 ADD DUP1 DUP4 GT PUSH2 0x3DD JUMPI DUP3 SWAP1 SUB PUSH1 0x1F AND DUP3 ADD SWAP2 JUMPDEST POP POP POP POP POP SWAP1 POP SWAP1 JUMP JUMPDEST PUSH0 DUP1 PUSH2 0x40E PUSH2 0x890 JUMP JUMPDEST SWAP1 POP PUSH2 0x41B DUP2 DUP6 DUP6 PUSH2 0x897 JUMP JUMPDEST PUSH1 0x1 SWAP2 POP POP SWAP3 SWAP2 POP POP JUMP JUMPDEST PUSH0 PUSH1 0x4 SLOAD SWAP1 POP SWAP1 JUMP JUMPDEST PUSH0 DUP1 PUSH2 0x439 PUSH2 0x890 JUMP JUMPDEST SWAP1 POP PUSH2 0x446 DUP6 DUP3 DUP6 PUSH2 0x8A9 JUMP JUMPDEST PUSH2 0x451 DUP6 DUP6 DUP6 PUSH2 0x93B JUMP JUMPDEST PUSH1 0x1 SWAP2 POP POP SWAP4 SWAP3 POP POP POP JUMP JUMPDEST PUSH0 PUSH1 0x12 SWAP1 POP SWAP1 JUMP JUMPDEST PUSH0 DUP1 SLOAD SWAP1 PUSH2 0x100 EXP SWAP1 DIV PUSH20 0xFFFFFFFFFFFFFFFFFFFFFFFFFFFFFFFFFFFFFFFF AND DUP2 JUMP JUMPDEST PUSH2 0x492 DUP3 DUP3 PUSH2 0xA2B JUMP JUMPDEST POP POP JUMP JUMPDEST PUSH0 DUP1 SLOAD SWAP1 PUSH2 0x100 EXP SWAP1 DIV PUSH20 0xFFFFFFFFFFFFFFFFFFFFFFFFFFFFFFFFFFFFFFFF AND PUSH20 0xFFFFFFFFFFFFFFFFFFFFFFFFFFFFFFFFFFFFFFFF AND PUSH4 0x2F32700E PUSH1 0x40 MLOAD DUP2 PUSH4 0xFFFFFFFF AND PUSH1 0xE0 SHL DUP2 MSTORE PUSH1 0x4 ADD PUSH1 0x40 DUP1 MLOAD DUP1 DUP4 SUB DUP2 DUP7 GAS STATICCALL ISZERO DUP1 ISZERO PUSH2 0x4FD JUMPI RETURNDATASIZE PUSH0 DUP1 RETURNDATACOPY RETURNDATASIZE PUSH0 REVERT JUMPDEST POP POP POP POP PUSH1 0x40 MLOAD RETURNDATASIZE PUSH1 0x1F NOT PUSH1 0x1F DUP3 ADD AND DUP3 ADD DUP1 PUSH1 0x40 MSTORE POP DUP2 ADD SWAP1 PUSH2 0x521 SWAP2 SWAP1 PUSH2 0x1627 JUMP JUMPDEST PUSH1 0x1 PUSH0 DUP3 ADD MLOAD DUP2 PUSH0 ADD PUSH0 PUSH2 0x100 EXP DUP2 SLOAD DUP2 PUSH8 0xFFFFFFFFFFFFFFFF MUL NOT AND SWAP1 DUP4 PUSH8 0xFFFFFFFFFFFFFFFF AND MUL OR SWAP1 SSTORE POP PUSH1 0x20 DUP3 ADD MLOAD DUP2 PUSH0 ADD PUSH1 0x8 PUSH2 0x100 EXP DUP2 SLOAD DUP2 PUSH20 0xFFFFFFFFFFFFFFFFFFFFFFFFFFFFFFFFFFFFFFFF MUL NOT AND SWAP1 DUP4 PUSH20 0xFFFFFFFFFFFFFFFFFFFFFFFFFFFFFFFFFFFFFFFF AND MUL OR SWAP1 SSTORE POP SWAP1 POP POP PUSH2 0x5A0 PUSH2 0xAAA JUMP JUMPDEST PUSH2 0x5DF JUMPI PUSH1 0x40 MLOAD PUSH32 0x8C379A000000000000000000000000000000000000000000000000000000000 DUP2 MSTORE PUSH1 0x4 ADD PUSH2 0x5D6 SWAP1 PUSH2 0x16C2 JUMP JUMPDEST PUSH1 0x40 MLOAD DUP1 SWAP2 SUB SWAP1 REVERT JUMPDEST PUSH2 0x5EA DUP4 DUP4 DUP4 PUSH2 0xB93 JUMP JUMPDEST PUSH1 0x1 PUSH0 DUP1 DUP3 ADD PUSH0 PUSH2 0x100 EXP DUP2 SLOAD SWAP1 PUSH8 0xFFFFFFFFFFFFFFFF MUL NOT AND SWAP1 SSTORE PUSH0 DUP3 ADD PUSH1 0x8 PUSH2 0x100 EXP DUP2 SLOAD SWAP1 PUSH20 0xFFFFFFFFFFFFFFFFFFFFFFFFFFFFFFFFFFFFFFFF MUL NOT AND SWAP1 SSTORE POP POP POP POP POP JUMP JUMPDEST PUSH0 PUSH1 0x2 PUSH0 DUP4 PUSH20 0xFFFFFFFFFFFFFFFFFFFFFFFFFFFFFFFFFFFFFFFF AND PUSH20 0xFFFFFFFFFFFFFFFFFFFFFFFFFFFFFFFFFFFFFFFF AND DUP2 MSTORE PUSH1 0x20 ADD SWAP1 DUP2 MSTORE PUSH1 0x20 ADD PUSH0 KECCAK256 SLOAD SWAP1 POP SWAP2 SWAP1 POP JUMP JUMPDEST PUSH0 PUSH1 0x14 SWAP1 SLOAD SWAP1 PUSH2 0x100 EXP SWAP1 DIV PUSH1 0xFF AND DUP2 JUMP JUMPDEST PUSH1 0x60 PUSH1 0x6 DUP1 SLOAD PUSH2 0x69A SWAP1 PUSH2 0x1506 JUMP JUMPDEST DUP1 PUSH1 0x1F ADD PUSH1 0x20 DUP1 SWAP2 DIV MUL PUSH1 0x20 ADD PUSH1 0x40 MLOAD SWAP1 DUP2 ADD PUSH1 0x40 MSTORE DUP1 SWAP3 SWAP2 SWAP1 DUP2 DUP2 MSTORE PUSH1 0x20 ADD DUP3 DUP1 SLOAD PUSH2 0x6C6 SWAP1 PUSH2 0x1506 JUMP JUMPDEST DUP1 ISZERO PUSH2 0x711 JUMPI DUP1 PUSH1 0x1F LT PUSH2 0x6E8 JUMPI PUSH2 0x100 DUP1 DUP4 SLOAD DIV MUL DUP4 MSTORE SWAP2 PUSH1 0x20 ADD SWAP2 PUSH2 0x711 JUMP JUMPDEST DUP3 ADD SWAP2 SWAP1 PUSH0 MSTORE PUSH1 0x20 PUSH0 KECCAK256 SWAP1 JUMPDEST DUP2 SLOAD DUP2 MSTORE SWAP1 PUSH1 0x1 ADD SWAP1 PUSH1 0x20 ADD DUP1 DUP4 GT PUSH2 0x6F4 JUMPI DUP3 SWAP1 SUB PUSH1 0x1F AND DUP3 ADD SWAP2 JUMPDEST POP POP POP POP POP SWAP1 POP SWAP1 JUMP JUMPDEST PUSH0 DUP1 PUSH2 0x725 PUSH2 0x890 JUMP JUMPDEST SWAP1 POP PUSH2 0x732 DUP2 DUP6 DUP6 PUSH2 0x93B JUMP JUMPDEST PUSH1 0x1 SWAP2 POP POP SWAP3 SWAP2 POP POP JUMP JUMPDEST PUSH0 PUSH2 0x746 PUSH2 0x890 JUMP JUMPDEST SWAP1 POP PUSH2 0x753 DUP2 ADDRESS DUP5 PUSH2 0x93B JUMP JUMPDEST PUSH0 DUP5 DUP5 DUP5 PUSH1 0x40 MLOAD PUSH1 0x24 ADD PUSH2 0x769 SWAP4 SWAP3 SWAP2 SWAP1 PUSH2 0x16EF JUMP JUMPDEST PUSH1 0x40 MLOAD PUSH1 0x20 DUP2 DUP4 SUB SUB DUP2 MSTORE SWAP1 PUSH1 0x40 MSTORE PUSH4 0x4A536A06 PUSH1 0xE0 SHL PUSH1 0x20 DUP3 ADD DUP1 MLOAD PUSH28 0xFFFFFFFFFFFFFFFFFFFFFFFFFFFFFFFFFFFFFFFFFFFFFFFFFFFFFFFF DUP4 DUP2 DUP4 AND OR DUP4 MSTORE POP POP POP POP SWAP1 POP PUSH0 PUSH2 0x7C0 DUP8 DUP8 DUP5 PUSH3 0x249F0 PUSH2 0xDAF JUMP JUMPDEST SWAP1 POP DUP1 CALLVALUE LT ISZERO PUSH2 0x805 JUMPI PUSH1 0x40 MLOAD PUSH32 0x8C379A000000000000000000000000000000000000000000000000000000000 DUP2 MSTORE PUSH1 0x4 ADD PUSH2 0x7FC SWAP1 PUSH2 0x176E JUMP JUMPDEST PUSH1 0x40 MLOAD DUP1 SWAP2 SUB SWAP1 REVERT JUMPDEST POP POP POP POP POP POP POP JUMP JUMPDEST PUSH0 PUSH1 0x3 PUSH0 DUP5 PUSH20 0xFFFFFFFFFFFFFFFFFFFFFFFFFFFFFFFFFFFFFFFF AND PUSH20 0xFFFFFFFFFFFFFFFFFFFFFFFFFFFFFFFFFFFFFFFF AND DUP2 MSTORE PUSH1 0x20 ADD SWAP1 DUP2 MSTORE PUSH1 0x20 ADD PUSH0 KECCAK256 PUSH0 DUP4 PUSH20 0xFFFFFFFFFFFFFFFFFFFFFFFFFFFFFFFFFFFFFFFF AND PUSH20 0xFFFFFFFFFFFFFFFFFFFFFFFFFFFFFFFFFFFFFFFF AND DUP2 MSTORE PUSH1 0x20 ADD SWAP1 DUP2 MSTORE PUSH1 0x20 ADD PUSH0 KECCAK256 SLOAD SWAP1 POP SWAP3 SWAP2 POP POP JUMP JUMPDEST PUSH0 CALLER SWAP1 POP SWAP1 JUMP JUMPDEST PUSH2 0x8A4 DUP4 DUP4 DUP4 PUSH1 0x1 PUSH2 0xF45 JUMP JUMPDEST POP POP POP JUMP JUMPDEST PUSH0 PUSH2 0x8B4 DUP5 DUP5 PUSH2 0x80E JUMP JUMPDEST SWAP1 POP PUSH32 0xFFFFFFFFFFFFFFFFFFFFFFFFFFFFFFFFFFFFFFFFFFFFFFFFFFFFFFFFFFFFFFFF DUP2 EQ PUSH2 0x935 JUMPI DUP2 DUP2 LT ISZERO PUSH2 0x926 JUMPI DUP3 DUP2 DUP4 PUSH1 0x40 MLOAD PUSH32 0xFB8F41B200000000000000000000000000000000000000000000000000000000 DUP2 MSTORE PUSH1 0x4 ADD PUSH2 0x91D SWAP4 SWAP3 SWAP2 SWAP1 PUSH2 0x178C JUMP JUMPDEST PUSH1 0x40 MLOAD DUP1 SWAP2 SUB SWAP1 REVERT JUMPDEST PUSH2 0x934 DUP5 DUP5 DUP5 DUP5 SUB PUSH0 PUSH2 0xF45 JUMP JUMPDEST JUMPDEST POP POP POP POP JUMP JUMPDEST PUSH0 PUSH20 0xFFFFFFFFFFFFFFFFFFFFFFFFFFFFFFFFFFFFFFFF AND DUP4 PUSH20 0xFFFFFFFFFFFFFFFFFFFFFFFFFFFFFFFFFFFFFFFF AND SUB PUSH2 0x9AB JUMPI PUSH0 PUSH1 0x40 MLOAD PUSH32 0x96C6FD1E00000000000000000000000000000000000000000000000000000000 DUP2 MSTORE PUSH1 0x4 ADD PUSH2 0x9A2 SWAP2 SWAP1 PUSH2 0x17C1 JUMP JUMPDEST PUSH1 0x40 MLOAD DUP1 SWAP2 SUB SWAP1 REVERT JUMPDEST PUSH0 PUSH20 0xFFFFFFFFFFFFFFFFFFFFFFFFFFFFFFFFFFFFFFFF AND DUP3 PUSH20 0xFFFFFFFFFFFFFFFFFFFFFFFFFFFFFFFFFFFFFFFF AND SUB PUSH2 0xA1B JUMPI PUSH0 PUSH1 0x40 MLOAD PUSH32 0xEC442F0500000000000000000000000000000000000000000000000000000000 DUP2 MSTORE PUSH1 0x4 ADD PUSH2 0xA12 SWAP2 SWAP1 PUSH2 0x17C1 JUMP JUMPDEST PUSH1 0x40 MLOAD DUP1 SWAP2 SUB SWAP1 REVERT JUMPDEST PUSH2 0xA26 DUP4 DUP4 DUP4 PUSH2 0xB93 JUMP JUMPDEST POP POP POP JUMP JUMPDEST PUSH0 PUSH20 0xFFFFFFFFFFFFFFFFFFFFFFFFFFFFFFFFFFFFFFFF AND DUP3 PUSH20 0xFFFFFFFFFFFFFFFFFFFFFFFFFFFFFFFFFFFFFFFF AND SUB PUSH2 0xA9B JUMPI PUSH0 PUSH1 0x40 MLOAD PUSH32 0xEC442F0500000000000000000000000000000000000000000000000000000000 DUP2 MSTORE PUSH1 0x4 ADD PUSH2 0xA92 SWAP2 SWAP1 PUSH2 0x17C1 JUMP JUMPDEST PUSH1 0x40 MLOAD DUP1 SWAP2 SUB SWAP1 REVERT JUMPDEST PUSH2 0xAA6 PUSH0 DUP4 DUP4 PUSH2 0xB93 JUMP JUMPDEST POP POP JUMP JUMPDEST PUSH0 DUP1 PUSH0 SWAP1 SLOAD SWAP1 PUSH2 0x100 EXP SWAP1 DIV PUSH20 0xFFFFFFFFFFFFFFFFFFFFFFFFFFFFFFFFFFFFFFFF AND PUSH20 0xFFFFFFFFFFFFFFFFFFFFFFFFFFFFFFFFFFFFFFFF AND PUSH4 0x55E2448E PUSH1 0x40 MLOAD DUP2 PUSH4 0xFFFFFFFF AND PUSH1 0xE0 SHL DUP2 MSTORE PUSH1 0x4 ADD PUSH1 0x20 PUSH1 0x40 MLOAD DUP1 DUP4 SUB DUP2 DUP7 GAS STATICCALL ISZERO DUP1 ISZERO PUSH2 0xB14 JUMPI RETURNDATASIZE PUSH0 DUP1 RETURNDATACOPY RETURNDATASIZE PUSH0 REVERT JUMPDEST POP POP POP POP PUSH1 0x40 MLOAD RETURNDATASIZE PUSH1 0x1F NOT PUSH1 0x1F DUP3 ADD AND DUP3 ADD DUP1 PUSH1 0x40 MSTORE POP DUP2 ADD SWAP1 PUSH2 0xB38 SWAP2 SWAP1 PUSH2 0x1804 JUMP JUMPDEST DUP1 ISZERO PUSH2 0xB8E JUMPI POP PUSH0 DUP1 SLOAD SWAP1 PUSH2 0x100 EXP SWAP1 DIV PUSH20 0xFFFFFFFFFFFFFFFFFFFFFFFFFFFFFFFFFFFFFFFF AND PUSH20 0xFFFFFFFFFFFFFFFFFFFFFFFFFFFFFFFFFFFFFFFF AND CALLER PUSH20 0xFFFFFFFFFFFFFFFFFFFFFFFFFFFFFFFFFFFFFFFF AND EQ JUMPDEST SWAP1 POP SWAP1 JUMP JUMPDEST PUSH0 PUSH20 0xFFFFFFFFFFFFFFFFFFFFFFFFFFFFFFFFFFFFFFFF AND DUP4 PUSH20 0xFFFFFFFFFFFFFFFFFFFFFFFFFFFFFFFFFFFFFFFF AND SUB PUSH2 0xBE3 JUMPI DUP1 PUSH1 0x4 PUSH0 DUP3 DUP3 SLOAD PUSH2 0xBD7 SWAP2 SWAP1 PUSH2 0x185C JUMP JUMPDEST SWAP3 POP POP DUP2 SWAP1 SSTORE POP PUSH2 0xCB3 JUMP JUMPDEST PUSH0 PUSH1 0x2 PUSH0 DUP6 PUSH20 0xFFFFFFFFFFFFFFFFFFFFFFFFFFFFFFFFFFFFFFFF AND PUSH20 0xFFFFFFFFFFFFFFFFFFFFFFFFFFFFFFFFFFFFFFFF AND DUP2 MSTORE PUSH1 0x20 ADD SWAP1 DUP2 MSTORE PUSH1 0x20 ADD PUSH0 KECCAK256 SLOAD SWAP1 POP DUP2 DUP2 LT ISZERO PUSH2 0xC6D JUMPI DUP4 DUP2 DUP4 PUSH1 0x40 MLOAD PUSH32 0xE450D38C00000000000000000000000000000000000000000000000000000000 DUP2 MSTORE PUSH1 0x4 ADD PUSH2 0xC64 SWAP4 SWAP3 SWAP2 SWAP1 PUSH2 0x178C JUMP JUMPDEST PUSH1 0x40 MLOAD DUP1 SWAP2 SUB SWAP1 REVERT JUMPDEST DUP2 DUP2 SUB PUSH1 0x2 PUSH0 DUP7 PUSH20 0xFFFFFFFFFFFFFFFFFFFFFFFFFFFFFFFFFFFFFFFF AND PUSH20 0xFFFFFFFFFFFFFFFFFFFFFFFFFFFFFFFFFFFFFFFF AND DUP2 MSTORE PUSH1 0x20 ADD SWAP1 DUP2 MSTORE PUSH1 0x20 ADD PUSH0 KECCAK256 DUP2 SWAP1 SSTORE POP POP JUMPDEST PUSH0 PUSH20 0xFFFFFFFFFFFFFFFFFFFFFFFFFFFFFFFFFFFFFFFF AND DUP3 PUSH20 0xFFFFFFFFFFFFFFFFFFFFFFFFFFFFFFFFFFFFFFFF AND SUB PUSH2 0xCFA JUMPI DUP1 PUSH1 0x4 PUSH0 DUP3 DUP3 SLOAD SUB SWAP3 POP POP DUP2 SWAP1 SSTORE POP PUSH2 0xD45 JUMP JUMPDEST DUP1 PUSH1 0x2 PUSH0 DUP5 PUSH20 0xFFFFFFFFFFFFFFFFFFFFFFFFFFFFFFFFFFFFFFFF AND PUSH20 0xFFFFFFFFFFFFFFFFFFFFFFFFFFFFFFFFFFFFFFFF AND DUP2 MSTORE PUSH1 0x20 ADD SWAP1 DUP2 MSTORE PUSH1 0x20 ADD PUSH0 KECCAK256 PUSH0 DUP3 DUP3 SLOAD ADD SWAP3 POP POP DUP2 SWAP1 SSTORE POP JUMPDEST DUP2 PUSH20 0xFFFFFFFFFFFFFFFFFFFFFFFFFFFFFFFFFFFFFFFF AND DUP4 PUSH20 0xFFFFFFFFFFFFFFFFFFFFFFFFFFFFFFFFFFFFFFFF AND PUSH32 0xDDF252AD1BE2C89B69C2B068FC378DAA952BA7F163C4A11628F55A4DF523B3EF DUP4 PUSH1 0x40 MLOAD PUSH2 0xDA2 SWAP2 SWAP1 PUSH2 0x12BE JUMP JUMPDEST PUSH1 0x40 MLOAD DUP1 SWAP2 SUB SWAP1 LOG3 POP POP POP JUMP JUMPDEST PUSH0 DUP1 PUSH0 DUP1 SLOAD SWAP1 PUSH2 0x100 EXP SWAP1 DIV PUSH20 0xFFFFFFFFFFFFFFFFFFFFFFFFFFFFFFFFFFFFFFFF AND PUSH20 0xFFFFFFFFFFFFFFFFFFFFFFFFFFFFFFFFFFFFFFFF AND PUSH4 0x8DD9523C DUP8 DUP7 DUP7 PUSH1 0x40 MLOAD DUP5 PUSH4 0xFFFFFFFF AND PUSH1 0xE0 SHL DUP2 MSTORE PUSH1 0x4 ADD PUSH2 0xE0D SWAP4 SWAP3 SWAP2 SWAP1 PUSH2 0x18F0 JUMP JUMPDEST PUSH1 0x20 PUSH1 0x40 MLOAD DUP1 DUP4 SUB DUP2 DUP7 GAS STATICCALL ISZERO DUP1 ISZERO PUSH2 0xE28 JUMPI RETURNDATASIZE PUSH0 DUP1 RETURNDATACOPY RETURNDATASIZE PUSH0 REVERT JUMPDEST POP POP POP POP PUSH1 0x40 MLOAD RETURNDATASIZE PUSH1 0x1F NOT PUSH1 0x1F DUP3 ADD AND DUP3 ADD DUP1 PUSH1 0x40 MSTORE POP DUP2 ADD SWAP1 PUSH2 0xE4C SWAP2 SWAP1 PUSH2 0x1940 JUMP JUMPDEST SWAP1 POP DUP1 SELFBALANCE LT ISZERO DUP1 PUSH2 0xE5D JUMPI POP DUP1 CALLVALUE LT ISZERO JUMPDEST PUSH2 0xE9C JUMPI PUSH1 0x40 MLOAD PUSH32 0x8C379A000000000000000000000000000000000000000000000000000000000 DUP2 MSTORE PUSH1 0x4 ADD PUSH2 0xE93 SWAP1 PUSH2 0x19B5 JUMP JUMPDEST PUSH1 0x40 MLOAD DUP1 SWAP2 SUB SWAP1 REVERT JUMPDEST PUSH0 DUP1 SLOAD SWAP1 PUSH2 0x100 EXP SWAP1 DIV PUSH20 0xFFFFFFFFFFFFFFFFFFFFFFFFFFFFFFFFFFFFFFFF AND PUSH20 0xFFFFFFFFFFFFFFFFFFFFFFFFFFFFFFFFFFFFFFFF AND PUSH4 0xC21DDA4F DUP3 DUP9 PUSH0 PUSH1 0x14 SWAP1 SLOAD SWAP1 PUSH2 0x100 EXP SWAP1 DIV PUSH1 0xFF AND DUP10 DUP10 DUP10 PUSH1 0x40 MLOAD DUP8 PUSH4 0xFFFFFFFF AND PUSH1 0xE0 SHL DUP2 MSTORE PUSH1 0x4 ADD PUSH2 0xF0B SWAP6 SWAP5 SWAP4 SWAP3 SWAP2 SWAP1 PUSH2 0x19D3 JUMP JUMPDEST PUSH0 PUSH1 0x40 MLOAD DUP1 DUP4 SUB DUP2 DUP6 DUP9 DUP1 EXTCODESIZE ISZERO DUP1 ISZERO PUSH2 0xF22 JUMPI PUSH0 DUP1 REVERT JUMPDEST POP GAS CALL ISZERO DUP1 ISZERO PUSH2 0xF34 JUMPI RETURNDATASIZE PUSH0 DUP1 RETURNDATACOPY RETURNDATASIZE PUSH0 REVERT JUMPDEST POP POP POP POP POP DUP1 SWAP2 POP POP SWAP5 SWAP4 POP POP POP POP JUMP JUMPDEST PUSH0 PUSH20 0xFFFFFFFFFFFFFFFFFFFFFFFFFFFFFFFFFFFFFFFF AND DUP5 PUSH20 0xFFFFFFFFFFFFFFFFFFFFFFFFFFFFFFFFFFFFFFFF AND SUB PUSH2 0xFB5 JUMPI PUSH0 PUSH1 0x40 MLOAD PUSH32 0xE602DF0500000000000000000000000000000000000000000000000000000000 DUP2 MSTORE PUSH1 0x4 ADD PUSH2 0xFAC SWAP2 SWAP1 PUSH2 0x17C1 JUMP JUMPDEST PUSH1 0x40 MLOAD DUP1 SWAP2 SUB SWAP1 REVERT JUMPDEST PUSH0 PUSH20 0xFFFFFFFFFFFFFFFFFFFFFFFFFFFFFFFFFFFFFFFF AND DUP4 PUSH20 0xFFFFFFFFFFFFFFFFFFFFFFFFFFFFFFFFFFFFFFFF AND SUB PUSH2 0x1025 JUMPI PUSH0 PUSH1 0x40 MLOAD PUSH32 0x94280D6200000000000000000000000000000000000000000000000000000000 DUP2 MSTORE PUSH1 0x4 ADD PUSH2 0x101C SWAP2 SWAP1 PUSH2 0x17C1 JUMP JUMPDEST PUSH1 0x40 MLOAD DUP1 SWAP2 SUB SWAP1 REVERT JUMPDEST DUP2 PUSH1 0x3 PUSH0 DUP7 PUSH20 0xFFFFFFFFFFFFFFFFFFFFFFFFFFFFFFFFFFFFFFFF AND PUSH20 0xFFFFFFFFFFFFFFFFFFFFFFFFFFFFFFFFFFFFFFFF AND DUP2 MSTORE PUSH1 0x20 ADD SWAP1 DUP2 MSTORE PUSH1 0x20 ADD PUSH0 KECCAK256 PUSH0 DUP6 PUSH20 0xFFFFFFFFFFFFFFFFFFFFFFFFFFFFFFFFFFFFFFFF AND PUSH20 0xFFFFFFFFFFFFFFFFFFFFFFFFFFFFFFFFFFFFFFFF AND DUP2 MSTORE PUSH1 0x20 ADD SWAP1 DUP2 MSTORE PUSH1 0x20 ADD PUSH0 KECCAK256 DUP2 SWAP1 SSTORE POP DUP1 ISZERO PUSH2 0x110E JUMPI DUP3 PUSH20 0xFFFFFFFFFFFFFFFFFFFFFFFFFFFFFFFFFFFFFFFF AND DUP5 PUSH20 0xFFFFFFFFFFFFFFFFFFFFFFFFFFFFFFFFFFFFFFFF AND PUSH32 0x8C5BE1E5EBEC7D5BD14F71427D1E84F3DD0314C0F7B2291E5B200AC8C7C3B925 DUP5 PUSH1 0x40 MLOAD PUSH2 0x1105 SWAP2 SWAP1 PUSH2 0x12BE JUMP JUMPDEST PUSH1 0x40 MLOAD DUP1 SWAP2 SUB SWAP1 LOG3 JUMPDEST POP POP POP POP JUMP JUMPDEST PUSH0 DUP2 MLOAD SWAP1 POP SWAP2 SWAP1 POP JUMP JUMPDEST PUSH0 DUP3 DUP3 MSTORE PUSH1 0x20 DUP3 ADD SWAP1 POP SWAP3 SWAP2 POP POP JUMP JUMPDEST DUP3 DUP2 DUP4 MCOPY PUSH0 DUP4 DUP4 ADD MSTORE POP POP POP JUMP JUMPDEST PUSH0 PUSH1 0x1F NOT PUSH1 0x1F DUP4 ADD AND SWAP1 POP SWAP2 SWAP1 POP JUMP JUMPDEST PUSH0 PUSH2 0x1156 DUP3 PUSH2 0x1114 JUMP JUMPDEST PUSH2 0x1160 DUP2 DUP6 PUSH2 0x111E JUMP JUMPDEST SWAP4 POP PUSH2 0x1170 DUP2 DUP6 PUSH1 0x20 DUP7 ADD PUSH2 0x112E JUMP JUMPDEST PUSH2 0x1179 DUP2 PUSH2 0x113C JUMP JUMPDEST DUP5 ADD SWAP2 POP POP SWAP3 SWAP2 POP POP JUMP JUMPDEST PUSH0 PUSH1 0x20 DUP3 ADD SWAP1 POP DUP2 DUP2 SUB PUSH0 DUP4 ADD MSTORE PUSH2 0x119C DUP2 DUP5 PUSH2 0x114C JUMP JUMPDEST SWAP1 POP SWAP3 SWAP2 POP POP JUMP JUMPDEST PUSH0 PUSH1 0x40 MLOAD SWAP1 POP SWAP1 JUMP JUMPDEST PUSH0 DUP1 REVERT JUMPDEST PUSH0 PUSH20 0xFFFFFFFFFFFFFFFFFFFFFFFFFFFFFFFFFFFFFFFF DUP3 AND SWAP1 POP SWAP2 SWAP1 POP JUMP JUMPDEST PUSH0 PUSH2 0x11DA DUP3 PUSH2 0x11B1 JUMP JUMPDEST SWAP1 POP SWAP2 SWAP1 POP JUMP JUMPDEST PUSH2 0x11EA DUP2 PUSH2 0x11D0 JUMP JUMPDEST DUP2 EQ PUSH2 0x11F4 JUMPI PUSH0 DUP1 REVERT JUMPDEST POP JUMP JUMPDEST PUSH0 DUP2 CALLDATALOAD SWAP1 POP PUSH2 0x1205 DUP2 PUSH2 0x11E1 JUMP JUMPDEST SWAP3 SWAP2 POP POP JUMP JUMPDEST PUSH0 DUP2 SWAP1 POP SWAP2 SWAP1 POP JUMP JUMPDEST PUSH2 0x121D DUP2 PUSH2 0x120B JUMP JUMPDEST DUP2 EQ PUSH2 0x1227 JUMPI PUSH0 DUP1 REVERT JUMPDEST POP JUMP JUMPDEST PUSH0 DUP2 CALLDATALOAD SWAP1 POP PUSH2 0x1238 DUP2 PUSH2 0x1214 JUMP JUMPDEST SWAP3 SWAP2 POP POP JUMP JUMPDEST PUSH0 DUP1 PUSH1 0x40 DUP4 DUP6 SUB SLT ISZERO PUSH2 0x1254 JUMPI PUSH2 0x1253 PUSH2 0x11AD JUMP JUMPDEST JUMPDEST PUSH0 PUSH2 0x1261 DUP6 DUP3 DUP7 ADD PUSH2 0x11F7 JUMP JUMPDEST SWAP3 POP POP PUSH1 0x20 PUSH2 0x1272 DUP6 DUP3 DUP7 ADD PUSH2 0x122A JUMP JUMPDEST SWAP2 POP POP SWAP3 POP SWAP3 SWAP1 POP JUMP JUMPDEST PUSH0 DUP2 ISZERO ISZERO SWAP1 POP SWAP2 SWAP1 POP JUMP JUMPDEST PUSH2 0x1290 DUP2 PUSH2 0x127C JUMP JUMPDEST DUP3 MSTORE POP POP JUMP JUMPDEST PUSH0 PUSH1 0x20 DUP3 ADD SWAP1 POP PUSH2 0x12A9 PUSH0 DUP4 ADD DUP5 PUSH2 0x1287 JUMP JUMPDEST SWAP3 SWAP2 POP POP JUMP JUMPDEST PUSH2 0x12B8 DUP2 PUSH2 0x120B JUMP JUMPDEST DUP3 MSTORE POP POP JUMP JUMPDEST PUSH0 PUSH1 0x20 DUP3 ADD SWAP1 POP PUSH2 0x12D1 PUSH0 DUP4 ADD DUP5 PUSH2 0x12AF JUMP JUMPDEST SWAP3 SWAP2 POP POP JUMP JUMPDEST PUSH0 DUP1 PUSH0 PUSH1 0x60 DUP5 DUP7 SUB SLT ISZERO PUSH2 0x12EE JUMPI PUSH2 0x12ED PUSH2 0x11AD JUMP JUMPDEST JUMPDEST PUSH0 PUSH2 0x12FB DUP7 DUP3 DUP8 ADD PUSH2 0x11F7 JUMP JUMPDEST SWAP4 POP POP PUSH1 0x20 PUSH2 0x130C DUP7 DUP3 DUP8 ADD PUSH2 0x11F7 JUMP JUMPDEST SWAP3 POP POP PUSH1 0x40 PUSH2 0x131D DUP7 DUP3 DUP8 ADD PUSH2 0x122A JUMP JUMPDEST SWAP2 POP POP SWAP3 POP SWAP3 POP SWAP3 JUMP JUMPDEST PUSH0 PUSH1 0xFF DUP3 AND SWAP1 POP SWAP2 SWAP1 POP JUMP JUMPDEST PUSH2 0x133C DUP2 PUSH2 0x1327 JUMP JUMPDEST DUP3 MSTORE POP POP JUMP JUMPDEST PUSH0 PUSH1 0x20 DUP3 ADD SWAP1 POP PUSH2 0x1355 PUSH0 DUP4 ADD DUP5 PUSH2 0x1333 JUMP JUMPDEST SWAP3 SWAP2 POP POP JUMP JUMPDEST PUSH0 DUP2 SWAP1 POP SWAP2 SWAP1 POP JUMP JUMPDEST PUSH0 PUSH2 0x137E PUSH2 0x1379 PUSH2 0x1374 DUP5 PUSH2 0x11B1 JUMP JUMPDEST PUSH2 0x135B JUMP JUMPDEST PUSH2 0x11B1 JUMP JUMPDEST SWAP1 POP SWAP2 SWAP1 POP JUMP JUMPDEST PUSH0 PUSH2 0x138F DUP3 PUSH2 0x1364 JUMP JUMPDEST SWAP1 POP SWAP2 SWAP1 POP JUMP JUMPDEST PUSH0 PUSH2 0x13A0 DUP3 PUSH2 0x1385 JUMP JUMPDEST SWAP1 POP SWAP2 SWAP1 POP JUMP JUMPDEST PUSH2 0x13B0 DUP2 PUSH2 0x1396 JUMP JUMPDEST DUP3 MSTORE POP POP JUMP JUMPDEST PUSH0 PUSH1 0x20 DUP3 ADD SWAP1 POP PUSH2 0x13C9 PUSH0 DUP4 ADD DUP5 PUSH2 0x13A7 JUMP JUMPDEST SWAP3 SWAP2 POP POP JUMP JUMPDEST PUSH0 PUSH1 0x20 DUP3 DUP5 SUB SLT ISZERO PUSH2 0x13E4 JUMPI PUSH2 0x13E3 PUSH2 0x11AD JUMP JUMPDEST JUMPDEST PUSH0 PUSH2 0x13F1 DUP5 DUP3 DUP6 ADD PUSH2 0x11F7 JUMP JUMPDEST SWAP2 POP POP SWAP3 SWAP2 POP POP JUMP JUMPDEST PUSH0 PUSH8 0xFFFFFFFFFFFFFFFF DUP3 AND SWAP1 POP SWAP2 SWAP1 POP JUMP JUMPDEST PUSH2 0x1416 DUP2 PUSH2 0x13FA JUMP JUMPDEST DUP2 EQ PUSH2 0x1420 JUMPI PUSH0 DUP1 REVERT JUMPDEST POP JUMP JUMPDEST PUSH0 DUP2 CALLDATALOAD SWAP1 POP PUSH2 0x1431 DUP2 PUSH2 0x140D JUMP JUMPDEST SWAP3 SWAP2 POP POP JUMP JUMPDEST PUSH0 DUP1 PUSH0 DUP1 PUSH1 0x80 DUP6 DUP8 SUB SLT ISZERO PUSH2 0x144F JUMPI PUSH2 0x144E PUSH2 0x11AD JUMP JUMPDEST JUMPDEST PUSH0 PUSH2 0x145C DUP8 DUP3 DUP9 ADD PUSH2 0x1423 JUMP JUMPDEST SWAP5 POP POP PUSH1 0x20 PUSH2 0x146D DUP8 DUP3 DUP9 ADD PUSH2 0x11F7 JUMP JUMPDEST SWAP4 POP POP PUSH1 0x40 PUSH2 0x147E DUP8 DUP3 DUP9 ADD PUSH2 0x11F7 JUMP JUMPDEST SWAP3 POP POP PUSH1 0x60 PUSH2 0x148F DUP8 DUP3 DUP9 ADD PUSH2 0x122A JUMP JUMPDEST SWAP2 POP POP SWAP3 SWAP6 SWAP2 SWAP5 POP SWAP3 POP JUMP JUMPDEST PUSH0 DUP1 PUSH1 0x40 DUP4 DUP6 SUB SLT ISZERO PUSH2 0x14B1 JUMPI PUSH2 0x14B0 PUSH2 0x11AD JUMP JUMPDEST JUMPDEST PUSH0 PUSH2 0x14BE DUP6 DUP3 DUP7 ADD PUSH2 0x11F7 JUMP JUMPDEST SWAP3 POP POP PUSH1 0x20 PUSH2 0x14CF DUP6 DUP3 DUP7 ADD PUSH2 0x11F7 JUMP JUMPDEST SWAP2 POP POP SWAP3 POP SWAP3 SWAP1 POP JUMP JUMPDEST PUSH32 0x4E487B7100000000000000000000000000000000000000000000000000000000 PUSH0 MSTORE PUSH1 0x22 PUSH1 0x4 MSTORE PUSH1 0x24 PUSH0 REVERT JUMPDEST PUSH0 PUSH1 0x2 DUP3 DIV SWAP1 POP PUSH1 0x1 DUP3 AND DUP1 PUSH2 0x151D JUMPI PUSH1 0x7F DUP3 AND SWAP2 POP JUMPDEST PUSH1 0x20 DUP3 LT DUP2 SUB PUSH2 0x1530 JUMPI PUSH2 0x152F PUSH2 0x14D9 JUMP JUMPDEST JUMPDEST POP SWAP2 SWAP1 POP JUMP JUMPDEST PUSH0 DUP1 REVERT JUMPDEST PUSH32 0x4E487B7100000000000000000000000000000000000000000000000000000000 PUSH0 MSTORE PUSH1 0x41 PUSH1 0x4 MSTORE PUSH1 0x24 PUSH0 REVERT JUMPDEST PUSH2 0x1570 DUP3 PUSH2 0x113C JUMP JUMPDEST DUP2 ADD DUP2 DUP2 LT PUSH8 0xFFFFFFFFFFFFFFFF DUP3 GT OR ISZERO PUSH2 0x158F JUMPI PUSH2 0x158E PUSH2 0x153A JUMP JUMPDEST JUMPDEST DUP1 PUSH1 0x40 MSTORE POP POP POP JUMP JUMPDEST PUSH0 PUSH2 0x15A1 PUSH2 0x11A4 JUMP JUMPDEST SWAP1 POP PUSH2 0x15AD DUP3 DUP3 PUSH2 0x1567 JUMP JUMPDEST SWAP2 SWAP1 POP JUMP JUMPDEST PUSH0 DUP2 MLOAD SWAP1 POP PUSH2 0x15C0 DUP2 PUSH2 0x140D JUMP JUMPDEST SWAP3 SWAP2 POP POP JUMP JUMPDEST PUSH0 DUP2 MLOAD SWAP1 POP PUSH2 0x15D4 DUP2 PUSH2 0x11E1 JUMP JUMPDEST SWAP3 SWAP2 POP POP JUMP JUMPDEST PUSH0 PUSH1 0x40 DUP3 DUP5 SUB SLT ISZERO PUSH2 0x15EF JUMPI PUSH2 0x15EE PUSH2 0x1536 JUMP JUMPDEST JUMPDEST PUSH2 0x15F9 PUSH1 0x40 PUSH2 0x1598 JUMP JUMPDEST SWAP1 POP PUSH0 PUSH2 0x1608 DUP5 DUP3 DUP6 ADD PUSH2 0x15B2 JUMP JUMPDEST PUSH0 DUP4 ADD MSTORE POP PUSH1 0x20 PUSH2 0x161B DUP5 DUP3 DUP6 ADD PUSH2 0x15C6 JUMP JUMPDEST PUSH1 0x20 DUP4 ADD MSTORE POP SWAP3 SWAP2 POP POP JUMP JUMPDEST PUSH0 PUSH1 0x40 DUP3 DUP5 SUB SLT ISZERO PUSH2 0x163C JUMPI PUSH2 0x163B PUSH2 0x11AD JUMP JUMPDEST JUMPDEST PUSH0 PUSH2 0x1649 DUP5 DUP3 DUP6 ADD PUSH2 0x15DA JUMP JUMPDEST SWAP2 POP POP SWAP3 SWAP2 POP POP JUMP JUMPDEST PUSH32 0x4F6D6E6945524332303A204F6E6C792063616C6C61626C65207669612063726F PUSH0 DUP3 ADD MSTORE PUSH32 0x73732D636861696E206D65737361676500000000000000000000000000000000 PUSH1 0x20 DUP3 ADD MSTORE POP JUMP JUMPDEST PUSH0 PUSH2 0x16AC PUSH1 0x30 DUP4 PUSH2 0x111E JUMP JUMPDEST SWAP2 POP PUSH2 0x16B7 DUP3 PUSH2 0x1652 JUMP JUMPDEST PUSH1 0x40 DUP3 ADD SWAP1 POP SWAP2 SWAP1 POP JUMP JUMPDEST PUSH0 PUSH1 0x20 DUP3 ADD SWAP1 POP DUP2 DUP2 SUB PUSH0 DUP4 ADD MSTORE PUSH2 0x16D9 DUP2 PUSH2 0x16A0 JUMP JUMPDEST SWAP1 POP SWAP2 SWAP1 POP JUMP JUMPDEST PUSH2 0x16E9 DUP2 PUSH2 0x11D0 JUMP JUMPDEST DUP3 MSTORE POP POP JUMP JUMPDEST PUSH0 PUSH1 0x60 DUP3 ADD SWAP1 POP PUSH2 0x1702 PUSH0 DUP4 ADD DUP7 PUSH2 0x16E0 JUMP JUMPDEST PUSH2 0x170F PUSH1 0x20 DUP4 ADD DUP6 PUSH2 0x16E0 JUMP JUMPDEST PUSH2 0x171C PUSH1 0x40 DUP4 ADD DUP5 PUSH2 0x12AF JUMP JUMPDEST SWAP5 SWAP4 POP POP POP POP JUMP JUMPDEST PUSH32 0x4F6D6E6945524332303A20496E73756666696369656E74206665650000000000 PUSH0 DUP3 ADD MSTORE POP JUMP JUMPDEST PUSH0 PUSH2 0x1758 PUSH1 0x1B DUP4 PUSH2 0x111E JUMP JUMPDEST SWAP2 POP PUSH2 0x1763 DUP3 PUSH2 0x1724 JUMP JUMPDEST PUSH1 0x20 DUP3 ADD SWAP1 POP SWAP2 SWAP1 POP JUMP JUMPDEST PUSH0 PUSH1 0x20 DUP3 ADD SWAP1 POP DUP2 DUP2 SUB PUSH0 DUP4 ADD MSTORE PUSH2 0x1785 DUP2 PUSH2 0x174C JUMP JUMPDEST SWAP1 POP SWAP2 SWAP1 POP JUMP JUMPDEST PUSH0 PUSH1 0x60 DUP3 ADD SWAP1 POP PUSH2 0x179F PUSH0 DUP4 ADD DUP7 PUSH2 0x16E0 JUMP JUMPDEST PUSH2 0x17AC PUSH1 0x20 DUP4 ADD DUP6 PUSH2 0x12AF JUMP JUMPDEST PUSH2 0x17B9 PUSH1 0x40 DUP4 ADD DUP5 PUSH2 0x12AF JUMP JUMPDEST SWAP5 SWAP4 POP POP POP POP JUMP JUMPDEST PUSH0 PUSH1 0x20 DUP3 ADD SWAP1 POP PUSH2 0x17D4 PUSH0 DUP4 ADD DUP5 PUSH2 0x16E0 JUMP JUMPDEST SWAP3 SWAP2 POP POP JUMP JUMPDEST PUSH2 0x17E3 DUP2 PUSH2 0x127C JUMP JUMPDEST DUP2 EQ PUSH2 0x17ED JUMPI PUSH0 DUP1 REVERT JUMPDEST POP JUMP JUMPDEST PUSH0 DUP2 MLOAD SWAP1 POP PUSH2 0x17FE DUP2 PUSH2 0x17DA JUMP JUMPDEST SWAP3 SWAP2 POP POP JUMP JUMPDEST PUSH0 PUSH1 0x20 DUP3 DUP5 SUB SLT ISZERO PUSH2 0x1819 JUMPI PUSH2 0x1818 PUSH2 0x11AD JUMP JUMPDEST JUMPDEST PUSH0 PUSH2 0x1826 DUP5 DUP3 DUP6 ADD PUSH2 0x17F0 JUMP JUMPDEST SWAP2 POP POP SWAP3 SWAP2 POP POP JUMP JUMPDEST PUSH32 0x4E487B7100000000000000000000000000000000000000000000000000000000 PUSH0 MSTORE PUSH1 0x11 PUSH1 0x4 MSTORE PUSH1 0x24 PUSH0 REVERT JUMPDEST PUSH0 PUSH2 0x1866 DUP3 PUSH2 0x120B JUMP JUMPDEST SWAP2 POP PUSH2 0x1871 DUP4 PUSH2 0x120B JUMP JUMPDEST SWAP3 POP DUP3 DUP3 ADD SWAP1 POP DUP1 DUP3 GT ISZERO PUSH2 0x1889 JUMPI PUSH2 0x1888 PUSH2 0x182F JUMP JUMPDEST JUMPDEST SWAP3 SWAP2 POP POP JUMP JUMPDEST PUSH2 0x1898 DUP2 PUSH2 0x13FA JUMP JUMPDEST DUP3 MSTORE POP POP JUMP JUMPDEST PUSH0 DUP2 MLOAD SWAP1 POP SWAP2 SWAP1 POP JUMP JUMPDEST PUSH0 DUP3 DUP3 MSTORE PUSH1 0x20 DUP3 ADD SWAP1 POP SWAP3 SWAP2 POP POP JUMP JUMPDEST PUSH0 PUSH2 0x18C2 DUP3 PUSH2 0x189E JUMP JUMPDEST PUSH2 0x18CC DUP2 DUP6 PUSH2 0x18A8 JUMP JUMPDEST SWAP4 POP PUSH2 0x18DC DUP2 DUP6 PUSH1 0x20 DUP7 ADD PUSH2 0x112E JUMP JUMPDEST PUSH2 0x18E5 DUP2 PUSH2 0x113C JUMP JUMPDEST DUP5 ADD SWAP2 POP POP SWAP3 SWAP2 POP POP JUMP JUMPDEST PUSH0 PUSH1 0x60 DUP3 ADD SWAP1 POP PUSH2 0x1903 PUSH0 DUP4 ADD DUP7 PUSH2 0x188F JUMP JUMPDEST DUP2 DUP2 SUB PUSH1 0x20 DUP4 ADD MSTORE PUSH2 0x1915 DUP2 DUP6 PUSH2 0x18B8 JUMP JUMPDEST SWAP1 POP PUSH2 0x1924 PUSH1 0x40 DUP4 ADD DUP5 PUSH2 0x188F JUMP JUMPDEST SWAP5 SWAP4 POP POP POP POP JUMP JUMPDEST PUSH0 DUP2 MLOAD SWAP1 POP PUSH2 0x193A DUP2 PUSH2 0x1214 JUMP JUMPDEST SWAP3 SWAP2 POP POP JUMP JUMPDEST PUSH0 PUSH1 0x20 DUP3 DUP5 SUB SLT ISZERO PUSH2 0x1955 JUMPI PUSH2 0x1954 PUSH2 0x11AD JUMP JUMPDEST JUMPDEST PUSH0 PUSH2 0x1962 DUP5 DUP3 DUP6 ADD PUSH2 0x192C JUMP JUMPDEST SWAP2 POP POP SWAP3 SWAP2 POP POP JUMP JUMPDEST PUSH32 0x584170703A20696E73756666696369656E742066756E64730000000000000000 PUSH0 DUP3 ADD MSTORE POP JUMP JUMPDEST PUSH0 PUSH2 0x199F PUSH1 0x18 DUP4 PUSH2 0x111E JUMP JUMPDEST SWAP2 POP PUSH2 0x19AA DUP3 PUSH2 0x196B JUMP JUMPDEST PUSH1 0x20 DUP3 ADD SWAP1 POP SWAP2 SWAP1 POP JUMP JUMPDEST PUSH0 PUSH1 0x20 DUP3 ADD SWAP1 POP DUP2 DUP2 SUB PUSH0 DUP4 ADD MSTORE PUSH2 0x19CC DUP2 PUSH2 0x1993 JUMP JUMPDEST SWAP1 POP SWAP2 SWAP1 POP JUMP JUMPDEST PUSH0 PUSH1 0xA0 DUP3 ADD SWAP1 POP PUSH2 0x19E6 PUSH0 DUP4 ADD DUP9 PUSH2 0x188F JUMP JUMPDEST PUSH2 0x19F3 PUSH1 0x20 DUP4 ADD DUP8 PUSH2 0x1333 JUMP JUMPDEST PUSH2 0x1A00 PUSH1 0x40 DUP4 ADD DUP7 PUSH2 0x16E0 JUMP JUMPDEST DUP2 DUP2 SUB PUSH1 0x60 DUP4 ADD MSTORE PUSH2 0x1A12 DUP2 DUP6 PUSH2 0x18B8 JUMP JUMPDEST SWAP1 POP PUSH2 0x1A21 PUSH1 0x80 DUP4 ADD DUP5 PUSH2 0x188F JUMP JUMPDEST SWAP7 SWAP6 POP POP POP POP POP POP JUMP INVALID LOG2 PUSH5 0x6970667358 0x22 SLT KECCAK256 PUSH19 0xD49278D078CD142369DF4CE9C0EEE6EF87864C SWAP3 PUSH3 0xB30D4F SIGNEXTEND 0xBA 0xEC EQ DUP6 DUP3 CALLDATALOAD PUSH5 0x736F6C6343 STOP ADDMOD BYTE STOP CALLER "
				},
				"gasEstimates": {
					"creation": {
						"codeDepositCost": "1350600",
						"executionCost": "infinite",
						"totalCost": "infinite"
					},
					"external": {
						"allowance(address,address)": "infinite",
						"approve(address,uint256)": "infinite",
						"balanceOf(address)": "2874",
						"decimals()": "383",
						"defaultConfLevel()": "2583",
						"mint(address,uint256)": "infinite",
						"name()": "infinite",
						"omni()": "infinite",
						"receiveTransfer(address,address,uint256)": "infinite",
						"symbol()": "infinite",
						"totalSupply()": "2500",
						"transfer(address,uint256)": "infinite",
						"transfer(uint64,address,address,uint256)": "infinite",
						"transferFrom(address,address,uint256)": "infinite"
					},
					"internal": {
						"_mint(address,uint256)": "infinite"
					}
				},
				"methodIdentifiers": {
					"allowance(address,address)": "dd62ed3e",
					"approve(address,uint256)": "095ea7b3",
					"balanceOf(address)": "70a08231",
					"decimals()": "313ce567",
					"defaultConfLevel()": "74eeb847",
					"mint(address,uint256)": "40c10f19",
					"name()": "06fdde03",
					"omni()": "39acf9f1",
					"receiveTransfer(address,address,uint256)": "4a536a06",
					"symbol()": "95d89b41",
					"totalSupply()": "18160ddd",
					"transfer(address,uint256)": "a9059cbb",
					"transfer(uint64,address,address,uint256)": "bdb3c8e6",
					"transferFrom(address,address,uint256)": "23b872dd"
				}
			},
			"storageLayout": {
				"storage": [
					{
						"astId": 349,
						"contract": "contracts/token/wstf token /contracts/token/ERC20/implementation.sol:MyOmniToken",
						"label": "omni",
						"offset": 0,
						"slot": "0",
						"type": "t_contract(IOmniPortal)175"
					},
					{
						"astId": 352,
						"contract": "contracts/token/wstf token /contracts/token/ERC20/implementation.sol:MyOmniToken",
						"label": "defaultConfLevel",
						"offset": 20,
						"slot": "0",
						"type": "t_uint8"
					},
					{
						"astId": 356,
						"contract": "contracts/token/wstf token /contracts/token/ERC20/implementation.sol:MyOmniToken",
						"label": "xmsg",
						"offset": 0,
						"slot": "1",
						"type": "t_struct(MsgContext)245_storage"
					},
					{
						"astId": 824,
						"contract": "contracts/token/wstf token /contracts/token/ERC20/implementation.sol:MyOmniToken",
						"label": "_balances",
						"offset": 0,
						"slot": "2",
						"type": "t_mapping(t_address,t_uint256)"
					},
					{
						"astId": 830,
						"contract": "contracts/token/wstf token /contracts/token/ERC20/implementation.sol:MyOmniToken",
						"label": "_allowances",
						"offset": 0,
						"slot": "3",
						"type": "t_mapping(t_address,t_mapping(t_address,t_uint256))"
					},
					{
						"astId": 832,
						"contract": "contracts/token/wstf token /contracts/token/ERC20/implementation.sol:MyOmniToken",
						"label": "_totalSupply",
						"offset": 0,
						"slot": "4",
						"type": "t_uint256"
					},
					{
						"astId": 834,
						"contract": "contracts/token/wstf token /contracts/token/ERC20/implementation.sol:MyOmniToken",
						"label": "_name",
						"offset": 0,
						"slot": "5",
						"type": "t_string_storage"
					},
					{
						"astId": 836,
						"contract": "contracts/token/wstf token /contracts/token/ERC20/implementation.sol:MyOmniToken",
						"label": "_symbol",
						"offset": 0,
						"slot": "6",
						"type": "t_string_storage"
					},
					{
						"astId": 1364,
						"contract": "contracts/token/wstf token /contracts/token/ERC20/implementation.sol:MyOmniToken",
						"label": "omniPortal",
						"offset": 0,
						"slot": "7",
						"type": "t_address"
					}
				],
				"types": {
					"t_address": {
						"encoding": "inplace",
						"label": "address",
						"numberOfBytes": "20"
					},
					"t_contract(IOmniPortal)175": {
						"encoding": "inplace",
						"label": "contract IOmniPortal",
						"numberOfBytes": "20"
					},
					"t_mapping(t_address,t_mapping(t_address,t_uint256))": {
						"encoding": "mapping",
						"key": "t_address",
						"label": "mapping(address => mapping(address => uint256))",
						"numberOfBytes": "32",
						"value": "t_mapping(t_address,t_uint256)"
					},
					"t_mapping(t_address,t_uint256)": {
						"encoding": "mapping",
						"key": "t_address",
						"label": "mapping(address => uint256)",
						"numberOfBytes": "32",
						"value": "t_uint256"
					},
					"t_string_storage": {
						"encoding": "bytes",
						"label": "string",
						"numberOfBytes": "32"
					},
					"t_struct(MsgContext)245_storage": {
						"encoding": "inplace",
						"label": "struct XTypes.MsgContext",
						"members": [
							{
								"astId": 242,
								"contract": "contracts/token/wstf token /contracts/token/ERC20/implementation.sol:MyOmniToken",
								"label": "sourceChainId",
								"offset": 0,
								"slot": "0",
								"type": "t_uint64"
							},
							{
								"astId": 244,
								"contract": "contracts/token/wstf token /contracts/token/ERC20/implementation.sol:MyOmniToken",
								"label": "sender",
								"offset": 8,
								"slot": "0",
								"type": "t_address"
							}
						],
						"numberOfBytes": "32"
					},
					"t_uint256": {
						"encoding": "inplace",
						"label": "uint256",
						"numberOfBytes": "32"
					},
					"t_uint64": {
						"encoding": "inplace",
						"label": "uint64",
						"numberOfBytes": "8"
					},
					"t_uint8": {
						"encoding": "inplace",
						"label": "uint8",
						"numberOfBytes": "1"
					}
				}
			},
			"userdoc": {
				"events": {
					"DefaultConfLevelSet(uint8)": {
						"notice": "Emitted when the default confirmation level is set"
					},
					"OmniPortalSet(address)": {
						"notice": "Emitted when the OmniPortal contract address is set"
					}
				},
				"kind": "user",
				"methods": {
					"defaultConfLevel()": {
						"notice": "Default confirmation level for xcalls"
					},
					"omni()": {
						"notice": "The OmniPortal contract"
					}
				},
				"version": 1
			}
		}
	}
}