{
	"src/wstf token launch/contracts/token/ERC20/implementation.sol": {
		"MyOmniToken": {
			"abi": [
				{
					"inputs": [
						{
							"internalType": "string",
							"name": "name_",
							"type": "string"
						},
						{
							"internalType": "string",
							"name": "symbol_",
							"type": "string"
						},
						{
							"internalType": "address",
							"name": "omniPortal",
							"type": "address"
						},
						{
							"internalType": "uint256",
							"name": "initialSupply",
							"type": "uint256"
						}
					],
					"stateMutability": "nonpayable",
					"type": "constructor"
				},
				{
					"inputs": [
						{
							"internalType": "address",
							"name": "spender",
							"type": "address"
						},
						{
							"internalType": "uint256",
							"name": "allowance",
							"type": "uint256"
						},
						{
							"internalType": "uint256",
							"name": "needed",
							"type": "uint256"
						}
					],
					"name": "ERC20InsufficientAllowance",
					"type": "error"
				},
				{
					"inputs": [
						{
							"internalType": "address",
							"name": "sender",
							"type": "address"
						},
						{
							"internalType": "uint256",
							"name": "balance",
							"type": "uint256"
						},
						{
							"internalType": "uint256",
							"name": "needed",
							"type": "uint256"
						}
					],
					"name": "ERC20InsufficientBalance",
					"type": "error"
				},
				{
					"inputs": [
						{
							"internalType": "address",
							"name": "approver",
							"type": "address"
						}
					],
					"name": "ERC20InvalidApprover",
					"type": "error"
				},
				{
					"inputs": [
						{
							"internalType": "address",
							"name": "receiver",
							"type": "address"
						}
					],
					"name": "ERC20InvalidReceiver",
					"type": "error"
				},
				{
					"inputs": [
						{
							"internalType": "address",
							"name": "sender",
							"type": "address"
						}
					],
					"name": "ERC20InvalidSender",
					"type": "error"
				},
				{
					"inputs": [
						{
							"internalType": "address",
							"name": "spender",
							"type": "address"
						}
					],
					"name": "ERC20InvalidSpender",
					"type": "error"
				},
				{
					"anonymous": false,
					"inputs": [
						{
							"indexed": true,
							"internalType": "address",
							"name": "owner",
							"type": "address"
						},
						{
							"indexed": true,
							"internalType": "address",
							"name": "spender",
							"type": "address"
						},
						{
							"indexed": false,
							"internalType": "uint256",
							"name": "value",
							"type": "uint256"
						}
					],
					"name": "Approval",
					"type": "event"
				},
				{
					"anonymous": false,
					"inputs": [
						{
							"indexed": false,
							"internalType": "uint8",
							"name": "conf",
							"type": "uint8"
						}
					],
					"name": "DefaultConfLevelSet",
					"type": "event"
				},
				{
					"anonymous": false,
					"inputs": [
						{
							"indexed": false,
							"internalType": "address",
							"name": "omni",
							"type": "address"
						}
					],
					"name": "OmniPortalSet",
					"type": "event"
				},
				{
					"anonymous": false,
					"inputs": [
						{
							"indexed": true,
							"internalType": "address",
							"name": "from",
							"type": "address"
						},
						{
							"indexed": true,
							"internalType": "address",
							"name": "to",
							"type": "address"
						},
						{
							"indexed": false,
							"internalType": "uint256",
							"name": "value",
							"type": "uint256"
						}
					],
					"name": "Transfer",
					"type": "event"
				},
				{
					"inputs": [
						{
							"internalType": "address",
							"name": "owner",
							"type": "address"
						},
						{
							"internalType": "address",
							"name": "spender",
							"type": "address"
						}
					],
					"name": "allowance",
					"outputs": [
						{
							"internalType": "uint256",
							"name": "",
							"type": "uint256"
						}
					],
					"stateMutability": "view",
					"type": "function"
				},
				{
					"inputs": [
						{
							"internalType": "address",
							"name": "spender",
							"type": "address"
						},
						{
							"internalType": "uint256",
							"name": "value",
							"type": "uint256"
						}
					],
					"name": "approve",
					"outputs": [
						{
							"internalType": "bool",
							"name": "",
							"type": "bool"
						}
					],
					"stateMutability": "nonpayable",
					"type": "function"
				},
				{
					"inputs": [
						{
							"internalType": "address",
							"name": "account",
							"type": "address"
						}
					],
					"name": "balanceOf",
					"outputs": [
						{
							"internalType": "uint256",
							"name": "",
							"type": "uint256"
						}
					],
					"stateMutability": "view",
					"type": "function"
				},
				{
					"inputs": [],
					"name": "decimals",
					"outputs": [
						{
							"internalType": "uint8",
							"name": "",
							"type": "uint8"
						}
					],
					"stateMutability": "view",
					"type": "function"
				},
				{
					"inputs": [],
					"name": "defaultConfLevel",
					"outputs": [
						{
							"internalType": "uint8",
							"name": "",
							"type": "uint8"
						}
					],
					"stateMutability": "view",
					"type": "function"
				},
				{
					"inputs": [
						{
							"internalType": "address",
							"name": "account",
							"type": "address"
						},
						{
							"internalType": "uint256",
							"name": "value",
							"type": "uint256"
						}
					],
					"name": "mint",
					"outputs": [],
					"stateMutability": "nonpayable",
					"type": "function"
				},
				{
					"inputs": [],
					"name": "name",
					"outputs": [
						{
							"internalType": "string",
							"name": "",
							"type": "string"
						}
					],
					"stateMutability": "view",
					"type": "function"
				},
				{
					"inputs": [],
					"name": "omni",
					"outputs": [
						{
							"internalType": "contract IOmniPortal",
							"name": "",
							"type": "address"
						}
					],
					"stateMutability": "view",
					"type": "function"
				},
				{
					"inputs": [
						{
							"internalType": "address",
							"name": "from",
							"type": "address"
						},
						{
							"internalType": "address",
							"name": "to",
							"type": "address"
						},
						{
							"internalType": "uint256",
							"name": "value",
							"type": "uint256"
						}
					],
					"name": "receiveTransfer",
					"outputs": [],
					"stateMutability": "nonpayable",
					"type": "function"
				},
				{
					"inputs": [],
					"name": "symbol",
					"outputs": [
						{
							"internalType": "string",
							"name": "",
							"type": "string"
						}
					],
					"stateMutability": "view",
					"type": "function"
				},
				{
					"inputs": [],
					"name": "totalSupply",
					"outputs": [
						{
							"internalType": "uint256",
							"name": "",
							"type": "uint256"
						}
					],
					"stateMutability": "view",
					"type": "function"
				},
				{
					"inputs": [
						{
							"internalType": "address",
							"name": "to",
							"type": "address"
						},
						{
							"internalType": "uint256",
							"name": "value",
							"type": "uint256"
						}
					],
					"name": "transfer",
					"outputs": [
						{
							"internalType": "bool",
							"name": "",
							"type": "bool"
						}
					],
					"stateMutability": "nonpayable",
					"type": "function"
				},
				{
					"inputs": [
						{
							"internalType": "uint64",
							"name": "destChain",
							"type": "uint64"
						},
						{
							"internalType": "address",
							"name": "to",
							"type": "address"
						},
						{
							"internalType": "uint256",
							"name": "value",
							"type": "uint256"
						}
					],
					"name": "transfer",
					"outputs": [],
					"stateMutability": "payable",
					"type": "function"
				},
				{
					"inputs": [
						{
							"internalType": "address",
							"name": "from",
							"type": "address"
						},
						{
							"internalType": "address",
							"name": "to",
							"type": "address"
						},
						{
							"internalType": "uint256",
							"name": "value",
							"type": "uint256"
						}
					],
					"name": "transferFrom",
					"outputs": [
						{
							"internalType": "bool",
							"name": "",
							"type": "bool"
						}
					],
					"stateMutability": "nonpayable",
					"type": "function"
				}
			],
			"devdoc": {
				"errors": {
					"ERC20InsufficientAllowance(address,uint256,uint256)": [
						{
							"details": "Indicates a failure with the `spender`’s `allowance`. Used in transfers.",
							"params": {
								"allowance": "Amount of tokens a `spender` is allowed to operate with.",
								"needed": "Minimum amount required to perform a transfer.",
								"spender": "Address that may be allowed to operate on tokens without being their owner."
							}
						}
					],
					"ERC20InsufficientBalance(address,uint256,uint256)": [
						{
							"details": "Indicates an error related to the current `balance` of a `sender`. Used in transfers.",
							"params": {
								"balance": "Current balance for the interacting account.",
								"needed": "Minimum amount required to perform a transfer.",
								"sender": "Address whose tokens are being transferred."
							}
						}
					],
					"ERC20InvalidApprover(address)": [
						{
							"details": "Indicates a failure with the `approver` of a token to be approved. Used in approvals.",
							"params": {
								"approver": "Address initiating an approval operation."
							}
						}
					],
					"ERC20InvalidReceiver(address)": [
						{
							"details": "Indicates a failure with the token `receiver`. Used in transfers.",
							"params": {
								"receiver": "Address to which tokens are being transferred."
							}
						}
					],
					"ERC20InvalidSender(address)": [
						{
							"details": "Indicates a failure with the token `sender`. Used in transfers.",
							"params": {
								"sender": "Address whose tokens are being transferred."
							}
						}
					],
					"ERC20InvalidSpender(address)": [
						{
							"details": "Indicates a failure with the `spender` to be approved. Used in approvals.",
							"params": {
								"spender": "Address that may be allowed to operate on tokens without being their owner."
							}
						}
					]
				},
				"events": {
					"Approval(address,address,uint256)": {
						"details": "Emitted when the allowance of a `spender` for an `owner` is set by a call to {approve}. `value` is the new allowance."
					},
					"DefaultConfLevelSet(uint8)": {
						"params": {
							"conf": "Confirmation level"
						}
					},
					"Transfer(address,address,uint256)": {
						"details": "Emitted when `value` tokens are moved from one account (`from`) to another (`to`). Note that `value` may be zero."
					}
				},
				"kind": "dev",
				"methods": {
					"allowance(address,address)": {
						"details": "Returns the remaining number of tokens that `spender` will be allowed to spend on behalf of `owner` through {transferFrom}. This is zero by default. This value changes when {approve} or {transferFrom} are called."
					},
					"approve(address,uint256)": {
						"details": "Sets a `value` amount of tokens as the allowance of `spender` over the caller's tokens. Returns a boolean value indicating whether the operation succeeded. IMPORTANT: Beware that changing an allowance with this method brings the risk that someone may use both the old and the new allowance by unfortunate transaction ordering. One possible solution to mitigate this race condition is to first reduce the spender's allowance to 0 and set the desired value afterwards: https://github.com/ethereum/EIPs/issues/20#issuecomment-263524729 Emits an {Approval} event."
					},
					"balanceOf(address)": {
						"details": "Returns the value of tokens owned by `account`."
					},
					"decimals()": {
						"details": "Returns the decimals places of the token."
					},
					"name()": {
						"details": "Returns the name of the token."
					},
					"symbol()": {
						"details": "Returns the symbol of the token."
					},
					"totalSupply()": {
						"details": "Returns the value of tokens in existence."
					},
					"transfer(address,uint256)": {
						"details": "Moves a `value` amount of tokens from the caller's account to `to`. Returns a boolean value indicating whether the operation succeeded. Emits a {Transfer} event."
					},
					"transferFrom(address,address,uint256)": {
						"details": "Moves a `value` amount of tokens from `from` to `to` using the allowance mechanism. `value` is then deducted from the caller's allowance. Returns a boolean value indicating whether the operation succeeded. Emits a {Transfer} event."
					}
				},
				"version": 1
			},
			"evm": {
				"assembly": "    /* \"src/wstf token launch/contracts/token/ERC20/implementation.sol\":128:984  contract MyOmniToken is OmniERC20 {... */\n  mstore(0x40, 0x80)\n    /* \"src/wstf token launch/contracts/token/ERC20/implementation.sol\":169:472  constructor(... */\n  callvalue\n  dup1\n  iszero\n  tag_1\n  jumpi\n  0x00\n  dup1\n  revert\ntag_1:\n  pop\n  mload(0x40)\n  sub(codesize, bytecodeSize)\n  dup1\n  bytecodeSize\n  dup4\n  codecopy\n  dup2\n  dup2\n  add\n  0x40\n  mstore\n  dup2\n  add\n  swap1\n  tag_2\n  swap2\n  swap1\n  tag_3\n  jump\t// in\ntag_2:\n    /* \"src/wstf token launch/contracts/token/ERC20/implementation.sol\":316:321  name_ */\n  dup4\n    /* \"src/wstf token launch/contracts/token/ERC20/implementation.sol\":323:330  symbol_ */\n  dup4\n    /* \"src/wstf token launch/contracts/token/ERC20/implementation.sol\":332:342  omniPortal */\n  dup4\n    /* \"src/wstf token launch/contracts/token/ERC20/OmniERC20.sol\":855:865  omniPortal */\n  dup1\n    /* \"lib/omni/contracts/core/src/libraries/ConfLevel.sol\":571:572  1 */\n  0x01\n    /* \"lib/omni/contracts/core/src/pkg/XApp.sol\":296:317  _setOmniPortal(omni_) */\n  tag_8\n    /* \"lib/omni/contracts/core/src/pkg/XApp.sol\":311:316  omni_ */\n  dup3\n    /* \"lib/omni/contracts/core/src/pkg/XApp.sol\":296:310  _setOmniPortal */\n  shl(0x20, tag_9)\n    /* \"lib/omni/contracts/core/src/pkg/XApp.sol\":296:317  _setOmniPortal(omni_) */\n  0x20\n  shr\n  jump\t// in\ntag_8:\n    /* \"lib/omni/contracts/core/src/pkg/XApp.sol\":327:366  _setDefaultConfLevel(defaultConfLevel_) */\n  tag_10\n    /* \"lib/omni/contracts/core/src/pkg/XApp.sol\":348:365  defaultConfLevel_ */\n  dup2\n    /* \"lib/omni/contracts/core/src/pkg/XApp.sol\":327:347  _setDefaultConfLevel */\n  shl(0x20, tag_11)\n    /* \"lib/omni/contracts/core/src/pkg/XApp.sol\":327:366  _setDefaultConfLevel(defaultConfLevel_) */\n  0x20\n  shr\n  jump\t// in\ntag_10:\n    /* \"lib/omni/contracts/core/src/pkg/XApp.sol\":234:373  constructor(address omni_, uint8 defaultConfLevel_) {... */\n  pop\n  pop\n    /* \"src/wstf token launch/contracts/token/ERC20/OmniERC20.sol\":903:908  name_ */\n  dup3\n    /* \"src/wstf token launch/contracts/token/ERC20/OmniERC20.sol\":895:900  _name */\n  0x05\n    /* \"src/wstf token launch/contracts/token/ERC20/OmniERC20.sol\":895:908  _name = name_ */\n  swap1\n  dup2\n  tag_13\n  swap2\n  swap1\n  tag_14\n  jump\t// in\ntag_13:\n  pop\n    /* \"src/wstf token launch/contracts/token/ERC20/OmniERC20.sol\":928:935  symbol_ */\n  dup2\n    /* \"src/wstf token launch/contracts/token/ERC20/OmniERC20.sol\":918:925  _symbol */\n  0x06\n    /* \"src/wstf token launch/contracts/token/ERC20/OmniERC20.sol\":918:935  _symbol = symbol_ */\n  swap1\n  dup2\n  tag_15\n  swap2\n  swap1\n  tag_14\n  jump\t// in\ntag_15:\n  pop\n    /* \"src/wstf token launch/contracts/token/ERC20/OmniERC20.sol\":774:942  constructor(string memory name_, string memory symbol_, address omniPortal) XApp(omniPortal, ConfLevel.Latest) {... */\n  pop\n  pop\n  pop\n    /* \"src/wstf token launch/contracts/token/ERC20/implementation.sol\":433:465  _mint(msg.sender, initialSupply) */\n  tag_17\n    /* \"src/wstf token launch/contracts/token/ERC20/implementation.sol\":439:449  msg.sender */\n  caller\n    /* \"src/wstf token launch/contracts/token/ERC20/implementation.sol\":451:464  initialSupply */\n  dup3\n    /* \"src/wstf token launch/contracts/token/ERC20/implementation.sol\":433:438  _mint */\n  shl(0x20, tag_18)\n    /* \"src/wstf token launch/contracts/token/ERC20/implementation.sol\":433:465  _mint(msg.sender, initialSupply) */\n  0x20\n  shr\n  jump\t// in\ntag_17:\n    /* \"src/wstf token launch/contracts/token/ERC20/implementation.sol\":169:472  constructor(... */\n  pop\n  pop\n  pop\n  pop\n    /* \"src/wstf token launch/contracts/token/ERC20/implementation.sol\":128:984  contract MyOmniToken is OmniERC20 {... */\n  jump(tag_19)\n    /* \"lib/omni/contracts/core/src/pkg/XAppBase.sol\":3791:3976  function _setOmniPortal(address _omni) internal {... */\ntag_9:\n    /* \"lib/omni/contracts/core/src/pkg/XAppBase.sol\":3874:3875  0 */\n  0x00\n    /* \"lib/omni/contracts/core/src/pkg/XAppBase.sol\":3857:3876  _omni != address(0) */\n  0xffffffffffffffffffffffffffffffffffffffff\n  and\n    /* \"lib/omni/contracts/core/src/pkg/XAppBase.sol\":3857:3862  _omni */\n  dup2\n    /* \"lib/omni/contracts/core/src/pkg/XAppBase.sol\":3857:3876  _omni != address(0) */\n  0xffffffffffffffffffffffffffffffffffffffff\n  and\n  sub\n    /* \"lib/omni/contracts/core/src/pkg/XAppBase.sol\":3849:3899  require(_omni != address(0), \"XApp: no zero omni\") */\n  tag_21\n  jumpi\n  mload(0x40)\n  0x08c379a000000000000000000000000000000000000000000000000000000000\n  dup2\n  mstore\n  0x04\n  add\n  tag_22\n  swap1\n  tag_23\n  jump\t// in\ntag_22:\n  mload(0x40)\n  dup1\n  swap2\n  sub\n  swap1\n  revert\ntag_21:\n    /* \"lib/omni/contracts/core/src/pkg/XAppBase.sol\":3928:3933  _omni */\n  dup1\n    /* \"lib/omni/contracts/core/src/pkg/XAppBase.sol\":3909:3913  omni */\n  0x00\n  dup1\n    /* \"lib/omni/contracts/core/src/pkg/XAppBase.sol\":3909:3934  omni = IOmniPortal(_omni) */\n  0x0100\n  exp\n  dup2\n  sload\n  dup2\n  0xffffffffffffffffffffffffffffffffffffffff\n  mul\n  not\n  and\n  swap1\n  dup4\n  0xffffffffffffffffffffffffffffffffffffffff\n  and\n  mul\n  or\n  swap1\n  sstore\n  pop\n    /* \"lib/omni/contracts/core/src/pkg/XAppBase.sol\":3949:3969  OmniPortalSet(_omni) */\n  0x79162c8d053a07e70cdc1ccc536f0440b571f8508377d2bef51094fadab98f47\n    /* \"lib/omni/contracts/core/src/pkg/XAppBase.sol\":3963:3968  _omni */\n  dup2\n    /* \"lib/omni/contracts/core/src/pkg/XAppBase.sol\":3949:3969  OmniPortalSet(_omni) */\n  mload(0x40)\n  tag_24\n  swap2\n  swap1\n  tag_25\n  jump\t// in\ntag_24:\n  mload(0x40)\n  dup1\n  swap2\n  sub\n  swap1\n  log1\n    /* \"lib/omni/contracts/core/src/pkg/XAppBase.sol\":3791:3976  function _setOmniPortal(address _omni) internal {... */\n  pop\n  jump\t// out\n    /* \"lib/omni/contracts/core/src/pkg/XAppBase.sol\":3462:3663  function _setDefaultConfLevel(uint8 conf) internal {... */\ntag_11:\n    /* \"lib/omni/contracts/core/src/pkg/XAppBase.sol\":3531:3554  ConfLevel.isValid(conf) */\n  tag_27\n    /* \"lib/omni/contracts/core/src/pkg/XAppBase.sol\":3549:3553  conf */\n  dup2\n    /* \"lib/omni/contracts/core/src/pkg/XAppBase.sol\":3531:3548  ConfLevel.isValid */\n  shl(0x20, tag_28)\n    /* \"lib/omni/contracts/core/src/pkg/XAppBase.sol\":3531:3554  ConfLevel.isValid(conf) */\n  0x20\n  shr\n  jump\t// in\ntag_27:\n    /* \"lib/omni/contracts/core/src/pkg/XAppBase.sol\":3523:3583  require(ConfLevel.isValid(conf), \"XApp: invalid conf level\") */\n  tag_29\n  jumpi\n  mload(0x40)\n  0x08c379a000000000000000000000000000000000000000000000000000000000\n  dup2\n  mstore\n  0x04\n  add\n  tag_30\n  swap1\n  tag_31\n  jump\t// in\ntag_30:\n  mload(0x40)\n  dup1\n  swap2\n  sub\n  swap1\n  revert\ntag_29:\n    /* \"lib/omni/contracts/core/src/pkg/XAppBase.sol\":3612:3616  conf */\n  dup1\n    /* \"lib/omni/contracts/core/src/pkg/XAppBase.sol\":3593:3609  defaultConfLevel */\n  0x00\n  0x14\n    /* \"lib/omni/contracts/core/src/pkg/XAppBase.sol\":3593:3616  defaultConfLevel = conf */\n  0x0100\n  exp\n  dup2\n  sload\n  dup2\n  0xff\n  mul\n  not\n  and\n  swap1\n  dup4\n  0xff\n  and\n  mul\n  or\n  swap1\n  sstore\n  pop\n    /* \"lib/omni/contracts/core/src/pkg/XAppBase.sol\":3631:3656  DefaultConfLevelSet(conf) */\n  0x8de08a798b4e50b4f351c1eaa91a11530043802be3ffac2df87db0c45a2e8483\n    /* \"lib/omni/contracts/core/src/pkg/XAppBase.sol\":3651:3655  conf */\n  dup2\n    /* \"lib/omni/contracts/core/src/pkg/XAppBase.sol\":3631:3656  DefaultConfLevelSet(conf) */\n  mload(0x40)\n  tag_32\n  swap2\n  swap1\n  tag_33\n  jump\t// in\ntag_32:\n  mload(0x40)\n  dup1\n  swap2\n  sub\n  swap1\n  log1\n    /* \"lib/omni/contracts/core/src/pkg/XAppBase.sol\":3462:3663  function _setDefaultConfLevel(uint8 conf) internal {... */\n  pop\n  jump\t// out\n    /* \"src/wstf token launch/contracts/token/ERC20/implementation.sol\":774:982  function _mint(address account, uint256 value) internal {... */\ntag_18:\n    /* \"src/wstf token launch/contracts/token/ERC20/implementation.sol\":863:864  0 */\n  0x00\n    /* \"src/wstf token launch/contracts/token/ERC20/implementation.sol\":844:865  account == address(0) */\n  0xffffffffffffffffffffffffffffffffffffffff\n  and\n    /* \"src/wstf token launch/contracts/token/ERC20/implementation.sol\":844:851  account */\n  dup3\n    /* \"src/wstf token launch/contracts/token/ERC20/implementation.sol\":844:865  account == address(0) */\n  0xffffffffffffffffffffffffffffffffffffffff\n  and\n  sub\n    /* \"src/wstf token launch/contracts/token/ERC20/implementation.sol\":840:931  if (account == address(0)) {... */\n  tag_35\n  jumpi\n    /* \"src/wstf token launch/contracts/token/ERC20/implementation.sol\":917:918  0 */\n  0x00\n    /* \"src/wstf token launch/contracts/token/ERC20/implementation.sol\":888:920  ERC20InvalidReceiver(address(0)) */\n  mload(0x40)\n  0xec442f0500000000000000000000000000000000000000000000000000000000\n  dup2\n  mstore\n  0x04\n  add\n  tag_36\n  swap2\n  swap1\n  tag_25\n  jump\t// in\ntag_36:\n  mload(0x40)\n  dup1\n  swap2\n  sub\n  swap1\n  revert\n    /* \"src/wstf token launch/contracts/token/ERC20/implementation.sol\":840:931  if (account == address(0)) {... */\ntag_35:\n    /* \"src/wstf token launch/contracts/token/ERC20/implementation.sol\":940:975  _update(address(0), account, value) */\n  tag_37\n    /* \"src/wstf token launch/contracts/token/ERC20/implementation.sol\":956:957  0 */\n  0x00\n    /* \"src/wstf token launch/contracts/token/ERC20/implementation.sol\":960:967  account */\n  dup4\n    /* \"src/wstf token launch/contracts/token/ERC20/implementation.sol\":969:974  value */\n  dup4\n    /* \"src/wstf token launch/contracts/token/ERC20/implementation.sol\":940:947  _update */\n  shl(0x20, tag_38)\n    /* \"src/wstf token launch/contracts/token/ERC20/implementation.sol\":940:975  _update(address(0), account, value) */\n  0x20\n  shr\n  jump\t// in\ntag_37:\n    /* \"src/wstf token launch/contracts/token/ERC20/implementation.sol\":774:982  function _mint(address account, uint256 value) internal {... */\n  pop\n  pop\n  jump\t// out\n    /* \"lib/omni/contracts/core/src/libraries/ConfLevel.sol\":791:911  function isValid(uint8 level) internal pure returns (bool) {... */\ntag_28:\n    /* \"lib/omni/contracts/core/src/libraries/ConfLevel.sol\":844:848  bool */\n  0x00\n    /* \"lib/omni/contracts/core/src/libraries/ConfLevel.sol\":571:572  1 */\n  0x01\n    /* \"lib/omni/contracts/core/src/libraries/ConfLevel.sol\":867:882  level == Latest */\n  0xff\n  and\n    /* \"lib/omni/contracts/core/src/libraries/ConfLevel.sol\":867:872  level */\n  dup3\n    /* \"lib/omni/contracts/core/src/libraries/ConfLevel.sol\":867:882  level == Latest */\n  0xff\n  and\n  eq\n    /* \"lib/omni/contracts/core/src/libraries/ConfLevel.sol\":867:904  level == Latest || level == Finalized */\n  dup1\n  tag_40\n  jumpi\n  pop\n    /* \"lib/omni/contracts/core/src/libraries/ConfLevel.sol\":710:711  4 */\n  0x04\n    /* \"lib/omni/contracts/core/src/libraries/ConfLevel.sol\":886:904  level == Finalized */\n  0xff\n  and\n    /* \"lib/omni/contracts/core/src/libraries/ConfLevel.sol\":886:891  level */\n  dup3\n    /* \"lib/omni/contracts/core/src/libraries/ConfLevel.sol\":886:904  level == Finalized */\n  0xff\n  and\n  eq\n    /* \"lib/omni/contracts/core/src/libraries/ConfLevel.sol\":867:904  level == Latest || level == Finalized */\ntag_40:\n    /* \"lib/omni/contracts/core/src/libraries/ConfLevel.sol\":860:904  return level == Latest || level == Finalized */\n  swap1\n  pop\n    /* \"lib/omni/contracts/core/src/libraries/ConfLevel.sol\":791:911  function isValid(uint8 level) internal pure returns (bool) {... */\n  swap2\n  swap1\n  pop\n  jump\t// out\n    /* \"src/wstf token launch/contracts/token/ERC20/OmniERC20.sol\":3285:3991  function _update(address from, address to, uint256 value) internal virtual {... */\ntag_38:\n    /* \"src/wstf token launch/contracts/token/ERC20/OmniERC20.sol\":3390:3391  0 */\n  0x00\n    /* \"src/wstf token launch/contracts/token/ERC20/OmniERC20.sol\":3374:3392  from == address(0) */\n  0xffffffffffffffffffffffffffffffffffffffff\n  and\n    /* \"src/wstf token launch/contracts/token/ERC20/OmniERC20.sol\":3374:3378  from */\n  dup4\n    /* \"src/wstf token launch/contracts/token/ERC20/OmniERC20.sol\":3374:3392  from == address(0) */\n  0xffffffffffffffffffffffffffffffffffffffff\n  and\n  sub\n    /* \"src/wstf token launch/contracts/token/ERC20/OmniERC20.sol\":3370:3729  if (from == address(0)) {... */\n  tag_42\n  jumpi\n    /* \"src/wstf token launch/contracts/token/ERC20/OmniERC20.sol\":3424:3429  value */\n  dup1\n    /* \"src/wstf token launch/contracts/token/ERC20/OmniERC20.sol\":3408:3420  _totalSupply */\n  0x04\n  0x00\n    /* \"src/wstf token launch/contracts/token/ERC20/OmniERC20.sol\":3408:3429  _totalSupply += value */\n  dup3\n  dup3\n  sload\n  tag_43\n  swap2\n  swap1\n  tag_44\n  jump\t// in\ntag_43:\n  swap3\n  pop\n  pop\n  dup2\n  swap1\n  sstore\n  pop\n    /* \"src/wstf token launch/contracts/token/ERC20/OmniERC20.sol\":3370:3729  if (from == address(0)) {... */\n  jump(tag_45)\ntag_42:\n    /* \"src/wstf token launch/contracts/token/ERC20/OmniERC20.sol\":3460:3479  uint256 fromBalance */\n  0x00\n    /* \"src/wstf token launch/contracts/token/ERC20/OmniERC20.sol\":3482:3491  _balances */\n  0x02\n    /* \"src/wstf token launch/contracts/token/ERC20/OmniERC20.sol\":3482:3497  _balances[from] */\n  0x00\n    /* \"src/wstf token launch/contracts/token/ERC20/OmniERC20.sol\":3492:3496  from */\n  dup6\n    /* \"src/wstf token launch/contracts/token/ERC20/OmniERC20.sol\":3482:3497  _balances[from] */\n  0xffffffffffffffffffffffffffffffffffffffff\n  and\n  0xffffffffffffffffffffffffffffffffffffffff\n  and\n  dup2\n  mstore\n  0x20\n  add\n  swap1\n  dup2\n  mstore\n  0x20\n  add\n  0x00\n  keccak256\n  sload\n    /* \"src/wstf token launch/contracts/token/ERC20/OmniERC20.sol\":3460:3497  uint256 fromBalance = _balances[from] */\n  swap1\n  pop\n    /* \"src/wstf token launch/contracts/token/ERC20/OmniERC20.sol\":3529:3534  value */\n  dup2\n    /* \"src/wstf token launch/contracts/token/ERC20/OmniERC20.sol\":3515:3526  fromBalance */\n  dup2\n    /* \"src/wstf token launch/contracts/token/ERC20/OmniERC20.sol\":3515:3534  fromBalance < value */\n  lt\n    /* \"src/wstf token launch/contracts/token/ERC20/OmniERC20.sol\":3511:3626  if (fromBalance < value) {... */\n  iszero\n  tag_46\n  jumpi\n    /* \"src/wstf token launch/contracts/token/ERC20/OmniERC20.sol\":3586:3590  from */\n  dup4\n    /* \"src/wstf token launch/contracts/token/ERC20/OmniERC20.sol\":3592:3603  fromBalance */\n  dup2\n    /* \"src/wstf token launch/contracts/token/ERC20/OmniERC20.sol\":3605:3610  value */\n  dup4\n    /* \"src/wstf token launch/contracts/token/ERC20/OmniERC20.sol\":3561:3611  ERC20InsufficientBalance(from, fromBalance, value) */\n  mload(0x40)\n  0xe450d38c00000000000000000000000000000000000000000000000000000000\n  dup2\n  mstore\n  0x04\n  add\n  tag_47\n  swap4\n  swap3\n  swap2\n  swap1\n  tag_48\n  jump\t// in\ntag_47:\n  mload(0x40)\n  dup1\n  swap2\n  sub\n  swap1\n  revert\n    /* \"src/wstf token launch/contracts/token/ERC20/OmniERC20.sol\":3511:3626  if (fromBalance < value) {... */\ntag_46:\n    /* \"src/wstf token launch/contracts/token/ERC20/OmniERC20.sol\":3699:3704  value */\n  dup2\n    /* \"src/wstf token launch/contracts/token/ERC20/OmniERC20.sol\":3685:3696  fromBalance */\n  dup2\n    /* \"src/wstf token launch/contracts/token/ERC20/OmniERC20.sol\":3685:3704  fromBalance - value */\n  sub\n    /* \"src/wstf token launch/contracts/token/ERC20/OmniERC20.sol\":3667:3676  _balances */\n  0x02\n    /* \"src/wstf token launch/contracts/token/ERC20/OmniERC20.sol\":3667:3682  _balances[from] */\n  0x00\n    /* \"src/wstf token launch/contracts/token/ERC20/OmniERC20.sol\":3677:3681  from */\n  dup7\n    /* \"src/wstf token launch/contracts/token/ERC20/OmniERC20.sol\":3667:3682  _balances[from] */\n  0xffffffffffffffffffffffffffffffffffffffff\n  and\n  0xffffffffffffffffffffffffffffffffffffffff\n  and\n  dup2\n  mstore\n  0x20\n  add\n  swap1\n  dup2\n  mstore\n  0x20\n  add\n  0x00\n  keccak256\n    /* \"src/wstf token launch/contracts/token/ERC20/OmniERC20.sol\":3667:3704  _balances[from] = fromBalance - value */\n  dup2\n  swap1\n  sstore\n  pop\n    /* \"src/wstf token launch/contracts/token/ERC20/OmniERC20.sol\":3446:3729  {... */\n  pop\n    /* \"src/wstf token launch/contracts/token/ERC20/OmniERC20.sol\":3370:3729  if (from == address(0)) {... */\ntag_45:\n    /* \"src/wstf token launch/contracts/token/ERC20/OmniERC20.sol\":3757:3758  0 */\n  0x00\n    /* \"src/wstf token launch/contracts/token/ERC20/OmniERC20.sol\":3743:3759  to == address(0) */\n  0xffffffffffffffffffffffffffffffffffffffff\n  and\n    /* \"src/wstf token launch/contracts/token/ERC20/OmniERC20.sol\":3743:3745  to */\n  dup3\n    /* \"src/wstf token launch/contracts/token/ERC20/OmniERC20.sol\":3743:3759  to == address(0) */\n  0xffffffffffffffffffffffffffffffffffffffff\n  and\n  sub\n    /* \"src/wstf token launch/contracts/token/ERC20/OmniERC20.sol\":3739:3944  if (to == address(0)) {... */\n  tag_49\n  jumpi\n    /* \"src/wstf token launch/contracts/token/ERC20/OmniERC20.sol\":3819:3824  value */\n  dup1\n    /* \"src/wstf token launch/contracts/token/ERC20/OmniERC20.sol\":3803:3815  _totalSupply */\n  0x04\n  0x00\n    /* \"src/wstf token launch/contracts/token/ERC20/OmniERC20.sol\":3803:3824  _totalSupply -= value */\n  dup3\n  dup3\n  sload\n  sub\n  swap3\n  pop\n  pop\n  dup2\n  swap1\n  sstore\n  pop\n    /* \"src/wstf token launch/contracts/token/ERC20/OmniERC20.sol\":3739:3944  if (to == address(0)) {... */\n  jump(tag_50)\ntag_49:\n    /* \"src/wstf token launch/contracts/token/ERC20/OmniERC20.sol\":3914:3919  value */\n  dup1\n    /* \"src/wstf token launch/contracts/token/ERC20/OmniERC20.sol\":3897:3906  _balances */\n  0x02\n    /* \"src/wstf token launch/contracts/token/ERC20/OmniERC20.sol\":3897:3910  _balances[to] */\n  0x00\n    /* \"src/wstf token launch/contracts/token/ERC20/OmniERC20.sol\":3907:3909  to */\n  dup5\n    /* \"src/wstf token launch/contracts/token/ERC20/OmniERC20.sol\":3897:3910  _balances[to] */\n  0xffffffffffffffffffffffffffffffffffffffff\n  and\n  0xffffffffffffffffffffffffffffffffffffffff\n  and\n  dup2\n  mstore\n  0x20\n  add\n  swap1\n  dup2\n  mstore\n  0x20\n  add\n  0x00\n  keccak256\n  0x00\n    /* \"src/wstf token launch/contracts/token/ERC20/OmniERC20.sol\":3897:3919  _balances[to] += value */\n  dup3\n  dup3\n  sload\n  add\n  swap3\n  pop\n  pop\n  dup2\n  swap1\n  sstore\n  pop\n    /* \"src/wstf token launch/contracts/token/ERC20/OmniERC20.sol\":3739:3944  if (to == address(0)) {... */\ntag_50:\n    /* \"src/wstf token launch/contracts/token/ERC20/OmniERC20.sol\":3974:3976  to */\n  dup2\n    /* \"src/wstf token launch/contracts/token/ERC20/OmniERC20.sol\":3959:3984  Transfer(from, to, value) */\n  0xffffffffffffffffffffffffffffffffffffffff\n  and\n    /* \"src/wstf token launch/contracts/token/ERC20/OmniERC20.sol\":3968:3972  from */\n  dup4\n    /* \"src/wstf token launch/contracts/token/ERC20/OmniERC20.sol\":3959:3984  Transfer(from, to, value) */\n  0xffffffffffffffffffffffffffffffffffffffff\n  and\n  0xddf252ad1be2c89b69c2b068fc378daa952ba7f163c4a11628f55a4df523b3ef\n    /* \"src/wstf token launch/contracts/token/ERC20/OmniERC20.sol\":3978:3983  value */\n  dup4\n    /* \"src/wstf token launch/contracts/token/ERC20/OmniERC20.sol\":3959:3984  Transfer(from, to, value) */\n  mload(0x40)\n  tag_51\n  swap2\n  swap1\n  tag_52\n  jump\t// in\ntag_51:\n  mload(0x40)\n  dup1\n  swap2\n  sub\n  swap1\n  log3\n    /* \"src/wstf token launch/contracts/token/ERC20/OmniERC20.sol\":3285:3991  function _update(address from, address to, uint256 value) internal virtual {... */\n  pop\n  pop\n  pop\n  jump\t// out\n    /* \"#utility.yul\":7:82   */\ntag_53:\n    /* \"#utility.yul\":40:46   */\n  0x00\n    /* \"#utility.yul\":73:75   */\n  0x40\n    /* \"#utility.yul\":67:76   */\n  mload\n    /* \"#utility.yul\":57:76   */\n  swap1\n  pop\n    /* \"#utility.yul\":7:82   */\n  swap1\n  jump\t// out\n    /* \"#utility.yul\":88:205   */\ntag_54:\n    /* \"#utility.yul\":197:198   */\n  0x00\n    /* \"#utility.yul\":194:195   */\n  dup1\n    /* \"#utility.yul\":187:199   */\n  revert\n    /* \"#utility.yul\":211:328   */\ntag_55:\n    /* \"#utility.yul\":320:321   */\n  0x00\n    /* \"#utility.yul\":317:318   */\n  dup1\n    /* \"#utility.yul\":310:322   */\n  revert\n    /* \"#utility.yul\":334:451   */\ntag_56:\n    /* \"#utility.yul\":443:444   */\n  0x00\n    /* \"#utility.yul\":440:441   */\n  dup1\n    /* \"#utility.yul\":433:445   */\n  revert\n    /* \"#utility.yul\":457:574   */\ntag_57:\n    /* \"#utility.yul\":566:567   */\n  0x00\n    /* \"#utility.yul\":563:564   */\n  dup1\n    /* \"#utility.yul\":556:568   */\n  revert\n    /* \"#utility.yul\":580:682   */\ntag_58:\n    /* \"#utility.yul\":621:627   */\n  0x00\n    /* \"#utility.yul\":672:674   */\n  0x1f\n    /* \"#utility.yul\":668:675   */\n  not\n    /* \"#utility.yul\":663:665   */\n  0x1f\n    /* \"#utility.yul\":656:661   */\n  dup4\n    /* \"#utility.yul\":652:666   */\n  add\n    /* \"#utility.yul\":648:676   */\n  and\n    /* \"#utility.yul\":638:676   */\n  swap1\n  pop\n    /* \"#utility.yul\":580:682   */\n  swap2\n  swap1\n  pop\n  jump\t// out\n    /* \"#utility.yul\":688:868   */\ntag_59:\n    /* \"#utility.yul\":736:813   */\n  0x4e487b7100000000000000000000000000000000000000000000000000000000\n    /* \"#utility.yul\":733:734   */\n  0x00\n    /* \"#utility.yul\":726:814   */\n  mstore\n    /* \"#utility.yul\":833:837   */\n  0x41\n    /* \"#utility.yul\":830:831   */\n  0x04\n    /* \"#utility.yul\":823:838   */\n  mstore\n    /* \"#utility.yul\":857:861   */\n  0x24\n    /* \"#utility.yul\":854:855   */\n  0x00\n    /* \"#utility.yul\":847:862   */\n  revert\n    /* \"#utility.yul\":874:1155   */\ntag_60:\n    /* \"#utility.yul\":957:984   */\n  tag_110\n    /* \"#utility.yul\":979:983   */\n  dup3\n    /* \"#utility.yul\":957:984   */\n  tag_58\n  jump\t// in\ntag_110:\n    /* \"#utility.yul\":949:955   */\n  dup2\n    /* \"#utility.yul\":945:985   */\n  add\n    /* \"#utility.yul\":1087:1093   */\n  dup2\n    /* \"#utility.yul\":1075:1085   */\n  dup2\n    /* \"#utility.yul\":1072:1094   */\n  lt\n    /* \"#utility.yul\":1051:1069   */\n  0xffffffffffffffff\n    /* \"#utility.yul\":1039:1049   */\n  dup3\n    /* \"#utility.yul\":1036:1070   */\n  gt\n    /* \"#utility.yul\":1033:1095   */\n  or\n    /* \"#utility.yul\":1030:1118   */\n  iszero\n  tag_111\n  jumpi\n    /* \"#utility.yul\":1098:1116   */\n  tag_112\n  tag_59\n  jump\t// in\ntag_112:\n    /* \"#utility.yul\":1030:1118   */\ntag_111:\n    /* \"#utility.yul\":1138:1148   */\n  dup1\n    /* \"#utility.yul\":1134:1136   */\n  0x40\n    /* \"#utility.yul\":1127:1149   */\n  mstore\n    /* \"#utility.yul\":917:1155   */\n  pop\n    /* \"#utility.yul\":874:1155   */\n  pop\n  pop\n  jump\t// out\n    /* \"#utility.yul\":1161:1290   */\ntag_61:\n    /* \"#utility.yul\":1195:1201   */\n  0x00\n    /* \"#utility.yul\":1222:1242   */\n  tag_114\n  tag_53\n  jump\t// in\ntag_114:\n    /* \"#utility.yul\":1212:1242   */\n  swap1\n  pop\n    /* \"#utility.yul\":1251:1284   */\n  tag_115\n    /* \"#utility.yul\":1279:1283   */\n  dup3\n    /* \"#utility.yul\":1271:1277   */\n  dup3\n    /* \"#utility.yul\":1251:1284   */\n  tag_60\n  jump\t// in\ntag_115:\n    /* \"#utility.yul\":1161:1290   */\n  swap2\n  swap1\n  pop\n  jump\t// out\n    /* \"#utility.yul\":1296:1604   */\ntag_62:\n    /* \"#utility.yul\":1358:1362   */\n  0x00\n    /* \"#utility.yul\":1448:1466   */\n  0xffffffffffffffff\n    /* \"#utility.yul\":1440:1446   */\n  dup3\n    /* \"#utility.yul\":1437:1467   */\n  gt\n    /* \"#utility.yul\":1434:1490   */\n  iszero\n  tag_117\n  jumpi\n    /* \"#utility.yul\":1470:1488   */\n  tag_118\n  tag_59\n  jump\t// in\ntag_118:\n    /* \"#utility.yul\":1434:1490   */\ntag_117:\n    /* \"#utility.yul\":1508:1537   */\n  tag_119\n    /* \"#utility.yul\":1530:1536   */\n  dup3\n    /* \"#utility.yul\":1508:1537   */\n  tag_58\n  jump\t// in\ntag_119:\n    /* \"#utility.yul\":1500:1537   */\n  swap1\n  pop\n    /* \"#utility.yul\":1592:1596   */\n  0x20\n    /* \"#utility.yul\":1586:1590   */\n  dup2\n    /* \"#utility.yul\":1582:1597   */\n  add\n    /* \"#utility.yul\":1574:1597   */\n  swap1\n  pop\n    /* \"#utility.yul\":1296:1604   */\n  swap2\n  swap1\n  pop\n  jump\t// out\n    /* \"#utility.yul\":1610:1749   */\ntag_63:\n    /* \"#utility.yul\":1699:1705   */\n  dup3\n    /* \"#utility.yul\":1694:1697   */\n  dup2\n    /* \"#utility.yul\":1689:1692   */\n  dup4\n    /* \"#utility.yul\":1683:1706   */\n  mcopy\n    /* \"#utility.yul\":1740:1741   */\n  0x00\n    /* \"#utility.yul\":1731:1737   */\n  dup4\n    /* \"#utility.yul\":1726:1729   */\n  dup4\n    /* \"#utility.yul\":1722:1738   */\n  add\n    /* \"#utility.yul\":1715:1742   */\n  mstore\n    /* \"#utility.yul\":1610:1749   */\n  pop\n  pop\n  pop\n  jump\t// out\n    /* \"#utility.yul\":1755:2189   */\ntag_64:\n    /* \"#utility.yul\":1844:1849   */\n  0x00\n    /* \"#utility.yul\":1869:1935   */\n  tag_122\n    /* \"#utility.yul\":1885:1934   */\n  tag_123\n    /* \"#utility.yul\":1927:1933   */\n  dup5\n    /* \"#utility.yul\":1885:1934   */\n  tag_62\n  jump\t// in\ntag_123:\n    /* \"#utility.yul\":1869:1935   */\n  tag_61\n  jump\t// in\ntag_122:\n    /* \"#utility.yul\":1860:1935   */\n  swap1\n  pop\n    /* \"#utility.yul\":1958:1964   */\n  dup3\n    /* \"#utility.yul\":1951:1956   */\n  dup2\n    /* \"#utility.yul\":1944:1965   */\n  mstore\n    /* \"#utility.yul\":1996:2000   */\n  0x20\n    /* \"#utility.yul\":1989:1994   */\n  dup2\n    /* \"#utility.yul\":1985:2001   */\n  add\n    /* \"#utility.yul\":2034:2037   */\n  dup5\n    /* \"#utility.yul\":2025:2031   */\n  dup5\n    /* \"#utility.yul\":2020:2023   */\n  dup5\n    /* \"#utility.yul\":2016:2032   */\n  add\n    /* \"#utility.yul\":2013:2038   */\n  gt\n    /* \"#utility.yul\":2010:2122   */\n  iszero\n  tag_124\n  jumpi\n    /* \"#utility.yul\":2041:2120   */\n  tag_125\n  tag_57\n  jump\t// in\ntag_125:\n    /* \"#utility.yul\":2010:2122   */\ntag_124:\n    /* \"#utility.yul\":2131:2183   */\n  tag_126\n    /* \"#utility.yul\":2176:2182   */\n  dup5\n    /* \"#utility.yul\":2171:2174   */\n  dup3\n    /* \"#utility.yul\":2166:2169   */\n  dup6\n    /* \"#utility.yul\":2131:2183   */\n  tag_63\n  jump\t// in\ntag_126:\n    /* \"#utility.yul\":1850:2189   */\n  pop\n    /* \"#utility.yul\":1755:2189   */\n  swap4\n  swap3\n  pop\n  pop\n  pop\n  jump\t// out\n    /* \"#utility.yul\":2209:2564   */\ntag_65:\n    /* \"#utility.yul\":2276:2281   */\n  0x00\n    /* \"#utility.yul\":2325:2328   */\n  dup3\n    /* \"#utility.yul\":2318:2322   */\n  0x1f\n    /* \"#utility.yul\":2310:2316   */\n  dup4\n    /* \"#utility.yul\":2306:2323   */\n  add\n    /* \"#utility.yul\":2302:2329   */\n  slt\n    /* \"#utility.yul\":2292:2414   */\n  tag_128\n  jumpi\n    /* \"#utility.yul\":2333:2412   */\n  tag_129\n  tag_56\n  jump\t// in\ntag_129:\n    /* \"#utility.yul\":2292:2414   */\ntag_128:\n    /* \"#utility.yul\":2443:2449   */\n  dup2\n    /* \"#utility.yul\":2437:2450   */\n  mload\n    /* \"#utility.yul\":2468:2558   */\n  tag_130\n    /* \"#utility.yul\":2554:2557   */\n  dup5\n    /* \"#utility.yul\":2546:2552   */\n  dup3\n    /* \"#utility.yul\":2539:2543   */\n  0x20\n    /* \"#utility.yul\":2531:2537   */\n  dup7\n    /* \"#utility.yul\":2527:2544   */\n  add\n    /* \"#utility.yul\":2468:2558   */\n  tag_64\n  jump\t// in\ntag_130:\n    /* \"#utility.yul\":2459:2558   */\n  swap2\n  pop\n    /* \"#utility.yul\":2282:2564   */\n  pop\n    /* \"#utility.yul\":2209:2564   */\n  swap3\n  swap2\n  pop\n  pop\n  jump\t// out\n    /* \"#utility.yul\":2570:2696   */\ntag_66:\n    /* \"#utility.yul\":2607:2614   */\n  0x00\n    /* \"#utility.yul\":2647:2689   */\n  0xffffffffffffffffffffffffffffffffffffffff\n    /* \"#utility.yul\":2640:2645   */\n  dup3\n    /* \"#utility.yul\":2636:2690   */\n  and\n    /* \"#utility.yul\":2625:2690   */\n  swap1\n  pop\n    /* \"#utility.yul\":2570:2696   */\n  swap2\n  swap1\n  pop\n  jump\t// out\n    /* \"#utility.yul\":2702:2798   */\ntag_67:\n    /* \"#utility.yul\":2739:2746   */\n  0x00\n    /* \"#utility.yul\":2768:2792   */\n  tag_133\n    /* \"#utility.yul\":2786:2791   */\n  dup3\n    /* \"#utility.yul\":2768:2792   */\n  tag_66\n  jump\t// in\ntag_133:\n    /* \"#utility.yul\":2757:2792   */\n  swap1\n  pop\n    /* \"#utility.yul\":2702:2798   */\n  swap2\n  swap1\n  pop\n  jump\t// out\n    /* \"#utility.yul\":2804:2926   */\ntag_68:\n    /* \"#utility.yul\":2877:2901   */\n  tag_135\n    /* \"#utility.yul\":2895:2900   */\n  dup2\n    /* \"#utility.yul\":2877:2901   */\n  tag_67\n  jump\t// in\ntag_135:\n    /* \"#utility.yul\":2870:2875   */\n  dup2\n    /* \"#utility.yul\":2867:2902   */\n  eq\n    /* \"#utility.yul\":2857:2920   */\n  tag_136\n  jumpi\n    /* \"#utility.yul\":2916:2917   */\n  0x00\n    /* \"#utility.yul\":2913:2914   */\n  dup1\n    /* \"#utility.yul\":2906:2918   */\n  revert\n    /* \"#utility.yul\":2857:2920   */\ntag_136:\n    /* \"#utility.yul\":2804:2926   */\n  pop\n  jump\t// out\n    /* \"#utility.yul\":2932:3075   */\ntag_69:\n    /* \"#utility.yul\":2989:2994   */\n  0x00\n    /* \"#utility.yul\":3020:3026   */\n  dup2\n    /* \"#utility.yul\":3014:3027   */\n  mload\n    /* \"#utility.yul\":3005:3027   */\n  swap1\n  pop\n    /* \"#utility.yul\":3036:3069   */\n  tag_138\n    /* \"#utility.yul\":3063:3068   */\n  dup2\n    /* \"#utility.yul\":3036:3069   */\n  tag_68\n  jump\t// in\ntag_138:\n    /* \"#utility.yul\":2932:3075   */\n  swap3\n  swap2\n  pop\n  pop\n  jump\t// out\n    /* \"#utility.yul\":3081:3158   */\ntag_70:\n    /* \"#utility.yul\":3118:3125   */\n  0x00\n    /* \"#utility.yul\":3147:3152   */\n  dup2\n    /* \"#utility.yul\":3136:3152   */\n  swap1\n  pop\n    /* \"#utility.yul\":3081:3158   */\n  swap2\n  swap1\n  pop\n  jump\t// out\n    /* \"#utility.yul\":3164:3286   */\ntag_71:\n    /* \"#utility.yul\":3237:3261   */\n  tag_141\n    /* \"#utility.yul\":3255:3260   */\n  dup2\n    /* \"#utility.yul\":3237:3261   */\n  tag_70\n  jump\t// in\ntag_141:\n    /* \"#utility.yul\":3230:3235   */\n  dup2\n    /* \"#utility.yul\":3227:3262   */\n  eq\n    /* \"#utility.yul\":3217:3280   */\n  tag_142\n  jumpi\n    /* \"#utility.yul\":3276:3277   */\n  0x00\n    /* \"#utility.yul\":3273:3274   */\n  dup1\n    /* \"#utility.yul\":3266:3278   */\n  revert\n    /* \"#utility.yul\":3217:3280   */\ntag_142:\n    /* \"#utility.yul\":3164:3286   */\n  pop\n  jump\t// out\n    /* \"#utility.yul\":3292:3435   */\ntag_72:\n    /* \"#utility.yul\":3349:3354   */\n  0x00\n    /* \"#utility.yul\":3380:3386   */\n  dup2\n    /* \"#utility.yul\":3374:3387   */\n  mload\n    /* \"#utility.yul\":3365:3387   */\n  swap1\n  pop\n    /* \"#utility.yul\":3396:3429   */\n  tag_144\n    /* \"#utility.yul\":3423:3428   */\n  dup2\n    /* \"#utility.yul\":3396:3429   */\n  tag_71\n  jump\t// in\ntag_144:\n    /* \"#utility.yul\":3292:3435   */\n  swap3\n  swap2\n  pop\n  pop\n  jump\t// out\n    /* \"#utility.yul\":3441:4607   */\ntag_3:\n    /* \"#utility.yul\":3558:3564   */\n  0x00\n    /* \"#utility.yul\":3566:3572   */\n  dup1\n    /* \"#utility.yul\":3574:3580   */\n  0x00\n    /* \"#utility.yul\":3582:3588   */\n  dup1\n    /* \"#utility.yul\":3631:3634   */\n  0x80\n    /* \"#utility.yul\":3619:3628   */\n  dup6\n    /* \"#utility.yul\":3610:3617   */\n  dup8\n    /* \"#utility.yul\":3606:3629   */\n  sub\n    /* \"#utility.yul\":3602:3635   */\n  slt\n    /* \"#utility.yul\":3599:3719   */\n  iszero\n  tag_146\n  jumpi\n    /* \"#utility.yul\":3638:3717   */\n  tag_147\n  tag_54\n  jump\t// in\ntag_147:\n    /* \"#utility.yul\":3599:3719   */\ntag_146:\n    /* \"#utility.yul\":3779:3780   */\n  0x00\n    /* \"#utility.yul\":3768:3777   */\n  dup6\n    /* \"#utility.yul\":3764:3781   */\n  add\n    /* \"#utility.yul\":3758:3782   */\n  mload\n    /* \"#utility.yul\":3809:3827   */\n  0xffffffffffffffff\n    /* \"#utility.yul\":3801:3807   */\n  dup2\n    /* \"#utility.yul\":3798:3828   */\n  gt\n    /* \"#utility.yul\":3795:3912   */\n  iszero\n  tag_148\n  jumpi\n    /* \"#utility.yul\":3831:3910   */\n  tag_149\n  tag_55\n  jump\t// in\ntag_149:\n    /* \"#utility.yul\":3795:3912   */\ntag_148:\n    /* \"#utility.yul\":3936:4010   */\n  tag_150\n    /* \"#utility.yul\":4002:4009   */\n  dup8\n    /* \"#utility.yul\":3993:3999   */\n  dup3\n    /* \"#utility.yul\":3982:3991   */\n  dup9\n    /* \"#utility.yul\":3978:4000   */\n  add\n    /* \"#utility.yul\":3936:4010   */\n  tag_65\n  jump\t// in\ntag_150:\n    /* \"#utility.yul\":3926:4010   */\n  swap5\n  pop\n    /* \"#utility.yul\":3729:4020   */\n  pop\n    /* \"#utility.yul\":4080:4082   */\n  0x20\n    /* \"#utility.yul\":4069:4078   */\n  dup6\n    /* \"#utility.yul\":4065:4083   */\n  add\n    /* \"#utility.yul\":4059:4084   */\n  mload\n    /* \"#utility.yul\":4111:4129   */\n  0xffffffffffffffff\n    /* \"#utility.yul\":4103:4109   */\n  dup2\n    /* \"#utility.yul\":4100:4130   */\n  gt\n    /* \"#utility.yul\":4097:4214   */\n  iszero\n  tag_151\n  jumpi\n    /* \"#utility.yul\":4133:4212   */\n  tag_152\n  tag_55\n  jump\t// in\ntag_152:\n    /* \"#utility.yul\":4097:4214   */\ntag_151:\n    /* \"#utility.yul\":4238:4312   */\n  tag_153\n    /* \"#utility.yul\":4304:4311   */\n  dup8\n    /* \"#utility.yul\":4295:4301   */\n  dup3\n    /* \"#utility.yul\":4284:4293   */\n  dup9\n    /* \"#utility.yul\":4280:4302   */\n  add\n    /* \"#utility.yul\":4238:4312   */\n  tag_65\n  jump\t// in\ntag_153:\n    /* \"#utility.yul\":4228:4312   */\n  swap4\n  pop\n    /* \"#utility.yul\":4030:4322   */\n  pop\n    /* \"#utility.yul\":4361:4363   */\n  0x40\n    /* \"#utility.yul\":4387:4451   */\n  tag_154\n    /* \"#utility.yul\":4443:4450   */\n  dup8\n    /* \"#utility.yul\":4434:4440   */\n  dup3\n    /* \"#utility.yul\":4423:4432   */\n  dup9\n    /* \"#utility.yul\":4419:4441   */\n  add\n    /* \"#utility.yul\":4387:4451   */\n  tag_69\n  jump\t// in\ntag_154:\n    /* \"#utility.yul\":4377:4451   */\n  swap3\n  pop\n    /* \"#utility.yul\":4332:4461   */\n  pop\n    /* \"#utility.yul\":4500:4502   */\n  0x60\n    /* \"#utility.yul\":4526:4590   */\n  tag_155\n    /* \"#utility.yul\":4582:4589   */\n  dup8\n    /* \"#utility.yul\":4573:4579   */\n  dup3\n    /* \"#utility.yul\":4562:4571   */\n  dup9\n    /* \"#utility.yul\":4558:4580   */\n  add\n    /* \"#utility.yul\":4526:4590   */\n  tag_72\n  jump\t// in\ntag_155:\n    /* \"#utility.yul\":4516:4590   */\n  swap2\n  pop\n    /* \"#utility.yul\":4471:4600   */\n  pop\n    /* \"#utility.yul\":3441:4607   */\n  swap3\n  swap6\n  swap2\n  swap5\n  pop\n  swap3\n  pop\n  jump\t// out\n    /* \"#utility.yul\":4613:4712   */\ntag_73:\n    /* \"#utility.yul\":4665:4671   */\n  0x00\n    /* \"#utility.yul\":4699:4704   */\n  dup2\n    /* \"#utility.yul\":4693:4705   */\n  mload\n    /* \"#utility.yul\":4683:4705   */\n  swap1\n  pop\n    /* \"#utility.yul\":4613:4712   */\n  swap2\n  swap1\n  pop\n  jump\t// out\n    /* \"#utility.yul\":4718:4898   */\ntag_74:\n    /* \"#utility.yul\":4766:4843   */\n  0x4e487b7100000000000000000000000000000000000000000000000000000000\n    /* \"#utility.yul\":4763:4764   */\n  0x00\n    /* \"#utility.yul\":4756:4844   */\n  mstore\n    /* \"#utility.yul\":4863:4867   */\n  0x22\n    /* \"#utility.yul\":4860:4861   */\n  0x04\n    /* \"#utility.yul\":4853:4868   */\n  mstore\n    /* \"#utility.yul\":4887:4891   */\n  0x24\n    /* \"#utility.yul\":4884:4885   */\n  0x00\n    /* \"#utility.yul\":4877:4892   */\n  revert\n    /* \"#utility.yul\":4904:5224   */\ntag_75:\n    /* \"#utility.yul\":4948:4954   */\n  0x00\n    /* \"#utility.yul\":4985:4986   */\n  0x02\n    /* \"#utility.yul\":4979:4983   */\n  dup3\n    /* \"#utility.yul\":4975:4987   */\n  div\n    /* \"#utility.yul\":4965:4987   */\n  swap1\n  pop\n    /* \"#utility.yul\":5032:5033   */\n  0x01\n    /* \"#utility.yul\":5026:5030   */\n  dup3\n    /* \"#utility.yul\":5022:5034   */\n  and\n    /* \"#utility.yul\":5053:5071   */\n  dup1\n    /* \"#utility.yul\":5043:5124   */\n  tag_159\n  jumpi\n    /* \"#utility.yul\":5109:5113   */\n  0x7f\n    /* \"#utility.yul\":5101:5107   */\n  dup3\n    /* \"#utility.yul\":5097:5114   */\n  and\n    /* \"#utility.yul\":5087:5114   */\n  swap2\n  pop\n    /* \"#utility.yul\":5043:5124   */\ntag_159:\n    /* \"#utility.yul\":5171:5173   */\n  0x20\n    /* \"#utility.yul\":5163:5169   */\n  dup3\n    /* \"#utility.yul\":5160:5174   */\n  lt\n    /* \"#utility.yul\":5140:5158   */\n  dup2\n    /* \"#utility.yul\":5137:5175   */\n  sub\n    /* \"#utility.yul\":5134:5218   */\n  tag_160\n  jumpi\n    /* \"#utility.yul\":5190:5208   */\n  tag_161\n  tag_74\n  jump\t// in\ntag_161:\n    /* \"#utility.yul\":5134:5218   */\ntag_160:\n    /* \"#utility.yul\":4955:5224   */\n  pop\n    /* \"#utility.yul\":4904:5224   */\n  swap2\n  swap1\n  pop\n  jump\t// out\n    /* \"#utility.yul\":5230:5371   */\ntag_76:\n    /* \"#utility.yul\":5279:5283   */\n  0x00\n    /* \"#utility.yul\":5302:5305   */\n  dup2\n    /* \"#utility.yul\":5294:5305   */\n  swap1\n  pop\n    /* \"#utility.yul\":5325:5328   */\n  dup2\n    /* \"#utility.yul\":5322:5323   */\n  0x00\n    /* \"#utility.yul\":5315:5329   */\n  mstore\n    /* \"#utility.yul\":5359:5363   */\n  0x20\n    /* \"#utility.yul\":5356:5357   */\n  0x00\n    /* \"#utility.yul\":5346:5364   */\n  keccak256\n    /* \"#utility.yul\":5338:5364   */\n  swap1\n  pop\n    /* \"#utility.yul\":5230:5371   */\n  swap2\n  swap1\n  pop\n  jump\t// out\n    /* \"#utility.yul\":5377:5470   */\ntag_77:\n    /* \"#utility.yul\":5414:5420   */\n  0x00\n    /* \"#utility.yul\":5461:5463   */\n  0x20\n    /* \"#utility.yul\":5456:5458   */\n  0x1f\n    /* \"#utility.yul\":5449:5454   */\n  dup4\n    /* \"#utility.yul\":5445:5459   */\n  add\n    /* \"#utility.yul\":5441:5464   */\n  div\n    /* \"#utility.yul\":5431:5464   */\n  swap1\n  pop\n    /* \"#utility.yul\":5377:5470   */\n  swap2\n  swap1\n  pop\n  jump\t// out\n    /* \"#utility.yul\":5476:5583   */\ntag_78:\n    /* \"#utility.yul\":5520:5528   */\n  0x00\n    /* \"#utility.yul\":5570:5575   */\n  dup3\n    /* \"#utility.yul\":5564:5568   */\n  dup3\n    /* \"#utility.yul\":5560:5576   */\n  shl\n    /* \"#utility.yul\":5539:5576   */\n  swap1\n  pop\n    /* \"#utility.yul\":5476:5583   */\n  swap3\n  swap2\n  pop\n  pop\n  jump\t// out\n    /* \"#utility.yul\":5589:5982   */\ntag_79:\n    /* \"#utility.yul\":5658:5664   */\n  0x00\n    /* \"#utility.yul\":5708:5709   */\n  0x08\n    /* \"#utility.yul\":5696:5706   */\n  dup4\n    /* \"#utility.yul\":5692:5710   */\n  mul\n    /* \"#utility.yul\":5731:5828   */\n  tag_166\n    /* \"#utility.yul\":5761:5827   */\n  0xffffffffffffffffffffffffffffffffffffffffffffffffffffffffffffffff\n    /* \"#utility.yul\":5750:5759   */\n  dup3\n    /* \"#utility.yul\":5731:5828   */\n  tag_78\n  jump\t// in\ntag_166:\n    /* \"#utility.yul\":5849:5888   */\n  tag_167\n    /* \"#utility.yul\":5879:5887   */\n  dup7\n    /* \"#utility.yul\":5868:5877   */\n  dup4\n    /* \"#utility.yul\":5849:5888   */\n  tag_78\n  jump\t// in\ntag_167:\n    /* \"#utility.yul\":5837:5888   */\n  swap6\n  pop\n    /* \"#utility.yul\":5921:5925   */\n  dup1\n    /* \"#utility.yul\":5917:5926   */\n  not\n    /* \"#utility.yul\":5910:5915   */\n  dup5\n    /* \"#utility.yul\":5906:5927   */\n  and\n    /* \"#utility.yul\":5897:5927   */\n  swap4\n  pop\n    /* \"#utility.yul\":5970:5974   */\n  dup1\n    /* \"#utility.yul\":5960:5968   */\n  dup7\n    /* \"#utility.yul\":5956:5975   */\n  and\n    /* \"#utility.yul\":5949:5954   */\n  dup5\n    /* \"#utility.yul\":5946:5976   */\n  or\n    /* \"#utility.yul\":5936:5976   */\n  swap3\n  pop\n    /* \"#utility.yul\":5665:5982   */\n  pop\n  pop\n    /* \"#utility.yul\":5589:5982   */\n  swap4\n  swap3\n  pop\n  pop\n  pop\n  jump\t// out\n    /* \"#utility.yul\":5988:6048   */\ntag_80:\n    /* \"#utility.yul\":6016:6019   */\n  0x00\n    /* \"#utility.yul\":6037:6042   */\n  dup2\n    /* \"#utility.yul\":6030:6042   */\n  swap1\n  pop\n    /* \"#utility.yul\":5988:6048   */\n  swap2\n  swap1\n  pop\n  jump\t// out\n    /* \"#utility.yul\":6054:6196   */\ntag_81:\n    /* \"#utility.yul\":6104:6113   */\n  0x00\n    /* \"#utility.yul\":6137:6190   */\n  tag_170\n    /* \"#utility.yul\":6155:6189   */\n  tag_171\n    /* \"#utility.yul\":6164:6188   */\n  tag_172\n    /* \"#utility.yul\":6182:6187   */\n  dup5\n    /* \"#utility.yul\":6164:6188   */\n  tag_70\n  jump\t// in\ntag_172:\n    /* \"#utility.yul\":6155:6189   */\n  tag_80\n  jump\t// in\ntag_171:\n    /* \"#utility.yul\":6137:6190   */\n  tag_70\n  jump\t// in\ntag_170:\n    /* \"#utility.yul\":6124:6190   */\n  swap1\n  pop\n    /* \"#utility.yul\":6054:6196   */\n  swap2\n  swap1\n  pop\n  jump\t// out\n    /* \"#utility.yul\":6202:6277   */\ntag_82:\n    /* \"#utility.yul\":6245:6248   */\n  0x00\n    /* \"#utility.yul\":6266:6271   */\n  dup2\n    /* \"#utility.yul\":6259:6271   */\n  swap1\n  pop\n    /* \"#utility.yul\":6202:6277   */\n  swap2\n  swap1\n  pop\n  jump\t// out\n    /* \"#utility.yul\":6283:6552   */\ntag_83:\n    /* \"#utility.yul\":6393:6432   */\n  tag_175\n    /* \"#utility.yul\":6424:6431   */\n  dup4\n    /* \"#utility.yul\":6393:6432   */\n  tag_81\n  jump\t// in\ntag_175:\n    /* \"#utility.yul\":6454:6545   */\n  tag_176\n    /* \"#utility.yul\":6503:6544   */\n  tag_177\n    /* \"#utility.yul\":6527:6543   */\n  dup3\n    /* \"#utility.yul\":6503:6544   */\n  tag_82\n  jump\t// in\ntag_177:\n    /* \"#utility.yul\":6495:6501   */\n  dup5\n    /* \"#utility.yul\":6488:6492   */\n  dup5\n    /* \"#utility.yul\":6482:6493   */\n  sload\n    /* \"#utility.yul\":6454:6545   */\n  tag_79\n  jump\t// in\ntag_176:\n    /* \"#utility.yul\":6448:6452   */\n  dup3\n    /* \"#utility.yul\":6441:6546   */\n  sstore\n    /* \"#utility.yul\":6359:6552   */\n  pop\n    /* \"#utility.yul\":6283:6552   */\n  pop\n  pop\n  pop\n  jump\t// out\n    /* \"#utility.yul\":6558:6631   */\ntag_84:\n    /* \"#utility.yul\":6603:6606   */\n  0x00\n    /* \"#utility.yul\":6558:6631   */\n  swap1\n  jump\t// out\n    /* \"#utility.yul\":6637:6826   */\ntag_85:\n    /* \"#utility.yul\":6714:6746   */\n  tag_180\n  tag_84\n  jump\t// in\ntag_180:\n    /* \"#utility.yul\":6755:6820   */\n  tag_181\n    /* \"#utility.yul\":6813:6819   */\n  dup2\n    /* \"#utility.yul\":6805:6811   */\n  dup5\n    /* \"#utility.yul\":6799:6803   */\n  dup5\n    /* \"#utility.yul\":6755:6820   */\n  tag_83\n  jump\t// in\ntag_181:\n    /* \"#utility.yul\":6690:6826   */\n  pop\n    /* \"#utility.yul\":6637:6826   */\n  pop\n  pop\n  jump\t// out\n    /* \"#utility.yul\":6832:7018   */\ntag_86:\n    /* \"#utility.yul\":6892:7012   */\ntag_183:\n    /* \"#utility.yul\":6909:6912   */\n  dup2\n    /* \"#utility.yul\":6902:6907   */\n  dup2\n    /* \"#utility.yul\":6899:6913   */\n  lt\n    /* \"#utility.yul\":6892:7012   */\n  iszero\n  tag_185\n  jumpi\n    /* \"#utility.yul\":6963:7002   */\n  tag_186\n    /* \"#utility.yul\":7000:7001   */\n  0x00\n    /* \"#utility.yul\":6993:6998   */\n  dup3\n    /* \"#utility.yul\":6963:7002   */\n  tag_85\n  jump\t// in\ntag_186:\n    /* \"#utility.yul\":6936:6937   */\n  0x01\n    /* \"#utility.yul\":6929:6934   */\n  dup2\n    /* \"#utility.yul\":6925:6938   */\n  add\n    /* \"#utility.yul\":6916:6938   */\n  swap1\n  pop\n    /* \"#utility.yul\":6892:7012   */\n  jump(tag_183)\ntag_185:\n    /* \"#utility.yul\":6832:7018   */\n  pop\n  pop\n  jump\t// out\n    /* \"#utility.yul\":7024:7567   */\ntag_87:\n    /* \"#utility.yul\":7125:7127   */\n  0x1f\n    /* \"#utility.yul\":7120:7123   */\n  dup3\n    /* \"#utility.yul\":7117:7128   */\n  gt\n    /* \"#utility.yul\":7114:7560   */\n  iszero\n  tag_188\n  jumpi\n    /* \"#utility.yul\":7159:7197   */\n  tag_189\n    /* \"#utility.yul\":7191:7196   */\n  dup2\n    /* \"#utility.yul\":7159:7197   */\n  tag_76\n  jump\t// in\ntag_189:\n    /* \"#utility.yul\":7243:7272   */\n  tag_190\n    /* \"#utility.yul\":7261:7271   */\n  dup5\n    /* \"#utility.yul\":7243:7272   */\n  tag_77\n  jump\t// in\ntag_190:\n    /* \"#utility.yul\":7233:7241   */\n  dup2\n    /* \"#utility.yul\":7229:7273   */\n  add\n    /* \"#utility.yul\":7426:7428   */\n  0x20\n    /* \"#utility.yul\":7414:7424   */\n  dup6\n    /* \"#utility.yul\":7411:7429   */\n  lt\n    /* \"#utility.yul\":7408:7457   */\n  iszero\n  tag_191\n  jumpi\n    /* \"#utility.yul\":7447:7455   */\n  dup2\n    /* \"#utility.yul\":7432:7455   */\n  swap1\n  pop\n    /* \"#utility.yul\":7408:7457   */\ntag_191:\n    /* \"#utility.yul\":7470:7550   */\n  tag_192\n    /* \"#utility.yul\":7526:7548   */\n  tag_193\n    /* \"#utility.yul\":7544:7547   */\n  dup6\n    /* \"#utility.yul\":7526:7548   */\n  tag_77\n  jump\t// in\ntag_193:\n    /* \"#utility.yul\":7516:7524   */\n  dup4\n    /* \"#utility.yul\":7512:7549   */\n  add\n    /* \"#utility.yul\":7499:7510   */\n  dup3\n    /* \"#utility.yul\":7470:7550   */\n  tag_86\n  jump\t// in\ntag_192:\n    /* \"#utility.yul\":7129:7560   */\n  pop\n  pop\n    /* \"#utility.yul\":7114:7560   */\ntag_188:\n    /* \"#utility.yul\":7024:7567   */\n  pop\n  pop\n  pop\n  jump\t// out\n    /* \"#utility.yul\":7573:7690   */\ntag_88:\n    /* \"#utility.yul\":7627:7635   */\n  0x00\n    /* \"#utility.yul\":7677:7682   */\n  dup3\n    /* \"#utility.yul\":7671:7675   */\n  dup3\n    /* \"#utility.yul\":7667:7683   */\n  shr\n    /* \"#utility.yul\":7646:7683   */\n  swap1\n  pop\n    /* \"#utility.yul\":7573:7690   */\n  swap3\n  swap2\n  pop\n  pop\n  jump\t// out\n    /* \"#utility.yul\":7696:7865   */\ntag_89:\n    /* \"#utility.yul\":7740:7746   */\n  0x00\n    /* \"#utility.yul\":7773:7824   */\n  tag_196\n    /* \"#utility.yul\":7821:7822   */\n  0x00\n    /* \"#utility.yul\":7817:7823   */\n  not\n    /* \"#utility.yul\":7809:7814   */\n  dup5\n    /* \"#utility.yul\":7806:7807   */\n  0x08\n    /* \"#utility.yul\":7802:7815   */\n  mul\n    /* \"#utility.yul\":7773:7824   */\n  tag_88\n  jump\t// in\ntag_196:\n    /* \"#utility.yul\":7769:7825   */\n  not\n    /* \"#utility.yul\":7854:7858   */\n  dup1\n    /* \"#utility.yul\":7848:7852   */\n  dup4\n    /* \"#utility.yul\":7844:7859   */\n  and\n    /* \"#utility.yul\":7834:7859   */\n  swap2\n  pop\n    /* \"#utility.yul\":7747:7865   */\n  pop\n    /* \"#utility.yul\":7696:7865   */\n  swap3\n  swap2\n  pop\n  pop\n  jump\t// out\n    /* \"#utility.yul\":7870:8165   */\ntag_90:\n    /* \"#utility.yul\":7946:7950   */\n  0x00\n    /* \"#utility.yul\":8092:8121   */\n  tag_198\n    /* \"#utility.yul\":8117:8120   */\n  dup4\n    /* \"#utility.yul\":8111:8115   */\n  dup4\n    /* \"#utility.yul\":8092:8121   */\n  tag_89\n  jump\t// in\ntag_198:\n    /* \"#utility.yul\":8084:8121   */\n  swap2\n  pop\n    /* \"#utility.yul\":8154:8157   */\n  dup3\n    /* \"#utility.yul\":8151:8152   */\n  0x02\n    /* \"#utility.yul\":8147:8158   */\n  mul\n    /* \"#utility.yul\":8141:8145   */\n  dup3\n    /* \"#utility.yul\":8138:8159   */\n  or\n    /* \"#utility.yul\":8130:8159   */\n  swap1\n  pop\n    /* \"#utility.yul\":7870:8165   */\n  swap3\n  swap2\n  pop\n  pop\n  jump\t// out\n    /* \"#utility.yul\":8170:9565   */\ntag_14:\n    /* \"#utility.yul\":8287:8324   */\n  tag_200\n    /* \"#utility.yul\":8320:8323   */\n  dup3\n    /* \"#utility.yul\":8287:8324   */\n  tag_73\n  jump\t// in\ntag_200:\n    /* \"#utility.yul\":8389:8407   */\n  0xffffffffffffffff\n    /* \"#utility.yul\":8381:8387   */\n  dup2\n    /* \"#utility.yul\":8378:8408   */\n  gt\n    /* \"#utility.yul\":8375:8431   */\n  iszero\n  tag_201\n  jumpi\n    /* \"#utility.yul\":8411:8429   */\n  tag_202\n  tag_59\n  jump\t// in\ntag_202:\n    /* \"#utility.yul\":8375:8431   */\ntag_201:\n    /* \"#utility.yul\":8455:8493   */\n  tag_203\n    /* \"#utility.yul\":8487:8491   */\n  dup3\n    /* \"#utility.yul\":8481:8492   */\n  sload\n    /* \"#utility.yul\":8455:8493   */\n  tag_75\n  jump\t// in\ntag_203:\n    /* \"#utility.yul\":8540:8607   */\n  tag_204\n    /* \"#utility.yul\":8600:8606   */\n  dup3\n    /* \"#utility.yul\":8592:8598   */\n  dup3\n    /* \"#utility.yul\":8586:8590   */\n  dup6\n    /* \"#utility.yul\":8540:8607   */\n  tag_87\n  jump\t// in\ntag_204:\n    /* \"#utility.yul\":8634:8635   */\n  0x00\n    /* \"#utility.yul\":8658:8662   */\n  0x20\n    /* \"#utility.yul\":8645:8662   */\n  swap1\n  pop\n    /* \"#utility.yul\":8690:8692   */\n  0x1f\n    /* \"#utility.yul\":8682:8688   */\n  dup4\n    /* \"#utility.yul\":8679:8693   */\n  gt\n    /* \"#utility.yul\":8707:8708   */\n  0x01\n    /* \"#utility.yul\":8702:9320   */\n  dup2\n  eq\n  tag_206\n  jumpi\n    /* \"#utility.yul\":9364:9365   */\n  0x00\n    /* \"#utility.yul\":9381:9387   */\n  dup5\n    /* \"#utility.yul\":9378:9455   */\n  iszero\n  tag_207\n  jumpi\n    /* \"#utility.yul\":9430:9439   */\n  dup3\n    /* \"#utility.yul\":9425:9428   */\n  dup8\n    /* \"#utility.yul\":9421:9440   */\n  add\n    /* \"#utility.yul\":9415:9441   */\n  mload\n    /* \"#utility.yul\":9406:9441   */\n  swap1\n  pop\n    /* \"#utility.yul\":9378:9455   */\ntag_207:\n    /* \"#utility.yul\":9481:9548   */\n  tag_208\n    /* \"#utility.yul\":9541:9547   */\n  dup6\n    /* \"#utility.yul\":9534:9539   */\n  dup3\n    /* \"#utility.yul\":9481:9548   */\n  tag_90\n  jump\t// in\ntag_208:\n    /* \"#utility.yul\":9475:9479   */\n  dup7\n    /* \"#utility.yul\":9468:9549   */\n  sstore\n    /* \"#utility.yul\":9337:9559   */\n  pop\n    /* \"#utility.yul\":8672:9559   */\n  jump(tag_205)\n    /* \"#utility.yul\":8702:9320   */\ntag_206:\n    /* \"#utility.yul\":8754:8758   */\n  0x1f\n    /* \"#utility.yul\":8750:8759   */\n  not\n    /* \"#utility.yul\":8742:8748   */\n  dup5\n    /* \"#utility.yul\":8738:8760   */\n  and\n    /* \"#utility.yul\":8788:8825   */\n  tag_209\n    /* \"#utility.yul\":8820:8824   */\n  dup7\n    /* \"#utility.yul\":8788:8825   */\n  tag_76\n  jump\t// in\ntag_209:\n    /* \"#utility.yul\":8847:8848   */\n  0x00\n    /* \"#utility.yul\":8861:9069   */\ntag_210:\n    /* \"#utility.yul\":8875:8882   */\n  dup3\n    /* \"#utility.yul\":8872:8873   */\n  dup2\n    /* \"#utility.yul\":8869:8883   */\n  lt\n    /* \"#utility.yul\":8861:9069   */\n  iszero\n  tag_212\n  jumpi\n    /* \"#utility.yul\":8954:8963   */\n  dup5\n    /* \"#utility.yul\":8949:8952   */\n  dup10\n    /* \"#utility.yul\":8945:8964   */\n  add\n    /* \"#utility.yul\":8939:8965   */\n  mload\n    /* \"#utility.yul\":8931:8937   */\n  dup3\n    /* \"#utility.yul\":8924:8966   */\n  sstore\n    /* \"#utility.yul\":9005:9006   */\n  0x01\n    /* \"#utility.yul\":8997:9003   */\n  dup3\n    /* \"#utility.yul\":8993:9007   */\n  add\n    /* \"#utility.yul\":8983:9007   */\n  swap2\n  pop\n    /* \"#utility.yul\":9052:9054   */\n  0x20\n    /* \"#utility.yul\":9041:9050   */\n  dup6\n    /* \"#utility.yul\":9037:9055   */\n  add\n    /* \"#utility.yul\":9024:9055   */\n  swap5\n  pop\n    /* \"#utility.yul\":8898:8902   */\n  0x20\n    /* \"#utility.yul\":8895:8896   */\n  dup2\n    /* \"#utility.yul\":8891:8903   */\n  add\n    /* \"#utility.yul\":8886:8903   */\n  swap1\n  pop\n    /* \"#utility.yul\":8861:9069   */\n  jump(tag_210)\ntag_212:\n    /* \"#utility.yul\":9097:9103   */\n  dup7\n    /* \"#utility.yul\":9088:9095   */\n  dup4\n    /* \"#utility.yul\":9085:9104   */\n  lt\n    /* \"#utility.yul\":9082:9261   */\n  iszero\n  tag_213\n  jumpi\n    /* \"#utility.yul\":9155:9164   */\n  dup5\n    /* \"#utility.yul\":9150:9153   */\n  dup10\n    /* \"#utility.yul\":9146:9165   */\n  add\n    /* \"#utility.yul\":9140:9166   */\n  mload\n    /* \"#utility.yul\":9198:9246   */\n  tag_214\n    /* \"#utility.yul\":9240:9244   */\n  0x1f\n    /* \"#utility.yul\":9232:9238   */\n  dup10\n    /* \"#utility.yul\":9228:9245   */\n  and\n    /* \"#utility.yul\":9217:9226   */\n  dup3\n    /* \"#utility.yul\":9198:9246   */\n  tag_89\n  jump\t// in\ntag_214:\n    /* \"#utility.yul\":9190:9196   */\n  dup4\n    /* \"#utility.yul\":9183:9247   */\n  sstore\n    /* \"#utility.yul\":9105:9261   */\n  pop\n    /* \"#utility.yul\":9082:9261   */\ntag_213:\n    /* \"#utility.yul\":9307:9308   */\n  0x01\n    /* \"#utility.yul\":9303:9304   */\n  0x02\n    /* \"#utility.yul\":9295:9301   */\n  dup9\n    /* \"#utility.yul\":9291:9305   */\n  mul\n    /* \"#utility.yul\":9287:9309   */\n  add\n    /* \"#utility.yul\":9281:9285   */\n  dup9\n    /* \"#utility.yul\":9274:9310   */\n  sstore\n    /* \"#utility.yul\":8709:9320   */\n  pop\n  pop\n  pop\n    /* \"#utility.yul\":8672:9559   */\ntag_205:\n  pop\n    /* \"#utility.yul\":8262:9565   */\n  pop\n  pop\n  pop\n    /* \"#utility.yul\":8170:9565   */\n  pop\n  pop\n  jump\t// out\n    /* \"#utility.yul\":9571:9740   */\ntag_91:\n    /* \"#utility.yul\":9655:9666   */\n  0x00\n    /* \"#utility.yul\":9689:9695   */\n  dup3\n    /* \"#utility.yul\":9684:9687   */\n  dup3\n    /* \"#utility.yul\":9677:9696   */\n  mstore\n    /* \"#utility.yul\":9729:9733   */\n  0x20\n    /* \"#utility.yul\":9724:9727   */\n  dup3\n    /* \"#utility.yul\":9720:9734   */\n  add\n    /* \"#utility.yul\":9705:9734   */\n  swap1\n  pop\n    /* \"#utility.yul\":9571:9740   */\n  swap3\n  swap2\n  pop\n  pop\n  jump\t// out\n    /* \"#utility.yul\":9746:9914   */\ntag_92:\n    /* \"#utility.yul\":9886:9906   */\n  0x584170703a206e6f207a65726f206f6d6e690000000000000000000000000000\n    /* \"#utility.yul\":9882:9883   */\n  0x00\n    /* \"#utility.yul\":9874:9880   */\n  dup3\n    /* \"#utility.yul\":9870:9884   */\n  add\n    /* \"#utility.yul\":9863:9907   */\n  mstore\n    /* \"#utility.yul\":9746:9914   */\n  pop\n  jump\t// out\n    /* \"#utility.yul\":9920:10286   */\ntag_93:\n    /* \"#utility.yul\":10062:10065   */\n  0x00\n    /* \"#utility.yul\":10083:10150   */\n  tag_218\n    /* \"#utility.yul\":10147:10149   */\n  0x12\n    /* \"#utility.yul\":10142:10145   */\n  dup4\n    /* \"#utility.yul\":10083:10150   */\n  tag_91\n  jump\t// in\ntag_218:\n    /* \"#utility.yul\":10076:10150   */\n  swap2\n  pop\n    /* \"#utility.yul\":10159:10252   */\n  tag_219\n    /* \"#utility.yul\":10248:10251   */\n  dup3\n    /* \"#utility.yul\":10159:10252   */\n  tag_92\n  jump\t// in\ntag_219:\n    /* \"#utility.yul\":10277:10279   */\n  0x20\n    /* \"#utility.yul\":10272:10275   */\n  dup3\n    /* \"#utility.yul\":10268:10280   */\n  add\n    /* \"#utility.yul\":10261:10280   */\n  swap1\n  pop\n    /* \"#utility.yul\":9920:10286   */\n  swap2\n  swap1\n  pop\n  jump\t// out\n    /* \"#utility.yul\":10292:10711   */\ntag_23:\n    /* \"#utility.yul\":10458:10462   */\n  0x00\n    /* \"#utility.yul\":10496:10498   */\n  0x20\n    /* \"#utility.yul\":10485:10494   */\n  dup3\n    /* \"#utility.yul\":10481:10499   */\n  add\n    /* \"#utility.yul\":10473:10499   */\n  swap1\n  pop\n    /* \"#utility.yul\":10545:10554   */\n  dup2\n    /* \"#utility.yul\":10539:10543   */\n  dup2\n    /* \"#utility.yul\":10535:10555   */\n  sub\n    /* \"#utility.yul\":10531:10532   */\n  0x00\n    /* \"#utility.yul\":10520:10529   */\n  dup4\n    /* \"#utility.yul\":10516:10533   */\n  add\n    /* \"#utility.yul\":10509:10556   */\n  mstore\n    /* \"#utility.yul\":10573:10704   */\n  tag_221\n    /* \"#utility.yul\":10699:10703   */\n  dup2\n    /* \"#utility.yul\":10573:10704   */\n  tag_93\n  jump\t// in\ntag_221:\n    /* \"#utility.yul\":10565:10704   */\n  swap1\n  pop\n    /* \"#utility.yul\":10292:10711   */\n  swap2\n  swap1\n  pop\n  jump\t// out\n    /* \"#utility.yul\":10717:10835   */\ntag_94:\n    /* \"#utility.yul\":10804:10828   */\n  tag_223\n    /* \"#utility.yul\":10822:10827   */\n  dup2\n    /* \"#utility.yul\":10804:10828   */\n  tag_67\n  jump\t// in\ntag_223:\n    /* \"#utility.yul\":10799:10802   */\n  dup3\n    /* \"#utility.yul\":10792:10829   */\n  mstore\n    /* \"#utility.yul\":10717:10835   */\n  pop\n  pop\n  jump\t// out\n    /* \"#utility.yul\":10841:11063   */\ntag_25:\n    /* \"#utility.yul\":10934:10938   */\n  0x00\n    /* \"#utility.yul\":10972:10974   */\n  0x20\n    /* \"#utility.yul\":10961:10970   */\n  dup3\n    /* \"#utility.yul\":10957:10975   */\n  add\n    /* \"#utility.yul\":10949:10975   */\n  swap1\n  pop\n    /* \"#utility.yul\":10985:11056   */\n  tag_225\n    /* \"#utility.yul\":11053:11054   */\n  0x00\n    /* \"#utility.yul\":11042:11051   */\n  dup4\n    /* \"#utility.yul\":11038:11055   */\n  add\n    /* \"#utility.yul\":11029:11035   */\n  dup5\n    /* \"#utility.yul\":10985:11056   */\n  tag_94\n  jump\t// in\ntag_225:\n    /* \"#utility.yul\":10841:11063   */\n  swap3\n  swap2\n  pop\n  pop\n  jump\t// out\n    /* \"#utility.yul\":11069:11243   */\ntag_95:\n    /* \"#utility.yul\":11209:11235   */\n  0x584170703a20696e76616c696420636f6e66206c6576656c0000000000000000\n    /* \"#utility.yul\":11205:11206   */\n  0x00\n    /* \"#utility.yul\":11197:11203   */\n  dup3\n    /* \"#utility.yul\":11193:11207   */\n  add\n    /* \"#utility.yul\":11186:11236   */\n  mstore\n    /* \"#utility.yul\":11069:11243   */\n  pop\n  jump\t// out\n    /* \"#utility.yul\":11249:11615   */\ntag_96:\n    /* \"#utility.yul\":11391:11394   */\n  0x00\n    /* \"#utility.yul\":11412:11479   */\n  tag_228\n    /* \"#utility.yul\":11476:11478   */\n  0x18\n    /* \"#utility.yul\":11471:11474   */\n  dup4\n    /* \"#utility.yul\":11412:11479   */\n  tag_91\n  jump\t// in\ntag_228:\n    /* \"#utility.yul\":11405:11479   */\n  swap2\n  pop\n    /* \"#utility.yul\":11488:11581   */\n  tag_229\n    /* \"#utility.yul\":11577:11580   */\n  dup3\n    /* \"#utility.yul\":11488:11581   */\n  tag_95\n  jump\t// in\ntag_229:\n    /* \"#utility.yul\":11606:11608   */\n  0x20\n    /* \"#utility.yul\":11601:11604   */\n  dup3\n    /* \"#utility.yul\":11597:11609   */\n  add\n    /* \"#utility.yul\":11590:11609   */\n  swap1\n  pop\n    /* \"#utility.yul\":11249:11615   */\n  swap2\n  swap1\n  pop\n  jump\t// out\n    /* \"#utility.yul\":11621:12040   */\ntag_31:\n    /* \"#utility.yul\":11787:11791   */\n  0x00\n    /* \"#utility.yul\":11825:11827   */\n  0x20\n    /* \"#utility.yul\":11814:11823   */\n  dup3\n    /* \"#utility.yul\":11810:11828   */\n  add\n    /* \"#utility.yul\":11802:11828   */\n  swap1\n  pop\n    /* \"#utility.yul\":11874:11883   */\n  dup2\n    /* \"#utility.yul\":11868:11872   */\n  dup2\n    /* \"#utility.yul\":11864:11884   */\n  sub\n    /* \"#utility.yul\":11860:11861   */\n  0x00\n    /* \"#utility.yul\":11849:11858   */\n  dup4\n    /* \"#utility.yul\":11845:11862   */\n  add\n    /* \"#utility.yul\":11838:11885   */\n  mstore\n    /* \"#utility.yul\":11902:12033   */\n  tag_231\n    /* \"#utility.yul\":12028:12032   */\n  dup2\n    /* \"#utility.yul\":11902:12033   */\n  tag_96\n  jump\t// in\ntag_231:\n    /* \"#utility.yul\":11894:12033   */\n  swap1\n  pop\n    /* \"#utility.yul\":11621:12040   */\n  swap2\n  swap1\n  pop\n  jump\t// out\n    /* \"#utility.yul\":12046:12132   */\ntag_97:\n    /* \"#utility.yul\":12081:12088   */\n  0x00\n    /* \"#utility.yul\":12121:12125   */\n  0xff\n    /* \"#utility.yul\":12114:12119   */\n  dup3\n    /* \"#utility.yul\":12110:12126   */\n  and\n    /* \"#utility.yul\":12099:12126   */\n  swap1\n  pop\n    /* \"#utility.yul\":12046:12132   */\n  swap2\n  swap1\n  pop\n  jump\t// out\n    /* \"#utility.yul\":12138:12250   */\ntag_98:\n    /* \"#utility.yul\":12221:12243   */\n  tag_234\n    /* \"#utility.yul\":12237:12242   */\n  dup2\n    /* \"#utility.yul\":12221:12243   */\n  tag_97\n  jump\t// in\ntag_234:\n    /* \"#utility.yul\":12216:12219   */\n  dup3\n    /* \"#utility.yul\":12209:12244   */\n  mstore\n    /* \"#utility.yul\":12138:12250   */\n  pop\n  pop\n  jump\t// out\n    /* \"#utility.yul\":12256:12470   */\ntag_33:\n    /* \"#utility.yul\":12345:12349   */\n  0x00\n    /* \"#utility.yul\":12383:12385   */\n  0x20\n    /* \"#utility.yul\":12372:12381   */\n  dup3\n    /* \"#utility.yul\":12368:12386   */\n  add\n    /* \"#utility.yul\":12360:12386   */\n  swap1\n  pop\n    /* \"#utility.yul\":12396:12463   */\n  tag_236\n    /* \"#utility.yul\":12460:12461   */\n  0x00\n    /* \"#utility.yul\":12449:12458   */\n  dup4\n    /* \"#utility.yul\":12445:12462   */\n  add\n    /* \"#utility.yul\":12436:12442   */\n  dup5\n    /* \"#utility.yul\":12396:12463   */\n  tag_98\n  jump\t// in\ntag_236:\n    /* \"#utility.yul\":12256:12470   */\n  swap3\n  swap2\n  pop\n  pop\n  jump\t// out\n    /* \"#utility.yul\":12476:12656   */\ntag_99:\n    /* \"#utility.yul\":12524:12601   */\n  0x4e487b7100000000000000000000000000000000000000000000000000000000\n    /* \"#utility.yul\":12521:12522   */\n  0x00\n    /* \"#utility.yul\":12514:12602   */\n  mstore\n    /* \"#utility.yul\":12621:12625   */\n  0x11\n    /* \"#utility.yul\":12618:12619   */\n  0x04\n    /* \"#utility.yul\":12611:12626   */\n  mstore\n    /* \"#utility.yul\":12645:12649   */\n  0x24\n    /* \"#utility.yul\":12642:12643   */\n  0x00\n    /* \"#utility.yul\":12635:12650   */\n  revert\n    /* \"#utility.yul\":12662:12853   */\ntag_44:\n    /* \"#utility.yul\":12702:12705   */\n  0x00\n    /* \"#utility.yul\":12721:12741   */\n  tag_239\n    /* \"#utility.yul\":12739:12740   */\n  dup3\n    /* \"#utility.yul\":12721:12741   */\n  tag_70\n  jump\t// in\ntag_239:\n    /* \"#utility.yul\":12716:12741   */\n  swap2\n  pop\n    /* \"#utility.yul\":12755:12775   */\n  tag_240\n    /* \"#utility.yul\":12773:12774   */\n  dup4\n    /* \"#utility.yul\":12755:12775   */\n  tag_70\n  jump\t// in\ntag_240:\n    /* \"#utility.yul\":12750:12775   */\n  swap3\n  pop\n    /* \"#utility.yul\":12798:12799   */\n  dup3\n    /* \"#utility.yul\":12795:12796   */\n  dup3\n    /* \"#utility.yul\":12791:12800   */\n  add\n    /* \"#utility.yul\":12784:12800   */\n  swap1\n  pop\n    /* \"#utility.yul\":12819:12822   */\n  dup1\n    /* \"#utility.yul\":12816:12817   */\n  dup3\n    /* \"#utility.yul\":12813:12823   */\n  gt\n    /* \"#utility.yul\":12810:12846   */\n  iszero\n  tag_241\n  jumpi\n    /* \"#utility.yul\":12826:12844   */\n  tag_242\n  tag_99\n  jump\t// in\ntag_242:\n    /* \"#utility.yul\":12810:12846   */\ntag_241:\n    /* \"#utility.yul\":12662:12853   */\n  swap3\n  swap2\n  pop\n  pop\n  jump\t// out\n    /* \"#utility.yul\":12859:12977   */\ntag_100:\n    /* \"#utility.yul\":12946:12970   */\n  tag_244\n    /* \"#utility.yul\":12964:12969   */\n  dup2\n    /* \"#utility.yul\":12946:12970   */\n  tag_70\n  jump\t// in\ntag_244:\n    /* \"#utility.yul\":12941:12944   */\n  dup3\n    /* \"#utility.yul\":12934:12971   */\n  mstore\n    /* \"#utility.yul\":12859:12977   */\n  pop\n  pop\n  jump\t// out\n    /* \"#utility.yul\":12983:13425   */\ntag_48:\n    /* \"#utility.yul\":13132:13136   */\n  0x00\n    /* \"#utility.yul\":13170:13172   */\n  0x60\n    /* \"#utility.yul\":13159:13168   */\n  dup3\n    /* \"#utility.yul\":13155:13173   */\n  add\n    /* \"#utility.yul\":13147:13173   */\n  swap1\n  pop\n    /* \"#utility.yul\":13183:13254   */\n  tag_246\n    /* \"#utility.yul\":13251:13252   */\n  0x00\n    /* \"#utility.yul\":13240:13249   */\n  dup4\n    /* \"#utility.yul\":13236:13253   */\n  add\n    /* \"#utility.yul\":13227:13233   */\n  dup7\n    /* \"#utility.yul\":13183:13254   */\n  tag_94\n  jump\t// in\ntag_246:\n    /* \"#utility.yul\":13264:13336   */\n  tag_247\n    /* \"#utility.yul\":13332:13334   */\n  0x20\n    /* \"#utility.yul\":13321:13330   */\n  dup4\n    /* \"#utility.yul\":13317:13335   */\n  add\n    /* \"#utility.yul\":13308:13314   */\n  dup6\n    /* \"#utility.yul\":13264:13336   */\n  tag_100\n  jump\t// in\ntag_247:\n    /* \"#utility.yul\":13346:13418   */\n  tag_248\n    /* \"#utility.yul\":13414:13416   */\n  0x40\n    /* \"#utility.yul\":13403:13412   */\n  dup4\n    /* \"#utility.yul\":13399:13417   */\n  add\n    /* \"#utility.yul\":13390:13396   */\n  dup5\n    /* \"#utility.yul\":13346:13418   */\n  tag_100\n  jump\t// in\ntag_248:\n    /* \"#utility.yul\":12983:13425   */\n  swap5\n  swap4\n  pop\n  pop\n  pop\n  pop\n  jump\t// out\n    /* \"#utility.yul\":13431:13653   */\ntag_52:\n    /* \"#utility.yul\":13524:13528   */\n  0x00\n    /* \"#utility.yul\":13562:13564   */\n  0x20\n    /* \"#utility.yul\":13551:13560   */\n  dup3\n    /* \"#utility.yul\":13547:13565   */\n  add\n    /* \"#utility.yul\":13539:13565   */\n  swap1\n  pop\n    /* \"#utility.yul\":13575:13646   */\n  tag_250\n    /* \"#utility.yul\":13643:13644   */\n  0x00\n    /* \"#utility.yul\":13632:13641   */\n  dup4\n    /* \"#utility.yul\":13628:13645   */\n  add\n    /* \"#utility.yul\":13619:13625   */\n  dup5\n    /* \"#utility.yul\":13575:13646   */\n  tag_100\n  jump\t// in\ntag_250:\n    /* \"#utility.yul\":13431:13653   */\n  swap3\n  swap2\n  pop\n  pop\n  jump\t// out\n    /* \"src/wstf token launch/contracts/token/ERC20/implementation.sol\":128:984  contract MyOmniToken is OmniERC20 {... */\ntag_19:\n  dataSize(sub_0)\n  dup1\n  dataOffset(sub_0)\n  0x00\n  codecopy\n  0x00\n  return\nstop\n\nsub_0: assembly {\n        /* \"src/wstf token launch/contracts/token/ERC20/implementation.sol\":128:984  contract MyOmniToken is OmniERC20 {... */\n      mstore(0x40, 0x80)\n      jumpi(tag_1, lt(calldatasize, 0x04))\n      shr(0xe0, calldataload(0x00))\n      dup1\n      0x4a536a06\n      gt\n      tag_16\n      jumpi\n      dup1\n      0x95d89b41\n      gt\n      tag_17\n      jumpi\n      dup1\n      0x95d89b41\n      eq\n      tag_12\n      jumpi\n      dup1\n      0xa9059cbb\n      eq\n      tag_13\n      jumpi\n      dup1\n      0xd15dcd62\n      eq\n      tag_14\n      jumpi\n      dup1\n      0xdd62ed3e\n      eq\n      tag_15\n      jumpi\n      jump(tag_1)\n    tag_17:\n      dup1\n      0x4a536a06\n      eq\n      tag_9\n      jumpi\n      dup1\n      0x70a08231\n      eq\n      tag_10\n      jumpi\n      dup1\n      0x74eeb847\n      eq\n      tag_11\n      jumpi\n      jump(tag_1)\n    tag_16:\n      dup1\n      0x23b872dd\n      gt\n      tag_18\n      jumpi\n      dup1\n      0x23b872dd\n      eq\n      tag_5\n      jumpi\n      dup1\n      0x313ce567\n      eq\n      tag_6\n      jumpi\n      dup1\n      0x39acf9f1\n      eq\n      tag_7\n      jumpi\n      dup1\n      0x40c10f19\n      eq\n      tag_8\n      jumpi\n      jump(tag_1)\n    tag_18:\n      dup1\n      0x06fdde03\n      eq\n      tag_2\n      jumpi\n      dup1\n      0x095ea7b3\n      eq\n      tag_3\n      jumpi\n      dup1\n      0x18160ddd\n      eq\n      tag_4\n      jumpi\n    tag_1:\n      0x00\n      dup1\n      revert\n        /* \"src/wstf token launch/contracts/token/ERC20/OmniERC20.sol\":948:1046  function name() public view virtual override returns (string memory) {... */\n    tag_2:\n      callvalue\n      dup1\n      iszero\n      tag_19\n      jumpi\n      0x00\n      dup1\n      revert\n    tag_19:\n      pop\n      tag_20\n      tag_21\n      jump\t// in\n    tag_20:\n      mload(0x40)\n      tag_22\n      swap2\n      swap1\n      tag_23\n      jump\t// in\n    tag_22:\n      mload(0x40)\n      dup1\n      swap2\n      sub\n      swap1\n      return\n        /* \"src/wstf token launch/contracts/token/ERC20/OmniERC20.sol\":1656:1851  function approve(address spender, uint256 value) public virtual override returns (bool) {... */\n    tag_3:\n      callvalue\n      dup1\n      iszero\n      tag_24\n      jumpi\n      0x00\n      dup1\n      revert\n    tag_24:\n      pop\n      tag_25\n      0x04\n      dup1\n      calldatasize\n      sub\n      dup2\n      add\n      swap1\n      tag_26\n      swap2\n      swap1\n      tag_27\n      jump\t// in\n    tag_26:\n      tag_28\n      jump\t// in\n    tag_25:\n      mload(0x40)\n      tag_29\n      swap2\n      swap1\n      tag_30\n      jump\t// in\n    tag_29:\n      mload(0x40)\n      dup1\n      swap2\n      sub\n      swap1\n      return\n        /* \"src/wstf token launch/contracts/token/ERC20/OmniERC20.sol\":1257:1363  function totalSupply() public view virtual override returns (uint256) {... */\n    tag_4:\n      callvalue\n      dup1\n      iszero\n      tag_31\n      jumpi\n      0x00\n      dup1\n      revert\n    tag_31:\n      pop\n      tag_32\n      tag_33\n      jump\t// in\n    tag_32:\n      mload(0x40)\n      tag_34\n      swap2\n      swap1\n      tag_35\n      jump\t// in\n    tag_34:\n      mload(0x40)\n      dup1\n      swap2\n      sub\n      swap1\n      return\n        /* \"src/wstf token launch/contracts/token/ERC20/OmniERC20.sol\":1857:2110  function transferFrom(address from, address to, uint256 value) public virtual override returns (bool) {... */\n    tag_5:\n      callvalue\n      dup1\n      iszero\n      tag_36\n      jumpi\n      0x00\n      dup1\n      revert\n    tag_36:\n      pop\n      tag_37\n      0x04\n      dup1\n      calldatasize\n      sub\n      dup2\n      add\n      swap1\n      tag_38\n      swap2\n      swap1\n      tag_39\n      jump\t// in\n    tag_38:\n      tag_40\n      jump\t// in\n    tag_37:\n      mload(0x40)\n      tag_41\n      swap2\n      swap1\n      tag_30\n      jump\t// in\n    tag_41:\n      mload(0x40)\n      dup1\n      swap2\n      sub\n      swap1\n      return\n        /* \"src/wstf token launch/contracts/token/ERC20/OmniERC20.sol\":1160:1251  function decimals() public view virtual override returns (uint8) {... */\n    tag_6:\n      callvalue\n      dup1\n      iszero\n      tag_42\n      jumpi\n      0x00\n      dup1\n      revert\n    tag_42:\n      pop\n      tag_43\n      tag_44\n      jump\t// in\n    tag_43:\n      mload(0x40)\n      tag_45\n      swap2\n      swap1\n      tag_46\n      jump\t// in\n    tag_45:\n      mload(0x40)\n      dup1\n      swap2\n      sub\n      swap1\n      return\n        /* \"lib/omni/contracts/core/src/pkg/XAppBase.sol\":680:703  IOmniPortal public omni */\n    tag_7:\n      callvalue\n      dup1\n      iszero\n      tag_47\n      jumpi\n      0x00\n      dup1\n      revert\n    tag_47:\n      pop\n      tag_48\n      tag_49\n      jump\t// in\n    tag_48:\n      mload(0x40)\n      tag_50\n      swap2\n      swap1\n      tag_51\n      jump\t// in\n    tag_50:\n      mload(0x40)\n      dup1\n      swap2\n      sub\n      swap1\n      return\n        /* \"src/wstf token launch/contracts/token/ERC20/implementation.sol\":577:738  function mint(address account, uint256 value) public {... */\n    tag_8:\n      callvalue\n      dup1\n      iszero\n      tag_52\n      jumpi\n      0x00\n      dup1\n      revert\n    tag_52:\n      pop\n      tag_53\n      0x04\n      dup1\n      calldatasize\n      sub\n      dup2\n      add\n      swap1\n      tag_54\n      swap2\n      swap1\n      tag_27\n      jump\t// in\n    tag_54:\n      tag_55\n      jump\t// in\n    tag_53:\n      stop\n        /* \"src/wstf token launch/contracts/token/ERC20/OmniERC20.sol\":2759:2963  function receiveTransfer(address from, address to, uint256 value) external xrecv {... */\n    tag_9:\n      callvalue\n      dup1\n      iszero\n      tag_56\n      jumpi\n      0x00\n      dup1\n      revert\n    tag_56:\n      pop\n      tag_57\n      0x04\n      dup1\n      calldatasize\n      sub\n      dup2\n      add\n      swap1\n      tag_58\n      swap2\n      swap1\n      tag_39\n      jump\t// in\n    tag_58:\n      tag_59\n      jump\t// in\n    tag_57:\n      stop\n        /* \"src/wstf token launch/contracts/token/ERC20/OmniERC20.sol\":1369:1494  function balanceOf(address account) public view virtual override returns (uint256) {... */\n    tag_10:\n      callvalue\n      dup1\n      iszero\n      tag_60\n      jumpi\n      0x00\n      dup1\n      revert\n    tag_60:\n      pop\n      tag_61\n      0x04\n      dup1\n      calldatasize\n      sub\n      dup2\n      add\n      swap1\n      tag_62\n      swap2\n      swap1\n      tag_63\n      jump\t// in\n    tag_62:\n      tag_64\n      jump\t// in\n    tag_61:\n      mload(0x40)\n      tag_65\n      swap2\n      swap1\n      tag_35\n      jump\t// in\n    tag_65:\n      mload(0x40)\n      dup1\n      swap2\n      sub\n      swap1\n      return\n        /* \"lib/omni/contracts/core/src/pkg/XAppBase.sol\":779:808  uint8 public defaultConfLevel */\n    tag_11:\n      callvalue\n      dup1\n      iszero\n      tag_66\n      jumpi\n      0x00\n      dup1\n      revert\n    tag_66:\n      pop\n      tag_67\n      tag_68\n      jump\t// in\n    tag_67:\n      mload(0x40)\n      tag_69\n      swap2\n      swap1\n      tag_46\n      jump\t// in\n    tag_69:\n      mload(0x40)\n      dup1\n      swap2\n      sub\n      swap1\n      return\n        /* \"src/wstf token launch/contracts/token/ERC20/OmniERC20.sol\":1052:1154  function symbol() public view virtual override returns (string memory) {... */\n    tag_12:\n      callvalue\n      dup1\n      iszero\n      tag_70\n      jumpi\n      0x00\n      dup1\n      revert\n    tag_70:\n      pop\n      tag_71\n      tag_72\n      jump\t// in\n    tag_71:\n      mload(0x40)\n      tag_73\n      swap2\n      swap1\n      tag_23\n      jump\t// in\n    tag_73:\n      mload(0x40)\n      dup1\n      swap2\n      sub\n      swap1\n      return\n        /* \"src/wstf token launch/contracts/token/ERC20/OmniERC20.sol\":2117:2304  function transfer(address to, uint256 value) public virtual override returns (bool) {... */\n    tag_13:\n      callvalue\n      dup1\n      iszero\n      tag_74\n      jumpi\n      0x00\n      dup1\n      revert\n    tag_74:\n      pop\n      tag_75\n      0x04\n      dup1\n      calldatasize\n      sub\n      dup2\n      add\n      swap1\n      tag_76\n      swap2\n      swap1\n      tag_27\n      jump\t// in\n    tag_76:\n      tag_77\n      jump\t// in\n    tag_75:\n      mload(0x40)\n      tag_78\n      swap2\n      swap1\n      tag_30\n      jump\t// in\n    tag_78:\n      mload(0x40)\n      dup1\n      swap2\n      sub\n      swap1\n      return\n        /* \"src/wstf token launch/contracts/token/ERC20/OmniERC20.sol\":2309:2753  function transfer(uint64 destChain, address to, uint256 value) external payable {... */\n    tag_14:\n      tag_79\n      0x04\n      dup1\n      calldatasize\n      sub\n      dup2\n      add\n      swap1\n      tag_80\n      swap2\n      swap1\n      tag_81\n      jump\t// in\n    tag_80:\n      tag_82\n      jump\t// in\n    tag_79:\n      stop\n        /* \"src/wstf token launch/contracts/token/ERC20/OmniERC20.sol\":1501:1650  function allowance(address owner, address spender) public view virtual override returns (uint256) {... */\n    tag_15:\n      callvalue\n      dup1\n      iszero\n      tag_83\n      jumpi\n      0x00\n      dup1\n      revert\n    tag_83:\n      pop\n      tag_84\n      0x04\n      dup1\n      calldatasize\n      sub\n      dup2\n      add\n      swap1\n      tag_85\n      swap2\n      swap1\n      tag_86\n      jump\t// in\n    tag_85:\n      tag_87\n      jump\t// in\n    tag_84:\n      mload(0x40)\n      tag_88\n      swap2\n      swap1\n      tag_35\n      jump\t// in\n    tag_88:\n      mload(0x40)\n      dup1\n      swap2\n      sub\n      swap1\n      return\n        /* \"src/wstf token launch/contracts/token/ERC20/OmniERC20.sol\":948:1046  function name() public view virtual override returns (string memory) {... */\n    tag_21:\n        /* \"src/wstf token launch/contracts/token/ERC20/OmniERC20.sol\":1002:1015  string memory */\n      0x60\n        /* \"src/wstf token launch/contracts/token/ERC20/OmniERC20.sol\":1034:1039  _name */\n      0x05\n        /* \"src/wstf token launch/contracts/token/ERC20/OmniERC20.sol\":1027:1039  return _name */\n      dup1\n      sload\n      tag_90\n      swap1\n      tag_91\n      jump\t// in\n    tag_90:\n      dup1\n      0x1f\n      add\n      0x20\n      dup1\n      swap2\n      div\n      mul\n      0x20\n      add\n      mload(0x40)\n      swap1\n      dup2\n      add\n      0x40\n      mstore\n      dup1\n      swap3\n      swap2\n      swap1\n      dup2\n      dup2\n      mstore\n      0x20\n      add\n      dup3\n      dup1\n      sload\n      tag_92\n      swap1\n      tag_91\n      jump\t// in\n    tag_92:\n      dup1\n      iszero\n      tag_93\n      jumpi\n      dup1\n      0x1f\n      lt\n      tag_94\n      jumpi\n      0x0100\n      dup1\n      dup4\n      sload\n      div\n      mul\n      dup4\n      mstore\n      swap2\n      0x20\n      add\n      swap2\n      jump(tag_93)\n    tag_94:\n      dup3\n      add\n      swap2\n      swap1\n      0x00\n      mstore\n      keccak256(0x00, 0x20)\n      swap1\n    tag_95:\n      dup2\n      sload\n      dup2\n      mstore\n      swap1\n      0x01\n      add\n      swap1\n      0x20\n      add\n      dup1\n      dup4\n      gt\n      tag_95\n      jumpi\n      dup3\n      swap1\n      sub\n      0x1f\n      and\n      dup3\n      add\n      swap2\n    tag_93:\n      pop\n      pop\n      pop\n      pop\n      pop\n      swap1\n      pop\n        /* \"src/wstf token launch/contracts/token/ERC20/OmniERC20.sol\":948:1046  function name() public view virtual override returns (string memory) {... */\n      swap1\n      jump\t// out\n        /* \"src/wstf token launch/contracts/token/ERC20/OmniERC20.sol\":1656:1851  function approve(address spender, uint256 value) public virtual override returns (bool) {... */\n    tag_28:\n        /* \"src/wstf token launch/contracts/token/ERC20/OmniERC20.sol\":1738:1742  bool */\n      0x00\n        /* \"src/wstf token launch/contracts/token/ERC20/OmniERC20.sol\":1754:1767  address owner */\n      dup1\n        /* \"src/wstf token launch/contracts/token/ERC20/OmniERC20.sol\":1770:1782  _msgSender() */\n      tag_97\n        /* \"src/wstf token launch/contracts/token/ERC20/OmniERC20.sol\":1770:1780  _msgSender */\n      tag_98\n        /* \"src/wstf token launch/contracts/token/ERC20/OmniERC20.sol\":1770:1782  _msgSender() */\n      jump\t// in\n    tag_97:\n        /* \"src/wstf token launch/contracts/token/ERC20/OmniERC20.sol\":1754:1782  address owner = _msgSender() */\n      swap1\n      pop\n        /* \"src/wstf token launch/contracts/token/ERC20/OmniERC20.sol\":1792:1823  _approve(owner, spender, value) */\n      tag_99\n        /* \"src/wstf token launch/contracts/token/ERC20/OmniERC20.sol\":1801:1806  owner */\n      dup2\n        /* \"src/wstf token launch/contracts/token/ERC20/OmniERC20.sol\":1808:1815  spender */\n      dup6\n        /* \"src/wstf token launch/contracts/token/ERC20/OmniERC20.sol\":1817:1822  value */\n      dup6\n        /* \"src/wstf token launch/contracts/token/ERC20/OmniERC20.sol\":1792:1800  _approve */\n      tag_100\n        /* \"src/wstf token launch/contracts/token/ERC20/OmniERC20.sol\":1792:1823  _approve(owner, spender, value) */\n      jump\t// in\n    tag_99:\n        /* \"src/wstf token launch/contracts/token/ERC20/OmniERC20.sol\":1840:1844  true */\n      0x01\n        /* \"src/wstf token launch/contracts/token/ERC20/OmniERC20.sol\":1833:1844  return true */\n      swap2\n      pop\n      pop\n        /* \"src/wstf token launch/contracts/token/ERC20/OmniERC20.sol\":1656:1851  function approve(address spender, uint256 value) public virtual override returns (bool) {... */\n      swap3\n      swap2\n      pop\n      pop\n      jump\t// out\n        /* \"src/wstf token launch/contracts/token/ERC20/OmniERC20.sol\":1257:1363  function totalSupply() public view virtual override returns (uint256) {... */\n    tag_33:\n        /* \"src/wstf token launch/contracts/token/ERC20/OmniERC20.sol\":1318:1325  uint256 */\n      0x00\n        /* \"src/wstf token launch/contracts/token/ERC20/OmniERC20.sol\":1344:1356  _totalSupply */\n      sload(0x04)\n        /* \"src/wstf token launch/contracts/token/ERC20/OmniERC20.sol\":1337:1356  return _totalSupply */\n      swap1\n      pop\n        /* \"src/wstf token launch/contracts/token/ERC20/OmniERC20.sol\":1257:1363  function totalSupply() public view virtual override returns (uint256) {... */\n      swap1\n      jump\t// out\n        /* \"src/wstf token launch/contracts/token/ERC20/OmniERC20.sol\":1857:2110  function transferFrom(address from, address to, uint256 value) public virtual override returns (bool) {... */\n    tag_40:\n        /* \"src/wstf token launch/contracts/token/ERC20/OmniERC20.sol\":1953:1957  bool */\n      0x00\n        /* \"src/wstf token launch/contracts/token/ERC20/OmniERC20.sol\":1969:1984  address spender */\n      dup1\n        /* \"src/wstf token launch/contracts/token/ERC20/OmniERC20.sol\":1987:1999  _msgSender() */\n      tag_103\n        /* \"src/wstf token launch/contracts/token/ERC20/OmniERC20.sol\":1987:1997  _msgSender */\n      tag_98\n        /* \"src/wstf token launch/contracts/token/ERC20/OmniERC20.sol\":1987:1999  _msgSender() */\n      jump\t// in\n    tag_103:\n        /* \"src/wstf token launch/contracts/token/ERC20/OmniERC20.sol\":1969:1999  address spender = _msgSender() */\n      swap1\n      pop\n        /* \"src/wstf token launch/contracts/token/ERC20/OmniERC20.sol\":2009:2046  _spendAllowance(from, spender, value) */\n      tag_104\n        /* \"src/wstf token launch/contracts/token/ERC20/OmniERC20.sol\":2025:2029  from */\n      dup6\n        /* \"src/wstf token launch/contracts/token/ERC20/OmniERC20.sol\":2031:2038  spender */\n      dup3\n        /* \"src/wstf token launch/contracts/token/ERC20/OmniERC20.sol\":2040:2045  value */\n      dup6\n        /* \"src/wstf token launch/contracts/token/ERC20/OmniERC20.sol\":2009:2024  _spendAllowance */\n      tag_105\n        /* \"src/wstf token launch/contracts/token/ERC20/OmniERC20.sol\":2009:2046  _spendAllowance(from, spender, value) */\n      jump\t// in\n    tag_104:\n        /* \"src/wstf token launch/contracts/token/ERC20/OmniERC20.sol\":2056:2082  _transfer(from, to, value) */\n      tag_106\n        /* \"src/wstf token launch/contracts/token/ERC20/OmniERC20.sol\":2066:2070  from */\n      dup6\n        /* \"src/wstf token launch/contracts/token/ERC20/OmniERC20.sol\":2072:2074  to */\n      dup6\n        /* \"src/wstf token launch/contracts/token/ERC20/OmniERC20.sol\":2076:2081  value */\n      dup6\n        /* \"src/wstf token launch/contracts/token/ERC20/OmniERC20.sol\":2056:2065  _transfer */\n      tag_107\n        /* \"src/wstf token launch/contracts/token/ERC20/OmniERC20.sol\":2056:2082  _transfer(from, to, value) */\n      jump\t// in\n    tag_106:\n        /* \"src/wstf token launch/contracts/token/ERC20/OmniERC20.sol\":2099:2103  true */\n      0x01\n        /* \"src/wstf token launch/contracts/token/ERC20/OmniERC20.sol\":2092:2103  return true */\n      swap2\n      pop\n      pop\n        /* \"src/wstf token launch/contracts/token/ERC20/OmniERC20.sol\":1857:2110  function transferFrom(address from, address to, uint256 value) public virtual override returns (bool) {... */\n      swap4\n      swap3\n      pop\n      pop\n      pop\n      jump\t// out\n        /* \"src/wstf token launch/contracts/token/ERC20/OmniERC20.sol\":1160:1251  function decimals() public view virtual override returns (uint8) {... */\n    tag_44:\n        /* \"src/wstf token launch/contracts/token/ERC20/OmniERC20.sol\":1218:1223  uint8 */\n      0x00\n        /* \"src/wstf token launch/contracts/token/ERC20/OmniERC20.sol\":1242:1244  18 */\n      0x12\n        /* \"src/wstf token launch/contracts/token/ERC20/OmniERC20.sol\":1235:1244  return 18 */\n      swap1\n      pop\n        /* \"src/wstf token launch/contracts/token/ERC20/OmniERC20.sol\":1160:1251  function decimals() public view virtual override returns (uint8) {... */\n      swap1\n      jump\t// out\n        /* \"lib/omni/contracts/core/src/pkg/XAppBase.sol\":680:703  IOmniPortal public omni */\n    tag_49:\n      0x00\n      dup1\n      sload\n      swap1\n      0x0100\n      exp\n      swap1\n      div\n      0xffffffffffffffffffffffffffffffffffffffff\n      and\n      dup2\n      jump\t// out\n        /* \"src/wstf token launch/contracts/token/ERC20/implementation.sol\":577:738  function mint(address account, uint256 value) public {... */\n    tag_55:\n        /* \"src/wstf token launch/contracts/token/ERC20/implementation.sol\":710:731  _mint(account, value) */\n      tag_110\n        /* \"src/wstf token launch/contracts/token/ERC20/implementation.sol\":716:723  account */\n      dup3\n        /* \"src/wstf token launch/contracts/token/ERC20/implementation.sol\":725:730  value */\n      dup3\n        /* \"src/wstf token launch/contracts/token/ERC20/implementation.sol\":710:715  _mint */\n      tag_111\n        /* \"src/wstf token launch/contracts/token/ERC20/implementation.sol\":710:731  _mint(account, value) */\n      jump\t// in\n    tag_110:\n        /* \"src/wstf token launch/contracts/token/ERC20/implementation.sol\":577:738  function mint(address account, uint256 value) public {... */\n      pop\n      pop\n      jump\t// out\n        /* \"src/wstf token launch/contracts/token/ERC20/OmniERC20.sol\":2759:2963  function receiveTransfer(address from, address to, uint256 value) external xrecv {... */\n    tag_59:\n        /* \"lib/omni/contracts/core/src/pkg/XAppBase.sol\":1058:1062  omni */\n      0x00\n      dup1\n      sload\n      swap1\n      0x0100\n      exp\n      swap1\n      div\n      0xffffffffffffffffffffffffffffffffffffffff\n      and\n        /* \"lib/omni/contracts/core/src/pkg/XAppBase.sol\":1058:1067  omni.xmsg */\n      0xffffffffffffffffffffffffffffffffffffffff\n      and\n      0x2f32700e\n        /* \"lib/omni/contracts/core/src/pkg/XAppBase.sol\":1058:1069  omni.xmsg() */\n      mload(0x40)\n      dup2\n      0xffffffff\n      and\n      0xe0\n      shl\n      dup2\n      mstore\n      0x04\n      add\n      0x40\n      dup1\n      mload\n      dup1\n      dup4\n      sub\n      dup2\n      dup7\n      gas\n      staticcall\n      iszero\n      dup1\n      iszero\n      tag_114\n      jumpi\n      returndatasize\n      0x00\n      dup1\n      returndatacopy\n      revert(0x00, returndatasize)\n    tag_114:\n      pop\n      pop\n      pop\n      pop\n      mload(0x40)\n      returndatasize\n      not(0x1f)\n      0x1f\n      dup3\n      add\n      and\n      dup3\n      add\n      dup1\n      0x40\n      mstore\n      pop\n      dup2\n      add\n      swap1\n      tag_115\n      swap2\n      swap1\n      tag_116\n      jump\t// in\n    tag_115:\n        /* \"lib/omni/contracts/core/src/pkg/XAppBase.sol\":1051:1055  xmsg */\n      0x01\n        /* \"lib/omni/contracts/core/src/pkg/XAppBase.sol\":1051:1069  xmsg = omni.xmsg() */\n      0x00\n      dup3\n      add\n      mload\n      dup2\n      0x00\n      add\n      exp(0x0100, 0x00)\n      dup2\n      sload\n      dup2\n      0xffffffffffffffff\n      mul\n      not\n      and\n      swap1\n      dup4\n      0xffffffffffffffff\n      and\n      mul\n      or\n      swap1\n      sstore\n      pop\n      0x20\n      dup3\n      add\n      mload\n      dup2\n      0x00\n      add\n      exp(0x0100, 0x08)\n      dup2\n      sload\n      dup2\n      0xffffffffffffffffffffffffffffffffffffffff\n      mul\n      not\n      and\n      swap1\n      dup4\n      0xffffffffffffffffffffffffffffffffffffffff\n      and\n      mul\n      or\n      swap1\n      sstore\n      pop\n      swap1\n      pop\n      pop\n        /* \"src/wstf token launch/contracts/token/ERC20/OmniERC20.sol\":2859:2868  isXCall() */\n      tag_118\n        /* \"src/wstf token launch/contracts/token/ERC20/OmniERC20.sol\":2859:2866  isXCall */\n      tag_119\n        /* \"src/wstf token launch/contracts/token/ERC20/OmniERC20.sol\":2859:2868  isXCall() */\n      jump\t// in\n    tag_118:\n        /* \"src/wstf token launch/contracts/token/ERC20/OmniERC20.sol\":2851:2921  require(isXCall(), \"OmniERC20: Only callable via cross-chain message\") */\n      tag_120\n      jumpi\n      mload(0x40)\n      0x08c379a000000000000000000000000000000000000000000000000000000000\n      dup2\n      mstore\n      0x04\n      add\n      tag_121\n      swap1\n      tag_122\n      jump\t// in\n    tag_121:\n      mload(0x40)\n      dup1\n      swap2\n      sub\n      swap1\n      revert\n    tag_120:\n        /* \"src/wstf token launch/contracts/token/ERC20/OmniERC20.sol\":2931:2955  _update(from, to, value) */\n      tag_123\n        /* \"src/wstf token launch/contracts/token/ERC20/OmniERC20.sol\":2939:2943  from */\n      dup4\n        /* \"src/wstf token launch/contracts/token/ERC20/OmniERC20.sol\":2945:2947  to */\n      dup4\n        /* \"src/wstf token launch/contracts/token/ERC20/OmniERC20.sol\":2949:2954  value */\n      dup4\n        /* \"src/wstf token launch/contracts/token/ERC20/OmniERC20.sol\":2931:2938  _update */\n      tag_124\n        /* \"src/wstf token launch/contracts/token/ERC20/OmniERC20.sol\":2931:2955  _update(from, to, value) */\n      jump\t// in\n    tag_123:\n        /* \"lib/omni/contracts/core/src/pkg/XAppBase.sol\":1097:1101  xmsg */\n      0x01\n      0x00\n        /* \"lib/omni/contracts/core/src/pkg/XAppBase.sol\":1090:1101  delete xmsg */\n      dup1\n      dup3\n      add\n      exp(0x0100, 0x00)\n      dup2\n      sload\n      swap1\n      0xffffffffffffffff\n      mul\n      not\n      and\n      swap1\n      sstore\n      0x00\n      dup3\n      add\n      exp(0x0100, 0x08)\n      dup2\n      sload\n      swap1\n      0xffffffffffffffffffffffffffffffffffffffff\n      mul\n      not\n      and\n      swap1\n      sstore\n      pop\n      pop\n        /* \"src/wstf token launch/contracts/token/ERC20/OmniERC20.sol\":2759:2963  function receiveTransfer(address from, address to, uint256 value) external xrecv {... */\n      pop\n      pop\n      pop\n      jump\t// out\n        /* \"src/wstf token launch/contracts/token/ERC20/OmniERC20.sol\":1369:1494  function balanceOf(address account) public view virtual override returns (uint256) {... */\n    tag_64:\n        /* \"src/wstf token launch/contracts/token/ERC20/OmniERC20.sol\":1443:1450  uint256 */\n      0x00\n        /* \"src/wstf token launch/contracts/token/ERC20/OmniERC20.sol\":1469:1478  _balances */\n      0x02\n        /* \"src/wstf token launch/contracts/token/ERC20/OmniERC20.sol\":1469:1487  _balances[account] */\n      0x00\n        /* \"src/wstf token launch/contracts/token/ERC20/OmniERC20.sol\":1479:1486  account */\n      dup4\n        /* \"src/wstf token launch/contracts/token/ERC20/OmniERC20.sol\":1469:1487  _balances[account] */\n      0xffffffffffffffffffffffffffffffffffffffff\n      and\n      0xffffffffffffffffffffffffffffffffffffffff\n      and\n      dup2\n      mstore\n      0x20\n      add\n      swap1\n      dup2\n      mstore\n      0x20\n      add\n      0x00\n      keccak256\n      sload\n        /* \"src/wstf token launch/contracts/token/ERC20/OmniERC20.sol\":1462:1487  return _balances[account] */\n      swap1\n      pop\n        /* \"src/wstf token launch/contracts/token/ERC20/OmniERC20.sol\":1369:1494  function balanceOf(address account) public view virtual override returns (uint256) {... */\n      swap2\n      swap1\n      pop\n      jump\t// out\n        /* \"lib/omni/contracts/core/src/pkg/XAppBase.sol\":779:808  uint8 public defaultConfLevel */\n    tag_68:\n      0x00\n      0x14\n      swap1\n      sload\n      swap1\n      0x0100\n      exp\n      swap1\n      div\n      0xff\n      and\n      dup2\n      jump\t// out\n        /* \"src/wstf token launch/contracts/token/ERC20/OmniERC20.sol\":1052:1154  function symbol() public view virtual override returns (string memory) {... */\n    tag_72:\n        /* \"src/wstf token launch/contracts/token/ERC20/OmniERC20.sol\":1108:1121  string memory */\n      0x60\n        /* \"src/wstf token launch/contracts/token/ERC20/OmniERC20.sol\":1140:1147  _symbol */\n      0x06\n        /* \"src/wstf token launch/contracts/token/ERC20/OmniERC20.sol\":1133:1147  return _symbol */\n      dup1\n      sload\n      tag_127\n      swap1\n      tag_91\n      jump\t// in\n    tag_127:\n      dup1\n      0x1f\n      add\n      0x20\n      dup1\n      swap2\n      div\n      mul\n      0x20\n      add\n      mload(0x40)\n      swap1\n      dup2\n      add\n      0x40\n      mstore\n      dup1\n      swap3\n      swap2\n      swap1\n      dup2\n      dup2\n      mstore\n      0x20\n      add\n      dup3\n      dup1\n      sload\n      tag_128\n      swap1\n      tag_91\n      jump\t// in\n    tag_128:\n      dup1\n      iszero\n      tag_129\n      jumpi\n      dup1\n      0x1f\n      lt\n      tag_130\n      jumpi\n      0x0100\n      dup1\n      dup4\n      sload\n      div\n      mul\n      dup4\n      mstore\n      swap2\n      0x20\n      add\n      swap2\n      jump(tag_129)\n    tag_130:\n      dup3\n      add\n      swap2\n      swap1\n      0x00\n      mstore\n      keccak256(0x00, 0x20)\n      swap1\n    tag_131:\n      dup2\n      sload\n      dup2\n      mstore\n      swap1\n      0x01\n      add\n      swap1\n      0x20\n      add\n      dup1\n      dup4\n      gt\n      tag_131\n      jumpi\n      dup3\n      swap1\n      sub\n      0x1f\n      and\n      dup3\n      add\n      swap2\n    tag_129:\n      pop\n      pop\n      pop\n      pop\n      pop\n      swap1\n      pop\n        /* \"src/wstf token launch/contracts/token/ERC20/OmniERC20.sol\":1052:1154  function symbol() public view virtual override returns (string memory) {... */\n      swap1\n      jump\t// out\n        /* \"src/wstf token launch/contracts/token/ERC20/OmniERC20.sol\":2117:2304  function transfer(address to, uint256 value) public virtual override returns (bool) {... */\n    tag_77:\n        /* \"src/wstf token launch/contracts/token/ERC20/OmniERC20.sol\":2195:2199  bool */\n      0x00\n        /* \"src/wstf token launch/contracts/token/ERC20/OmniERC20.sol\":2211:2224  address owner */\n      dup1\n        /* \"src/wstf token launch/contracts/token/ERC20/OmniERC20.sol\":2227:2239  _msgSender() */\n      tag_133\n        /* \"src/wstf token launch/contracts/token/ERC20/OmniERC20.sol\":2227:2237  _msgSender */\n      tag_98\n        /* \"src/wstf token launch/contracts/token/ERC20/OmniERC20.sol\":2227:2239  _msgSender() */\n      jump\t// in\n    tag_133:\n        /* \"src/wstf token launch/contracts/token/ERC20/OmniERC20.sol\":2211:2239  address owner = _msgSender() */\n      swap1\n      pop\n        /* \"src/wstf token launch/contracts/token/ERC20/OmniERC20.sol\":2249:2276  _transfer(owner, to, value) */\n      tag_134\n        /* \"src/wstf token launch/contracts/token/ERC20/OmniERC20.sol\":2259:2264  owner */\n      dup2\n        /* \"src/wstf token launch/contracts/token/ERC20/OmniERC20.sol\":2266:2268  to */\n      dup6\n        /* \"src/wstf token launch/contracts/token/ERC20/OmniERC20.sol\":2270:2275  value */\n      dup6\n        /* \"src/wstf token launch/contracts/token/ERC20/OmniERC20.sol\":2249:2258  _transfer */\n      tag_107\n        /* \"src/wstf token launch/contracts/token/ERC20/OmniERC20.sol\":2249:2276  _transfer(owner, to, value) */\n      jump\t// in\n    tag_134:\n        /* \"src/wstf token launch/contracts/token/ERC20/OmniERC20.sol\":2293:2297  true */\n      0x01\n        /* \"src/wstf token launch/contracts/token/ERC20/OmniERC20.sol\":2286:2297  return true */\n      swap2\n      pop\n      pop\n        /* \"src/wstf token launch/contracts/token/ERC20/OmniERC20.sol\":2117:2304  function transfer(address to, uint256 value) public virtual override returns (bool) {... */\n      swap3\n      swap2\n      pop\n      pop\n      jump\t// out\n        /* \"src/wstf token launch/contracts/token/ERC20/OmniERC20.sol\":2309:2753  function transfer(uint64 destChain, address to, uint256 value) external payable {... */\n    tag_82:\n        /* \"src/wstf token launch/contracts/token/ERC20/OmniERC20.sol\":2400:2412  address from */\n      0x00\n        /* \"src/wstf token launch/contracts/token/ERC20/OmniERC20.sol\":2415:2427  _msgSender() */\n      tag_136\n        /* \"src/wstf token launch/contracts/token/ERC20/OmniERC20.sol\":2415:2425  _msgSender */\n      tag_98\n        /* \"src/wstf token launch/contracts/token/ERC20/OmniERC20.sol\":2415:2427  _msgSender() */\n      jump\t// in\n    tag_136:\n        /* \"src/wstf token launch/contracts/token/ERC20/OmniERC20.sol\":2400:2427  address from = _msgSender() */\n      swap1\n      pop\n        /* \"src/wstf token launch/contracts/token/ERC20/OmniERC20.sol\":2437:2474  _transfer(from, address(this), value) */\n      tag_137\n        /* \"src/wstf token launch/contracts/token/ERC20/OmniERC20.sol\":2447:2451  from */\n      dup2\n        /* \"src/wstf token launch/contracts/token/ERC20/OmniERC20.sol\":2461:2465  this */\n      address\n        /* \"src/wstf token launch/contracts/token/ERC20/OmniERC20.sol\":2468:2473  value */\n      dup5\n        /* \"src/wstf token launch/contracts/token/ERC20/OmniERC20.sol\":2437:2446  _transfer */\n      tag_107\n        /* \"src/wstf token launch/contracts/token/ERC20/OmniERC20.sol\":2437:2474  _transfer(from, address(this), value) */\n      jump\t// in\n    tag_137:\n        /* \"src/wstf token launch/contracts/token/ERC20/OmniERC20.sol\":2521:2538  bytes memory data */\n      0x00\n        /* \"src/wstf token launch/contracts/token/ERC20/OmniERC20.sol\":2592:2596  this */\n      address\n        /* \"src/wstf token launch/contracts/token/ERC20/OmniERC20.sol\":2599:2601  to */\n      dup5\n        /* \"src/wstf token launch/contracts/token/ERC20/OmniERC20.sol\":2603:2608  value */\n      dup5\n        /* \"src/wstf token launch/contracts/token/ERC20/OmniERC20.sol\":2541:2610  abi.encodeCall(OmniERC20.receiveTransfer, (address(this), to, value)) */\n      add(0x24, mload(0x40))\n      tag_138\n      swap4\n      swap3\n      swap2\n      swap1\n      tag_139\n      jump\t// in\n    tag_138:\n      mload(0x40)\n      0x20\n      dup2\n      dup4\n      sub\n      sub\n      dup2\n      mstore\n      swap1\n      0x40\n      mstore\n      shl(0xe0, 0x4a536a06)\n      0x20\n      dup3\n      add\n      dup1\n      mload\n      0xffffffffffffffffffffffffffffffffffffffffffffffffffffffff\n      dup4\n      dup2\n      dup4\n      and\n      or\n      dup4\n      mstore\n      pop\n      pop\n      pop\n      pop\n        /* \"src/wstf token launch/contracts/token/ERC20/OmniERC20.sol\":2521:2610  bytes memory data = abi.encodeCall(OmniERC20.receiveTransfer, (address(this), to, value)) */\n      swap1\n      pop\n        /* \"src/wstf token launch/contracts/token/ERC20/OmniERC20.sol\":2620:2631  uint256 fee */\n      0x00\n        /* \"src/wstf token launch/contracts/token/ERC20/OmniERC20.sol\":2634:2679  xcall(destChain, address(this), data, 150000) */\n      tag_140\n        /* \"src/wstf token launch/contracts/token/ERC20/OmniERC20.sol\":2640:2649  destChain */\n      dup7\n        /* \"src/wstf token launch/contracts/token/ERC20/OmniERC20.sol\":2659:2663  this */\n      address\n        /* \"src/wstf token launch/contracts/token/ERC20/OmniERC20.sol\":2666:2670  data */\n      dup5\n        /* \"src/wstf token launch/contracts/token/ERC20/OmniERC20.sol\":2672:2678  150000 */\n      0x0249f0\n        /* \"src/wstf token launch/contracts/token/ERC20/OmniERC20.sol\":2634:2639  xcall */\n      tag_141\n        /* \"src/wstf token launch/contracts/token/ERC20/OmniERC20.sol\":2634:2679  xcall(destChain, address(this), data, 150000) */\n      jump\t// in\n    tag_140:\n        /* \"src/wstf token launch/contracts/token/ERC20/OmniERC20.sol\":2620:2679  uint256 fee = xcall(destChain, address(this), data, 150000) */\n      swap1\n      pop\n        /* \"src/wstf token launch/contracts/token/ERC20/OmniERC20.sol\":2710:2713  fee */\n      dup1\n        /* \"src/wstf token launch/contracts/token/ERC20/OmniERC20.sol\":2697:2706  msg.value */\n      callvalue\n        /* \"src/wstf token launch/contracts/token/ERC20/OmniERC20.sol\":2697:2713  msg.value >= fee */\n      lt\n      iszero\n        /* \"src/wstf token launch/contracts/token/ERC20/OmniERC20.sol\":2689:2745  require(msg.value >= fee, \"OmniERC20: Insufficient fee\") */\n      tag_142\n      jumpi\n      mload(0x40)\n      0x08c379a000000000000000000000000000000000000000000000000000000000\n      dup2\n      mstore\n      0x04\n      add\n      tag_143\n      swap1\n      tag_144\n      jump\t// in\n    tag_143:\n      mload(0x40)\n      dup1\n      swap2\n      sub\n      swap1\n      revert\n    tag_142:\n        /* \"src/wstf token launch/contracts/token/ERC20/OmniERC20.sol\":2389:2753  {... */\n      pop\n      pop\n      pop\n        /* \"src/wstf token launch/contracts/token/ERC20/OmniERC20.sol\":2309:2753  function transfer(uint64 destChain, address to, uint256 value) external payable {... */\n      pop\n      pop\n      pop\n      jump\t// out\n        /* \"src/wstf token launch/contracts/token/ERC20/OmniERC20.sol\":1501:1650  function allowance(address owner, address spender) public view virtual override returns (uint256) {... */\n    tag_87:\n        /* \"src/wstf token launch/contracts/token/ERC20/OmniERC20.sol\":1590:1597  uint256 */\n      0x00\n        /* \"src/wstf token launch/contracts/token/ERC20/OmniERC20.sol\":1616:1627  _allowances */\n      0x03\n        /* \"src/wstf token launch/contracts/token/ERC20/OmniERC20.sol\":1616:1634  _allowances[owner] */\n      0x00\n        /* \"src/wstf token launch/contracts/token/ERC20/OmniERC20.sol\":1628:1633  owner */\n      dup5\n        /* \"src/wstf token launch/contracts/token/ERC20/OmniERC20.sol\":1616:1634  _allowances[owner] */\n      0xffffffffffffffffffffffffffffffffffffffff\n      and\n      0xffffffffffffffffffffffffffffffffffffffff\n      and\n      dup2\n      mstore\n      0x20\n      add\n      swap1\n      dup2\n      mstore\n      0x20\n      add\n      0x00\n      keccak256\n        /* \"src/wstf token launch/contracts/token/ERC20/OmniERC20.sol\":1616:1643  _allowances[owner][spender] */\n      0x00\n        /* \"src/wstf token launch/contracts/token/ERC20/OmniERC20.sol\":1635:1642  spender */\n      dup4\n        /* \"src/wstf token launch/contracts/token/ERC20/OmniERC20.sol\":1616:1643  _allowances[owner][spender] */\n      0xffffffffffffffffffffffffffffffffffffffff\n      and\n      0xffffffffffffffffffffffffffffffffffffffff\n      and\n      dup2\n      mstore\n      0x20\n      add\n      swap1\n      dup2\n      mstore\n      0x20\n      add\n      0x00\n      keccak256\n      sload\n        /* \"src/wstf token launch/contracts/token/ERC20/OmniERC20.sol\":1609:1643  return _allowances[owner][spender] */\n      swap1\n      pop\n        /* \"src/wstf token launch/contracts/token/ERC20/OmniERC20.sol\":1501:1650  function allowance(address owner, address spender) public view virtual override returns (uint256) {... */\n      swap3\n      swap2\n      pop\n      pop\n      jump\t// out\n        /* \"src/wstf token launch/contracts/utils/Context.sol\":656:752  function _msgSender() internal view virtual returns (address) {... */\n    tag_98:\n        /* \"src/wstf token launch/contracts/utils/Context.sol\":709:716  address */\n      0x00\n        /* \"src/wstf token launch/contracts/utils/Context.sol\":735:745  msg.sender */\n      caller\n        /* \"src/wstf token launch/contracts/utils/Context.sol\":728:745  return msg.sender */\n      swap1\n      pop\n        /* \"src/wstf token launch/contracts/utils/Context.sol\":656:752  function _msgSender() internal view virtual returns (address) {... */\n      swap1\n      jump\t// out\n        /* \"src/wstf token launch/contracts/token/ERC20/OmniERC20.sol\":3998:4126  function _approve(address owner, address spender, uint256 value) internal {... */\n    tag_100:\n        /* \"src/wstf token launch/contracts/token/ERC20/OmniERC20.sol\":4082:4119  _approve(owner, spender, value, true) */\n      tag_148\n        /* \"src/wstf token launch/contracts/token/ERC20/OmniERC20.sol\":4091:4096  owner */\n      dup4\n        /* \"src/wstf token launch/contracts/token/ERC20/OmniERC20.sol\":4098:4105  spender */\n      dup4\n        /* \"src/wstf token launch/contracts/token/ERC20/OmniERC20.sol\":4107:4112  value */\n      dup4\n        /* \"src/wstf token launch/contracts/token/ERC20/OmniERC20.sol\":4114:4118  true */\n      0x01\n        /* \"src/wstf token launch/contracts/token/ERC20/OmniERC20.sol\":4082:4090  _approve */\n      tag_149\n        /* \"src/wstf token launch/contracts/token/ERC20/OmniERC20.sol\":4082:4119  _approve(owner, spender, value, true) */\n      jump\t// in\n    tag_148:\n        /* \"src/wstf token launch/contracts/token/ERC20/OmniERC20.sol\":3998:4126  function _approve(address owner, address spender, uint256 value) internal {... */\n      pop\n      pop\n      pop\n      jump\t// out\n        /* \"src/wstf token launch/contracts/token/ERC20/OmniERC20.sol\":4570:5047  function _spendAllowance(address owner, address spender, uint256 value) internal virtual {... */\n    tag_105:\n        /* \"src/wstf token launch/contracts/token/ERC20/OmniERC20.sol\":4669:4693  uint256 currentAllowance */\n      0x00\n        /* \"src/wstf token launch/contracts/token/ERC20/OmniERC20.sol\":4696:4721  allowance(owner, spender) */\n      tag_151\n        /* \"src/wstf token launch/contracts/token/ERC20/OmniERC20.sol\":4706:4711  owner */\n      dup5\n        /* \"src/wstf token launch/contracts/token/ERC20/OmniERC20.sol\":4713:4720  spender */\n      dup5\n        /* \"src/wstf token launch/contracts/token/ERC20/OmniERC20.sol\":4696:4705  allowance */\n      tag_87\n        /* \"src/wstf token launch/contracts/token/ERC20/OmniERC20.sol\":4696:4721  allowance(owner, spender) */\n      jump\t// in\n    tag_151:\n        /* \"src/wstf token launch/contracts/token/ERC20/OmniERC20.sol\":4669:4721  uint256 currentAllowance = allowance(owner, spender) */\n      swap1\n      pop\n        /* \"src/wstf token launch/contracts/token/ERC20/OmniERC20.sol\":4755:4772  type(uint256).max */\n      0xffffffffffffffffffffffffffffffffffffffffffffffffffffffffffffffff\n        /* \"src/wstf token launch/contracts/token/ERC20/OmniERC20.sol\":4735:4751  currentAllowance */\n      dup2\n        /* \"src/wstf token launch/contracts/token/ERC20/OmniERC20.sol\":4735:4772  currentAllowance != type(uint256).max */\n      eq\n        /* \"src/wstf token launch/contracts/token/ERC20/OmniERC20.sol\":4731:5041  if (currentAllowance != type(uint256).max) {... */\n      tag_152\n      jumpi\n        /* \"src/wstf token launch/contracts/token/ERC20/OmniERC20.sol\":4811:4816  value */\n      dup2\n        /* \"src/wstf token launch/contracts/token/ERC20/OmniERC20.sol\":4792:4808  currentAllowance */\n      dup2\n        /* \"src/wstf token launch/contracts/token/ERC20/OmniERC20.sol\":4792:4816  currentAllowance < value */\n      lt\n        /* \"src/wstf token launch/contracts/token/ERC20/OmniERC20.sol\":4788:4918  if (currentAllowance < value) {... */\n      iszero\n      tag_153\n      jumpi\n        /* \"src/wstf token launch/contracts/token/ERC20/OmniERC20.sol\":4870:4877  spender */\n      dup3\n        /* \"src/wstf token launch/contracts/token/ERC20/OmniERC20.sol\":4879:4895  currentAllowance */\n      dup2\n        /* \"src/wstf token launch/contracts/token/ERC20/OmniERC20.sol\":4897:4902  value */\n      dup4\n        /* \"src/wstf token launch/contracts/token/ERC20/OmniERC20.sol\":4843:4903  ERC20InsufficientAllowance(spender, currentAllowance, value) */\n      mload(0x40)\n      0xfb8f41b200000000000000000000000000000000000000000000000000000000\n      dup2\n      mstore\n      0x04\n      add\n      tag_154\n      swap4\n      swap3\n      swap2\n      swap1\n      tag_155\n      jump\t// in\n    tag_154:\n      mload(0x40)\n      dup1\n      swap2\n      sub\n      swap1\n      revert\n        /* \"src/wstf token launch/contracts/token/ERC20/OmniERC20.sol\":4788:4918  if (currentAllowance < value) {... */\n    tag_153:\n        /* \"src/wstf token launch/contracts/token/ERC20/OmniERC20.sol\":4959:5016  _approve(owner, spender, currentAllowance - value, false) */\n      tag_156\n        /* \"src/wstf token launch/contracts/token/ERC20/OmniERC20.sol\":4968:4973  owner */\n      dup5\n        /* \"src/wstf token launch/contracts/token/ERC20/OmniERC20.sol\":4975:4982  spender */\n      dup5\n        /* \"src/wstf token launch/contracts/token/ERC20/OmniERC20.sol\":5003:5008  value */\n      dup5\n        /* \"src/wstf token launch/contracts/token/ERC20/OmniERC20.sol\":4984:5000  currentAllowance */\n      dup5\n        /* \"src/wstf token launch/contracts/token/ERC20/OmniERC20.sol\":4984:5008  currentAllowance - value */\n      sub\n        /* \"src/wstf token launch/contracts/token/ERC20/OmniERC20.sol\":5010:5015  false */\n      0x00\n        /* \"src/wstf token launch/contracts/token/ERC20/OmniERC20.sol\":4959:4967  _approve */\n      tag_149\n        /* \"src/wstf token launch/contracts/token/ERC20/OmniERC20.sol\":4959:5016  _approve(owner, spender, currentAllowance - value, false) */\n      jump\t// in\n    tag_156:\n        /* \"src/wstf token launch/contracts/token/ERC20/OmniERC20.sol\":4731:5041  if (currentAllowance != type(uint256).max) {... */\n    tag_152:\n        /* \"src/wstf token launch/contracts/token/ERC20/OmniERC20.sol\":4659:5047  {... */\n      pop\n        /* \"src/wstf token launch/contracts/token/ERC20/OmniERC20.sol\":4570:5047  function _spendAllowance(address owner, address spender, uint256 value) internal virtual {... */\n      pop\n      pop\n      pop\n      jump\t// out\n        /* \"src/wstf token launch/contracts/token/ERC20/OmniERC20.sol\":2969:3278  function _transfer(address from, address to, uint256 value) internal virtual {... */\n    tag_107:\n        /* \"src/wstf token launch/contracts/token/ERC20/OmniERC20.sol\":3076:3077  0 */\n      0x00\n        /* \"src/wstf token launch/contracts/token/ERC20/OmniERC20.sol\":3060:3078  from == address(0) */\n      0xffffffffffffffffffffffffffffffffffffffff\n      and\n        /* \"src/wstf token launch/contracts/token/ERC20/OmniERC20.sol\":3060:3064  from */\n      dup4\n        /* \"src/wstf token launch/contracts/token/ERC20/OmniERC20.sol\":3060:3078  from == address(0) */\n      0xffffffffffffffffffffffffffffffffffffffff\n      and\n      sub\n        /* \"src/wstf token launch/contracts/token/ERC20/OmniERC20.sol\":3056:3142  if (from == address(0)) {... */\n      tag_158\n      jumpi\n        /* \"src/wstf token launch/contracts/token/ERC20/OmniERC20.sol\":3128:3129  0 */\n      0x00\n        /* \"src/wstf token launch/contracts/token/ERC20/OmniERC20.sol\":3101:3131  ERC20InvalidSender(address(0)) */\n      mload(0x40)\n      0x96c6fd1e00000000000000000000000000000000000000000000000000000000\n      dup2\n      mstore\n      0x04\n      add\n      tag_159\n      swap2\n      swap1\n      tag_160\n      jump\t// in\n    tag_159:\n      mload(0x40)\n      dup1\n      swap2\n      sub\n      swap1\n      revert\n        /* \"src/wstf token launch/contracts/token/ERC20/OmniERC20.sol\":3056:3142  if (from == address(0)) {... */\n    tag_158:\n        /* \"src/wstf token launch/contracts/token/ERC20/OmniERC20.sol\":3169:3170  0 */\n      0x00\n        /* \"src/wstf token launch/contracts/token/ERC20/OmniERC20.sol\":3155:3171  to == address(0) */\n      0xffffffffffffffffffffffffffffffffffffffff\n      and\n        /* \"src/wstf token launch/contracts/token/ERC20/OmniERC20.sol\":3155:3157  to */\n      dup3\n        /* \"src/wstf token launch/contracts/token/ERC20/OmniERC20.sol\":3155:3171  to == address(0) */\n      0xffffffffffffffffffffffffffffffffffffffff\n      and\n      sub\n        /* \"src/wstf token launch/contracts/token/ERC20/OmniERC20.sol\":3151:3237  if (to == address(0)) {... */\n      tag_161\n      jumpi\n        /* \"src/wstf token launch/contracts/token/ERC20/OmniERC20.sol\":3223:3224  0 */\n      0x00\n        /* \"src/wstf token launch/contracts/token/ERC20/OmniERC20.sol\":3194:3226  ERC20InvalidReceiver(address(0)) */\n      mload(0x40)\n      0xec442f0500000000000000000000000000000000000000000000000000000000\n      dup2\n      mstore\n      0x04\n      add\n      tag_162\n      swap2\n      swap1\n      tag_160\n      jump\t// in\n    tag_162:\n      mload(0x40)\n      dup1\n      swap2\n      sub\n      swap1\n      revert\n        /* \"src/wstf token launch/contracts/token/ERC20/OmniERC20.sol\":3151:3237  if (to == address(0)) {... */\n    tag_161:\n        /* \"src/wstf token launch/contracts/token/ERC20/OmniERC20.sol\":3247:3271  _update(from, to, value) */\n      tag_163\n        /* \"src/wstf token launch/contracts/token/ERC20/OmniERC20.sol\":3255:3259  from */\n      dup4\n        /* \"src/wstf token launch/contracts/token/ERC20/OmniERC20.sol\":3261:3263  to */\n      dup4\n        /* \"src/wstf token launch/contracts/token/ERC20/OmniERC20.sol\":3265:3270  value */\n      dup4\n        /* \"src/wstf token launch/contracts/token/ERC20/OmniERC20.sol\":3247:3254  _update */\n      tag_124\n        /* \"src/wstf token launch/contracts/token/ERC20/OmniERC20.sol\":3247:3271  _update(from, to, value) */\n      jump\t// in\n    tag_163:\n        /* \"src/wstf token launch/contracts/token/ERC20/OmniERC20.sol\":2969:3278  function _transfer(address from, address to, uint256 value) internal virtual {... */\n      pop\n      pop\n      pop\n      jump\t// out\n        /* \"src/wstf token launch/contracts/token/ERC20/implementation.sol\":774:982  function _mint(address account, uint256 value) internal {... */\n    tag_111:\n        /* \"src/wstf token launch/contracts/token/ERC20/implementation.sol\":863:864  0 */\n      0x00\n        /* \"src/wstf token launch/contracts/token/ERC20/implementation.sol\":844:865  account == address(0) */\n      0xffffffffffffffffffffffffffffffffffffffff\n      and\n        /* \"src/wstf token launch/contracts/token/ERC20/implementation.sol\":844:851  account */\n      dup3\n        /* \"src/wstf token launch/contracts/token/ERC20/implementation.sol\":844:865  account == address(0) */\n      0xffffffffffffffffffffffffffffffffffffffff\n      and\n      sub\n        /* \"src/wstf token launch/contracts/token/ERC20/implementation.sol\":840:931  if (account == address(0)) {... */\n      tag_165\n      jumpi\n        /* \"src/wstf token launch/contracts/token/ERC20/implementation.sol\":917:918  0 */\n      0x00\n        /* \"src/wstf token launch/contracts/token/ERC20/implementation.sol\":888:920  ERC20InvalidReceiver(address(0)) */\n      mload(0x40)\n      0xec442f0500000000000000000000000000000000000000000000000000000000\n      dup2\n      mstore\n      0x04\n      add\n      tag_166\n      swap2\n      swap1\n      tag_160\n      jump\t// in\n    tag_166:\n      mload(0x40)\n      dup1\n      swap2\n      sub\n      swap1\n      revert\n        /* \"src/wstf token launch/contracts/token/ERC20/implementation.sol\":840:931  if (account == address(0)) {... */\n    tag_165:\n        /* \"src/wstf token launch/contracts/token/ERC20/implementation.sol\":940:975  _update(address(0), account, value) */\n      tag_167\n        /* \"src/wstf token launch/contracts/token/ERC20/implementation.sol\":956:957  0 */\n      0x00\n        /* \"src/wstf token launch/contracts/token/ERC20/implementation.sol\":960:967  account */\n      dup4\n        /* \"src/wstf token launch/contracts/token/ERC20/implementation.sol\":969:974  value */\n      dup4\n        /* \"src/wstf token launch/contracts/token/ERC20/implementation.sol\":940:947  _update */\n      tag_124\n        /* \"src/wstf token launch/contracts/token/ERC20/implementation.sol\":940:975  _update(address(0), account, value) */\n      jump\t// in\n    tag_167:\n        /* \"src/wstf token launch/contracts/token/ERC20/implementation.sol\":774:982  function _mint(address account, uint256 value) internal {... */\n      pop\n      pop\n      jump\t// out\n        /* \"lib/omni/contracts/core/src/pkg/XAppBase.sol\":1209:1326  function isXCall() internal view returns (bool) {... */\n    tag_119:\n        /* \"lib/omni/contracts/core/src/pkg/XAppBase.sol\":1251:1255  bool */\n      0x00\n        /* \"lib/omni/contracts/core/src/pkg/XAppBase.sol\":1274:1278  omni */\n      dup1\n      0x00\n      swap1\n      sload\n      swap1\n      0x0100\n      exp\n      swap1\n      div\n      0xffffffffffffffffffffffffffffffffffffffff\n      and\n        /* \"lib/omni/contracts/core/src/pkg/XAppBase.sol\":1274:1286  omni.isXCall */\n      0xffffffffffffffffffffffffffffffffffffffff\n      and\n      0x55e2448e\n        /* \"lib/omni/contracts/core/src/pkg/XAppBase.sol\":1274:1288  omni.isXCall() */\n      mload(0x40)\n      dup2\n      0xffffffff\n      and\n      0xe0\n      shl\n      dup2\n      mstore\n      0x04\n      add\n      0x20\n      mload(0x40)\n      dup1\n      dup4\n      sub\n      dup2\n      dup7\n      gas\n      staticcall\n      iszero\n      dup1\n      iszero\n      tag_170\n      jumpi\n      returndatasize\n      0x00\n      dup1\n      returndatacopy\n      revert(0x00, returndatasize)\n    tag_170:\n      pop\n      pop\n      pop\n      pop\n      mload(0x40)\n      returndatasize\n      not(0x1f)\n      0x1f\n      dup3\n      add\n      and\n      dup3\n      add\n      dup1\n      0x40\n      mstore\n      pop\n      dup2\n      add\n      swap1\n      tag_171\n      swap2\n      swap1\n      tag_172\n      jump\t// in\n    tag_171:\n        /* \"lib/omni/contracts/core/src/pkg/XAppBase.sol\":1274:1319  omni.isXCall() && msg.sender == address(omni) */\n      dup1\n      iszero\n      tag_173\n      jumpi\n      pop\n        /* \"lib/omni/contracts/core/src/pkg/XAppBase.sol\":1314:1318  omni */\n      0x00\n      dup1\n      sload\n      swap1\n      0x0100\n      exp\n      swap1\n      div\n      0xffffffffffffffffffffffffffffffffffffffff\n      and\n        /* \"lib/omni/contracts/core/src/pkg/XAppBase.sol\":1292:1319  msg.sender == address(omni) */\n      0xffffffffffffffffffffffffffffffffffffffff\n      and\n        /* \"lib/omni/contracts/core/src/pkg/XAppBase.sol\":1292:1302  msg.sender */\n      caller\n        /* \"lib/omni/contracts/core/src/pkg/XAppBase.sol\":1292:1319  msg.sender == address(omni) */\n      0xffffffffffffffffffffffffffffffffffffffff\n      and\n      eq\n        /* \"lib/omni/contracts/core/src/pkg/XAppBase.sol\":1274:1319  omni.isXCall() && msg.sender == address(omni) */\n    tag_173:\n        /* \"lib/omni/contracts/core/src/pkg/XAppBase.sol\":1267:1319  return omni.isXCall() && msg.sender == address(omni) */\n      swap1\n      pop\n        /* \"lib/omni/contracts/core/src/pkg/XAppBase.sol\":1209:1326  function isXCall() internal view returns (bool) {... */\n      swap1\n      jump\t// out\n        /* \"src/wstf token launch/contracts/token/ERC20/OmniERC20.sol\":3285:3991  function _update(address from, address to, uint256 value) internal virtual {... */\n    tag_124:\n        /* \"src/wstf token launch/contracts/token/ERC20/OmniERC20.sol\":3390:3391  0 */\n      0x00\n        /* \"src/wstf token launch/contracts/token/ERC20/OmniERC20.sol\":3374:3392  from == address(0) */\n      0xffffffffffffffffffffffffffffffffffffffff\n      and\n        /* \"src/wstf token launch/contracts/token/ERC20/OmniERC20.sol\":3374:3378  from */\n      dup4\n        /* \"src/wstf token launch/contracts/token/ERC20/OmniERC20.sol\":3374:3392  from == address(0) */\n      0xffffffffffffffffffffffffffffffffffffffff\n      and\n      sub\n        /* \"src/wstf token launch/contracts/token/ERC20/OmniERC20.sol\":3370:3729  if (from == address(0)) {... */\n      tag_175\n      jumpi\n        /* \"src/wstf token launch/contracts/token/ERC20/OmniERC20.sol\":3424:3429  value */\n      dup1\n        /* \"src/wstf token launch/contracts/token/ERC20/OmniERC20.sol\":3408:3420  _totalSupply */\n      0x04\n      0x00\n        /* \"src/wstf token launch/contracts/token/ERC20/OmniERC20.sol\":3408:3429  _totalSupply += value */\n      dup3\n      dup3\n      sload\n      tag_176\n      swap2\n      swap1\n      tag_177\n      jump\t// in\n    tag_176:\n      swap3\n      pop\n      pop\n      dup2\n      swap1\n      sstore\n      pop\n        /* \"src/wstf token launch/contracts/token/ERC20/OmniERC20.sol\":3370:3729  if (from == address(0)) {... */\n      jump(tag_178)\n    tag_175:\n        /* \"src/wstf token launch/contracts/token/ERC20/OmniERC20.sol\":3460:3479  uint256 fromBalance */\n      0x00\n        /* \"src/wstf token launch/contracts/token/ERC20/OmniERC20.sol\":3482:3491  _balances */\n      0x02\n        /* \"src/wstf token launch/contracts/token/ERC20/OmniERC20.sol\":3482:3497  _balances[from] */\n      0x00\n        /* \"src/wstf token launch/contracts/token/ERC20/OmniERC20.sol\":3492:3496  from */\n      dup6\n        /* \"src/wstf token launch/contracts/token/ERC20/OmniERC20.sol\":3482:3497  _balances[from] */\n      0xffffffffffffffffffffffffffffffffffffffff\n      and\n      0xffffffffffffffffffffffffffffffffffffffff\n      and\n      dup2\n      mstore\n      0x20\n      add\n      swap1\n      dup2\n      mstore\n      0x20\n      add\n      0x00\n      keccak256\n      sload\n        /* \"src/wstf token launch/contracts/token/ERC20/OmniERC20.sol\":3460:3497  uint256 fromBalance = _balances[from] */\n      swap1\n      pop\n        /* \"src/wstf token launch/contracts/token/ERC20/OmniERC20.sol\":3529:3534  value */\n      dup2\n        /* \"src/wstf token launch/contracts/token/ERC20/OmniERC20.sol\":3515:3526  fromBalance */\n      dup2\n        /* \"src/wstf token launch/contracts/token/ERC20/OmniERC20.sol\":3515:3534  fromBalance < value */\n      lt\n        /* \"src/wstf token launch/contracts/token/ERC20/OmniERC20.sol\":3511:3626  if (fromBalance < value) {... */\n      iszero\n      tag_179\n      jumpi\n        /* \"src/wstf token launch/contracts/token/ERC20/OmniERC20.sol\":3586:3590  from */\n      dup4\n        /* \"src/wstf token launch/contracts/token/ERC20/OmniERC20.sol\":3592:3603  fromBalance */\n      dup2\n        /* \"src/wstf token launch/contracts/token/ERC20/OmniERC20.sol\":3605:3610  value */\n      dup4\n        /* \"src/wstf token launch/contracts/token/ERC20/OmniERC20.sol\":3561:3611  ERC20InsufficientBalance(from, fromBalance, value) */\n      mload(0x40)\n      0xe450d38c00000000000000000000000000000000000000000000000000000000\n      dup2\n      mstore\n      0x04\n      add\n      tag_180\n      swap4\n      swap3\n      swap2\n      swap1\n      tag_155\n      jump\t// in\n    tag_180:\n      mload(0x40)\n      dup1\n      swap2\n      sub\n      swap1\n      revert\n        /* \"src/wstf token launch/contracts/token/ERC20/OmniERC20.sol\":3511:3626  if (fromBalance < value) {... */\n    tag_179:\n        /* \"src/wstf token launch/contracts/token/ERC20/OmniERC20.sol\":3699:3704  value */\n      dup2\n        /* \"src/wstf token launch/contracts/token/ERC20/OmniERC20.sol\":3685:3696  fromBalance */\n      dup2\n        /* \"src/wstf token launch/contracts/token/ERC20/OmniERC20.sol\":3685:3704  fromBalance - value */\n      sub\n        /* \"src/wstf token launch/contracts/token/ERC20/OmniERC20.sol\":3667:3676  _balances */\n      0x02\n        /* \"src/wstf token launch/contracts/token/ERC20/OmniERC20.sol\":3667:3682  _balances[from] */\n      0x00\n        /* \"src/wstf token launch/contracts/token/ERC20/OmniERC20.sol\":3677:3681  from */\n      dup7\n        /* \"src/wstf token launch/contracts/token/ERC20/OmniERC20.sol\":3667:3682  _balances[from] */\n      0xffffffffffffffffffffffffffffffffffffffff\n      and\n      0xffffffffffffffffffffffffffffffffffffffff\n      and\n      dup2\n      mstore\n      0x20\n      add\n      swap1\n      dup2\n      mstore\n      0x20\n      add\n      0x00\n      keccak256\n        /* \"src/wstf token launch/contracts/token/ERC20/OmniERC20.sol\":3667:3704  _balances[from] = fromBalance - value */\n      dup2\n      swap1\n      sstore\n      pop\n        /* \"src/wstf token launch/contracts/token/ERC20/OmniERC20.sol\":3446:3729  {... */\n      pop\n        /* \"src/wstf token launch/contracts/token/ERC20/OmniERC20.sol\":3370:3729  if (from == address(0)) {... */\n    tag_178:\n        /* \"src/wstf token launch/contracts/token/ERC20/OmniERC20.sol\":3757:3758  0 */\n      0x00\n        /* \"src/wstf token launch/contracts/token/ERC20/OmniERC20.sol\":3743:3759  to == address(0) */\n      0xffffffffffffffffffffffffffffffffffffffff\n      and\n        /* \"src/wstf token launch/contracts/token/ERC20/OmniERC20.sol\":3743:3745  to */\n      dup3\n        /* \"src/wstf token launch/contracts/token/ERC20/OmniERC20.sol\":3743:3759  to == address(0) */\n      0xffffffffffffffffffffffffffffffffffffffff\n      and\n      sub\n        /* \"src/wstf token launch/contracts/token/ERC20/OmniERC20.sol\":3739:3944  if (to == address(0)) {... */\n      tag_181\n      jumpi\n        /* \"src/wstf token launch/contracts/token/ERC20/OmniERC20.sol\":3819:3824  value */\n      dup1\n        /* \"src/wstf token launch/contracts/token/ERC20/OmniERC20.sol\":3803:3815  _totalSupply */\n      0x04\n      0x00\n        /* \"src/wstf token launch/contracts/token/ERC20/OmniERC20.sol\":3803:3824  _totalSupply -= value */\n      dup3\n      dup3\n      sload\n      sub\n      swap3\n      pop\n      pop\n      dup2\n      swap1\n      sstore\n      pop\n        /* \"src/wstf token launch/contracts/token/ERC20/OmniERC20.sol\":3739:3944  if (to == address(0)) {... */\n      jump(tag_182)\n    tag_181:\n        /* \"src/wstf token launch/contracts/token/ERC20/OmniERC20.sol\":3914:3919  value */\n      dup1\n        /* \"src/wstf token launch/contracts/token/ERC20/OmniERC20.sol\":3897:3906  _balances */\n      0x02\n        /* \"src/wstf token launch/contracts/token/ERC20/OmniERC20.sol\":3897:3910  _balances[to] */\n      0x00\n        /* \"src/wstf token launch/contracts/token/ERC20/OmniERC20.sol\":3907:3909  to */\n      dup5\n        /* \"src/wstf token launch/contracts/token/ERC20/OmniERC20.sol\":3897:3910  _balances[to] */\n      0xffffffffffffffffffffffffffffffffffffffff\n      and\n      0xffffffffffffffffffffffffffffffffffffffff\n      and\n      dup2\n      mstore\n      0x20\n      add\n      swap1\n      dup2\n      mstore\n      0x20\n      add\n      0x00\n      keccak256\n      0x00\n        /* \"src/wstf token launch/contracts/token/ERC20/OmniERC20.sol\":3897:3919  _balances[to] += value */\n      dup3\n      dup3\n      sload\n      add\n      swap3\n      pop\n      pop\n      dup2\n      swap1\n      sstore\n      pop\n        /* \"src/wstf token launch/contracts/token/ERC20/OmniERC20.sol\":3739:3944  if (to == address(0)) {... */\n    tag_182:\n        /* \"src/wstf token launch/contracts/token/ERC20/OmniERC20.sol\":3974:3976  to */\n      dup2\n        /* \"src/wstf token launch/contracts/token/ERC20/OmniERC20.sol\":3959:3984  Transfer(from, to, value) */\n      0xffffffffffffffffffffffffffffffffffffffff\n      and\n        /* \"src/wstf token launch/contracts/token/ERC20/OmniERC20.sol\":3968:3972  from */\n      dup4\n        /* \"src/wstf token launch/contracts/token/ERC20/OmniERC20.sol\":3959:3984  Transfer(from, to, value) */\n      0xffffffffffffffffffffffffffffffffffffffff\n      and\n      0xddf252ad1be2c89b69c2b068fc378daa952ba7f163c4a11628f55a4df523b3ef\n        /* \"src/wstf token launch/contracts/token/ERC20/OmniERC20.sol\":3978:3983  value */\n      dup4\n        /* \"src/wstf token launch/contracts/token/ERC20/OmniERC20.sol\":3959:3984  Transfer(from, to, value) */\n      mload(0x40)\n      tag_183\n      swap2\n      swap1\n      tag_35\n      jump\t// in\n    tag_183:\n      mload(0x40)\n      dup1\n      swap2\n      sub\n      swap1\n      log3\n        /* \"src/wstf token launch/contracts/token/ERC20/OmniERC20.sol\":3285:3991  function _update(address from, address to, uint256 value) internal virtual {... */\n      pop\n      pop\n      pop\n      jump\t// out\n        /* \"lib/omni/contracts/core/src/pkg/XAppBase.sol\":2156:2537  function xcall(uint64 destChainId, address to, bytes memory data, uint64 gasLimit) internal returns (uint256) {... */\n    tag_141:\n        /* \"lib/omni/contracts/core/src/pkg/XAppBase.sol\":2257:2264  uint256 */\n      0x00\n        /* \"lib/omni/contracts/core/src/pkg/XAppBase.sol\":2276:2287  uint256 fee */\n      dup1\n        /* \"lib/omni/contracts/core/src/pkg/XAppBase.sol\":2290:2294  omni */\n      0x00\n      dup1\n      sload\n      swap1\n      0x0100\n      exp\n      swap1\n      div\n      0xffffffffffffffffffffffffffffffffffffffff\n      and\n        /* \"lib/omni/contracts/core/src/pkg/XAppBase.sol\":2290:2301  omni.feeFor */\n      0xffffffffffffffffffffffffffffffffffffffff\n      and\n      0x8dd9523c\n        /* \"lib/omni/contracts/core/src/pkg/XAppBase.sol\":2302:2313  destChainId */\n      dup8\n        /* \"lib/omni/contracts/core/src/pkg/XAppBase.sol\":2315:2319  data */\n      dup7\n        /* \"lib/omni/contracts/core/src/pkg/XAppBase.sol\":2321:2329  gasLimit */\n      dup7\n        /* \"lib/omni/contracts/core/src/pkg/XAppBase.sol\":2290:2330  omni.feeFor(destChainId, data, gasLimit) */\n      mload(0x40)\n      dup5\n      0xffffffff\n      and\n      0xe0\n      shl\n      dup2\n      mstore\n      0x04\n      add\n      tag_185\n      swap4\n      swap3\n      swap2\n      swap1\n      tag_186\n      jump\t// in\n    tag_185:\n      0x20\n      mload(0x40)\n      dup1\n      dup4\n      sub\n      dup2\n      dup7\n      gas\n      staticcall\n      iszero\n      dup1\n      iszero\n      tag_188\n      jumpi\n      returndatasize\n      0x00\n      dup1\n      returndatacopy\n      revert(0x00, returndatasize)\n    tag_188:\n      pop\n      pop\n      pop\n      pop\n      mload(0x40)\n      returndatasize\n      not(0x1f)\n      0x1f\n      dup3\n      add\n      and\n      dup3\n      add\n      dup1\n      0x40\n      mstore\n      pop\n      dup2\n      add\n      swap1\n      tag_189\n      swap2\n      swap1\n      tag_190\n      jump\t// in\n    tag_189:\n        /* \"lib/omni/contracts/core/src/pkg/XAppBase.sol\":2276:2330  uint256 fee = omni.feeFor(destChainId, data, gasLimit) */\n      swap1\n      pop\n        /* \"lib/omni/contracts/core/src/pkg/XAppBase.sol\":2373:2376  fee */\n      dup1\n        /* \"lib/omni/contracts/core/src/pkg/XAppBase.sol\":2348:2369  address(this).balance */\n      selfbalance\n        /* \"lib/omni/contracts/core/src/pkg/XAppBase.sol\":2348:2376  address(this).balance >= fee */\n      lt\n      iszero\n        /* \"lib/omni/contracts/core/src/pkg/XAppBase.sol\":2348:2396  address(this).balance >= fee || msg.value >= fee */\n      dup1\n      tag_191\n      jumpi\n      pop\n        /* \"lib/omni/contracts/core/src/pkg/XAppBase.sol\":2393:2396  fee */\n      dup1\n        /* \"lib/omni/contracts/core/src/pkg/XAppBase.sol\":2380:2389  msg.value */\n      callvalue\n        /* \"lib/omni/contracts/core/src/pkg/XAppBase.sol\":2380:2396  msg.value >= fee */\n      lt\n      iszero\n        /* \"lib/omni/contracts/core/src/pkg/XAppBase.sol\":2348:2396  address(this).balance >= fee || msg.value >= fee */\n    tag_191:\n        /* \"lib/omni/contracts/core/src/pkg/XAppBase.sol\":2340:2425  require(address(this).balance >= fee || msg.value >= fee, \"XApp: insufficient funds\") */\n      tag_192\n      jumpi\n      mload(0x40)\n      0x08c379a000000000000000000000000000000000000000000000000000000000\n      dup2\n      mstore\n      0x04\n      add\n      tag_193\n      swap1\n      tag_194\n      jump\t// in\n    tag_193:\n      mload(0x40)\n      dup1\n      swap2\n      sub\n      swap1\n      revert\n    tag_192:\n        /* \"lib/omni/contracts/core/src/pkg/XAppBase.sol\":2435:2439  omni */\n      0x00\n      dup1\n      sload\n      swap1\n      0x0100\n      exp\n      swap1\n      div\n      0xffffffffffffffffffffffffffffffffffffffff\n      and\n        /* \"lib/omni/contracts/core/src/pkg/XAppBase.sol\":2435:2445  omni.xcall */\n      0xffffffffffffffffffffffffffffffffffffffff\n      and\n      0xc21dda4f\n        /* \"lib/omni/contracts/core/src/pkg/XAppBase.sol\":2454:2457  fee */\n      dup3\n        /* \"lib/omni/contracts/core/src/pkg/XAppBase.sol\":2460:2471  destChainId */\n      dup9\n        /* \"lib/omni/contracts/core/src/pkg/XAppBase.sol\":2473:2489  defaultConfLevel */\n      0x00\n      0x14\n      swap1\n      sload\n      swap1\n      0x0100\n      exp\n      swap1\n      div\n      0xff\n      and\n        /* \"lib/omni/contracts/core/src/pkg/XAppBase.sol\":2491:2493  to */\n      dup10\n        /* \"lib/omni/contracts/core/src/pkg/XAppBase.sol\":2495:2499  data */\n      dup10\n        /* \"lib/omni/contracts/core/src/pkg/XAppBase.sol\":2501:2509  gasLimit */\n      dup10\n        /* \"lib/omni/contracts/core/src/pkg/XAppBase.sol\":2435:2510  omni.xcall{ value: fee }(destChainId, defaultConfLevel, to, data, gasLimit) */\n      mload(0x40)\n      dup8\n      0xffffffff\n      and\n      0xe0\n      shl\n      dup2\n      mstore\n      0x04\n      add\n      tag_195\n      swap6\n      swap5\n      swap4\n      swap3\n      swap2\n      swap1\n      tag_196\n      jump\t// in\n    tag_195:\n      0x00\n      mload(0x40)\n      dup1\n      dup4\n      sub\n      dup2\n      dup6\n      dup9\n      dup1\n      extcodesize\n      iszero\n      dup1\n      iszero\n      tag_197\n      jumpi\n      0x00\n      dup1\n      revert\n    tag_197:\n      pop\n      gas\n      call\n      iszero\n      dup1\n      iszero\n      tag_199\n      jumpi\n      returndatasize\n      0x00\n      dup1\n      returndatacopy\n      revert(0x00, returndatasize)\n    tag_199:\n      pop\n      pop\n      pop\n      pop\n      pop\n        /* \"lib/omni/contracts/core/src/pkg/XAppBase.sol\":2527:2530  fee */\n      dup1\n        /* \"lib/omni/contracts/core/src/pkg/XAppBase.sol\":2520:2530  return fee */\n      swap2\n      pop\n      pop\n        /* \"lib/omni/contracts/core/src/pkg/XAppBase.sol\":2156:2537  function xcall(uint64 destChainId, address to, bytes memory data, uint64 gasLimit) internal returns (uint256) {... */\n      swap5\n      swap4\n      pop\n      pop\n      pop\n      pop\n      jump\t// out\n        /* \"src/wstf token launch/contracts/token/ERC20/OmniERC20.sol\":4132:4564  function _approve(address owner, address spender, uint256 value, bool emitEvent) internal virtual {... */\n    tag_149:\n        /* \"src/wstf token launch/contracts/token/ERC20/OmniERC20.sol\":4261:4262  0 */\n      0x00\n        /* \"src/wstf token launch/contracts/token/ERC20/OmniERC20.sol\":4244:4263  owner == address(0) */\n      0xffffffffffffffffffffffffffffffffffffffff\n      and\n        /* \"src/wstf token launch/contracts/token/ERC20/OmniERC20.sol\":4244:4249  owner */\n      dup5\n        /* \"src/wstf token launch/contracts/token/ERC20/OmniERC20.sol\":4244:4263  owner == address(0) */\n      0xffffffffffffffffffffffffffffffffffffffff\n      and\n      sub\n        /* \"src/wstf token launch/contracts/token/ERC20/OmniERC20.sol\":4240:4329  if (owner == address(0)) {... */\n      tag_201\n      jumpi\n        /* \"src/wstf token launch/contracts/token/ERC20/OmniERC20.sol\":4315:4316  0 */\n      0x00\n        /* \"src/wstf token launch/contracts/token/ERC20/OmniERC20.sol\":4286:4318  ERC20InvalidApprover(address(0)) */\n      mload(0x40)\n      0xe602df0500000000000000000000000000000000000000000000000000000000\n      dup2\n      mstore\n      0x04\n      add\n      tag_202\n      swap2\n      swap1\n      tag_160\n      jump\t// in\n    tag_202:\n      mload(0x40)\n      dup1\n      swap2\n      sub\n      swap1\n      revert\n        /* \"src/wstf token launch/contracts/token/ERC20/OmniERC20.sol\":4240:4329  if (owner == address(0)) {... */\n    tag_201:\n        /* \"src/wstf token launch/contracts/token/ERC20/OmniERC20.sol\":4361:4362  0 */\n      0x00\n        /* \"src/wstf token launch/contracts/token/ERC20/OmniERC20.sol\":4342:4363  spender == address(0) */\n      0xffffffffffffffffffffffffffffffffffffffff\n      and\n        /* \"src/wstf token launch/contracts/token/ERC20/OmniERC20.sol\":4342:4349  spender */\n      dup4\n        /* \"src/wstf token launch/contracts/token/ERC20/OmniERC20.sol\":4342:4363  spender == address(0) */\n      0xffffffffffffffffffffffffffffffffffffffff\n      and\n      sub\n        /* \"src/wstf token launch/contracts/token/ERC20/OmniERC20.sol\":4338:4428  if (spender == address(0)) {... */\n      tag_203\n      jumpi\n        /* \"src/wstf token launch/contracts/token/ERC20/OmniERC20.sol\":4414:4415  0 */\n      0x00\n        /* \"src/wstf token launch/contracts/token/ERC20/OmniERC20.sol\":4386:4417  ERC20InvalidSpender(address(0)) */\n      mload(0x40)\n      0x94280d6200000000000000000000000000000000000000000000000000000000\n      dup2\n      mstore\n      0x04\n      add\n      tag_204\n      swap2\n      swap1\n      tag_160\n      jump\t// in\n    tag_204:\n      mload(0x40)\n      dup1\n      swap2\n      sub\n      swap1\n      revert\n        /* \"src/wstf token launch/contracts/token/ERC20/OmniERC20.sol\":4338:4428  if (spender == address(0)) {... */\n    tag_203:\n        /* \"src/wstf token launch/contracts/token/ERC20/OmniERC20.sol\":4467:4472  value */\n      dup2\n        /* \"src/wstf token launch/contracts/token/ERC20/OmniERC20.sol\":4437:4448  _allowances */\n      0x03\n        /* \"src/wstf token launch/contracts/token/ERC20/OmniERC20.sol\":4437:4455  _allowances[owner] */\n      0x00\n        /* \"src/wstf token launch/contracts/token/ERC20/OmniERC20.sol\":4449:4454  owner */\n      dup7\n        /* \"src/wstf token launch/contracts/token/ERC20/OmniERC20.sol\":4437:4455  _allowances[owner] */\n      0xffffffffffffffffffffffffffffffffffffffff\n      and\n      0xffffffffffffffffffffffffffffffffffffffff\n      and\n      dup2\n      mstore\n      0x20\n      add\n      swap1\n      dup2\n      mstore\n      0x20\n      add\n      0x00\n      keccak256\n        /* \"src/wstf token launch/contracts/token/ERC20/OmniERC20.sol\":4437:4464  _allowances[owner][spender] */\n      0x00\n        /* \"src/wstf token launch/contracts/token/ERC20/OmniERC20.sol\":4456:4463  spender */\n      dup6\n        /* \"src/wstf token launch/contracts/token/ERC20/OmniERC20.sol\":4437:4464  _allowances[owner][spender] */\n      0xffffffffffffffffffffffffffffffffffffffff\n      and\n      0xffffffffffffffffffffffffffffffffffffffff\n      and\n      dup2\n      mstore\n      0x20\n      add\n      swap1\n      dup2\n      mstore\n      0x20\n      add\n      0x00\n      keccak256\n        /* \"src/wstf token launch/contracts/token/ERC20/OmniERC20.sol\":4437:4472  _allowances[owner][spender] = value */\n      dup2\n      swap1\n      sstore\n      pop\n        /* \"src/wstf token launch/contracts/token/ERC20/OmniERC20.sol\":4486:4495  emitEvent */\n      dup1\n        /* \"src/wstf token launch/contracts/token/ERC20/OmniERC20.sol\":4482:4558  if (emitEvent) {... */\n      iszero\n      tag_205\n      jumpi\n        /* \"src/wstf token launch/contracts/token/ERC20/OmniERC20.sol\":4532:4539  spender */\n      dup3\n        /* \"src/wstf token launch/contracts/token/ERC20/OmniERC20.sol\":4516:4547  Approval(owner, spender, value) */\n      0xffffffffffffffffffffffffffffffffffffffff\n      and\n        /* \"src/wstf token launch/contracts/token/ERC20/OmniERC20.sol\":4525:4530  owner */\n      dup5\n        /* \"src/wstf token launch/contracts/token/ERC20/OmniERC20.sol\":4516:4547  Approval(owner, spender, value) */\n      0xffffffffffffffffffffffffffffffffffffffff\n      and\n      0x8c5be1e5ebec7d5bd14f71427d1e84f3dd0314c0f7b2291e5b200ac8c7c3b925\n        /* \"src/wstf token launch/contracts/token/ERC20/OmniERC20.sol\":4541:4546  value */\n      dup5\n        /* \"src/wstf token launch/contracts/token/ERC20/OmniERC20.sol\":4516:4547  Approval(owner, spender, value) */\n      mload(0x40)\n      tag_206\n      swap2\n      swap1\n      tag_35\n      jump\t// in\n    tag_206:\n      mload(0x40)\n      dup1\n      swap2\n      sub\n      swap1\n      log3\n        /* \"src/wstf token launch/contracts/token/ERC20/OmniERC20.sol\":4482:4558  if (emitEvent) {... */\n    tag_205:\n        /* \"src/wstf token launch/contracts/token/ERC20/OmniERC20.sol\":4132:4564  function _approve(address owner, address spender, uint256 value, bool emitEvent) internal virtual {... */\n      pop\n      pop\n      pop\n      pop\n      jump\t// out\n        /* \"#utility.yul\":7:106   */\n    tag_207:\n        /* \"#utility.yul\":59:65   */\n      0x00\n        /* \"#utility.yul\":93:98   */\n      dup2\n        /* \"#utility.yul\":87:99   */\n      mload\n        /* \"#utility.yul\":77:99   */\n      swap1\n      pop\n        /* \"#utility.yul\":7:106   */\n      swap2\n      swap1\n      pop\n      jump\t// out\n        /* \"#utility.yul\":112:281   */\n    tag_208:\n        /* \"#utility.yul\":196:207   */\n      0x00\n        /* \"#utility.yul\":230:236   */\n      dup3\n        /* \"#utility.yul\":225:228   */\n      dup3\n        /* \"#utility.yul\":218:237   */\n      mstore\n        /* \"#utility.yul\":270:274   */\n      0x20\n        /* \"#utility.yul\":265:268   */\n      dup3\n        /* \"#utility.yul\":261:275   */\n      add\n        /* \"#utility.yul\":246:275   */\n      swap1\n      pop\n        /* \"#utility.yul\":112:281   */\n      swap3\n      swap2\n      pop\n      pop\n      jump\t// out\n        /* \"#utility.yul\":287:426   */\n    tag_209:\n        /* \"#utility.yul\":376:382   */\n      dup3\n        /* \"#utility.yul\":371:374   */\n      dup2\n        /* \"#utility.yul\":366:369   */\n      dup4\n        /* \"#utility.yul\":360:383   */\n      mcopy\n        /* \"#utility.yul\":417:418   */\n      0x00\n        /* \"#utility.yul\":408:414   */\n      dup4\n        /* \"#utility.yul\":403:406   */\n      dup4\n        /* \"#utility.yul\":399:415   */\n      add\n        /* \"#utility.yul\":392:419   */\n      mstore\n        /* \"#utility.yul\":287:426   */\n      pop\n      pop\n      pop\n      jump\t// out\n        /* \"#utility.yul\":432:534   */\n    tag_210:\n        /* \"#utility.yul\":473:479   */\n      0x00\n        /* \"#utility.yul\":524:526   */\n      0x1f\n        /* \"#utility.yul\":520:527   */\n      not\n        /* \"#utility.yul\":515:517   */\n      0x1f\n        /* \"#utility.yul\":508:513   */\n      dup4\n        /* \"#utility.yul\":504:518   */\n      add\n        /* \"#utility.yul\":500:528   */\n      and\n        /* \"#utility.yul\":490:528   */\n      swap1\n      pop\n        /* \"#utility.yul\":432:534   */\n      swap2\n      swap1\n      pop\n      jump\t// out\n        /* \"#utility.yul\":540:917   */\n    tag_211:\n        /* \"#utility.yul\":628:631   */\n      0x00\n        /* \"#utility.yul\":656:695   */\n      tag_265\n        /* \"#utility.yul\":689:694   */\n      dup3\n        /* \"#utility.yul\":656:695   */\n      tag_207\n      jump\t// in\n    tag_265:\n        /* \"#utility.yul\":711:782   */\n      tag_266\n        /* \"#utility.yul\":775:781   */\n      dup2\n        /* \"#utility.yul\":770:773   */\n      dup6\n        /* \"#utility.yul\":711:782   */\n      tag_208\n      jump\t// in\n    tag_266:\n        /* \"#utility.yul\":704:782   */\n      swap4\n      pop\n        /* \"#utility.yul\":791:856   */\n      tag_267\n        /* \"#utility.yul\":849:855   */\n      dup2\n        /* \"#utility.yul\":844:847   */\n      dup6\n        /* \"#utility.yul\":837:841   */\n      0x20\n        /* \"#utility.yul\":830:835   */\n      dup7\n        /* \"#utility.yul\":826:842   */\n      add\n        /* \"#utility.yul\":791:856   */\n      tag_209\n      jump\t// in\n    tag_267:\n        /* \"#utility.yul\":881:910   */\n      tag_268\n        /* \"#utility.yul\":903:909   */\n      dup2\n        /* \"#utility.yul\":881:910   */\n      tag_210\n      jump\t// in\n    tag_268:\n        /* \"#utility.yul\":876:879   */\n      dup5\n        /* \"#utility.yul\":872:911   */\n      add\n        /* \"#utility.yul\":865:911   */\n      swap2\n      pop\n        /* \"#utility.yul\":632:917   */\n      pop\n        /* \"#utility.yul\":540:917   */\n      swap3\n      swap2\n      pop\n      pop\n      jump\t// out\n        /* \"#utility.yul\":923:1236   */\n    tag_23:\n        /* \"#utility.yul\":1036:1040   */\n      0x00\n        /* \"#utility.yul\":1074:1076   */\n      0x20\n        /* \"#utility.yul\":1063:1072   */\n      dup3\n        /* \"#utility.yul\":1059:1077   */\n      add\n        /* \"#utility.yul\":1051:1077   */\n      swap1\n      pop\n        /* \"#utility.yul\":1123:1132   */\n      dup2\n        /* \"#utility.yul\":1117:1121   */\n      dup2\n        /* \"#utility.yul\":1113:1133   */\n      sub\n        /* \"#utility.yul\":1109:1110   */\n      0x00\n        /* \"#utility.yul\":1098:1107   */\n      dup4\n        /* \"#utility.yul\":1094:1111   */\n      add\n        /* \"#utility.yul\":1087:1134   */\n      mstore\n        /* \"#utility.yul\":1151:1229   */\n      tag_270\n        /* \"#utility.yul\":1224:1228   */\n      dup2\n        /* \"#utility.yul\":1215:1221   */\n      dup5\n        /* \"#utility.yul\":1151:1229   */\n      tag_211\n      jump\t// in\n    tag_270:\n        /* \"#utility.yul\":1143:1229   */\n      swap1\n      pop\n        /* \"#utility.yul\":923:1236   */\n      swap3\n      swap2\n      pop\n      pop\n      jump\t// out\n        /* \"#utility.yul\":1242:1317   */\n    tag_212:\n        /* \"#utility.yul\":1275:1281   */\n      0x00\n        /* \"#utility.yul\":1308:1310   */\n      0x40\n        /* \"#utility.yul\":1302:1311   */\n      mload\n        /* \"#utility.yul\":1292:1311   */\n      swap1\n      pop\n        /* \"#utility.yul\":1242:1317   */\n      swap1\n      jump\t// out\n        /* \"#utility.yul\":1323:1440   */\n    tag_213:\n        /* \"#utility.yul\":1432:1433   */\n      0x00\n        /* \"#utility.yul\":1429:1430   */\n      dup1\n        /* \"#utility.yul\":1422:1434   */\n      revert\n        /* \"#utility.yul\":1569:1695   */\n    tag_215:\n        /* \"#utility.yul\":1606:1613   */\n      0x00\n        /* \"#utility.yul\":1646:1688   */\n      0xffffffffffffffffffffffffffffffffffffffff\n        /* \"#utility.yul\":1639:1644   */\n      dup3\n        /* \"#utility.yul\":1635:1689   */\n      and\n        /* \"#utility.yul\":1624:1689   */\n      swap1\n      pop\n        /* \"#utility.yul\":1569:1695   */\n      swap2\n      swap1\n      pop\n      jump\t// out\n        /* \"#utility.yul\":1701:1797   */\n    tag_216:\n        /* \"#utility.yul\":1738:1745   */\n      0x00\n        /* \"#utility.yul\":1767:1791   */\n      tag_276\n        /* \"#utility.yul\":1785:1790   */\n      dup3\n        /* \"#utility.yul\":1767:1791   */\n      tag_215\n      jump\t// in\n    tag_276:\n        /* \"#utility.yul\":1756:1791   */\n      swap1\n      pop\n        /* \"#utility.yul\":1701:1797   */\n      swap2\n      swap1\n      pop\n      jump\t// out\n        /* \"#utility.yul\":1803:1925   */\n    tag_217:\n        /* \"#utility.yul\":1876:1900   */\n      tag_278\n        /* \"#utility.yul\":1894:1899   */\n      dup2\n        /* \"#utility.yul\":1876:1900   */\n      tag_216\n      jump\t// in\n    tag_278:\n        /* \"#utility.yul\":1869:1874   */\n      dup2\n        /* \"#utility.yul\":1866:1901   */\n      eq\n        /* \"#utility.yul\":1856:1919   */\n      tag_279\n      jumpi\n        /* \"#utility.yul\":1915:1916   */\n      0x00\n        /* \"#utility.yul\":1912:1913   */\n      dup1\n        /* \"#utility.yul\":1905:1917   */\n      revert\n        /* \"#utility.yul\":1856:1919   */\n    tag_279:\n        /* \"#utility.yul\":1803:1925   */\n      pop\n      jump\t// out\n        /* \"#utility.yul\":1931:2070   */\n    tag_218:\n        /* \"#utility.yul\":1977:1982   */\n      0x00\n        /* \"#utility.yul\":2015:2021   */\n      dup2\n        /* \"#utility.yul\":2002:2022   */\n      calldataload\n        /* \"#utility.yul\":1993:2022   */\n      swap1\n      pop\n        /* \"#utility.yul\":2031:2064   */\n      tag_281\n        /* \"#utility.yul\":2058:2063   */\n      dup2\n        /* \"#utility.yul\":2031:2064   */\n      tag_217\n      jump\t// in\n    tag_281:\n        /* \"#utility.yul\":1931:2070   */\n      swap3\n      swap2\n      pop\n      pop\n      jump\t// out\n        /* \"#utility.yul\":2076:2153   */\n    tag_219:\n        /* \"#utility.yul\":2113:2120   */\n      0x00\n        /* \"#utility.yul\":2142:2147   */\n      dup2\n        /* \"#utility.yul\":2131:2147   */\n      swap1\n      pop\n        /* \"#utility.yul\":2076:2153   */\n      swap2\n      swap1\n      pop\n      jump\t// out\n        /* \"#utility.yul\":2159:2281   */\n    tag_220:\n        /* \"#utility.yul\":2232:2256   */\n      tag_284\n        /* \"#utility.yul\":2250:2255   */\n      dup2\n        /* \"#utility.yul\":2232:2256   */\n      tag_219\n      jump\t// in\n    tag_284:\n        /* \"#utility.yul\":2225:2230   */\n      dup2\n        /* \"#utility.yul\":2222:2257   */\n      eq\n        /* \"#utility.yul\":2212:2275   */\n      tag_285\n      jumpi\n        /* \"#utility.yul\":2271:2272   */\n      0x00\n        /* \"#utility.yul\":2268:2269   */\n      dup1\n        /* \"#utility.yul\":2261:2273   */\n      revert\n        /* \"#utility.yul\":2212:2275   */\n    tag_285:\n        /* \"#utility.yul\":2159:2281   */\n      pop\n      jump\t// out\n        /* \"#utility.yul\":2287:2426   */\n    tag_221:\n        /* \"#utility.yul\":2333:2338   */\n      0x00\n        /* \"#utility.yul\":2371:2377   */\n      dup2\n        /* \"#utility.yul\":2358:2378   */\n      calldataload\n        /* \"#utility.yul\":2349:2378   */\n      swap1\n      pop\n        /* \"#utility.yul\":2387:2420   */\n      tag_287\n        /* \"#utility.yul\":2414:2419   */\n      dup2\n        /* \"#utility.yul\":2387:2420   */\n      tag_220\n      jump\t// in\n    tag_287:\n        /* \"#utility.yul\":2287:2426   */\n      swap3\n      swap2\n      pop\n      pop\n      jump\t// out\n        /* \"#utility.yul\":2432:2906   */\n    tag_27:\n        /* \"#utility.yul\":2500:2506   */\n      0x00\n        /* \"#utility.yul\":2508:2514   */\n      dup1\n        /* \"#utility.yul\":2557:2559   */\n      0x40\n        /* \"#utility.yul\":2545:2554   */\n      dup4\n        /* \"#utility.yul\":2536:2543   */\n      dup6\n        /* \"#utility.yul\":2532:2555   */\n      sub\n        /* \"#utility.yul\":2528:2560   */\n      slt\n        /* \"#utility.yul\":2525:2644   */\n      iszero\n      tag_289\n      jumpi\n        /* \"#utility.yul\":2563:2642   */\n      tag_290\n      tag_213\n      jump\t// in\n    tag_290:\n        /* \"#utility.yul\":2525:2644   */\n    tag_289:\n        /* \"#utility.yul\":2683:2684   */\n      0x00\n        /* \"#utility.yul\":2708:2761   */\n      tag_291\n        /* \"#utility.yul\":2753:2760   */\n      dup6\n        /* \"#utility.yul\":2744:2750   */\n      dup3\n        /* \"#utility.yul\":2733:2742   */\n      dup7\n        /* \"#utility.yul\":2729:2751   */\n      add\n        /* \"#utility.yul\":2708:2761   */\n      tag_218\n      jump\t// in\n    tag_291:\n        /* \"#utility.yul\":2698:2761   */\n      swap3\n      pop\n        /* \"#utility.yul\":2654:2771   */\n      pop\n        /* \"#utility.yul\":2810:2812   */\n      0x20\n        /* \"#utility.yul\":2836:2889   */\n      tag_292\n        /* \"#utility.yul\":2881:2888   */\n      dup6\n        /* \"#utility.yul\":2872:2878   */\n      dup3\n        /* \"#utility.yul\":2861:2870   */\n      dup7\n        /* \"#utility.yul\":2857:2879   */\n      add\n        /* \"#utility.yul\":2836:2889   */\n      tag_221\n      jump\t// in\n    tag_292:\n        /* \"#utility.yul\":2826:2889   */\n      swap2\n      pop\n        /* \"#utility.yul\":2781:2899   */\n      pop\n        /* \"#utility.yul\":2432:2906   */\n      swap3\n      pop\n      swap3\n      swap1\n      pop\n      jump\t// out\n        /* \"#utility.yul\":2912:3002   */\n    tag_222:\n        /* \"#utility.yul\":2946:2953   */\n      0x00\n        /* \"#utility.yul\":2989:2994   */\n      dup2\n        /* \"#utility.yul\":2982:2995   */\n      iszero\n        /* \"#utility.yul\":2975:2996   */\n      iszero\n        /* \"#utility.yul\":2964:2996   */\n      swap1\n      pop\n        /* \"#utility.yul\":2912:3002   */\n      swap2\n      swap1\n      pop\n      jump\t// out\n        /* \"#utility.yul\":3008:3117   */\n    tag_223:\n        /* \"#utility.yul\":3089:3110   */\n      tag_295\n        /* \"#utility.yul\":3104:3109   */\n      dup2\n        /* \"#utility.yul\":3089:3110   */\n      tag_222\n      jump\t// in\n    tag_295:\n        /* \"#utility.yul\":3084:3087   */\n      dup3\n        /* \"#utility.yul\":3077:3111   */\n      mstore\n        /* \"#utility.yul\":3008:3117   */\n      pop\n      pop\n      jump\t// out\n        /* \"#utility.yul\":3123:3333   */\n    tag_30:\n        /* \"#utility.yul\":3210:3214   */\n      0x00\n        /* \"#utility.yul\":3248:3250   */\n      0x20\n        /* \"#utility.yul\":3237:3246   */\n      dup3\n        /* \"#utility.yul\":3233:3251   */\n      add\n        /* \"#utility.yul\":3225:3251   */\n      swap1\n      pop\n        /* \"#utility.yul\":3261:3326   */\n      tag_297\n        /* \"#utility.yul\":3323:3324   */\n      0x00\n        /* \"#utility.yul\":3312:3321   */\n      dup4\n        /* \"#utility.yul\":3308:3325   */\n      add\n        /* \"#utility.yul\":3299:3305   */\n      dup5\n        /* \"#utility.yul\":3261:3326   */\n      tag_223\n      jump\t// in\n    tag_297:\n        /* \"#utility.yul\":3123:3333   */\n      swap3\n      swap2\n      pop\n      pop\n      jump\t// out\n        /* \"#utility.yul\":3339:3457   */\n    tag_224:\n        /* \"#utility.yul\":3426:3450   */\n      tag_299\n        /* \"#utility.yul\":3444:3449   */\n      dup2\n        /* \"#utility.yul\":3426:3450   */\n      tag_219\n      jump\t// in\n    tag_299:\n        /* \"#utility.yul\":3421:3424   */\n      dup3\n        /* \"#utility.yul\":3414:3451   */\n      mstore\n        /* \"#utility.yul\":3339:3457   */\n      pop\n      pop\n      jump\t// out\n        /* \"#utility.yul\":3463:3685   */\n    tag_35:\n        /* \"#utility.yul\":3556:3560   */\n      0x00\n        /* \"#utility.yul\":3594:3596   */\n      0x20\n        /* \"#utility.yul\":3583:3592   */\n      dup3\n        /* \"#utility.yul\":3579:3597   */\n      add\n        /* \"#utility.yul\":3571:3597   */\n      swap1\n      pop\n        /* \"#utility.yul\":3607:3678   */\n      tag_301\n        /* \"#utility.yul\":3675:3676   */\n      0x00\n        /* \"#utility.yul\":3664:3673   */\n      dup4\n        /* \"#utility.yul\":3660:3677   */\n      add\n        /* \"#utility.yul\":3651:3657   */\n      dup5\n        /* \"#utility.yul\":3607:3678   */\n      tag_224\n      jump\t// in\n    tag_301:\n        /* \"#utility.yul\":3463:3685   */\n      swap3\n      swap2\n      pop\n      pop\n      jump\t// out\n        /* \"#utility.yul\":3691:4310   */\n    tag_39:\n        /* \"#utility.yul\":3768:3774   */\n      0x00\n        /* \"#utility.yul\":3776:3782   */\n      dup1\n        /* \"#utility.yul\":3784:3790   */\n      0x00\n        /* \"#utility.yul\":3833:3835   */\n      0x60\n        /* \"#utility.yul\":3821:3830   */\n      dup5\n        /* \"#utility.yul\":3812:3819   */\n      dup7\n        /* \"#utility.yul\":3808:3831   */\n      sub\n        /* \"#utility.yul\":3804:3836   */\n      slt\n        /* \"#utility.yul\":3801:3920   */\n      iszero\n      tag_303\n      jumpi\n        /* \"#utility.yul\":3839:3918   */\n      tag_304\n      tag_213\n      jump\t// in\n    tag_304:\n        /* \"#utility.yul\":3801:3920   */\n    tag_303:\n        /* \"#utility.yul\":3959:3960   */\n      0x00\n        /* \"#utility.yul\":3984:4037   */\n      tag_305\n        /* \"#utility.yul\":4029:4036   */\n      dup7\n        /* \"#utility.yul\":4020:4026   */\n      dup3\n        /* \"#utility.yul\":4009:4018   */\n      dup8\n        /* \"#utility.yul\":4005:4027   */\n      add\n        /* \"#utility.yul\":3984:4037   */\n      tag_218\n      jump\t// in\n    tag_305:\n        /* \"#utility.yul\":3974:4037   */\n      swap4\n      pop\n        /* \"#utility.yul\":3930:4047   */\n      pop\n        /* \"#utility.yul\":4086:4088   */\n      0x20\n        /* \"#utility.yul\":4112:4165   */\n      tag_306\n        /* \"#utility.yul\":4157:4164   */\n      dup7\n        /* \"#utility.yul\":4148:4154   */\n      dup3\n        /* \"#utility.yul\":4137:4146   */\n      dup8\n        /* \"#utility.yul\":4133:4155   */\n      add\n        /* \"#utility.yul\":4112:4165   */\n      tag_218\n      jump\t// in\n    tag_306:\n        /* \"#utility.yul\":4102:4165   */\n      swap3\n      pop\n        /* \"#utility.yul\":4057:4175   */\n      pop\n        /* \"#utility.yul\":4214:4216   */\n      0x40\n        /* \"#utility.yul\":4240:4293   */\n      tag_307\n        /* \"#utility.yul\":4285:4292   */\n      dup7\n        /* \"#utility.yul\":4276:4282   */\n      dup3\n        /* \"#utility.yul\":4265:4274   */\n      dup8\n        /* \"#utility.yul\":4261:4283   */\n      add\n        /* \"#utility.yul\":4240:4293   */\n      tag_221\n      jump\t// in\n    tag_307:\n        /* \"#utility.yul\":4230:4293   */\n      swap2\n      pop\n        /* \"#utility.yul\":4185:4303   */\n      pop\n        /* \"#utility.yul\":3691:4310   */\n      swap3\n      pop\n      swap3\n      pop\n      swap3\n      jump\t// out\n        /* \"#utility.yul\":4316:4402   */\n    tag_225:\n        /* \"#utility.yul\":4351:4358   */\n      0x00\n        /* \"#utility.yul\":4391:4395   */\n      0xff\n        /* \"#utility.yul\":4384:4389   */\n      dup3\n        /* \"#utility.yul\":4380:4396   */\n      and\n        /* \"#utility.yul\":4369:4396   */\n      swap1\n      pop\n        /* \"#utility.yul\":4316:4402   */\n      swap2\n      swap1\n      pop\n      jump\t// out\n        /* \"#utility.yul\":4408:4520   */\n    tag_226:\n        /* \"#utility.yul\":4491:4513   */\n      tag_310\n        /* \"#utility.yul\":4507:4512   */\n      dup2\n        /* \"#utility.yul\":4491:4513   */\n      tag_225\n      jump\t// in\n    tag_310:\n        /* \"#utility.yul\":4486:4489   */\n      dup3\n        /* \"#utility.yul\":4479:4514   */\n      mstore\n        /* \"#utility.yul\":4408:4520   */\n      pop\n      pop\n      jump\t// out\n        /* \"#utility.yul\":4526:4740   */\n    tag_46:\n        /* \"#utility.yul\":4615:4619   */\n      0x00\n        /* \"#utility.yul\":4653:4655   */\n      0x20\n        /* \"#utility.yul\":4642:4651   */\n      dup3\n        /* \"#utility.yul\":4638:4656   */\n      add\n        /* \"#utility.yul\":4630:4656   */\n      swap1\n      pop\n        /* \"#utility.yul\":4666:4733   */\n      tag_312\n        /* \"#utility.yul\":4730:4731   */\n      0x00\n        /* \"#utility.yul\":4719:4728   */\n      dup4\n        /* \"#utility.yul\":4715:4732   */\n      add\n        /* \"#utility.yul\":4706:4712   */\n      dup5\n        /* \"#utility.yul\":4666:4733   */\n      tag_226\n      jump\t// in\n    tag_312:\n        /* \"#utility.yul\":4526:4740   */\n      swap3\n      swap2\n      pop\n      pop\n      jump\t// out\n        /* \"#utility.yul\":4746:4806   */\n    tag_227:\n        /* \"#utility.yul\":4774:4777   */\n      0x00\n        /* \"#utility.yul\":4795:4800   */\n      dup2\n        /* \"#utility.yul\":4788:4800   */\n      swap1\n      pop\n        /* \"#utility.yul\":4746:4806   */\n      swap2\n      swap1\n      pop\n      jump\t// out\n        /* \"#utility.yul\":4812:4954   */\n    tag_228:\n        /* \"#utility.yul\":4862:4871   */\n      0x00\n        /* \"#utility.yul\":4895:4948   */\n      tag_315\n        /* \"#utility.yul\":4913:4947   */\n      tag_316\n        /* \"#utility.yul\":4922:4946   */\n      tag_317\n        /* \"#utility.yul\":4940:4945   */\n      dup5\n        /* \"#utility.yul\":4922:4946   */\n      tag_215\n      jump\t// in\n    tag_317:\n        /* \"#utility.yul\":4913:4947   */\n      tag_227\n      jump\t// in\n    tag_316:\n        /* \"#utility.yul\":4895:4948   */\n      tag_215\n      jump\t// in\n    tag_315:\n        /* \"#utility.yul\":4882:4948   */\n      swap1\n      pop\n        /* \"#utility.yul\":4812:4954   */\n      swap2\n      swap1\n      pop\n      jump\t// out\n        /* \"#utility.yul\":4960:5086   */\n    tag_229:\n        /* \"#utility.yul\":5010:5019   */\n      0x00\n        /* \"#utility.yul\":5043:5080   */\n      tag_319\n        /* \"#utility.yul\":5074:5079   */\n      dup3\n        /* \"#utility.yul\":5043:5080   */\n      tag_228\n      jump\t// in\n    tag_319:\n        /* \"#utility.yul\":5030:5080   */\n      swap1\n      pop\n        /* \"#utility.yul\":4960:5086   */\n      swap2\n      swap1\n      pop\n      jump\t// out\n        /* \"#utility.yul\":5092:5237   */\n    tag_230:\n        /* \"#utility.yul\":5161:5170   */\n      0x00\n        /* \"#utility.yul\":5194:5231   */\n      tag_321\n        /* \"#utility.yul\":5225:5230   */\n      dup3\n        /* \"#utility.yul\":5194:5231   */\n      tag_229\n      jump\t// in\n    tag_321:\n        /* \"#utility.yul\":5181:5231   */\n      swap1\n      pop\n        /* \"#utility.yul\":5092:5237   */\n      swap2\n      swap1\n      pop\n      jump\t// out\n        /* \"#utility.yul\":5243:5412   */\n    tag_231:\n        /* \"#utility.yul\":5349:5405   */\n      tag_323\n        /* \"#utility.yul\":5399:5404   */\n      dup2\n        /* \"#utility.yul\":5349:5405   */\n      tag_230\n      jump\t// in\n    tag_323:\n        /* \"#utility.yul\":5344:5347   */\n      dup3\n        /* \"#utility.yul\":5337:5406   */\n      mstore\n        /* \"#utility.yul\":5243:5412   */\n      pop\n      pop\n      jump\t// out\n        /* \"#utility.yul\":5418:5678   */\n    tag_51:\n        /* \"#utility.yul\":5530:5534   */\n      0x00\n        /* \"#utility.yul\":5568:5570   */\n      0x20\n        /* \"#utility.yul\":5557:5566   */\n      dup3\n        /* \"#utility.yul\":5553:5571   */\n      add\n        /* \"#utility.yul\":5545:5571   */\n      swap1\n      pop\n        /* \"#utility.yul\":5581:5671   */\n      tag_325\n        /* \"#utility.yul\":5668:5669   */\n      0x00\n        /* \"#utility.yul\":5657:5666   */\n      dup4\n        /* \"#utility.yul\":5653:5670   */\n      add\n        /* \"#utility.yul\":5644:5650   */\n      dup5\n        /* \"#utility.yul\":5581:5671   */\n      tag_231\n      jump\t// in\n    tag_325:\n        /* \"#utility.yul\":5418:5678   */\n      swap3\n      swap2\n      pop\n      pop\n      jump\t// out\n        /* \"#utility.yul\":5684:6013   */\n    tag_63:\n        /* \"#utility.yul\":5743:5749   */\n      0x00\n        /* \"#utility.yul\":5792:5794   */\n      0x20\n        /* \"#utility.yul\":5780:5789   */\n      dup3\n        /* \"#utility.yul\":5771:5778   */\n      dup5\n        /* \"#utility.yul\":5767:5790   */\n      sub\n        /* \"#utility.yul\":5763:5795   */\n      slt\n        /* \"#utility.yul\":5760:5879   */\n      iszero\n      tag_327\n      jumpi\n        /* \"#utility.yul\":5798:5877   */\n      tag_328\n      tag_213\n      jump\t// in\n    tag_328:\n        /* \"#utility.yul\":5760:5879   */\n    tag_327:\n        /* \"#utility.yul\":5918:5919   */\n      0x00\n        /* \"#utility.yul\":5943:5996   */\n      tag_329\n        /* \"#utility.yul\":5988:5995   */\n      dup5\n        /* \"#utility.yul\":5979:5985   */\n      dup3\n        /* \"#utility.yul\":5968:5977   */\n      dup6\n        /* \"#utility.yul\":5964:5986   */\n      add\n        /* \"#utility.yul\":5943:5996   */\n      tag_218\n      jump\t// in\n    tag_329:\n        /* \"#utility.yul\":5933:5996   */\n      swap2\n      pop\n        /* \"#utility.yul\":5889:6006   */\n      pop\n        /* \"#utility.yul\":5684:6013   */\n      swap3\n      swap2\n      pop\n      pop\n      jump\t// out\n        /* \"#utility.yul\":6019:6120   */\n    tag_232:\n        /* \"#utility.yul\":6055:6062   */\n      0x00\n        /* \"#utility.yul\":6095:6113   */\n      0xffffffffffffffff\n        /* \"#utility.yul\":6088:6093   */\n      dup3\n        /* \"#utility.yul\":6084:6114   */\n      and\n        /* \"#utility.yul\":6073:6114   */\n      swap1\n      pop\n        /* \"#utility.yul\":6019:6120   */\n      swap2\n      swap1\n      pop\n      jump\t// out\n        /* \"#utility.yul\":6126:6246   */\n    tag_233:\n        /* \"#utility.yul\":6198:6221   */\n      tag_332\n        /* \"#utility.yul\":6215:6220   */\n      dup2\n        /* \"#utility.yul\":6198:6221   */\n      tag_232\n      jump\t// in\n    tag_332:\n        /* \"#utility.yul\":6191:6196   */\n      dup2\n        /* \"#utility.yul\":6188:6222   */\n      eq\n        /* \"#utility.yul\":6178:6240   */\n      tag_333\n      jumpi\n        /* \"#utility.yul\":6236:6237   */\n      0x00\n        /* \"#utility.yul\":6233:6234   */\n      dup1\n        /* \"#utility.yul\":6226:6238   */\n      revert\n        /* \"#utility.yul\":6178:6240   */\n    tag_333:\n        /* \"#utility.yul\":6126:6246   */\n      pop\n      jump\t// out\n        /* \"#utility.yul\":6252:6389   */\n    tag_234:\n        /* \"#utility.yul\":6297:6302   */\n      0x00\n        /* \"#utility.yul\":6335:6341   */\n      dup2\n        /* \"#utility.yul\":6322:6342   */\n      calldataload\n        /* \"#utility.yul\":6313:6342   */\n      swap1\n      pop\n        /* \"#utility.yul\":6351:6383   */\n      tag_335\n        /* \"#utility.yul\":6377:6382   */\n      dup2\n        /* \"#utility.yul\":6351:6383   */\n      tag_233\n      jump\t// in\n    tag_335:\n        /* \"#utility.yul\":6252:6389   */\n      swap3\n      swap2\n      pop\n      pop\n      jump\t// out\n        /* \"#utility.yul\":6395:7012   */\n    tag_81:\n        /* \"#utility.yul\":6471:6477   */\n      0x00\n        /* \"#utility.yul\":6479:6485   */\n      dup1\n        /* \"#utility.yul\":6487:6493   */\n      0x00\n        /* \"#utility.yul\":6536:6538   */\n      0x60\n        /* \"#utility.yul\":6524:6533   */\n      dup5\n        /* \"#utility.yul\":6515:6522   */\n      dup7\n        /* \"#utility.yul\":6511:6534   */\n      sub\n        /* \"#utility.yul\":6507:6539   */\n      slt\n        /* \"#utility.yul\":6504:6623   */\n      iszero\n      tag_337\n      jumpi\n        /* \"#utility.yul\":6542:6621   */\n      tag_338\n      tag_213\n      jump\t// in\n    tag_338:\n        /* \"#utility.yul\":6504:6623   */\n    tag_337:\n        /* \"#utility.yul\":6662:6663   */\n      0x00\n        /* \"#utility.yul\":6687:6739   */\n      tag_339\n        /* \"#utility.yul\":6731:6738   */\n      dup7\n        /* \"#utility.yul\":6722:6728   */\n      dup3\n        /* \"#utility.yul\":6711:6720   */\n      dup8\n        /* \"#utility.yul\":6707:6729   */\n      add\n        /* \"#utility.yul\":6687:6739   */\n      tag_234\n      jump\t// in\n    tag_339:\n        /* \"#utility.yul\":6677:6739   */\n      swap4\n      pop\n        /* \"#utility.yul\":6633:6749   */\n      pop\n        /* \"#utility.yul\":6788:6790   */\n      0x20\n        /* \"#utility.yul\":6814:6867   */\n      tag_340\n        /* \"#utility.yul\":6859:6866   */\n      dup7\n        /* \"#utility.yul\":6850:6856   */\n      dup3\n        /* \"#utility.yul\":6839:6848   */\n      dup8\n        /* \"#utility.yul\":6835:6857   */\n      add\n        /* \"#utility.yul\":6814:6867   */\n      tag_218\n      jump\t// in\n    tag_340:\n        /* \"#utility.yul\":6804:6867   */\n      swap3\n      pop\n        /* \"#utility.yul\":6759:6877   */\n      pop\n        /* \"#utility.yul\":6916:6918   */\n      0x40\n        /* \"#utility.yul\":6942:6995   */\n      tag_341\n        /* \"#utility.yul\":6987:6994   */\n      dup7\n        /* \"#utility.yul\":6978:6984   */\n      dup3\n        /* \"#utility.yul\":6967:6976   */\n      dup8\n        /* \"#utility.yul\":6963:6985   */\n      add\n        /* \"#utility.yul\":6942:6995   */\n      tag_221\n      jump\t// in\n    tag_341:\n        /* \"#utility.yul\":6932:6995   */\n      swap2\n      pop\n        /* \"#utility.yul\":6887:7005   */\n      pop\n        /* \"#utility.yul\":6395:7012   */\n      swap3\n      pop\n      swap3\n      pop\n      swap3\n      jump\t// out\n        /* \"#utility.yul\":7018:7492   */\n    tag_86:\n        /* \"#utility.yul\":7086:7092   */\n      0x00\n        /* \"#utility.yul\":7094:7100   */\n      dup1\n        /* \"#utility.yul\":7143:7145   */\n      0x40\n        /* \"#utility.yul\":7131:7140   */\n      dup4\n        /* \"#utility.yul\":7122:7129   */\n      dup6\n        /* \"#utility.yul\":7118:7141   */\n      sub\n        /* \"#utility.yul\":7114:7146   */\n      slt\n        /* \"#utility.yul\":7111:7230   */\n      iszero\n      tag_343\n      jumpi\n        /* \"#utility.yul\":7149:7228   */\n      tag_344\n      tag_213\n      jump\t// in\n    tag_344:\n        /* \"#utility.yul\":7111:7230   */\n    tag_343:\n        /* \"#utility.yul\":7269:7270   */\n      0x00\n        /* \"#utility.yul\":7294:7347   */\n      tag_345\n        /* \"#utility.yul\":7339:7346   */\n      dup6\n        /* \"#utility.yul\":7330:7336   */\n      dup3\n        /* \"#utility.yul\":7319:7328   */\n      dup7\n        /* \"#utility.yul\":7315:7337   */\n      add\n        /* \"#utility.yul\":7294:7347   */\n      tag_218\n      jump\t// in\n    tag_345:\n        /* \"#utility.yul\":7284:7347   */\n      swap3\n      pop\n        /* \"#utility.yul\":7240:7357   */\n      pop\n        /* \"#utility.yul\":7396:7398   */\n      0x20\n        /* \"#utility.yul\":7422:7475   */\n      tag_346\n        /* \"#utility.yul\":7467:7474   */\n      dup6\n        /* \"#utility.yul\":7458:7464   */\n      dup3\n        /* \"#utility.yul\":7447:7456   */\n      dup7\n        /* \"#utility.yul\":7443:7465   */\n      add\n        /* \"#utility.yul\":7422:7475   */\n      tag_218\n      jump\t// in\n    tag_346:\n        /* \"#utility.yul\":7412:7475   */\n      swap2\n      pop\n        /* \"#utility.yul\":7367:7485   */\n      pop\n        /* \"#utility.yul\":7018:7492   */\n      swap3\n      pop\n      swap3\n      swap1\n      pop\n      jump\t// out\n        /* \"#utility.yul\":7498:7678   */\n    tag_235:\n        /* \"#utility.yul\":7546:7623   */\n      0x4e487b7100000000000000000000000000000000000000000000000000000000\n        /* \"#utility.yul\":7543:7544   */\n      0x00\n        /* \"#utility.yul\":7536:7624   */\n      mstore\n        /* \"#utility.yul\":7643:7647   */\n      0x22\n        /* \"#utility.yul\":7640:7641   */\n      0x04\n        /* \"#utility.yul\":7633:7648   */\n      mstore\n        /* \"#utility.yul\":7667:7671   */\n      0x24\n        /* \"#utility.yul\":7664:7665   */\n      0x00\n        /* \"#utility.yul\":7657:7672   */\n      revert\n        /* \"#utility.yul\":7684:8004   */\n    tag_91:\n        /* \"#utility.yul\":7728:7734   */\n      0x00\n        /* \"#utility.yul\":7765:7766   */\n      0x02\n        /* \"#utility.yul\":7759:7763   */\n      dup3\n        /* \"#utility.yul\":7755:7767   */\n      div\n        /* \"#utility.yul\":7745:7767   */\n      swap1\n      pop\n        /* \"#utility.yul\":7812:7813   */\n      0x01\n        /* \"#utility.yul\":7806:7810   */\n      dup3\n        /* \"#utility.yul\":7802:7814   */\n      and\n        /* \"#utility.yul\":7833:7851   */\n      dup1\n        /* \"#utility.yul\":7823:7904   */\n      tag_349\n      jumpi\n        /* \"#utility.yul\":7889:7893   */\n      0x7f\n        /* \"#utility.yul\":7881:7887   */\n      dup3\n        /* \"#utility.yul\":7877:7894   */\n      and\n        /* \"#utility.yul\":7867:7894   */\n      swap2\n      pop\n        /* \"#utility.yul\":7823:7904   */\n    tag_349:\n        /* \"#utility.yul\":7951:7953   */\n      0x20\n        /* \"#utility.yul\":7943:7949   */\n      dup3\n        /* \"#utility.yul\":7940:7954   */\n      lt\n        /* \"#utility.yul\":7920:7938   */\n      dup2\n        /* \"#utility.yul\":7917:7955   */\n      sub\n        /* \"#utility.yul\":7914:7998   */\n      tag_350\n      jumpi\n        /* \"#utility.yul\":7970:7988   */\n      tag_351\n      tag_235\n      jump\t// in\n    tag_351:\n        /* \"#utility.yul\":7914:7998   */\n    tag_350:\n        /* \"#utility.yul\":7735:8004   */\n      pop\n        /* \"#utility.yul\":7684:8004   */\n      swap2\n      swap1\n      pop\n      jump\t// out\n        /* \"#utility.yul\":8010:8127   */\n    tag_236:\n        /* \"#utility.yul\":8119:8120   */\n      0x00\n        /* \"#utility.yul\":8116:8117   */\n      dup1\n        /* \"#utility.yul\":8109:8121   */\n      revert\n        /* \"#utility.yul\":8133:8313   */\n    tag_237:\n        /* \"#utility.yul\":8181:8258   */\n      0x4e487b7100000000000000000000000000000000000000000000000000000000\n        /* \"#utility.yul\":8178:8179   */\n      0x00\n        /* \"#utility.yul\":8171:8259   */\n      mstore\n        /* \"#utility.yul\":8278:8282   */\n      0x41\n        /* \"#utility.yul\":8275:8276   */\n      0x04\n        /* \"#utility.yul\":8268:8283   */\n      mstore\n        /* \"#utility.yul\":8302:8306   */\n      0x24\n        /* \"#utility.yul\":8299:8300   */\n      0x00\n        /* \"#utility.yul\":8292:8307   */\n      revert\n        /* \"#utility.yul\":8319:8600   */\n    tag_238:\n        /* \"#utility.yul\":8402:8429   */\n      tag_355\n        /* \"#utility.yul\":8424:8428   */\n      dup3\n        /* \"#utility.yul\":8402:8429   */\n      tag_210\n      jump\t// in\n    tag_355:\n        /* \"#utility.yul\":8394:8400   */\n      dup2\n        /* \"#utility.yul\":8390:8430   */\n      add\n        /* \"#utility.yul\":8532:8538   */\n      dup2\n        /* \"#utility.yul\":8520:8530   */\n      dup2\n        /* \"#utility.yul\":8517:8539   */\n      lt\n        /* \"#utility.yul\":8496:8514   */\n      0xffffffffffffffff\n        /* \"#utility.yul\":8484:8494   */\n      dup3\n        /* \"#utility.yul\":8481:8515   */\n      gt\n        /* \"#utility.yul\":8478:8540   */\n      or\n        /* \"#utility.yul\":8475:8563   */\n      iszero\n      tag_356\n      jumpi\n        /* \"#utility.yul\":8543:8561   */\n      tag_357\n      tag_237\n      jump\t// in\n    tag_357:\n        /* \"#utility.yul\":8475:8563   */\n    tag_356:\n        /* \"#utility.yul\":8583:8593   */\n      dup1\n        /* \"#utility.yul\":8579:8581   */\n      0x40\n        /* \"#utility.yul\":8572:8594   */\n      mstore\n        /* \"#utility.yul\":8362:8600   */\n      pop\n        /* \"#utility.yul\":8319:8600   */\n      pop\n      pop\n      jump\t// out\n        /* \"#utility.yul\":8606:8735   */\n    tag_239:\n        /* \"#utility.yul\":8640:8646   */\n      0x00\n        /* \"#utility.yul\":8667:8687   */\n      tag_359\n      tag_212\n      jump\t// in\n    tag_359:\n        /* \"#utility.yul\":8657:8687   */\n      swap1\n      pop\n        /* \"#utility.yul\":8696:8729   */\n      tag_360\n        /* \"#utility.yul\":8724:8728   */\n      dup3\n        /* \"#utility.yul\":8716:8722   */\n      dup3\n        /* \"#utility.yul\":8696:8729   */\n      tag_238\n      jump\t// in\n    tag_360:\n        /* \"#utility.yul\":8606:8735   */\n      swap2\n      swap1\n      pop\n      jump\t// out\n        /* \"#utility.yul\":8864:9005   */\n    tag_241:\n        /* \"#utility.yul\":8920:8925   */\n      0x00\n        /* \"#utility.yul\":8951:8957   */\n      dup2\n        /* \"#utility.yul\":8945:8958   */\n      mload\n        /* \"#utility.yul\":8936:8958   */\n      swap1\n      pop\n        /* \"#utility.yul\":8967:8999   */\n      tag_363\n        /* \"#utility.yul\":8993:8998   */\n      dup2\n        /* \"#utility.yul\":8967:8999   */\n      tag_233\n      jump\t// in\n    tag_363:\n        /* \"#utility.yul\":8864:9005   */\n      swap3\n      swap2\n      pop\n      pop\n      jump\t// out\n        /* \"#utility.yul\":9011:9154   */\n    tag_242:\n        /* \"#utility.yul\":9068:9073   */\n      0x00\n        /* \"#utility.yul\":9099:9105   */\n      dup2\n        /* \"#utility.yul\":9093:9106   */\n      mload\n        /* \"#utility.yul\":9084:9106   */\n      swap1\n      pop\n        /* \"#utility.yul\":9115:9148   */\n      tag_365\n        /* \"#utility.yul\":9142:9147   */\n      dup2\n        /* \"#utility.yul\":9115:9148   */\n      tag_217\n      jump\t// in\n    tag_365:\n        /* \"#utility.yul\":9011:9154   */\n      swap3\n      swap2\n      pop\n      pop\n      jump\t// out\n        /* \"#utility.yul\":9192:9811   */\n    tag_243:\n        /* \"#utility.yul\":9279:9284   */\n      0x00\n        /* \"#utility.yul\":9323:9327   */\n      0x40\n        /* \"#utility.yul\":9311:9320   */\n      dup3\n        /* \"#utility.yul\":9306:9309   */\n      dup5\n        /* \"#utility.yul\":9302:9321   */\n      sub\n        /* \"#utility.yul\":9298:9328   */\n      slt\n        /* \"#utility.yul\":9295:9412   */\n      iszero\n      tag_367\n      jumpi\n        /* \"#utility.yul\":9331:9410   */\n      tag_368\n      tag_236\n      jump\t// in\n    tag_368:\n        /* \"#utility.yul\":9295:9412   */\n    tag_367:\n        /* \"#utility.yul\":9430:9451   */\n      tag_369\n        /* \"#utility.yul\":9446:9450   */\n      0x40\n        /* \"#utility.yul\":9430:9451   */\n      tag_239\n      jump\t// in\n    tag_369:\n        /* \"#utility.yul\":9421:9451   */\n      swap1\n      pop\n        /* \"#utility.yul\":9519:9520   */\n      0x00\n        /* \"#utility.yul\":9559:9618   */\n      tag_370\n        /* \"#utility.yul\":9614:9617   */\n      dup5\n        /* \"#utility.yul\":9605:9611   */\n      dup3\n        /* \"#utility.yul\":9594:9603   */\n      dup6\n        /* \"#utility.yul\":9590:9612   */\n      add\n        /* \"#utility.yul\":9559:9618   */\n      tag_241\n      jump\t// in\n    tag_370:\n        /* \"#utility.yul\":9552:9556   */\n      0x00\n        /* \"#utility.yul\":9545:9550   */\n      dup4\n        /* \"#utility.yul\":9541:9557   */\n      add\n        /* \"#utility.yul\":9534:9619   */\n      mstore\n        /* \"#utility.yul\":9461:9630   */\n      pop\n        /* \"#utility.yul\":9691:9693   */\n      0x20\n        /* \"#utility.yul\":9732:9792   */\n      tag_371\n        /* \"#utility.yul\":9788:9791   */\n      dup5\n        /* \"#utility.yul\":9779:9785   */\n      dup3\n        /* \"#utility.yul\":9768:9777   */\n      dup6\n        /* \"#utility.yul\":9764:9786   */\n      add\n        /* \"#utility.yul\":9732:9792   */\n      tag_242\n      jump\t// in\n    tag_371:\n        /* \"#utility.yul\":9725:9729   */\n      0x20\n        /* \"#utility.yul\":9718:9723   */\n      dup4\n        /* \"#utility.yul\":9714:9730   */\n      add\n        /* \"#utility.yul\":9707:9793   */\n      mstore\n        /* \"#utility.yul\":9640:9804   */\n      pop\n        /* \"#utility.yul\":9192:9811   */\n      swap3\n      swap2\n      pop\n      pop\n      jump\t// out\n        /* \"#utility.yul\":9817:10222   */\n    tag_116:\n        /* \"#utility.yul\":9914:9920   */\n      0x00\n        /* \"#utility.yul\":9963:9965   */\n      0x40\n        /* \"#utility.yul\":9951:9960   */\n      dup3\n        /* \"#utility.yul\":9942:9949   */\n      dup5\n        /* \"#utility.yul\":9938:9961   */\n      sub\n        /* \"#utility.yul\":9934:9966   */\n      slt\n        /* \"#utility.yul\":9931:10050   */\n      iszero\n      tag_373\n      jumpi\n        /* \"#utility.yul\":9969:10048   */\n      tag_374\n      tag_213\n      jump\t// in\n    tag_374:\n        /* \"#utility.yul\":9931:10050   */\n    tag_373:\n        /* \"#utility.yul\":10089:10090   */\n      0x00\n        /* \"#utility.yul\":10114:10205   */\n      tag_375\n        /* \"#utility.yul\":10197:10204   */\n      dup5\n        /* \"#utility.yul\":10188:10194   */\n      dup3\n        /* \"#utility.yul\":10177:10186   */\n      dup6\n        /* \"#utility.yul\":10173:10195   */\n      add\n        /* \"#utility.yul\":10114:10205   */\n      tag_243\n      jump\t// in\n    tag_375:\n        /* \"#utility.yul\":10104:10205   */\n      swap2\n      pop\n        /* \"#utility.yul\":10060:10215   */\n      pop\n        /* \"#utility.yul\":9817:10222   */\n      swap3\n      swap2\n      pop\n      pop\n      jump\t// out\n        /* \"#utility.yul\":10228:10463   */\n    tag_244:\n        /* \"#utility.yul\":10368:10402   */\n      0x4f6d6e6945524332303a204f6e6c792063616c6c61626c65207669612063726f\n        /* \"#utility.yul\":10364:10365   */\n      0x00\n        /* \"#utility.yul\":10356:10362   */\n      dup3\n        /* \"#utility.yul\":10352:10366   */\n      add\n        /* \"#utility.yul\":10345:10403   */\n      mstore\n        /* \"#utility.yul\":10437:10455   */\n      0x73732d636861696e206d65737361676500000000000000000000000000000000\n        /* \"#utility.yul\":10432:10434   */\n      0x20\n        /* \"#utility.yul\":10424:10430   */\n      dup3\n        /* \"#utility.yul\":10420:10435   */\n      add\n        /* \"#utility.yul\":10413:10456   */\n      mstore\n        /* \"#utility.yul\":10228:10463   */\n      pop\n      jump\t// out\n        /* \"#utility.yul\":10469:10835   */\n    tag_245:\n        /* \"#utility.yul\":10611:10614   */\n      0x00\n        /* \"#utility.yul\":10632:10699   */\n      tag_378\n        /* \"#utility.yul\":10696:10698   */\n      0x30\n        /* \"#utility.yul\":10691:10694   */\n      dup4\n        /* \"#utility.yul\":10632:10699   */\n      tag_208\n      jump\t// in\n    tag_378:\n        /* \"#utility.yul\":10625:10699   */\n      swap2\n      pop\n        /* \"#utility.yul\":10708:10801   */\n      tag_379\n        /* \"#utility.yul\":10797:10800   */\n      dup3\n        /* \"#utility.yul\":10708:10801   */\n      tag_244\n      jump\t// in\n    tag_379:\n        /* \"#utility.yul\":10826:10828   */\n      0x40\n        /* \"#utility.yul\":10821:10824   */\n      dup3\n        /* \"#utility.yul\":10817:10829   */\n      add\n        /* \"#utility.yul\":10810:10829   */\n      swap1\n      pop\n        /* \"#utility.yul\":10469:10835   */\n      swap2\n      swap1\n      pop\n      jump\t// out\n        /* \"#utility.yul\":10841:11260   */\n    tag_122:\n        /* \"#utility.yul\":11007:11011   */\n      0x00\n        /* \"#utility.yul\":11045:11047   */\n      0x20\n        /* \"#utility.yul\":11034:11043   */\n      dup3\n        /* \"#utility.yul\":11030:11048   */\n      add\n        /* \"#utility.yul\":11022:11048   */\n      swap1\n      pop\n        /* \"#utility.yul\":11094:11103   */\n      dup2\n        /* \"#utility.yul\":11088:11092   */\n      dup2\n        /* \"#utility.yul\":11084:11104   */\n      sub\n        /* \"#utility.yul\":11080:11081   */\n      0x00\n        /* \"#utility.yul\":11069:11078   */\n      dup4\n        /* \"#utility.yul\":11065:11082   */\n      add\n        /* \"#utility.yul\":11058:11105   */\n      mstore\n        /* \"#utility.yul\":11122:11253   */\n      tag_381\n        /* \"#utility.yul\":11248:11252   */\n      dup2\n        /* \"#utility.yul\":11122:11253   */\n      tag_245\n      jump\t// in\n    tag_381:\n        /* \"#utility.yul\":11114:11253   */\n      swap1\n      pop\n        /* \"#utility.yul\":10841:11260   */\n      swap2\n      swap1\n      pop\n      jump\t// out\n        /* \"#utility.yul\":11266:11384   */\n    tag_246:\n        /* \"#utility.yul\":11353:11377   */\n      tag_383\n        /* \"#utility.yul\":11371:11376   */\n      dup2\n        /* \"#utility.yul\":11353:11377   */\n      tag_216\n      jump\t// in\n    tag_383:\n        /* \"#utility.yul\":11348:11351   */\n      dup3\n        /* \"#utility.yul\":11341:11378   */\n      mstore\n        /* \"#utility.yul\":11266:11384   */\n      pop\n      pop\n      jump\t// out\n        /* \"#utility.yul\":11390:11832   */\n    tag_139:\n        /* \"#utility.yul\":11539:11543   */\n      0x00\n        /* \"#utility.yul\":11577:11579   */\n      0x60\n        /* \"#utility.yul\":11566:11575   */\n      dup3\n        /* \"#utility.yul\":11562:11580   */\n      add\n        /* \"#utility.yul\":11554:11580   */\n      swap1\n      pop\n        /* \"#utility.yul\":11590:11661   */\n      tag_385\n        /* \"#utility.yul\":11658:11659   */\n      0x00\n        /* \"#utility.yul\":11647:11656   */\n      dup4\n        /* \"#utility.yul\":11643:11660   */\n      add\n        /* \"#utility.yul\":11634:11640   */\n      dup7\n        /* \"#utility.yul\":11590:11661   */\n      tag_246\n      jump\t// in\n    tag_385:\n        /* \"#utility.yul\":11671:11743   */\n      tag_386\n        /* \"#utility.yul\":11739:11741   */\n      0x20\n        /* \"#utility.yul\":11728:11737   */\n      dup4\n        /* \"#utility.yul\":11724:11742   */\n      add\n        /* \"#utility.yul\":11715:11721   */\n      dup6\n        /* \"#utility.yul\":11671:11743   */\n      tag_246\n      jump\t// in\n    tag_386:\n        /* \"#utility.yul\":11753:11825   */\n      tag_387\n        /* \"#utility.yul\":11821:11823   */\n      0x40\n        /* \"#utility.yul\":11810:11819   */\n      dup4\n        /* \"#utility.yul\":11806:11824   */\n      add\n        /* \"#utility.yul\":11797:11803   */\n      dup5\n        /* \"#utility.yul\":11753:11825   */\n      tag_224\n      jump\t// in\n    tag_387:\n        /* \"#utility.yul\":11390:11832   */\n      swap5\n      swap4\n      pop\n      pop\n      pop\n      pop\n      jump\t// out\n        /* \"#utility.yul\":11838:12015   */\n    tag_247:\n        /* \"#utility.yul\":11978:12007   */\n      0x4f6d6e6945524332303a20496e73756666696369656e74206665650000000000\n        /* \"#utility.yul\":11974:11975   */\n      0x00\n        /* \"#utility.yul\":11966:11972   */\n      dup3\n        /* \"#utility.yul\":11962:11976   */\n      add\n        /* \"#utility.yul\":11955:12008   */\n      mstore\n        /* \"#utility.yul\":11838:12015   */\n      pop\n      jump\t// out\n        /* \"#utility.yul\":12021:12387   */\n    tag_248:\n        /* \"#utility.yul\":12163:12166   */\n      0x00\n        /* \"#utility.yul\":12184:12251   */\n      tag_390\n        /* \"#utility.yul\":12248:12250   */\n      0x1b\n        /* \"#utility.yul\":12243:12246   */\n      dup4\n        /* \"#utility.yul\":12184:12251   */\n      tag_208\n      jump\t// in\n    tag_390:\n        /* \"#utility.yul\":12177:12251   */\n      swap2\n      pop\n        /* \"#utility.yul\":12260:12353   */\n      tag_391\n        /* \"#utility.yul\":12349:12352   */\n      dup3\n        /* \"#utility.yul\":12260:12353   */\n      tag_247\n      jump\t// in\n    tag_391:\n        /* \"#utility.yul\":12378:12380   */\n      0x20\n        /* \"#utility.yul\":12373:12376   */\n      dup3\n        /* \"#utility.yul\":12369:12381   */\n      add\n        /* \"#utility.yul\":12362:12381   */\n      swap1\n      pop\n        /* \"#utility.yul\":12021:12387   */\n      swap2\n      swap1\n      pop\n      jump\t// out\n        /* \"#utility.yul\":12393:12812   */\n    tag_144:\n        /* \"#utility.yul\":12559:12563   */\n      0x00\n        /* \"#utility.yul\":12597:12599   */\n      0x20\n        /* \"#utility.yul\":12586:12595   */\n      dup3\n        /* \"#utility.yul\":12582:12600   */\n      add\n        /* \"#utility.yul\":12574:12600   */\n      swap1\n      pop\n        /* \"#utility.yul\":12646:12655   */\n      dup2\n        /* \"#utility.yul\":12640:12644   */\n      dup2\n        /* \"#utility.yul\":12636:12656   */\n      sub\n        /* \"#utility.yul\":12632:12633   */\n      0x00\n        /* \"#utility.yul\":12621:12630   */\n      dup4\n        /* \"#utility.yul\":12617:12634   */\n      add\n        /* \"#utility.yul\":12610:12657   */\n      mstore\n        /* \"#utility.yul\":12674:12805   */\n      tag_393\n        /* \"#utility.yul\":12800:12804   */\n      dup2\n        /* \"#utility.yul\":12674:12805   */\n      tag_248\n      jump\t// in\n    tag_393:\n        /* \"#utility.yul\":12666:12805   */\n      swap1\n      pop\n        /* \"#utility.yul\":12393:12812   */\n      swap2\n      swap1\n      pop\n      jump\t// out\n        /* \"#utility.yul\":12818:13260   */\n    tag_155:\n        /* \"#utility.yul\":12967:12971   */\n      0x00\n        /* \"#utility.yul\":13005:13007   */\n      0x60\n        /* \"#utility.yul\":12994:13003   */\n      dup3\n        /* \"#utility.yul\":12990:13008   */\n      add\n        /* \"#utility.yul\":12982:13008   */\n      swap1\n      pop\n        /* \"#utility.yul\":13018:13089   */\n      tag_395\n        /* \"#utility.yul\":13086:13087   */\n      0x00\n        /* \"#utility.yul\":13075:13084   */\n      dup4\n        /* \"#utility.yul\":13071:13088   */\n      add\n        /* \"#utility.yul\":13062:13068   */\n      dup7\n        /* \"#utility.yul\":13018:13089   */\n      tag_246\n      jump\t// in\n    tag_395:\n        /* \"#utility.yul\":13099:13171   */\n      tag_396\n        /* \"#utility.yul\":13167:13169   */\n      0x20\n        /* \"#utility.yul\":13156:13165   */\n      dup4\n        /* \"#utility.yul\":13152:13170   */\n      add\n        /* \"#utility.yul\":13143:13149   */\n      dup6\n        /* \"#utility.yul\":13099:13171   */\n      tag_224\n      jump\t// in\n    tag_396:\n        /* \"#utility.yul\":13181:13253   */\n      tag_397\n        /* \"#utility.yul\":13249:13251   */\n      0x40\n        /* \"#utility.yul\":13238:13247   */\n      dup4\n        /* \"#utility.yul\":13234:13252   */\n      add\n        /* \"#utility.yul\":13225:13231   */\n      dup5\n        /* \"#utility.yul\":13181:13253   */\n      tag_224\n      jump\t// in\n    tag_397:\n        /* \"#utility.yul\":12818:13260   */\n      swap5\n      swap4\n      pop\n      pop\n      pop\n      pop\n      jump\t// out\n        /* \"#utility.yul\":13266:13488   */\n    tag_160:\n        /* \"#utility.yul\":13359:13363   */\n      0x00\n        /* \"#utility.yul\":13397:13399   */\n      0x20\n        /* \"#utility.yul\":13386:13395   */\n      dup3\n        /* \"#utility.yul\":13382:13400   */\n      add\n        /* \"#utility.yul\":13374:13400   */\n      swap1\n      pop\n        /* \"#utility.yul\":13410:13481   */\n      tag_399\n        /* \"#utility.yul\":13478:13479   */\n      0x00\n        /* \"#utility.yul\":13467:13476   */\n      dup4\n        /* \"#utility.yul\":13463:13480   */\n      add\n        /* \"#utility.yul\":13454:13460   */\n      dup5\n        /* \"#utility.yul\":13410:13481   */\n      tag_246\n      jump\t// in\n    tag_399:\n        /* \"#utility.yul\":13266:13488   */\n      swap3\n      swap2\n      pop\n      pop\n      jump\t// out\n        /* \"#utility.yul\":13494:13610   */\n    tag_249:\n        /* \"#utility.yul\":13564:13585   */\n      tag_401\n        /* \"#utility.yul\":13579:13584   */\n      dup2\n        /* \"#utility.yul\":13564:13585   */\n      tag_222\n      jump\t// in\n    tag_401:\n        /* \"#utility.yul\":13557:13562   */\n      dup2\n        /* \"#utility.yul\":13554:13586   */\n      eq\n        /* \"#utility.yul\":13544:13604   */\n      tag_402\n      jumpi\n        /* \"#utility.yul\":13600:13601   */\n      0x00\n        /* \"#utility.yul\":13597:13598   */\n      dup1\n        /* \"#utility.yul\":13590:13602   */\n      revert\n        /* \"#utility.yul\":13544:13604   */\n    tag_402:\n        /* \"#utility.yul\":13494:13610   */\n      pop\n      jump\t// out\n        /* \"#utility.yul\":13616:13753   */\n    tag_250:\n        /* \"#utility.yul\":13670:13675   */\n      0x00\n        /* \"#utility.yul\":13701:13707   */\n      dup2\n        /* \"#utility.yul\":13695:13708   */\n      mload\n        /* \"#utility.yul\":13686:13708   */\n      swap1\n      pop\n        /* \"#utility.yul\":13717:13747   */\n      tag_404\n        /* \"#utility.yul\":13741:13746   */\n      dup2\n        /* \"#utility.yul\":13717:13747   */\n      tag_249\n      jump\t// in\n    tag_404:\n        /* \"#utility.yul\":13616:13753   */\n      swap3\n      swap2\n      pop\n      pop\n      jump\t// out\n        /* \"#utility.yul\":13759:14104   */\n    tag_172:\n        /* \"#utility.yul\":13826:13832   */\n      0x00\n        /* \"#utility.yul\":13875:13877   */\n      0x20\n        /* \"#utility.yul\":13863:13872   */\n      dup3\n        /* \"#utility.yul\":13854:13861   */\n      dup5\n        /* \"#utility.yul\":13850:13873   */\n      sub\n        /* \"#utility.yul\":13846:13878   */\n      slt\n        /* \"#utility.yul\":13843:13962   */\n      iszero\n      tag_406\n      jumpi\n        /* \"#utility.yul\":13881:13960   */\n      tag_407\n      tag_213\n      jump\t// in\n    tag_407:\n        /* \"#utility.yul\":13843:13962   */\n    tag_406:\n        /* \"#utility.yul\":14001:14002   */\n      0x00\n        /* \"#utility.yul\":14026:14087   */\n      tag_408\n        /* \"#utility.yul\":14079:14086   */\n      dup5\n        /* \"#utility.yul\":14070:14076   */\n      dup3\n        /* \"#utility.yul\":14059:14068   */\n      dup6\n        /* \"#utility.yul\":14055:14077   */\n      add\n        /* \"#utility.yul\":14026:14087   */\n      tag_250\n      jump\t// in\n    tag_408:\n        /* \"#utility.yul\":14016:14087   */\n      swap2\n      pop\n        /* \"#utility.yul\":13972:14097   */\n      pop\n        /* \"#utility.yul\":13759:14104   */\n      swap3\n      swap2\n      pop\n      pop\n      jump\t// out\n        /* \"#utility.yul\":14110:14290   */\n    tag_251:\n        /* \"#utility.yul\":14158:14235   */\n      0x4e487b7100000000000000000000000000000000000000000000000000000000\n        /* \"#utility.yul\":14155:14156   */\n      0x00\n        /* \"#utility.yul\":14148:14236   */\n      mstore\n        /* \"#utility.yul\":14255:14259   */\n      0x11\n        /* \"#utility.yul\":14252:14253   */\n      0x04\n        /* \"#utility.yul\":14245:14260   */\n      mstore\n        /* \"#utility.yul\":14279:14283   */\n      0x24\n        /* \"#utility.yul\":14276:14277   */\n      0x00\n        /* \"#utility.yul\":14269:14284   */\n      revert\n        /* \"#utility.yul\":14296:14487   */\n    tag_177:\n        /* \"#utility.yul\":14336:14339   */\n      0x00\n        /* \"#utility.yul\":14355:14375   */\n      tag_411\n        /* \"#utility.yul\":14373:14374   */\n      dup3\n        /* \"#utility.yul\":14355:14375   */\n      tag_219\n      jump\t// in\n    tag_411:\n        /* \"#utility.yul\":14350:14375   */\n      swap2\n      pop\n        /* \"#utility.yul\":14389:14409   */\n      tag_412\n        /* \"#utility.yul\":14407:14408   */\n      dup4\n        /* \"#utility.yul\":14389:14409   */\n      tag_219\n      jump\t// in\n    tag_412:\n        /* \"#utility.yul\":14384:14409   */\n      swap3\n      pop\n        /* \"#utility.yul\":14432:14433   */\n      dup3\n        /* \"#utility.yul\":14429:14430   */\n      dup3\n        /* \"#utility.yul\":14425:14434   */\n      add\n        /* \"#utility.yul\":14418:14434   */\n      swap1\n      pop\n        /* \"#utility.yul\":14453:14456   */\n      dup1\n        /* \"#utility.yul\":14450:14451   */\n      dup3\n        /* \"#utility.yul\":14447:14457   */\n      gt\n        /* \"#utility.yul\":14444:14480   */\n      iszero\n      tag_413\n      jumpi\n        /* \"#utility.yul\":14460:14478   */\n      tag_414\n      tag_251\n      jump\t// in\n    tag_414:\n        /* \"#utility.yul\":14444:14480   */\n    tag_413:\n        /* \"#utility.yul\":14296:14487   */\n      swap3\n      swap2\n      pop\n      pop\n      jump\t// out\n        /* \"#utility.yul\":14493:14608   */\n    tag_252:\n        /* \"#utility.yul\":14578:14601   */\n      tag_416\n        /* \"#utility.yul\":14595:14600   */\n      dup2\n        /* \"#utility.yul\":14578:14601   */\n      tag_232\n      jump\t// in\n    tag_416:\n        /* \"#utility.yul\":14573:14576   */\n      dup3\n        /* \"#utility.yul\":14566:14602   */\n      mstore\n        /* \"#utility.yul\":14493:14608   */\n      pop\n      pop\n      jump\t// out\n        /* \"#utility.yul\":14614:14712   */\n    tag_253:\n        /* \"#utility.yul\":14665:14671   */\n      0x00\n        /* \"#utility.yul\":14699:14704   */\n      dup2\n        /* \"#utility.yul\":14693:14705   */\n      mload\n        /* \"#utility.yul\":14683:14705   */\n      swap1\n      pop\n        /* \"#utility.yul\":14614:14712   */\n      swap2\n      swap1\n      pop\n      jump\t// out\n        /* \"#utility.yul\":14718:14886   */\n    tag_254:\n        /* \"#utility.yul\":14801:14812   */\n      0x00\n        /* \"#utility.yul\":14835:14841   */\n      dup3\n        /* \"#utility.yul\":14830:14833   */\n      dup3\n        /* \"#utility.yul\":14823:14842   */\n      mstore\n        /* \"#utility.yul\":14875:14879   */\n      0x20\n        /* \"#utility.yul\":14870:14873   */\n      dup3\n        /* \"#utility.yul\":14866:14880   */\n      add\n        /* \"#utility.yul\":14851:14880   */\n      swap1\n      pop\n        /* \"#utility.yul\":14718:14886   */\n      swap3\n      swap2\n      pop\n      pop\n      jump\t// out\n        /* \"#utility.yul\":14892:15265   */\n    tag_255:\n        /* \"#utility.yul\":14978:14981   */\n      0x00\n        /* \"#utility.yul\":15006:15044   */\n      tag_420\n        /* \"#utility.yul\":15038:15043   */\n      dup3\n        /* \"#utility.yul\":15006:15044   */\n      tag_253\n      jump\t// in\n    tag_420:\n        /* \"#utility.yul\":15060:15130   */\n      tag_421\n        /* \"#utility.yul\":15123:15129   */\n      dup2\n        /* \"#utility.yul\":15118:15121   */\n      dup6\n        /* \"#utility.yul\":15060:15130   */\n      tag_254\n      jump\t// in\n    tag_421:\n        /* \"#utility.yul\":15053:15130   */\n      swap4\n      pop\n        /* \"#utility.yul\":15139:15204   */\n      tag_422\n        /* \"#utility.yul\":15197:15203   */\n      dup2\n        /* \"#utility.yul\":15192:15195   */\n      dup6\n        /* \"#utility.yul\":15185:15189   */\n      0x20\n        /* \"#utility.yul\":15178:15183   */\n      dup7\n        /* \"#utility.yul\":15174:15190   */\n      add\n        /* \"#utility.yul\":15139:15204   */\n      tag_209\n      jump\t// in\n    tag_422:\n        /* \"#utility.yul\":15229:15258   */\n      tag_423\n        /* \"#utility.yul\":15251:15257   */\n      dup2\n        /* \"#utility.yul\":15229:15258   */\n      tag_210\n      jump\t// in\n    tag_423:\n        /* \"#utility.yul\":15224:15227   */\n      dup5\n        /* \"#utility.yul\":15220:15259   */\n      add\n        /* \"#utility.yul\":15213:15259   */\n      swap2\n      pop\n        /* \"#utility.yul\":14982:15265   */\n      pop\n        /* \"#utility.yul\":14892:15265   */\n      swap3\n      swap2\n      pop\n      pop\n      jump\t// out\n        /* \"#utility.yul\":15271:15792   */\n    tag_186:\n        /* \"#utility.yul\":15434:15438   */\n      0x00\n        /* \"#utility.yul\":15472:15474   */\n      0x60\n        /* \"#utility.yul\":15461:15470   */\n      dup3\n        /* \"#utility.yul\":15457:15475   */\n      add\n        /* \"#utility.yul\":15449:15475   */\n      swap1\n      pop\n        /* \"#utility.yul\":15485:15554   */\n      tag_425\n        /* \"#utility.yul\":15551:15552   */\n      0x00\n        /* \"#utility.yul\":15540:15549   */\n      dup4\n        /* \"#utility.yul\":15536:15553   */\n      add\n        /* \"#utility.yul\":15527:15533   */\n      dup7\n        /* \"#utility.yul\":15485:15554   */\n      tag_252\n      jump\t// in\n    tag_425:\n        /* \"#utility.yul\":15601:15610   */\n      dup2\n        /* \"#utility.yul\":15595:15599   */\n      dup2\n        /* \"#utility.yul\":15591:15611   */\n      sub\n        /* \"#utility.yul\":15586:15588   */\n      0x20\n        /* \"#utility.yul\":15575:15584   */\n      dup4\n        /* \"#utility.yul\":15571:15589   */\n      add\n        /* \"#utility.yul\":15564:15612   */\n      mstore\n        /* \"#utility.yul\":15629:15705   */\n      tag_426\n        /* \"#utility.yul\":15700:15704   */\n      dup2\n        /* \"#utility.yul\":15691:15697   */\n      dup6\n        /* \"#utility.yul\":15629:15705   */\n      tag_255\n      jump\t// in\n    tag_426:\n        /* \"#utility.yul\":15621:15705   */\n      swap1\n      pop\n        /* \"#utility.yul\":15715:15785   */\n      tag_427\n        /* \"#utility.yul\":15781:15783   */\n      0x40\n        /* \"#utility.yul\":15770:15779   */\n      dup4\n        /* \"#utility.yul\":15766:15784   */\n      add\n        /* \"#utility.yul\":15757:15763   */\n      dup5\n        /* \"#utility.yul\":15715:15785   */\n      tag_252\n      jump\t// in\n    tag_427:\n        /* \"#utility.yul\":15271:15792   */\n      swap5\n      swap4\n      pop\n      pop\n      pop\n      pop\n      jump\t// out\n        /* \"#utility.yul\":15798:15941   */\n    tag_256:\n        /* \"#utility.yul\":15855:15860   */\n      0x00\n        /* \"#utility.yul\":15886:15892   */\n      dup2\n        /* \"#utility.yul\":15880:15893   */\n      mload\n        /* \"#utility.yul\":15871:15893   */\n      swap1\n      pop\n        /* \"#utility.yul\":15902:15935   */\n      tag_429\n        /* \"#utility.yul\":15929:15934   */\n      dup2\n        /* \"#utility.yul\":15902:15935   */\n      tag_220\n      jump\t// in\n    tag_429:\n        /* \"#utility.yul\":15798:15941   */\n      swap3\n      swap2\n      pop\n      pop\n      jump\t// out\n        /* \"#utility.yul\":15947:16298   */\n    tag_190:\n        /* \"#utility.yul\":16017:16023   */\n      0x00\n        /* \"#utility.yul\":16066:16068   */\n      0x20\n        /* \"#utility.yul\":16054:16063   */\n      dup3\n        /* \"#utility.yul\":16045:16052   */\n      dup5\n        /* \"#utility.yul\":16041:16064   */\n      sub\n        /* \"#utility.yul\":16037:16069   */\n      slt\n        /* \"#utility.yul\":16034:16153   */\n      iszero\n      tag_431\n      jumpi\n        /* \"#utility.yul\":16072:16151   */\n      tag_432\n      tag_213\n      jump\t// in\n    tag_432:\n        /* \"#utility.yul\":16034:16153   */\n    tag_431:\n        /* \"#utility.yul\":16192:16193   */\n      0x00\n        /* \"#utility.yul\":16217:16281   */\n      tag_433\n        /* \"#utility.yul\":16273:16280   */\n      dup5\n        /* \"#utility.yul\":16264:16270   */\n      dup3\n        /* \"#utility.yul\":16253:16262   */\n      dup6\n        /* \"#utility.yul\":16249:16271   */\n      add\n        /* \"#utility.yul\":16217:16281   */\n      tag_256\n      jump\t// in\n    tag_433:\n        /* \"#utility.yul\":16207:16281   */\n      swap2\n      pop\n        /* \"#utility.yul\":16163:16291   */\n      pop\n        /* \"#utility.yul\":15947:16298   */\n      swap3\n      swap2\n      pop\n      pop\n      jump\t// out\n        /* \"#utility.yul\":16304:16478   */\n    tag_257:\n        /* \"#utility.yul\":16444:16470   */\n      0x584170703a20696e73756666696369656e742066756e64730000000000000000\n        /* \"#utility.yul\":16440:16441   */\n      0x00\n        /* \"#utility.yul\":16432:16438   */\n      dup3\n        /* \"#utility.yul\":16428:16442   */\n      add\n        /* \"#utility.yul\":16421:16471   */\n      mstore\n        /* \"#utility.yul\":16304:16478   */\n      pop\n      jump\t// out\n        /* \"#utility.yul\":16484:16850   */\n    tag_258:\n        /* \"#utility.yul\":16626:16629   */\n      0x00\n        /* \"#utility.yul\":16647:16714   */\n      tag_436\n        /* \"#utility.yul\":16711:16713   */\n      0x18\n        /* \"#utility.yul\":16706:16709   */\n      dup4\n        /* \"#utility.yul\":16647:16714   */\n      tag_208\n      jump\t// in\n    tag_436:\n        /* \"#utility.yul\":16640:16714   */\n      swap2\n      pop\n        /* \"#utility.yul\":16723:16816   */\n      tag_437\n        /* \"#utility.yul\":16812:16815   */\n      dup3\n        /* \"#utility.yul\":16723:16816   */\n      tag_257\n      jump\t// in\n    tag_437:\n        /* \"#utility.yul\":16841:16843   */\n      0x20\n        /* \"#utility.yul\":16836:16839   */\n      dup3\n        /* \"#utility.yul\":16832:16844   */\n      add\n        /* \"#utility.yul\":16825:16844   */\n      swap1\n      pop\n        /* \"#utility.yul\":16484:16850   */\n      swap2\n      swap1\n      pop\n      jump\t// out\n        /* \"#utility.yul\":16856:17275   */\n    tag_194:\n        /* \"#utility.yul\":17022:17026   */\n      0x00\n        /* \"#utility.yul\":17060:17062   */\n      0x20\n        /* \"#utility.yul\":17049:17058   */\n      dup3\n        /* \"#utility.yul\":17045:17063   */\n      add\n        /* \"#utility.yul\":17037:17063   */\n      swap1\n      pop\n        /* \"#utility.yul\":17109:17118   */\n      dup2\n        /* \"#utility.yul\":17103:17107   */\n      dup2\n        /* \"#utility.yul\":17099:17119   */\n      sub\n        /* \"#utility.yul\":17095:17096   */\n      0x00\n        /* \"#utility.yul\":17084:17093   */\n      dup4\n        /* \"#utility.yul\":17080:17097   */\n      add\n        /* \"#utility.yul\":17073:17120   */\n      mstore\n        /* \"#utility.yul\":17137:17268   */\n      tag_439\n        /* \"#utility.yul\":17263:17267   */\n      dup2\n        /* \"#utility.yul\":17137:17268   */\n      tag_258\n      jump\t// in\n    tag_439:\n        /* \"#utility.yul\":17129:17268   */\n      swap1\n      pop\n        /* \"#utility.yul\":16856:17275   */\n      swap2\n      swap1\n      pop\n      jump\t// out\n        /* \"#utility.yul\":17281:18016   */\n    tag_196:\n        /* \"#utility.yul\":17496:17500   */\n      0x00\n        /* \"#utility.yul\":17534:17537   */\n      0xa0\n        /* \"#utility.yul\":17523:17532   */\n      dup3\n        /* \"#utility.yul\":17519:17538   */\n      add\n        /* \"#utility.yul\":17511:17538   */\n      swap1\n      pop\n        /* \"#utility.yul\":17548:17617   */\n      tag_441\n        /* \"#utility.yul\":17614:17615   */\n      0x00\n        /* \"#utility.yul\":17603:17612   */\n      dup4\n        /* \"#utility.yul\":17599:17616   */\n      add\n        /* \"#utility.yul\":17590:17596   */\n      dup9\n        /* \"#utility.yul\":17548:17617   */\n      tag_252\n      jump\t// in\n    tag_441:\n        /* \"#utility.yul\":17627:17695   */\n      tag_442\n        /* \"#utility.yul\":17691:17693   */\n      0x20\n        /* \"#utility.yul\":17680:17689   */\n      dup4\n        /* \"#utility.yul\":17676:17694   */\n      add\n        /* \"#utility.yul\":17667:17673   */\n      dup8\n        /* \"#utility.yul\":17627:17695   */\n      tag_226\n      jump\t// in\n    tag_442:\n        /* \"#utility.yul\":17705:17777   */\n      tag_443\n        /* \"#utility.yul\":17773:17775   */\n      0x40\n        /* \"#utility.yul\":17762:17771   */\n      dup4\n        /* \"#utility.yul\":17758:17776   */\n      add\n        /* \"#utility.yul\":17749:17755   */\n      dup7\n        /* \"#utility.yul\":17705:17777   */\n      tag_246\n      jump\t// in\n    tag_443:\n        /* \"#utility.yul\":17824:17833   */\n      dup2\n        /* \"#utility.yul\":17818:17822   */\n      dup2\n        /* \"#utility.yul\":17814:17834   */\n      sub\n        /* \"#utility.yul\":17809:17811   */\n      0x60\n        /* \"#utility.yul\":17798:17807   */\n      dup4\n        /* \"#utility.yul\":17794:17812   */\n      add\n        /* \"#utility.yul\":17787:17835   */\n      mstore\n        /* \"#utility.yul\":17852:17928   */\n      tag_444\n        /* \"#utility.yul\":17923:17927   */\n      dup2\n        /* \"#utility.yul\":17914:17920   */\n      dup6\n        /* \"#utility.yul\":17852:17928   */\n      tag_255\n      jump\t// in\n    tag_444:\n        /* \"#utility.yul\":17844:17928   */\n      swap1\n      pop\n        /* \"#utility.yul\":17938:18009   */\n      tag_445\n        /* \"#utility.yul\":18004:18007   */\n      0x80\n        /* \"#utility.yul\":17993:18002   */\n      dup4\n        /* \"#utility.yul\":17989:18008   */\n      add\n        /* \"#utility.yul\":17980:17986   */\n      dup5\n        /* \"#utility.yul\":17938:18009   */\n      tag_252\n      jump\t// in\n    tag_445:\n        /* \"#utility.yul\":17281:18016   */\n      swap7\n      swap6\n      pop\n      pop\n      pop\n      pop\n      pop\n      pop\n      jump\t// out\n\n    auxdata: 0xa264697066735822122046700868c6dfbdf830947272e2181fd8499785655d3d7cee16653aa26672ef4564736f6c634300081a0033\n}\n",
				"bytecode": {
					"linkReferences": {},
					"object": "608060405234801561000f575f80fd5b5060405161267b38038061267b833981810160405281019061003191906106ba565b8383838060016100468261009360201b60201c565b6100558161017a60201b60201c565b50508260059081610066919061095a565b508160069081610076919061095a565b5050505061008a338261021c60201b60201c565b50505050610c22565b5f73ffffffffffffffffffffffffffffffffffffffff168173ffffffffffffffffffffffffffffffffffffffff1603610101576040517f08c379a00000000000000000000000000000000000000000000000000000000081526004016100f890610a83565b60405180910390fd5b805f806101000a81548173ffffffffffffffffffffffffffffffffffffffff021916908373ffffffffffffffffffffffffffffffffffffffff1602179055507f79162c8d053a07e70cdc1ccc536f0440b571f8508377d2bef51094fadab98f478160405161016f9190610ab0565b60405180910390a150565b610189816102a160201b60201c565b6101c8576040517f08c379a00000000000000000000000000000000000000000000000000000000081526004016101bf90610b13565b60405180910390fd5b805f60146101000a81548160ff021916908360ff1602179055507f8de08a798b4e50b4f351c1eaa91a11530043802be3ffac2df87db0c45a2e8483816040516102119190610b4c565b60405180910390a150565b5f73ffffffffffffffffffffffffffffffffffffffff168273ffffffffffffffffffffffffffffffffffffffff160361028c575f6040517fec442f050000000000000000000000000000000000000000000000000000000081526004016102839190610ab0565b60405180910390fd5b61029d5f83836102c460201b60201c565b5050565b5f600160ff168260ff1614806102bd5750600460ff168260ff16145b9050919050565b5f73ffffffffffffffffffffffffffffffffffffffff168373ffffffffffffffffffffffffffffffffffffffff1603610314578060045f8282546103089190610b92565b925050819055506103e4565b5f60025f8573ffffffffffffffffffffffffffffffffffffffff1673ffffffffffffffffffffffffffffffffffffffff1681526020019081526020015f205490508181101561039e578381836040517fe450d38c00000000000000000000000000000000000000000000000000000000815260040161039593929190610bd4565b60405180910390fd5b81810360025f8673ffffffffffffffffffffffffffffffffffffffff1673ffffffffffffffffffffffffffffffffffffffff1681526020019081526020015f2081905550505b5f73ffffffffffffffffffffffffffffffffffffffff168273ffffffffffffffffffffffffffffffffffffffff160361042b578060045f8282540392505081905550610476565b8060025f8473ffffffffffffffffffffffffffffffffffffffff1673ffffffffffffffffffffffffffffffffffffffff1681526020019081526020015f205f82825401925050819055505b8173ffffffffffffffffffffffffffffffffffffffff168373ffffffffffffffffffffffffffffffffffffffff167fddf252ad1be2c89b69c2b068fc378daa952ba7f163c4a11628f55a4df523b3ef836040516104d39190610c09565b60405180910390a3505050565b5f604051905090565b5f80fd5b5f80fd5b5f80fd5b5f80fd5b5f601f19601f8301169050919050565b7f4e487b71000000000000000000000000000000000000000000000000000000005f52604160045260245ffd5b61053f826104f9565b810181811067ffffffffffffffff8211171561055e5761055d610509565b5b80604052505050565b5f6105706104e0565b905061057c8282610536565b919050565b5f67ffffffffffffffff82111561059b5761059a610509565b5b6105a4826104f9565b9050602081019050919050565b8281835e5f83830152505050565b5f6105d16105cc84610581565b610567565b9050828152602081018484840111156105ed576105ec6104f5565b5b6105f88482856105b1565b509392505050565b5f82601f830112610614576106136104f1565b5b81516106248482602086016105bf565b91505092915050565b5f73ffffffffffffffffffffffffffffffffffffffff82169050919050565b5f6106568261062d565b9050919050565b6106668161064c565b8114610670575f80fd5b50565b5f815190506106818161065d565b92915050565b5f819050919050565b61069981610687565b81146106a3575f80fd5b50565b5f815190506106b481610690565b92915050565b5f805f80608085870312156106d2576106d16104e9565b5b5f85015167ffffffffffffffff8111156106ef576106ee6104ed565b5b6106fb87828801610600565b945050602085015167ffffffffffffffff81111561071c5761071b6104ed565b5b61072887828801610600565b935050604061073987828801610673565b925050606061074a878288016106a6565b91505092959194509250565b5f81519050919050565b7f4e487b71000000000000000000000000000000000000000000000000000000005f52602260045260245ffd5b5f60028204905060018216806107a457607f821691505b6020821081036107b7576107b6610760565b5b50919050565b5f819050815f5260205f209050919050565b5f6020601f8301049050919050565b5f82821b905092915050565b5f600883026108197fffffffffffffffffffffffffffffffffffffffffffffffffffffffffffffffff826107de565b61082386836107de565b95508019841693508086168417925050509392505050565b5f819050919050565b5f61085e61085961085484610687565b61083b565b610687565b9050919050565b5f819050919050565b61087783610844565b61088b61088382610865565b8484546107ea565b825550505050565b5f90565b61089f610893565b6108aa81848461086e565b505050565b5b818110156108cd576108c25f82610897565b6001810190506108b0565b5050565b601f821115610912576108e3816107bd565b6108ec846107cf565b810160208510156108fb578190505b61090f610907856107cf565b8301826108af565b50505b505050565b5f82821c905092915050565b5f6109325f1984600802610917565b1980831691505092915050565b5f61094a8383610923565b9150826002028217905092915050565b61096382610756565b67ffffffffffffffff81111561097c5761097b610509565b5b610986825461078d565b6109918282856108d1565b5f60209050601f8311600181146109c2575f84156109b0578287015190505b6109ba858261093f565b865550610a21565b601f1984166109d0866107bd565b5f5b828110156109f7578489015182556001820191506020850194506020810190506109d2565b86831015610a145784890151610a10601f891682610923565b8355505b6001600288020188555050505b505050505050565b5f82825260208201905092915050565b7f584170703a206e6f207a65726f206f6d6e6900000000000000000000000000005f82015250565b5f610a6d601283610a29565b9150610a7882610a39565b602082019050919050565b5f6020820190508181035f830152610a9a81610a61565b9050919050565b610aaa8161064c565b82525050565b5f602082019050610ac35f830184610aa1565b92915050565b7f584170703a20696e76616c696420636f6e66206c6576656c00000000000000005f82015250565b5f610afd601883610a29565b9150610b0882610ac9565b602082019050919050565b5f6020820190508181035f830152610b2a81610af1565b9050919050565b5f60ff82169050919050565b610b4681610b31565b82525050565b5f602082019050610b5f5f830184610b3d565b92915050565b7f4e487b71000000000000000000000000000000000000000000000000000000005f52601160045260245ffd5b5f610b9c82610687565b9150610ba783610687565b9250828201905080821115610bbf57610bbe610b65565b5b92915050565b610bce81610687565b82525050565b5f606082019050610be75f830186610aa1565b610bf46020830185610bc5565b610c016040830184610bc5565b949350505050565b5f602082019050610c1c5f830184610bc5565b92915050565b611a4c80610c2f5f395ff3fe6080604052600436106100dc575f3560e01c80634a536a061161007e57806395d89b411161005857806395d89b41146102b6578063a9059cbb146102e0578063d15dcd621461031c578063dd62ed3e14610338576100dc565b80634a536a061461022857806370a082311461025057806374eeb8471461028c576100dc565b806323b872dd116100ba57806323b872dd14610170578063313ce567146101ac57806339acf9f1146101d657806340c10f1914610200576100dc565b806306fdde03146100e0578063095ea7b31461010a57806318160ddd14610146575b5f80fd5b3480156100eb575f80fd5b506100f4610374565b6040516101019190611183565b60405180910390f35b348015610115575f80fd5b50610130600480360381019061012b919061123d565b610404565b60405161013d9190611295565b60405180910390f35b348015610151575f80fd5b5061015a610426565b60405161016791906112bd565b60405180910390f35b34801561017b575f80fd5b50610196600480360381019061019191906112d6565b61042f565b6040516101a39190611295565b60405180910390f35b3480156101b7575f80fd5b506101c061045d565b6040516101cd9190611341565b60405180910390f35b3480156101e1575f80fd5b506101ea610465565b6040516101f791906113b5565b60405180910390f35b34801561020b575f80fd5b506102266004803603810190610221919061123d565b610488565b005b348015610233575f80fd5b5061024e600480360381019061024991906112d6565b610496565b005b34801561025b575f80fd5b50610276600480360381019061027191906113ce565b610633565b60405161028391906112bd565b60405180910390f35b348015610297575f80fd5b506102a0610679565b6040516102ad9190611341565b60405180910390f35b3480156102c1575f80fd5b506102ca61068b565b6040516102d79190611183565b60405180910390f35b3480156102eb575f80fd5b506103066004803603810190610301919061123d565b61071b565b6040516103139190611295565b60405180910390f35b61033660048036038101906103319190611436565b61073d565b005b348015610343575f80fd5b5061035e60048036038101906103599190611486565b61080d565b60405161036b91906112bd565b60405180910390f35b606060058054610383906114f1565b80601f01602080910402602001604051908101604052809291908181526020018280546103af906114f1565b80156103fa5780601f106103d1576101008083540402835291602001916103fa565b820191905f5260205f20905b8154815290600101906020018083116103dd57829003601f168201915b5050505050905090565b5f8061040e61088f565b905061041b818585610896565b600191505092915050565b5f600454905090565b5f8061043961088f565b90506104468582856108a8565b61045185858561093a565b60019150509392505050565b5f6012905090565b5f8054906101000a900473ffffffffffffffffffffffffffffffffffffffff1681565b6104928282610a2a565b5050565b5f8054906101000a900473ffffffffffffffffffffffffffffffffffffffff1673ffffffffffffffffffffffffffffffffffffffff16632f32700e6040518163ffffffff1660e01b81526004016040805180830381865afa1580156104fd573d5f803e3d5ffd5b505050506040513d601f19601f820116820180604052508101906105219190611612565b60015f820151815f015f6101000a81548167ffffffffffffffff021916908367ffffffffffffffff1602179055506020820151815f0160086101000a81548173ffffffffffffffffffffffffffffffffffffffff021916908373ffffffffffffffffffffffffffffffffffffffff1602179055509050506105a0610aa9565b6105df576040517f08c379a00000000000000000000000000000000000000000000000000000000081526004016105d6906116ad565b60405180910390fd5b6105ea838383610b92565b60015f8082015f6101000a81549067ffffffffffffffff02191690555f820160086101000a81549073ffffffffffffffffffffffffffffffffffffffff02191690555050505050565b5f60025f8373ffffffffffffffffffffffffffffffffffffffff1673ffffffffffffffffffffffffffffffffffffffff1681526020019081526020015f20549050919050565b5f60149054906101000a900460ff1681565b60606006805461069a906114f1565b80601f01602080910402602001604051908101604052809291908181526020018280546106c6906114f1565b80156107115780601f106106e857610100808354040283529160200191610711565b820191905f5260205f20905b8154815290600101906020018083116106f457829003601f168201915b5050505050905090565b5f8061072561088f565b905061073281858561093a565b600191505092915050565b5f61074661088f565b905061075381308461093a565b5f308484604051602401610769939291906116da565b604051602081830303815290604052634a536a0660e01b6020820180517bffffffffffffffffffffffffffffffffffffffffffffffffffffffff838183161783525050505090505f6107c0863084620249f0610dae565b905080341015610805576040517f08c379a00000000000000000000000000000000000000000000000000000000081526004016107fc90611759565b60405180910390fd5b505050505050565b5f60035f8473ffffffffffffffffffffffffffffffffffffffff1673ffffffffffffffffffffffffffffffffffffffff1681526020019081526020015f205f8373ffffffffffffffffffffffffffffffffffffffff1673ffffffffffffffffffffffffffffffffffffffff1681526020019081526020015f2054905092915050565b5f33905090565b6108a38383836001610f44565b505050565b5f6108b3848461080d565b90507fffffffffffffffffffffffffffffffffffffffffffffffffffffffffffffffff81146109345781811015610925578281836040517ffb8f41b200000000000000000000000000000000000000000000000000000000815260040161091c93929190611777565b60405180910390fd5b61093384848484035f610f44565b5b50505050565b5f73ffffffffffffffffffffffffffffffffffffffff168373ffffffffffffffffffffffffffffffffffffffff16036109aa575f6040517f96c6fd1e0000000000000000000000000000000000000000000000000000000081526004016109a191906117ac565b60405180910390fd5b5f73ffffffffffffffffffffffffffffffffffffffff168273ffffffffffffffffffffffffffffffffffffffff1603610a1a575f6040517fec442f05000000000000000000000000000000000000000000000000000000008152600401610a1191906117ac565b60405180910390fd5b610a25838383610b92565b505050565b5f73ffffffffffffffffffffffffffffffffffffffff168273ffffffffffffffffffffffffffffffffffffffff1603610a9a575f6040517fec442f05000000000000000000000000000000000000000000000000000000008152600401610a9191906117ac565b60405180910390fd5b610aa55f8383610b92565b5050565b5f805f9054906101000a900473ffffffffffffffffffffffffffffffffffffffff1673ffffffffffffffffffffffffffffffffffffffff166355e2448e6040518163ffffffff1660e01b8152600401602060405180830381865afa158015610b13573d5f803e3d5ffd5b505050506040513d601f19601f82011682018060405250810190610b3791906117ef565b8015610b8d57505f8054906101000a900473ffffffffffffffffffffffffffffffffffffffff1673ffffffffffffffffffffffffffffffffffffffff163373ffffffffffffffffffffffffffffffffffffffff16145b905090565b5f73ffffffffffffffffffffffffffffffffffffffff168373ffffffffffffffffffffffffffffffffffffffff1603610be2578060045f828254610bd69190611847565b92505081905550610cb2565b5f60025f8573ffffffffffffffffffffffffffffffffffffffff1673ffffffffffffffffffffffffffffffffffffffff1681526020019081526020015f2054905081811015610c6c578381836040517fe450d38c000000000000000000000000000000000000000000000000000000008152600401610c6393929190611777565b60405180910390fd5b81810360025f8673ffffffffffffffffffffffffffffffffffffffff1673ffffffffffffffffffffffffffffffffffffffff1681526020019081526020015f2081905550505b5f73ffffffffffffffffffffffffffffffffffffffff168273ffffffffffffffffffffffffffffffffffffffff1603610cf9578060045f8282540392505081905550610d44565b8060025f8473ffffffffffffffffffffffffffffffffffffffff1673ffffffffffffffffffffffffffffffffffffffff1681526020019081526020015f205f82825401925050819055505b8173ffffffffffffffffffffffffffffffffffffffff168373ffffffffffffffffffffffffffffffffffffffff167fddf252ad1be2c89b69c2b068fc378daa952ba7f163c4a11628f55a4df523b3ef83604051610da191906112bd565b60405180910390a3505050565b5f805f8054906101000a900473ffffffffffffffffffffffffffffffffffffffff1673ffffffffffffffffffffffffffffffffffffffff16638dd9523c8786866040518463ffffffff1660e01b8152600401610e0c939291906118db565b602060405180830381865afa158015610e27573d5f803e3d5ffd5b505050506040513d601f19601f82011682018060405250810190610e4b919061192b565b90508047101580610e5c5750803410155b610e9b576040517f08c379a0000000000000000000000000000000000000000000000000000000008152600401610e92906119a0565b60405180910390fd5b5f8054906101000a900473ffffffffffffffffffffffffffffffffffffffff1673ffffffffffffffffffffffffffffffffffffffff1663c21dda4f82885f60149054906101000a900460ff168989896040518763ffffffff1660e01b8152600401610f0a9594939291906119be565b5f604051808303818588803b158015610f21575f80fd5b505af1158015610f33573d5f803e3d5ffd5b505050505080915050949350505050565b5f73ffffffffffffffffffffffffffffffffffffffff168473ffffffffffffffffffffffffffffffffffffffff1603610fb4575f6040517fe602df05000000000000000000000000000000000000000000000000000000008152600401610fab91906117ac565b60405180910390fd5b5f73ffffffffffffffffffffffffffffffffffffffff168373ffffffffffffffffffffffffffffffffffffffff1603611024575f6040517f94280d6200000000000000000000000000000000000000000000000000000000815260040161101b91906117ac565b60405180910390fd5b8160035f8673ffffffffffffffffffffffffffffffffffffffff1673ffffffffffffffffffffffffffffffffffffffff1681526020019081526020015f205f8573ffffffffffffffffffffffffffffffffffffffff1673ffffffffffffffffffffffffffffffffffffffff1681526020019081526020015f2081905550801561110d578273ffffffffffffffffffffffffffffffffffffffff168473ffffffffffffffffffffffffffffffffffffffff167f8c5be1e5ebec7d5bd14f71427d1e84f3dd0314c0f7b2291e5b200ac8c7c3b9258460405161110491906112bd565b60405180910390a35b50505050565b5f81519050919050565b5f82825260208201905092915050565b8281835e5f83830152505050565b5f601f19601f8301169050919050565b5f61115582611113565b61115f818561111d565b935061116f81856020860161112d565b6111788161113b565b840191505092915050565b5f6020820190508181035f83015261119b818461114b565b905092915050565b5f604051905090565b5f80fd5b5f73ffffffffffffffffffffffffffffffffffffffff82169050919050565b5f6111d9826111b0565b9050919050565b6111e9816111cf565b81146111f3575f80fd5b50565b5f81359050611204816111e0565b92915050565b5f819050919050565b61121c8161120a565b8114611226575f80fd5b50565b5f8135905061123781611213565b92915050565b5f8060408385031215611253576112526111ac565b5b5f611260858286016111f6565b925050602061127185828601611229565b9150509250929050565b5f8115159050919050565b61128f8161127b565b82525050565b5f6020820190506112a85f830184611286565b92915050565b6112b78161120a565b82525050565b5f6020820190506112d05f8301846112ae565b92915050565b5f805f606084860312156112ed576112ec6111ac565b5b5f6112fa868287016111f6565b935050602061130b868287016111f6565b925050604061131c86828701611229565b9150509250925092565b5f60ff82169050919050565b61133b81611326565b82525050565b5f6020820190506113545f830184611332565b92915050565b5f819050919050565b5f61137d611378611373846111b0565b61135a565b6111b0565b9050919050565b5f61138e82611363565b9050919050565b5f61139f82611384565b9050919050565b6113af81611395565b82525050565b5f6020820190506113c85f8301846113a6565b92915050565b5f602082840312156113e3576113e26111ac565b5b5f6113f0848285016111f6565b91505092915050565b5f67ffffffffffffffff82169050919050565b611415816113f9565b811461141f575f80fd5b50565b5f813590506114308161140c565b92915050565b5f805f6060848603121561144d5761144c6111ac565b5b5f61145a86828701611422565b935050602061146b868287016111f6565b925050604061147c86828701611229565b9150509250925092565b5f806040838503121561149c5761149b6111ac565b5b5f6114a9858286016111f6565b92505060206114ba858286016111f6565b9150509250929050565b7f4e487b71000000000000000000000000000000000000000000000000000000005f52602260045260245ffd5b5f600282049050600182168061150857607f821691505b60208210810361151b5761151a6114c4565b5b50919050565b5f80fd5b7f4e487b71000000000000000000000000000000000000000000000000000000005f52604160045260245ffd5b61155b8261113b565b810181811067ffffffffffffffff8211171561157a57611579611525565b5b80604052505050565b5f61158c6111a3565b90506115988282611552565b919050565b5f815190506115ab8161140c565b92915050565b5f815190506115bf816111e0565b92915050565b5f604082840312156115da576115d9611521565b5b6115e46040611583565b90505f6115f38482850161159d565b5f830152506020611606848285016115b1565b60208301525092915050565b5f60408284031215611627576116266111ac565b5b5f611634848285016115c5565b91505092915050565b7f4f6d6e6945524332303a204f6e6c792063616c6c61626c65207669612063726f5f8201527f73732d636861696e206d65737361676500000000000000000000000000000000602082015250565b5f61169760308361111d565b91506116a28261163d565b604082019050919050565b5f6020820190508181035f8301526116c48161168b565b9050919050565b6116d4816111cf565b82525050565b5f6060820190506116ed5f8301866116cb565b6116fa60208301856116cb565b61170760408301846112ae565b949350505050565b7f4f6d6e6945524332303a20496e73756666696369656e742066656500000000005f82015250565b5f611743601b8361111d565b915061174e8261170f565b602082019050919050565b5f6020820190508181035f83015261177081611737565b9050919050565b5f60608201905061178a5f8301866116cb565b61179760208301856112ae565b6117a460408301846112ae565b949350505050565b5f6020820190506117bf5f8301846116cb565b92915050565b6117ce8161127b565b81146117d8575f80fd5b50565b5f815190506117e9816117c5565b92915050565b5f60208284031215611804576118036111ac565b5b5f611811848285016117db565b91505092915050565b7f4e487b71000000000000000000000000000000000000000000000000000000005f52601160045260245ffd5b5f6118518261120a565b915061185c8361120a565b92508282019050808211156118745761187361181a565b5b92915050565b611883816113f9565b82525050565b5f81519050919050565b5f82825260208201905092915050565b5f6118ad82611889565b6118b78185611893565b93506118c781856020860161112d565b6118d08161113b565b840191505092915050565b5f6060820190506118ee5f83018661187a565b818103602083015261190081856118a3565b905061190f604083018461187a565b949350505050565b5f8151905061192581611213565b92915050565b5f602082840312156119405761193f6111ac565b5b5f61194d84828501611917565b91505092915050565b7f584170703a20696e73756666696369656e742066756e647300000000000000005f82015250565b5f61198a60188361111d565b915061199582611956565b602082019050919050565b5f6020820190508181035f8301526119b78161197e565b9050919050565b5f60a0820190506119d15f83018861187a565b6119de6020830187611332565b6119eb60408301866116cb565b81810360608301526119fd81856118a3565b9050611a0c608083018461187a565b969550505050505056fea264697066735822122046700868c6dfbdf830947272e2181fd8499785655d3d7cee16653aa26672ef4564736f6c634300081a0033",
					"opcodes": "PUSH1 0x80 PUSH1 0x40 MSTORE CALLVALUE DUP1 ISZERO PUSH2 0xF JUMPI PUSH0 DUP1 REVERT JUMPDEST POP PUSH1 0x40 MLOAD PUSH2 0x267B CODESIZE SUB DUP1 PUSH2 0x267B DUP4 CODECOPY DUP2 DUP2 ADD PUSH1 0x40 MSTORE DUP2 ADD SWAP1 PUSH2 0x31 SWAP2 SWAP1 PUSH2 0x6BA JUMP JUMPDEST DUP4 DUP4 DUP4 DUP1 PUSH1 0x1 PUSH2 0x46 DUP3 PUSH2 0x93 PUSH1 0x20 SHL PUSH1 0x20 SHR JUMP JUMPDEST PUSH2 0x55 DUP2 PUSH2 0x17A PUSH1 0x20 SHL PUSH1 0x20 SHR JUMP JUMPDEST POP POP DUP3 PUSH1 0x5 SWAP1 DUP2 PUSH2 0x66 SWAP2 SWAP1 PUSH2 0x95A JUMP JUMPDEST POP DUP2 PUSH1 0x6 SWAP1 DUP2 PUSH2 0x76 SWAP2 SWAP1 PUSH2 0x95A JUMP JUMPDEST POP POP POP POP PUSH2 0x8A CALLER DUP3 PUSH2 0x21C PUSH1 0x20 SHL PUSH1 0x20 SHR JUMP JUMPDEST POP POP POP POP PUSH2 0xC22 JUMP JUMPDEST PUSH0 PUSH20 0xFFFFFFFFFFFFFFFFFFFFFFFFFFFFFFFFFFFFFFFF AND DUP2 PUSH20 0xFFFFFFFFFFFFFFFFFFFFFFFFFFFFFFFFFFFFFFFF AND SUB PUSH2 0x101 JUMPI PUSH1 0x40 MLOAD PUSH32 0x8C379A000000000000000000000000000000000000000000000000000000000 DUP2 MSTORE PUSH1 0x4 ADD PUSH2 0xF8 SWAP1 PUSH2 0xA83 JUMP JUMPDEST PUSH1 0x40 MLOAD DUP1 SWAP2 SUB SWAP1 REVERT JUMPDEST DUP1 PUSH0 DUP1 PUSH2 0x100 EXP DUP2 SLOAD DUP2 PUSH20 0xFFFFFFFFFFFFFFFFFFFFFFFFFFFFFFFFFFFFFFFF MUL NOT AND SWAP1 DUP4 PUSH20 0xFFFFFFFFFFFFFFFFFFFFFFFFFFFFFFFFFFFFFFFF AND MUL OR SWAP1 SSTORE POP PUSH32 0x79162C8D053A07E70CDC1CCC536F0440B571F8508377D2BEF51094FADAB98F47 DUP2 PUSH1 0x40 MLOAD PUSH2 0x16F SWAP2 SWAP1 PUSH2 0xAB0 JUMP JUMPDEST PUSH1 0x40 MLOAD DUP1 SWAP2 SUB SWAP1 LOG1 POP JUMP JUMPDEST PUSH2 0x189 DUP2 PUSH2 0x2A1 PUSH1 0x20 SHL PUSH1 0x20 SHR JUMP JUMPDEST PUSH2 0x1C8 JUMPI PUSH1 0x40 MLOAD PUSH32 0x8C379A000000000000000000000000000000000000000000000000000000000 DUP2 MSTORE PUSH1 0x4 ADD PUSH2 0x1BF SWAP1 PUSH2 0xB13 JUMP JUMPDEST PUSH1 0x40 MLOAD DUP1 SWAP2 SUB SWAP1 REVERT JUMPDEST DUP1 PUSH0 PUSH1 0x14 PUSH2 0x100 EXP DUP2 SLOAD DUP2 PUSH1 0xFF MUL NOT AND SWAP1 DUP4 PUSH1 0xFF AND MUL OR SWAP1 SSTORE POP PUSH32 0x8DE08A798B4E50B4F351C1EAA91A11530043802BE3FFAC2DF87DB0C45A2E8483 DUP2 PUSH1 0x40 MLOAD PUSH2 0x211 SWAP2 SWAP1 PUSH2 0xB4C JUMP JUMPDEST PUSH1 0x40 MLOAD DUP1 SWAP2 SUB SWAP1 LOG1 POP JUMP JUMPDEST PUSH0 PUSH20 0xFFFFFFFFFFFFFFFFFFFFFFFFFFFFFFFFFFFFFFFF AND DUP3 PUSH20 0xFFFFFFFFFFFFFFFFFFFFFFFFFFFFFFFFFFFFFFFF AND SUB PUSH2 0x28C JUMPI PUSH0 PUSH1 0x40 MLOAD PUSH32 0xEC442F0500000000000000000000000000000000000000000000000000000000 DUP2 MSTORE PUSH1 0x4 ADD PUSH2 0x283 SWAP2 SWAP1 PUSH2 0xAB0 JUMP JUMPDEST PUSH1 0x40 MLOAD DUP1 SWAP2 SUB SWAP1 REVERT JUMPDEST PUSH2 0x29D PUSH0 DUP4 DUP4 PUSH2 0x2C4 PUSH1 0x20 SHL PUSH1 0x20 SHR JUMP JUMPDEST POP POP JUMP JUMPDEST PUSH0 PUSH1 0x1 PUSH1 0xFF AND DUP3 PUSH1 0xFF AND EQ DUP1 PUSH2 0x2BD JUMPI POP PUSH1 0x4 PUSH1 0xFF AND DUP3 PUSH1 0xFF AND EQ JUMPDEST SWAP1 POP SWAP2 SWAP1 POP JUMP JUMPDEST PUSH0 PUSH20 0xFFFFFFFFFFFFFFFFFFFFFFFFFFFFFFFFFFFFFFFF AND DUP4 PUSH20 0xFFFFFFFFFFFFFFFFFFFFFFFFFFFFFFFFFFFFFFFF AND SUB PUSH2 0x314 JUMPI DUP1 PUSH1 0x4 PUSH0 DUP3 DUP3 SLOAD PUSH2 0x308 SWAP2 SWAP1 PUSH2 0xB92 JUMP JUMPDEST SWAP3 POP POP DUP2 SWAP1 SSTORE POP PUSH2 0x3E4 JUMP JUMPDEST PUSH0 PUSH1 0x2 PUSH0 DUP6 PUSH20 0xFFFFFFFFFFFFFFFFFFFFFFFFFFFFFFFFFFFFFFFF AND PUSH20 0xFFFFFFFFFFFFFFFFFFFFFFFFFFFFFFFFFFFFFFFF AND DUP2 MSTORE PUSH1 0x20 ADD SWAP1 DUP2 MSTORE PUSH1 0x20 ADD PUSH0 KECCAK256 SLOAD SWAP1 POP DUP2 DUP2 LT ISZERO PUSH2 0x39E JUMPI DUP4 DUP2 DUP4 PUSH1 0x40 MLOAD PUSH32 0xE450D38C00000000000000000000000000000000000000000000000000000000 DUP2 MSTORE PUSH1 0x4 ADD PUSH2 0x395 SWAP4 SWAP3 SWAP2 SWAP1 PUSH2 0xBD4 JUMP JUMPDEST PUSH1 0x40 MLOAD DUP1 SWAP2 SUB SWAP1 REVERT JUMPDEST DUP2 DUP2 SUB PUSH1 0x2 PUSH0 DUP7 PUSH20 0xFFFFFFFFFFFFFFFFFFFFFFFFFFFFFFFFFFFFFFFF AND PUSH20 0xFFFFFFFFFFFFFFFFFFFFFFFFFFFFFFFFFFFFFFFF AND DUP2 MSTORE PUSH1 0x20 ADD SWAP1 DUP2 MSTORE PUSH1 0x20 ADD PUSH0 KECCAK256 DUP2 SWAP1 SSTORE POP POP JUMPDEST PUSH0 PUSH20 0xFFFFFFFFFFFFFFFFFFFFFFFFFFFFFFFFFFFFFFFF AND DUP3 PUSH20 0xFFFFFFFFFFFFFFFFFFFFFFFFFFFFFFFFFFFFFFFF AND SUB PUSH2 0x42B JUMPI DUP1 PUSH1 0x4 PUSH0 DUP3 DUP3 SLOAD SUB SWAP3 POP POP DUP2 SWAP1 SSTORE POP PUSH2 0x476 JUMP JUMPDEST DUP1 PUSH1 0x2 PUSH0 DUP5 PUSH20 0xFFFFFFFFFFFFFFFFFFFFFFFFFFFFFFFFFFFFFFFF AND PUSH20 0xFFFFFFFFFFFFFFFFFFFFFFFFFFFFFFFFFFFFFFFF AND DUP2 MSTORE PUSH1 0x20 ADD SWAP1 DUP2 MSTORE PUSH1 0x20 ADD PUSH0 KECCAK256 PUSH0 DUP3 DUP3 SLOAD ADD SWAP3 POP POP DUP2 SWAP1 SSTORE POP JUMPDEST DUP2 PUSH20 0xFFFFFFFFFFFFFFFFFFFFFFFFFFFFFFFFFFFFFFFF AND DUP4 PUSH20 0xFFFFFFFFFFFFFFFFFFFFFFFFFFFFFFFFFFFFFFFF AND PUSH32 0xDDF252AD1BE2C89B69C2B068FC378DAA952BA7F163C4A11628F55A4DF523B3EF DUP4 PUSH1 0x40 MLOAD PUSH2 0x4D3 SWAP2 SWAP1 PUSH2 0xC09 JUMP JUMPDEST PUSH1 0x40 MLOAD DUP1 SWAP2 SUB SWAP1 LOG3 POP POP POP JUMP JUMPDEST PUSH0 PUSH1 0x40 MLOAD SWAP1 POP SWAP1 JUMP JUMPDEST PUSH0 DUP1 REVERT JUMPDEST PUSH0 DUP1 REVERT JUMPDEST PUSH0 DUP1 REVERT JUMPDEST PUSH0 DUP1 REVERT JUMPDEST PUSH0 PUSH1 0x1F NOT PUSH1 0x1F DUP4 ADD AND SWAP1 POP SWAP2 SWAP1 POP JUMP JUMPDEST PUSH32 0x4E487B7100000000000000000000000000000000000000000000000000000000 PUSH0 MSTORE PUSH1 0x41 PUSH1 0x4 MSTORE PUSH1 0x24 PUSH0 REVERT JUMPDEST PUSH2 0x53F DUP3 PUSH2 0x4F9 JUMP JUMPDEST DUP2 ADD DUP2 DUP2 LT PUSH8 0xFFFFFFFFFFFFFFFF DUP3 GT OR ISZERO PUSH2 0x55E JUMPI PUSH2 0x55D PUSH2 0x509 JUMP JUMPDEST JUMPDEST DUP1 PUSH1 0x40 MSTORE POP POP POP JUMP JUMPDEST PUSH0 PUSH2 0x570 PUSH2 0x4E0 JUMP JUMPDEST SWAP1 POP PUSH2 0x57C DUP3 DUP3 PUSH2 0x536 JUMP JUMPDEST SWAP2 SWAP1 POP JUMP JUMPDEST PUSH0 PUSH8 0xFFFFFFFFFFFFFFFF DUP3 GT ISZERO PUSH2 0x59B JUMPI PUSH2 0x59A PUSH2 0x509 JUMP JUMPDEST JUMPDEST PUSH2 0x5A4 DUP3 PUSH2 0x4F9 JUMP JUMPDEST SWAP1 POP PUSH1 0x20 DUP2 ADD SWAP1 POP SWAP2 SWAP1 POP JUMP JUMPDEST DUP3 DUP2 DUP4 MCOPY PUSH0 DUP4 DUP4 ADD MSTORE POP POP POP JUMP JUMPDEST PUSH0 PUSH2 0x5D1 PUSH2 0x5CC DUP5 PUSH2 0x581 JUMP JUMPDEST PUSH2 0x567 JUMP JUMPDEST SWAP1 POP DUP3 DUP2 MSTORE PUSH1 0x20 DUP2 ADD DUP5 DUP5 DUP5 ADD GT ISZERO PUSH2 0x5ED JUMPI PUSH2 0x5EC PUSH2 0x4F5 JUMP JUMPDEST JUMPDEST PUSH2 0x5F8 DUP5 DUP3 DUP6 PUSH2 0x5B1 JUMP JUMPDEST POP SWAP4 SWAP3 POP POP POP JUMP JUMPDEST PUSH0 DUP3 PUSH1 0x1F DUP4 ADD SLT PUSH2 0x614 JUMPI PUSH2 0x613 PUSH2 0x4F1 JUMP JUMPDEST JUMPDEST DUP2 MLOAD PUSH2 0x624 DUP5 DUP3 PUSH1 0x20 DUP7 ADD PUSH2 0x5BF JUMP JUMPDEST SWAP2 POP POP SWAP3 SWAP2 POP POP JUMP JUMPDEST PUSH0 PUSH20 0xFFFFFFFFFFFFFFFFFFFFFFFFFFFFFFFFFFFFFFFF DUP3 AND SWAP1 POP SWAP2 SWAP1 POP JUMP JUMPDEST PUSH0 PUSH2 0x656 DUP3 PUSH2 0x62D JUMP JUMPDEST SWAP1 POP SWAP2 SWAP1 POP JUMP JUMPDEST PUSH2 0x666 DUP2 PUSH2 0x64C JUMP JUMPDEST DUP2 EQ PUSH2 0x670 JUMPI PUSH0 DUP1 REVERT JUMPDEST POP JUMP JUMPDEST PUSH0 DUP2 MLOAD SWAP1 POP PUSH2 0x681 DUP2 PUSH2 0x65D JUMP JUMPDEST SWAP3 SWAP2 POP POP JUMP JUMPDEST PUSH0 DUP2 SWAP1 POP SWAP2 SWAP1 POP JUMP JUMPDEST PUSH2 0x699 DUP2 PUSH2 0x687 JUMP JUMPDEST DUP2 EQ PUSH2 0x6A3 JUMPI PUSH0 DUP1 REVERT JUMPDEST POP JUMP JUMPDEST PUSH0 DUP2 MLOAD SWAP1 POP PUSH2 0x6B4 DUP2 PUSH2 0x690 JUMP JUMPDEST SWAP3 SWAP2 POP POP JUMP JUMPDEST PUSH0 DUP1 PUSH0 DUP1 PUSH1 0x80 DUP6 DUP8 SUB SLT ISZERO PUSH2 0x6D2 JUMPI PUSH2 0x6D1 PUSH2 0x4E9 JUMP JUMPDEST JUMPDEST PUSH0 DUP6 ADD MLOAD PUSH8 0xFFFFFFFFFFFFFFFF DUP2 GT ISZERO PUSH2 0x6EF JUMPI PUSH2 0x6EE PUSH2 0x4ED JUMP JUMPDEST JUMPDEST PUSH2 0x6FB DUP8 DUP3 DUP9 ADD PUSH2 0x600 JUMP JUMPDEST SWAP5 POP POP PUSH1 0x20 DUP6 ADD MLOAD PUSH8 0xFFFFFFFFFFFFFFFF DUP2 GT ISZERO PUSH2 0x71C JUMPI PUSH2 0x71B PUSH2 0x4ED JUMP JUMPDEST JUMPDEST PUSH2 0x728 DUP8 DUP3 DUP9 ADD PUSH2 0x600 JUMP JUMPDEST SWAP4 POP POP PUSH1 0x40 PUSH2 0x739 DUP8 DUP3 DUP9 ADD PUSH2 0x673 JUMP JUMPDEST SWAP3 POP POP PUSH1 0x60 PUSH2 0x74A DUP8 DUP3 DUP9 ADD PUSH2 0x6A6 JUMP JUMPDEST SWAP2 POP POP SWAP3 SWAP6 SWAP2 SWAP5 POP SWAP3 POP JUMP JUMPDEST PUSH0 DUP2 MLOAD SWAP1 POP SWAP2 SWAP1 POP JUMP JUMPDEST PUSH32 0x4E487B7100000000000000000000000000000000000000000000000000000000 PUSH0 MSTORE PUSH1 0x22 PUSH1 0x4 MSTORE PUSH1 0x24 PUSH0 REVERT JUMPDEST PUSH0 PUSH1 0x2 DUP3 DIV SWAP1 POP PUSH1 0x1 DUP3 AND DUP1 PUSH2 0x7A4 JUMPI PUSH1 0x7F DUP3 AND SWAP2 POP JUMPDEST PUSH1 0x20 DUP3 LT DUP2 SUB PUSH2 0x7B7 JUMPI PUSH2 0x7B6 PUSH2 0x760 JUMP JUMPDEST JUMPDEST POP SWAP2 SWAP1 POP JUMP JUMPDEST PUSH0 DUP2 SWAP1 POP DUP2 PUSH0 MSTORE PUSH1 0x20 PUSH0 KECCAK256 SWAP1 POP SWAP2 SWAP1 POP JUMP JUMPDEST PUSH0 PUSH1 0x20 PUSH1 0x1F DUP4 ADD DIV SWAP1 POP SWAP2 SWAP1 POP JUMP JUMPDEST PUSH0 DUP3 DUP3 SHL SWAP1 POP SWAP3 SWAP2 POP POP JUMP JUMPDEST PUSH0 PUSH1 0x8 DUP4 MUL PUSH2 0x819 PUSH32 0xFFFFFFFFFFFFFFFFFFFFFFFFFFFFFFFFFFFFFFFFFFFFFFFFFFFFFFFFFFFFFFFF DUP3 PUSH2 0x7DE JUMP JUMPDEST PUSH2 0x823 DUP7 DUP4 PUSH2 0x7DE JUMP JUMPDEST SWAP6 POP DUP1 NOT DUP5 AND SWAP4 POP DUP1 DUP7 AND DUP5 OR SWAP3 POP POP POP SWAP4 SWAP3 POP POP POP JUMP JUMPDEST PUSH0 DUP2 SWAP1 POP SWAP2 SWAP1 POP JUMP JUMPDEST PUSH0 PUSH2 0x85E PUSH2 0x859 PUSH2 0x854 DUP5 PUSH2 0x687 JUMP JUMPDEST PUSH2 0x83B JUMP JUMPDEST PUSH2 0x687 JUMP JUMPDEST SWAP1 POP SWAP2 SWAP1 POP JUMP JUMPDEST PUSH0 DUP2 SWAP1 POP SWAP2 SWAP1 POP JUMP JUMPDEST PUSH2 0x877 DUP4 PUSH2 0x844 JUMP JUMPDEST PUSH2 0x88B PUSH2 0x883 DUP3 PUSH2 0x865 JUMP JUMPDEST DUP5 DUP5 SLOAD PUSH2 0x7EA JUMP JUMPDEST DUP3 SSTORE POP POP POP POP JUMP JUMPDEST PUSH0 SWAP1 JUMP JUMPDEST PUSH2 0x89F PUSH2 0x893 JUMP JUMPDEST PUSH2 0x8AA DUP2 DUP5 DUP5 PUSH2 0x86E JUMP JUMPDEST POP POP POP JUMP JUMPDEST JUMPDEST DUP2 DUP2 LT ISZERO PUSH2 0x8CD JUMPI PUSH2 0x8C2 PUSH0 DUP3 PUSH2 0x897 JUMP JUMPDEST PUSH1 0x1 DUP2 ADD SWAP1 POP PUSH2 0x8B0 JUMP JUMPDEST POP POP JUMP JUMPDEST PUSH1 0x1F DUP3 GT ISZERO PUSH2 0x912 JUMPI PUSH2 0x8E3 DUP2 PUSH2 0x7BD JUMP JUMPDEST PUSH2 0x8EC DUP5 PUSH2 0x7CF JUMP JUMPDEST DUP2 ADD PUSH1 0x20 DUP6 LT ISZERO PUSH2 0x8FB JUMPI DUP2 SWAP1 POP JUMPDEST PUSH2 0x90F PUSH2 0x907 DUP6 PUSH2 0x7CF JUMP JUMPDEST DUP4 ADD DUP3 PUSH2 0x8AF JUMP JUMPDEST POP POP JUMPDEST POP POP POP JUMP JUMPDEST PUSH0 DUP3 DUP3 SHR SWAP1 POP SWAP3 SWAP2 POP POP JUMP JUMPDEST PUSH0 PUSH2 0x932 PUSH0 NOT DUP5 PUSH1 0x8 MUL PUSH2 0x917 JUMP JUMPDEST NOT DUP1 DUP4 AND SWAP2 POP POP SWAP3 SWAP2 POP POP JUMP JUMPDEST PUSH0 PUSH2 0x94A DUP4 DUP4 PUSH2 0x923 JUMP JUMPDEST SWAP2 POP DUP3 PUSH1 0x2 MUL DUP3 OR SWAP1 POP SWAP3 SWAP2 POP POP JUMP JUMPDEST PUSH2 0x963 DUP3 PUSH2 0x756 JUMP JUMPDEST PUSH8 0xFFFFFFFFFFFFFFFF DUP2 GT ISZERO PUSH2 0x97C JUMPI PUSH2 0x97B PUSH2 0x509 JUMP JUMPDEST JUMPDEST PUSH2 0x986 DUP3 SLOAD PUSH2 0x78D JUMP JUMPDEST PUSH2 0x991 DUP3 DUP3 DUP6 PUSH2 0x8D1 JUMP JUMPDEST PUSH0 PUSH1 0x20 SWAP1 POP PUSH1 0x1F DUP4 GT PUSH1 0x1 DUP2 EQ PUSH2 0x9C2 JUMPI PUSH0 DUP5 ISZERO PUSH2 0x9B0 JUMPI DUP3 DUP8 ADD MLOAD SWAP1 POP JUMPDEST PUSH2 0x9BA DUP6 DUP3 PUSH2 0x93F JUMP JUMPDEST DUP7 SSTORE POP PUSH2 0xA21 JUMP JUMPDEST PUSH1 0x1F NOT DUP5 AND PUSH2 0x9D0 DUP7 PUSH2 0x7BD JUMP JUMPDEST PUSH0 JUMPDEST DUP3 DUP2 LT ISZERO PUSH2 0x9F7 JUMPI DUP5 DUP10 ADD MLOAD DUP3 SSTORE PUSH1 0x1 DUP3 ADD SWAP2 POP PUSH1 0x20 DUP6 ADD SWAP5 POP PUSH1 0x20 DUP2 ADD SWAP1 POP PUSH2 0x9D2 JUMP JUMPDEST DUP7 DUP4 LT ISZERO PUSH2 0xA14 JUMPI DUP5 DUP10 ADD MLOAD PUSH2 0xA10 PUSH1 0x1F DUP10 AND DUP3 PUSH2 0x923 JUMP JUMPDEST DUP4 SSTORE POP JUMPDEST PUSH1 0x1 PUSH1 0x2 DUP9 MUL ADD DUP9 SSTORE POP POP POP JUMPDEST POP POP POP POP POP POP JUMP JUMPDEST PUSH0 DUP3 DUP3 MSTORE PUSH1 0x20 DUP3 ADD SWAP1 POP SWAP3 SWAP2 POP POP JUMP JUMPDEST PUSH32 0x584170703A206E6F207A65726F206F6D6E690000000000000000000000000000 PUSH0 DUP3 ADD MSTORE POP JUMP JUMPDEST PUSH0 PUSH2 0xA6D PUSH1 0x12 DUP4 PUSH2 0xA29 JUMP JUMPDEST SWAP2 POP PUSH2 0xA78 DUP3 PUSH2 0xA39 JUMP JUMPDEST PUSH1 0x20 DUP3 ADD SWAP1 POP SWAP2 SWAP1 POP JUMP JUMPDEST PUSH0 PUSH1 0x20 DUP3 ADD SWAP1 POP DUP2 DUP2 SUB PUSH0 DUP4 ADD MSTORE PUSH2 0xA9A DUP2 PUSH2 0xA61 JUMP JUMPDEST SWAP1 POP SWAP2 SWAP1 POP JUMP JUMPDEST PUSH2 0xAAA DUP2 PUSH2 0x64C JUMP JUMPDEST DUP3 MSTORE POP POP JUMP JUMPDEST PUSH0 PUSH1 0x20 DUP3 ADD SWAP1 POP PUSH2 0xAC3 PUSH0 DUP4 ADD DUP5 PUSH2 0xAA1 JUMP JUMPDEST SWAP3 SWAP2 POP POP JUMP JUMPDEST PUSH32 0x584170703A20696E76616C696420636F6E66206C6576656C0000000000000000 PUSH0 DUP3 ADD MSTORE POP JUMP JUMPDEST PUSH0 PUSH2 0xAFD PUSH1 0x18 DUP4 PUSH2 0xA29 JUMP JUMPDEST SWAP2 POP PUSH2 0xB08 DUP3 PUSH2 0xAC9 JUMP JUMPDEST PUSH1 0x20 DUP3 ADD SWAP1 POP SWAP2 SWAP1 POP JUMP JUMPDEST PUSH0 PUSH1 0x20 DUP3 ADD SWAP1 POP DUP2 DUP2 SUB PUSH0 DUP4 ADD MSTORE PUSH2 0xB2A DUP2 PUSH2 0xAF1 JUMP JUMPDEST SWAP1 POP SWAP2 SWAP1 POP JUMP JUMPDEST PUSH0 PUSH1 0xFF DUP3 AND SWAP1 POP SWAP2 SWAP1 POP JUMP JUMPDEST PUSH2 0xB46 DUP2 PUSH2 0xB31 JUMP JUMPDEST DUP3 MSTORE POP POP JUMP JUMPDEST PUSH0 PUSH1 0x20 DUP3 ADD SWAP1 POP PUSH2 0xB5F PUSH0 DUP4 ADD DUP5 PUSH2 0xB3D JUMP JUMPDEST SWAP3 SWAP2 POP POP JUMP JUMPDEST PUSH32 0x4E487B7100000000000000000000000000000000000000000000000000000000 PUSH0 MSTORE PUSH1 0x11 PUSH1 0x4 MSTORE PUSH1 0x24 PUSH0 REVERT JUMPDEST PUSH0 PUSH2 0xB9C DUP3 PUSH2 0x687 JUMP JUMPDEST SWAP2 POP PUSH2 0xBA7 DUP4 PUSH2 0x687 JUMP JUMPDEST SWAP3 POP DUP3 DUP3 ADD SWAP1 POP DUP1 DUP3 GT ISZERO PUSH2 0xBBF JUMPI PUSH2 0xBBE PUSH2 0xB65 JUMP JUMPDEST JUMPDEST SWAP3 SWAP2 POP POP JUMP JUMPDEST PUSH2 0xBCE DUP2 PUSH2 0x687 JUMP JUMPDEST DUP3 MSTORE POP POP JUMP JUMPDEST PUSH0 PUSH1 0x60 DUP3 ADD SWAP1 POP PUSH2 0xBE7 PUSH0 DUP4 ADD DUP7 PUSH2 0xAA1 JUMP JUMPDEST PUSH2 0xBF4 PUSH1 0x20 DUP4 ADD DUP6 PUSH2 0xBC5 JUMP JUMPDEST PUSH2 0xC01 PUSH1 0x40 DUP4 ADD DUP5 PUSH2 0xBC5 JUMP JUMPDEST SWAP5 SWAP4 POP POP POP POP JUMP JUMPDEST PUSH0 PUSH1 0x20 DUP3 ADD SWAP1 POP PUSH2 0xC1C PUSH0 DUP4 ADD DUP5 PUSH2 0xBC5 JUMP JUMPDEST SWAP3 SWAP2 POP POP JUMP JUMPDEST PUSH2 0x1A4C DUP1 PUSH2 0xC2F PUSH0 CODECOPY PUSH0 RETURN INVALID PUSH1 0x80 PUSH1 0x40 MSTORE PUSH1 0x4 CALLDATASIZE LT PUSH2 0xDC JUMPI PUSH0 CALLDATALOAD PUSH1 0xE0 SHR DUP1 PUSH4 0x4A536A06 GT PUSH2 0x7E JUMPI DUP1 PUSH4 0x95D89B41 GT PUSH2 0x58 JUMPI DUP1 PUSH4 0x95D89B41 EQ PUSH2 0x2B6 JUMPI DUP1 PUSH4 0xA9059CBB EQ PUSH2 0x2E0 JUMPI DUP1 PUSH4 0xD15DCD62 EQ PUSH2 0x31C JUMPI DUP1 PUSH4 0xDD62ED3E EQ PUSH2 0x338 JUMPI PUSH2 0xDC JUMP JUMPDEST DUP1 PUSH4 0x4A536A06 EQ PUSH2 0x228 JUMPI DUP1 PUSH4 0x70A08231 EQ PUSH2 0x250 JUMPI DUP1 PUSH4 0x74EEB847 EQ PUSH2 0x28C JUMPI PUSH2 0xDC JUMP JUMPDEST DUP1 PUSH4 0x23B872DD GT PUSH2 0xBA JUMPI DUP1 PUSH4 0x23B872DD EQ PUSH2 0x170 JUMPI DUP1 PUSH4 0x313CE567 EQ PUSH2 0x1AC JUMPI DUP1 PUSH4 0x39ACF9F1 EQ PUSH2 0x1D6 JUMPI DUP1 PUSH4 0x40C10F19 EQ PUSH2 0x200 JUMPI PUSH2 0xDC JUMP JUMPDEST DUP1 PUSH4 0x6FDDE03 EQ PUSH2 0xE0 JUMPI DUP1 PUSH4 0x95EA7B3 EQ PUSH2 0x10A JUMPI DUP1 PUSH4 0x18160DDD EQ PUSH2 0x146 JUMPI JUMPDEST PUSH0 DUP1 REVERT JUMPDEST CALLVALUE DUP1 ISZERO PUSH2 0xEB JUMPI PUSH0 DUP1 REVERT JUMPDEST POP PUSH2 0xF4 PUSH2 0x374 JUMP JUMPDEST PUSH1 0x40 MLOAD PUSH2 0x101 SWAP2 SWAP1 PUSH2 0x1183 JUMP JUMPDEST PUSH1 0x40 MLOAD DUP1 SWAP2 SUB SWAP1 RETURN JUMPDEST CALLVALUE DUP1 ISZERO PUSH2 0x115 JUMPI PUSH0 DUP1 REVERT JUMPDEST POP PUSH2 0x130 PUSH1 0x4 DUP1 CALLDATASIZE SUB DUP2 ADD SWAP1 PUSH2 0x12B SWAP2 SWAP1 PUSH2 0x123D JUMP JUMPDEST PUSH2 0x404 JUMP JUMPDEST PUSH1 0x40 MLOAD PUSH2 0x13D SWAP2 SWAP1 PUSH2 0x1295 JUMP JUMPDEST PUSH1 0x40 MLOAD DUP1 SWAP2 SUB SWAP1 RETURN JUMPDEST CALLVALUE DUP1 ISZERO PUSH2 0x151 JUMPI PUSH0 DUP1 REVERT JUMPDEST POP PUSH2 0x15A PUSH2 0x426 JUMP JUMPDEST PUSH1 0x40 MLOAD PUSH2 0x167 SWAP2 SWAP1 PUSH2 0x12BD JUMP JUMPDEST PUSH1 0x40 MLOAD DUP1 SWAP2 SUB SWAP1 RETURN JUMPDEST CALLVALUE DUP1 ISZERO PUSH2 0x17B JUMPI PUSH0 DUP1 REVERT JUMPDEST POP PUSH2 0x196 PUSH1 0x4 DUP1 CALLDATASIZE SUB DUP2 ADD SWAP1 PUSH2 0x191 SWAP2 SWAP1 PUSH2 0x12D6 JUMP JUMPDEST PUSH2 0x42F JUMP JUMPDEST PUSH1 0x40 MLOAD PUSH2 0x1A3 SWAP2 SWAP1 PUSH2 0x1295 JUMP JUMPDEST PUSH1 0x40 MLOAD DUP1 SWAP2 SUB SWAP1 RETURN JUMPDEST CALLVALUE DUP1 ISZERO PUSH2 0x1B7 JUMPI PUSH0 DUP1 REVERT JUMPDEST POP PUSH2 0x1C0 PUSH2 0x45D JUMP JUMPDEST PUSH1 0x40 MLOAD PUSH2 0x1CD SWAP2 SWAP1 PUSH2 0x1341 JUMP JUMPDEST PUSH1 0x40 MLOAD DUP1 SWAP2 SUB SWAP1 RETURN JUMPDEST CALLVALUE DUP1 ISZERO PUSH2 0x1E1 JUMPI PUSH0 DUP1 REVERT JUMPDEST POP PUSH2 0x1EA PUSH2 0x465 JUMP JUMPDEST PUSH1 0x40 MLOAD PUSH2 0x1F7 SWAP2 SWAP1 PUSH2 0x13B5 JUMP JUMPDEST PUSH1 0x40 MLOAD DUP1 SWAP2 SUB SWAP1 RETURN JUMPDEST CALLVALUE DUP1 ISZERO PUSH2 0x20B JUMPI PUSH0 DUP1 REVERT JUMPDEST POP PUSH2 0x226 PUSH1 0x4 DUP1 CALLDATASIZE SUB DUP2 ADD SWAP1 PUSH2 0x221 SWAP2 SWAP1 PUSH2 0x123D JUMP JUMPDEST PUSH2 0x488 JUMP JUMPDEST STOP JUMPDEST CALLVALUE DUP1 ISZERO PUSH2 0x233 JUMPI PUSH0 DUP1 REVERT JUMPDEST POP PUSH2 0x24E PUSH1 0x4 DUP1 CALLDATASIZE SUB DUP2 ADD SWAP1 PUSH2 0x249 SWAP2 SWAP1 PUSH2 0x12D6 JUMP JUMPDEST PUSH2 0x496 JUMP JUMPDEST STOP JUMPDEST CALLVALUE DUP1 ISZERO PUSH2 0x25B JUMPI PUSH0 DUP1 REVERT JUMPDEST POP PUSH2 0x276 PUSH1 0x4 DUP1 CALLDATASIZE SUB DUP2 ADD SWAP1 PUSH2 0x271 SWAP2 SWAP1 PUSH2 0x13CE JUMP JUMPDEST PUSH2 0x633 JUMP JUMPDEST PUSH1 0x40 MLOAD PUSH2 0x283 SWAP2 SWAP1 PUSH2 0x12BD JUMP JUMPDEST PUSH1 0x40 MLOAD DUP1 SWAP2 SUB SWAP1 RETURN JUMPDEST CALLVALUE DUP1 ISZERO PUSH2 0x297 JUMPI PUSH0 DUP1 REVERT JUMPDEST POP PUSH2 0x2A0 PUSH2 0x679 JUMP JUMPDEST PUSH1 0x40 MLOAD PUSH2 0x2AD SWAP2 SWAP1 PUSH2 0x1341 JUMP JUMPDEST PUSH1 0x40 MLOAD DUP1 SWAP2 SUB SWAP1 RETURN JUMPDEST CALLVALUE DUP1 ISZERO PUSH2 0x2C1 JUMPI PUSH0 DUP1 REVERT JUMPDEST POP PUSH2 0x2CA PUSH2 0x68B JUMP JUMPDEST PUSH1 0x40 MLOAD PUSH2 0x2D7 SWAP2 SWAP1 PUSH2 0x1183 JUMP JUMPDEST PUSH1 0x40 MLOAD DUP1 SWAP2 SUB SWAP1 RETURN JUMPDEST CALLVALUE DUP1 ISZERO PUSH2 0x2EB JUMPI PUSH0 DUP1 REVERT JUMPDEST POP PUSH2 0x306 PUSH1 0x4 DUP1 CALLDATASIZE SUB DUP2 ADD SWAP1 PUSH2 0x301 SWAP2 SWAP1 PUSH2 0x123D JUMP JUMPDEST PUSH2 0x71B JUMP JUMPDEST PUSH1 0x40 MLOAD PUSH2 0x313 SWAP2 SWAP1 PUSH2 0x1295 JUMP JUMPDEST PUSH1 0x40 MLOAD DUP1 SWAP2 SUB SWAP1 RETURN JUMPDEST PUSH2 0x336 PUSH1 0x4 DUP1 CALLDATASIZE SUB DUP2 ADD SWAP1 PUSH2 0x331 SWAP2 SWAP1 PUSH2 0x1436 JUMP JUMPDEST PUSH2 0x73D JUMP JUMPDEST STOP JUMPDEST CALLVALUE DUP1 ISZERO PUSH2 0x343 JUMPI PUSH0 DUP1 REVERT JUMPDEST POP PUSH2 0x35E PUSH1 0x4 DUP1 CALLDATASIZE SUB DUP2 ADD SWAP1 PUSH2 0x359 SWAP2 SWAP1 PUSH2 0x1486 JUMP JUMPDEST PUSH2 0x80D JUMP JUMPDEST PUSH1 0x40 MLOAD PUSH2 0x36B SWAP2 SWAP1 PUSH2 0x12BD JUMP JUMPDEST PUSH1 0x40 MLOAD DUP1 SWAP2 SUB SWAP1 RETURN JUMPDEST PUSH1 0x60 PUSH1 0x5 DUP1 SLOAD PUSH2 0x383 SWAP1 PUSH2 0x14F1 JUMP JUMPDEST DUP1 PUSH1 0x1F ADD PUSH1 0x20 DUP1 SWAP2 DIV MUL PUSH1 0x20 ADD PUSH1 0x40 MLOAD SWAP1 DUP2 ADD PUSH1 0x40 MSTORE DUP1 SWAP3 SWAP2 SWAP1 DUP2 DUP2 MSTORE PUSH1 0x20 ADD DUP3 DUP1 SLOAD PUSH2 0x3AF SWAP1 PUSH2 0x14F1 JUMP JUMPDEST DUP1 ISZERO PUSH2 0x3FA JUMPI DUP1 PUSH1 0x1F LT PUSH2 0x3D1 JUMPI PUSH2 0x100 DUP1 DUP4 SLOAD DIV MUL DUP4 MSTORE SWAP2 PUSH1 0x20 ADD SWAP2 PUSH2 0x3FA JUMP JUMPDEST DUP3 ADD SWAP2 SWAP1 PUSH0 MSTORE PUSH1 0x20 PUSH0 KECCAK256 SWAP1 JUMPDEST DUP2 SLOAD DUP2 MSTORE SWAP1 PUSH1 0x1 ADD SWAP1 PUSH1 0x20 ADD DUP1 DUP4 GT PUSH2 0x3DD JUMPI DUP3 SWAP1 SUB PUSH1 0x1F AND DUP3 ADD SWAP2 JUMPDEST POP POP POP POP POP SWAP1 POP SWAP1 JUMP JUMPDEST PUSH0 DUP1 PUSH2 0x40E PUSH2 0x88F JUMP JUMPDEST SWAP1 POP PUSH2 0x41B DUP2 DUP6 DUP6 PUSH2 0x896 JUMP JUMPDEST PUSH1 0x1 SWAP2 POP POP SWAP3 SWAP2 POP POP JUMP JUMPDEST PUSH0 PUSH1 0x4 SLOAD SWAP1 POP SWAP1 JUMP JUMPDEST PUSH0 DUP1 PUSH2 0x439 PUSH2 0x88F JUMP JUMPDEST SWAP1 POP PUSH2 0x446 DUP6 DUP3 DUP6 PUSH2 0x8A8 JUMP JUMPDEST PUSH2 0x451 DUP6 DUP6 DUP6 PUSH2 0x93A JUMP JUMPDEST PUSH1 0x1 SWAP2 POP POP SWAP4 SWAP3 POP POP POP JUMP JUMPDEST PUSH0 PUSH1 0x12 SWAP1 POP SWAP1 JUMP JUMPDEST PUSH0 DUP1 SLOAD SWAP1 PUSH2 0x100 EXP SWAP1 DIV PUSH20 0xFFFFFFFFFFFFFFFFFFFFFFFFFFFFFFFFFFFFFFFF AND DUP2 JUMP JUMPDEST PUSH2 0x492 DUP3 DUP3 PUSH2 0xA2A JUMP JUMPDEST POP POP JUMP JUMPDEST PUSH0 DUP1 SLOAD SWAP1 PUSH2 0x100 EXP SWAP1 DIV PUSH20 0xFFFFFFFFFFFFFFFFFFFFFFFFFFFFFFFFFFFFFFFF AND PUSH20 0xFFFFFFFFFFFFFFFFFFFFFFFFFFFFFFFFFFFFFFFF AND PUSH4 0x2F32700E PUSH1 0x40 MLOAD DUP2 PUSH4 0xFFFFFFFF AND PUSH1 0xE0 SHL DUP2 MSTORE PUSH1 0x4 ADD PUSH1 0x40 DUP1 MLOAD DUP1 DUP4 SUB DUP2 DUP7 GAS STATICCALL ISZERO DUP1 ISZERO PUSH2 0x4FD JUMPI RETURNDATASIZE PUSH0 DUP1 RETURNDATACOPY RETURNDATASIZE PUSH0 REVERT JUMPDEST POP POP POP POP PUSH1 0x40 MLOAD RETURNDATASIZE PUSH1 0x1F NOT PUSH1 0x1F DUP3 ADD AND DUP3 ADD DUP1 PUSH1 0x40 MSTORE POP DUP2 ADD SWAP1 PUSH2 0x521 SWAP2 SWAP1 PUSH2 0x1612 JUMP JUMPDEST PUSH1 0x1 PUSH0 DUP3 ADD MLOAD DUP2 PUSH0 ADD PUSH0 PUSH2 0x100 EXP DUP2 SLOAD DUP2 PUSH8 0xFFFFFFFFFFFFFFFF MUL NOT AND SWAP1 DUP4 PUSH8 0xFFFFFFFFFFFFFFFF AND MUL OR SWAP1 SSTORE POP PUSH1 0x20 DUP3 ADD MLOAD DUP2 PUSH0 ADD PUSH1 0x8 PUSH2 0x100 EXP DUP2 SLOAD DUP2 PUSH20 0xFFFFFFFFFFFFFFFFFFFFFFFFFFFFFFFFFFFFFFFF MUL NOT AND SWAP1 DUP4 PUSH20 0xFFFFFFFFFFFFFFFFFFFFFFFFFFFFFFFFFFFFFFFF AND MUL OR SWAP1 SSTORE POP SWAP1 POP POP PUSH2 0x5A0 PUSH2 0xAA9 JUMP JUMPDEST PUSH2 0x5DF JUMPI PUSH1 0x40 MLOAD PUSH32 0x8C379A000000000000000000000000000000000000000000000000000000000 DUP2 MSTORE PUSH1 0x4 ADD PUSH2 0x5D6 SWAP1 PUSH2 0x16AD JUMP JUMPDEST PUSH1 0x40 MLOAD DUP1 SWAP2 SUB SWAP1 REVERT JUMPDEST PUSH2 0x5EA DUP4 DUP4 DUP4 PUSH2 0xB92 JUMP JUMPDEST PUSH1 0x1 PUSH0 DUP1 DUP3 ADD PUSH0 PUSH2 0x100 EXP DUP2 SLOAD SWAP1 PUSH8 0xFFFFFFFFFFFFFFFF MUL NOT AND SWAP1 SSTORE PUSH0 DUP3 ADD PUSH1 0x8 PUSH2 0x100 EXP DUP2 SLOAD SWAP1 PUSH20 0xFFFFFFFFFFFFFFFFFFFFFFFFFFFFFFFFFFFFFFFF MUL NOT AND SWAP1 SSTORE POP POP POP POP POP JUMP JUMPDEST PUSH0 PUSH1 0x2 PUSH0 DUP4 PUSH20 0xFFFFFFFFFFFFFFFFFFFFFFFFFFFFFFFFFFFFFFFF AND PUSH20 0xFFFFFFFFFFFFFFFFFFFFFFFFFFFFFFFFFFFFFFFF AND DUP2 MSTORE PUSH1 0x20 ADD SWAP1 DUP2 MSTORE PUSH1 0x20 ADD PUSH0 KECCAK256 SLOAD SWAP1 POP SWAP2 SWAP1 POP JUMP JUMPDEST PUSH0 PUSH1 0x14 SWAP1 SLOAD SWAP1 PUSH2 0x100 EXP SWAP1 DIV PUSH1 0xFF AND DUP2 JUMP JUMPDEST PUSH1 0x60 PUSH1 0x6 DUP1 SLOAD PUSH2 0x69A SWAP1 PUSH2 0x14F1 JUMP JUMPDEST DUP1 PUSH1 0x1F ADD PUSH1 0x20 DUP1 SWAP2 DIV MUL PUSH1 0x20 ADD PUSH1 0x40 MLOAD SWAP1 DUP2 ADD PUSH1 0x40 MSTORE DUP1 SWAP3 SWAP2 SWAP1 DUP2 DUP2 MSTORE PUSH1 0x20 ADD DUP3 DUP1 SLOAD PUSH2 0x6C6 SWAP1 PUSH2 0x14F1 JUMP JUMPDEST DUP1 ISZERO PUSH2 0x711 JUMPI DUP1 PUSH1 0x1F LT PUSH2 0x6E8 JUMPI PUSH2 0x100 DUP1 DUP4 SLOAD DIV MUL DUP4 MSTORE SWAP2 PUSH1 0x20 ADD SWAP2 PUSH2 0x711 JUMP JUMPDEST DUP3 ADD SWAP2 SWAP1 PUSH0 MSTORE PUSH1 0x20 PUSH0 KECCAK256 SWAP1 JUMPDEST DUP2 SLOAD DUP2 MSTORE SWAP1 PUSH1 0x1 ADD SWAP1 PUSH1 0x20 ADD DUP1 DUP4 GT PUSH2 0x6F4 JUMPI DUP3 SWAP1 SUB PUSH1 0x1F AND DUP3 ADD SWAP2 JUMPDEST POP POP POP POP POP SWAP1 POP SWAP1 JUMP JUMPDEST PUSH0 DUP1 PUSH2 0x725 PUSH2 0x88F JUMP JUMPDEST SWAP1 POP PUSH2 0x732 DUP2 DUP6 DUP6 PUSH2 0x93A JUMP JUMPDEST PUSH1 0x1 SWAP2 POP POP SWAP3 SWAP2 POP POP JUMP JUMPDEST PUSH0 PUSH2 0x746 PUSH2 0x88F JUMP JUMPDEST SWAP1 POP PUSH2 0x753 DUP2 ADDRESS DUP5 PUSH2 0x93A JUMP JUMPDEST PUSH0 ADDRESS DUP5 DUP5 PUSH1 0x40 MLOAD PUSH1 0x24 ADD PUSH2 0x769 SWAP4 SWAP3 SWAP2 SWAP1 PUSH2 0x16DA JUMP JUMPDEST PUSH1 0x40 MLOAD PUSH1 0x20 DUP2 DUP4 SUB SUB DUP2 MSTORE SWAP1 PUSH1 0x40 MSTORE PUSH4 0x4A536A06 PUSH1 0xE0 SHL PUSH1 0x20 DUP3 ADD DUP1 MLOAD PUSH28 0xFFFFFFFFFFFFFFFFFFFFFFFFFFFFFFFFFFFFFFFFFFFFFFFFFFFFFFFF DUP4 DUP2 DUP4 AND OR DUP4 MSTORE POP POP POP POP SWAP1 POP PUSH0 PUSH2 0x7C0 DUP7 ADDRESS DUP5 PUSH3 0x249F0 PUSH2 0xDAE JUMP JUMPDEST SWAP1 POP DUP1 CALLVALUE LT ISZERO PUSH2 0x805 JUMPI PUSH1 0x40 MLOAD PUSH32 0x8C379A000000000000000000000000000000000000000000000000000000000 DUP2 MSTORE PUSH1 0x4 ADD PUSH2 0x7FC SWAP1 PUSH2 0x1759 JUMP JUMPDEST PUSH1 0x40 MLOAD DUP1 SWAP2 SUB SWAP1 REVERT JUMPDEST POP POP POP POP POP POP JUMP JUMPDEST PUSH0 PUSH1 0x3 PUSH0 DUP5 PUSH20 0xFFFFFFFFFFFFFFFFFFFFFFFFFFFFFFFFFFFFFFFF AND PUSH20 0xFFFFFFFFFFFFFFFFFFFFFFFFFFFFFFFFFFFFFFFF AND DUP2 MSTORE PUSH1 0x20 ADD SWAP1 DUP2 MSTORE PUSH1 0x20 ADD PUSH0 KECCAK256 PUSH0 DUP4 PUSH20 0xFFFFFFFFFFFFFFFFFFFFFFFFFFFFFFFFFFFFFFFF AND PUSH20 0xFFFFFFFFFFFFFFFFFFFFFFFFFFFFFFFFFFFFFFFF AND DUP2 MSTORE PUSH1 0x20 ADD SWAP1 DUP2 MSTORE PUSH1 0x20 ADD PUSH0 KECCAK256 SLOAD SWAP1 POP SWAP3 SWAP2 POP POP JUMP JUMPDEST PUSH0 CALLER SWAP1 POP SWAP1 JUMP JUMPDEST PUSH2 0x8A3 DUP4 DUP4 DUP4 PUSH1 0x1 PUSH2 0xF44 JUMP JUMPDEST POP POP POP JUMP JUMPDEST PUSH0 PUSH2 0x8B3 DUP5 DUP5 PUSH2 0x80D JUMP JUMPDEST SWAP1 POP PUSH32 0xFFFFFFFFFFFFFFFFFFFFFFFFFFFFFFFFFFFFFFFFFFFFFFFFFFFFFFFFFFFFFFFF DUP2 EQ PUSH2 0x934 JUMPI DUP2 DUP2 LT ISZERO PUSH2 0x925 JUMPI DUP3 DUP2 DUP4 PUSH1 0x40 MLOAD PUSH32 0xFB8F41B200000000000000000000000000000000000000000000000000000000 DUP2 MSTORE PUSH1 0x4 ADD PUSH2 0x91C SWAP4 SWAP3 SWAP2 SWAP1 PUSH2 0x1777 JUMP JUMPDEST PUSH1 0x40 MLOAD DUP1 SWAP2 SUB SWAP1 REVERT JUMPDEST PUSH2 0x933 DUP5 DUP5 DUP5 DUP5 SUB PUSH0 PUSH2 0xF44 JUMP JUMPDEST JUMPDEST POP POP POP POP JUMP JUMPDEST PUSH0 PUSH20 0xFFFFFFFFFFFFFFFFFFFFFFFFFFFFFFFFFFFFFFFF AND DUP4 PUSH20 0xFFFFFFFFFFFFFFFFFFFFFFFFFFFFFFFFFFFFFFFF AND SUB PUSH2 0x9AA JUMPI PUSH0 PUSH1 0x40 MLOAD PUSH32 0x96C6FD1E00000000000000000000000000000000000000000000000000000000 DUP2 MSTORE PUSH1 0x4 ADD PUSH2 0x9A1 SWAP2 SWAP1 PUSH2 0x17AC JUMP JUMPDEST PUSH1 0x40 MLOAD DUP1 SWAP2 SUB SWAP1 REVERT JUMPDEST PUSH0 PUSH20 0xFFFFFFFFFFFFFFFFFFFFFFFFFFFFFFFFFFFFFFFF AND DUP3 PUSH20 0xFFFFFFFFFFFFFFFFFFFFFFFFFFFFFFFFFFFFFFFF AND SUB PUSH2 0xA1A JUMPI PUSH0 PUSH1 0x40 MLOAD PUSH32 0xEC442F0500000000000000000000000000000000000000000000000000000000 DUP2 MSTORE PUSH1 0x4 ADD PUSH2 0xA11 SWAP2 SWAP1 PUSH2 0x17AC JUMP JUMPDEST PUSH1 0x40 MLOAD DUP1 SWAP2 SUB SWAP1 REVERT JUMPDEST PUSH2 0xA25 DUP4 DUP4 DUP4 PUSH2 0xB92 JUMP JUMPDEST POP POP POP JUMP JUMPDEST PUSH0 PUSH20 0xFFFFFFFFFFFFFFFFFFFFFFFFFFFFFFFFFFFFFFFF AND DUP3 PUSH20 0xFFFFFFFFFFFFFFFFFFFFFFFFFFFFFFFFFFFFFFFF AND SUB PUSH2 0xA9A JUMPI PUSH0 PUSH1 0x40 MLOAD PUSH32 0xEC442F0500000000000000000000000000000000000000000000000000000000 DUP2 MSTORE PUSH1 0x4 ADD PUSH2 0xA91 SWAP2 SWAP1 PUSH2 0x17AC JUMP JUMPDEST PUSH1 0x40 MLOAD DUP1 SWAP2 SUB SWAP1 REVERT JUMPDEST PUSH2 0xAA5 PUSH0 DUP4 DUP4 PUSH2 0xB92 JUMP JUMPDEST POP POP JUMP JUMPDEST PUSH0 DUP1 PUSH0 SWAP1 SLOAD SWAP1 PUSH2 0x100 EXP SWAP1 DIV PUSH20 0xFFFFFFFFFFFFFFFFFFFFFFFFFFFFFFFFFFFFFFFF AND PUSH20 0xFFFFFFFFFFFFFFFFFFFFFFFFFFFFFFFFFFFFFFFF AND PUSH4 0x55E2448E PUSH1 0x40 MLOAD DUP2 PUSH4 0xFFFFFFFF AND PUSH1 0xE0 SHL DUP2 MSTORE PUSH1 0x4 ADD PUSH1 0x20 PUSH1 0x40 MLOAD DUP1 DUP4 SUB DUP2 DUP7 GAS STATICCALL ISZERO DUP1 ISZERO PUSH2 0xB13 JUMPI RETURNDATASIZE PUSH0 DUP1 RETURNDATACOPY RETURNDATASIZE PUSH0 REVERT JUMPDEST POP POP POP POP PUSH1 0x40 MLOAD RETURNDATASIZE PUSH1 0x1F NOT PUSH1 0x1F DUP3 ADD AND DUP3 ADD DUP1 PUSH1 0x40 MSTORE POP DUP2 ADD SWAP1 PUSH2 0xB37 SWAP2 SWAP1 PUSH2 0x17EF JUMP JUMPDEST DUP1 ISZERO PUSH2 0xB8D JUMPI POP PUSH0 DUP1 SLOAD SWAP1 PUSH2 0x100 EXP SWAP1 DIV PUSH20 0xFFFFFFFFFFFFFFFFFFFFFFFFFFFFFFFFFFFFFFFF AND PUSH20 0xFFFFFFFFFFFFFFFFFFFFFFFFFFFFFFFFFFFFFFFF AND CALLER PUSH20 0xFFFFFFFFFFFFFFFFFFFFFFFFFFFFFFFFFFFFFFFF AND EQ JUMPDEST SWAP1 POP SWAP1 JUMP JUMPDEST PUSH0 PUSH20 0xFFFFFFFFFFFFFFFFFFFFFFFFFFFFFFFFFFFFFFFF AND DUP4 PUSH20 0xFFFFFFFFFFFFFFFFFFFFFFFFFFFFFFFFFFFFFFFF AND SUB PUSH2 0xBE2 JUMPI DUP1 PUSH1 0x4 PUSH0 DUP3 DUP3 SLOAD PUSH2 0xBD6 SWAP2 SWAP1 PUSH2 0x1847 JUMP JUMPDEST SWAP3 POP POP DUP2 SWAP1 SSTORE POP PUSH2 0xCB2 JUMP JUMPDEST PUSH0 PUSH1 0x2 PUSH0 DUP6 PUSH20 0xFFFFFFFFFFFFFFFFFFFFFFFFFFFFFFFFFFFFFFFF AND PUSH20 0xFFFFFFFFFFFFFFFFFFFFFFFFFFFFFFFFFFFFFFFF AND DUP2 MSTORE PUSH1 0x20 ADD SWAP1 DUP2 MSTORE PUSH1 0x20 ADD PUSH0 KECCAK256 SLOAD SWAP1 POP DUP2 DUP2 LT ISZERO PUSH2 0xC6C JUMPI DUP4 DUP2 DUP4 PUSH1 0x40 MLOAD PUSH32 0xE450D38C00000000000000000000000000000000000000000000000000000000 DUP2 MSTORE PUSH1 0x4 ADD PUSH2 0xC63 SWAP4 SWAP3 SWAP2 SWAP1 PUSH2 0x1777 JUMP JUMPDEST PUSH1 0x40 MLOAD DUP1 SWAP2 SUB SWAP1 REVERT JUMPDEST DUP2 DUP2 SUB PUSH1 0x2 PUSH0 DUP7 PUSH20 0xFFFFFFFFFFFFFFFFFFFFFFFFFFFFFFFFFFFFFFFF AND PUSH20 0xFFFFFFFFFFFFFFFFFFFFFFFFFFFFFFFFFFFFFFFF AND DUP2 MSTORE PUSH1 0x20 ADD SWAP1 DUP2 MSTORE PUSH1 0x20 ADD PUSH0 KECCAK256 DUP2 SWAP1 SSTORE POP POP JUMPDEST PUSH0 PUSH20 0xFFFFFFFFFFFFFFFFFFFFFFFFFFFFFFFFFFFFFFFF AND DUP3 PUSH20 0xFFFFFFFFFFFFFFFFFFFFFFFFFFFFFFFFFFFFFFFF AND SUB PUSH2 0xCF9 JUMPI DUP1 PUSH1 0x4 PUSH0 DUP3 DUP3 SLOAD SUB SWAP3 POP POP DUP2 SWAP1 SSTORE POP PUSH2 0xD44 JUMP JUMPDEST DUP1 PUSH1 0x2 PUSH0 DUP5 PUSH20 0xFFFFFFFFFFFFFFFFFFFFFFFFFFFFFFFFFFFFFFFF AND PUSH20 0xFFFFFFFFFFFFFFFFFFFFFFFFFFFFFFFFFFFFFFFF AND DUP2 MSTORE PUSH1 0x20 ADD SWAP1 DUP2 MSTORE PUSH1 0x20 ADD PUSH0 KECCAK256 PUSH0 DUP3 DUP3 SLOAD ADD SWAP3 POP POP DUP2 SWAP1 SSTORE POP JUMPDEST DUP2 PUSH20 0xFFFFFFFFFFFFFFFFFFFFFFFFFFFFFFFFFFFFFFFF AND DUP4 PUSH20 0xFFFFFFFFFFFFFFFFFFFFFFFFFFFFFFFFFFFFFFFF AND PUSH32 0xDDF252AD1BE2C89B69C2B068FC378DAA952BA7F163C4A11628F55A4DF523B3EF DUP4 PUSH1 0x40 MLOAD PUSH2 0xDA1 SWAP2 SWAP1 PUSH2 0x12BD JUMP JUMPDEST PUSH1 0x40 MLOAD DUP1 SWAP2 SUB SWAP1 LOG3 POP POP POP JUMP JUMPDEST PUSH0 DUP1 PUSH0 DUP1 SLOAD SWAP1 PUSH2 0x100 EXP SWAP1 DIV PUSH20 0xFFFFFFFFFFFFFFFFFFFFFFFFFFFFFFFFFFFFFFFF AND PUSH20 0xFFFFFFFFFFFFFFFFFFFFFFFFFFFFFFFFFFFFFFFF AND PUSH4 0x8DD9523C DUP8 DUP7 DUP7 PUSH1 0x40 MLOAD DUP5 PUSH4 0xFFFFFFFF AND PUSH1 0xE0 SHL DUP2 MSTORE PUSH1 0x4 ADD PUSH2 0xE0C SWAP4 SWAP3 SWAP2 SWAP1 PUSH2 0x18DB JUMP JUMPDEST PUSH1 0x20 PUSH1 0x40 MLOAD DUP1 DUP4 SUB DUP2 DUP7 GAS STATICCALL ISZERO DUP1 ISZERO PUSH2 0xE27 JUMPI RETURNDATASIZE PUSH0 DUP1 RETURNDATACOPY RETURNDATASIZE PUSH0 REVERT JUMPDEST POP POP POP POP PUSH1 0x40 MLOAD RETURNDATASIZE PUSH1 0x1F NOT PUSH1 0x1F DUP3 ADD AND DUP3 ADD DUP1 PUSH1 0x40 MSTORE POP DUP2 ADD SWAP1 PUSH2 0xE4B SWAP2 SWAP1 PUSH2 0x192B JUMP JUMPDEST SWAP1 POP DUP1 SELFBALANCE LT ISZERO DUP1 PUSH2 0xE5C JUMPI POP DUP1 CALLVALUE LT ISZERO JUMPDEST PUSH2 0xE9B JUMPI PUSH1 0x40 MLOAD PUSH32 0x8C379A000000000000000000000000000000000000000000000000000000000 DUP2 MSTORE PUSH1 0x4 ADD PUSH2 0xE92 SWAP1 PUSH2 0x19A0 JUMP JUMPDEST PUSH1 0x40 MLOAD DUP1 SWAP2 SUB SWAP1 REVERT JUMPDEST PUSH0 DUP1 SLOAD SWAP1 PUSH2 0x100 EXP SWAP1 DIV PUSH20 0xFFFFFFFFFFFFFFFFFFFFFFFFFFFFFFFFFFFFFFFF AND PUSH20 0xFFFFFFFFFFFFFFFFFFFFFFFFFFFFFFFFFFFFFFFF AND PUSH4 0xC21DDA4F DUP3 DUP9 PUSH0 PUSH1 0x14 SWAP1 SLOAD SWAP1 PUSH2 0x100 EXP SWAP1 DIV PUSH1 0xFF AND DUP10 DUP10 DUP10 PUSH1 0x40 MLOAD DUP8 PUSH4 0xFFFFFFFF AND PUSH1 0xE0 SHL DUP2 MSTORE PUSH1 0x4 ADD PUSH2 0xF0A SWAP6 SWAP5 SWAP4 SWAP3 SWAP2 SWAP1 PUSH2 0x19BE JUMP JUMPDEST PUSH0 PUSH1 0x40 MLOAD DUP1 DUP4 SUB DUP2 DUP6 DUP9 DUP1 EXTCODESIZE ISZERO DUP1 ISZERO PUSH2 0xF21 JUMPI PUSH0 DUP1 REVERT JUMPDEST POP GAS CALL ISZERO DUP1 ISZERO PUSH2 0xF33 JUMPI RETURNDATASIZE PUSH0 DUP1 RETURNDATACOPY RETURNDATASIZE PUSH0 REVERT JUMPDEST POP POP POP POP POP DUP1 SWAP2 POP POP SWAP5 SWAP4 POP POP POP POP JUMP JUMPDEST PUSH0 PUSH20 0xFFFFFFFFFFFFFFFFFFFFFFFFFFFFFFFFFFFFFFFF AND DUP5 PUSH20 0xFFFFFFFFFFFFFFFFFFFFFFFFFFFFFFFFFFFFFFFF AND SUB PUSH2 0xFB4 JUMPI PUSH0 PUSH1 0x40 MLOAD PUSH32 0xE602DF0500000000000000000000000000000000000000000000000000000000 DUP2 MSTORE PUSH1 0x4 ADD PUSH2 0xFAB SWAP2 SWAP1 PUSH2 0x17AC JUMP JUMPDEST PUSH1 0x40 MLOAD DUP1 SWAP2 SUB SWAP1 REVERT JUMPDEST PUSH0 PUSH20 0xFFFFFFFFFFFFFFFFFFFFFFFFFFFFFFFFFFFFFFFF AND DUP4 PUSH20 0xFFFFFFFFFFFFFFFFFFFFFFFFFFFFFFFFFFFFFFFF AND SUB PUSH2 0x1024 JUMPI PUSH0 PUSH1 0x40 MLOAD PUSH32 0x94280D6200000000000000000000000000000000000000000000000000000000 DUP2 MSTORE PUSH1 0x4 ADD PUSH2 0x101B SWAP2 SWAP1 PUSH2 0x17AC JUMP JUMPDEST PUSH1 0x40 MLOAD DUP1 SWAP2 SUB SWAP1 REVERT JUMPDEST DUP2 PUSH1 0x3 PUSH0 DUP7 PUSH20 0xFFFFFFFFFFFFFFFFFFFFFFFFFFFFFFFFFFFFFFFF AND PUSH20 0xFFFFFFFFFFFFFFFFFFFFFFFFFFFFFFFFFFFFFFFF AND DUP2 MSTORE PUSH1 0x20 ADD SWAP1 DUP2 MSTORE PUSH1 0x20 ADD PUSH0 KECCAK256 PUSH0 DUP6 PUSH20 0xFFFFFFFFFFFFFFFFFFFFFFFFFFFFFFFFFFFFFFFF AND PUSH20 0xFFFFFFFFFFFFFFFFFFFFFFFFFFFFFFFFFFFFFFFF AND DUP2 MSTORE PUSH1 0x20 ADD SWAP1 DUP2 MSTORE PUSH1 0x20 ADD PUSH0 KECCAK256 DUP2 SWAP1 SSTORE POP DUP1 ISZERO PUSH2 0x110D JUMPI DUP3 PUSH20 0xFFFFFFFFFFFFFFFFFFFFFFFFFFFFFFFFFFFFFFFF AND DUP5 PUSH20 0xFFFFFFFFFFFFFFFFFFFFFFFFFFFFFFFFFFFFFFFF AND PUSH32 0x8C5BE1E5EBEC7D5BD14F71427D1E84F3DD0314C0F7B2291E5B200AC8C7C3B925 DUP5 PUSH1 0x40 MLOAD PUSH2 0x1104 SWAP2 SWAP1 PUSH2 0x12BD JUMP JUMPDEST PUSH1 0x40 MLOAD DUP1 SWAP2 SUB SWAP1 LOG3 JUMPDEST POP POP POP POP JUMP JUMPDEST PUSH0 DUP2 MLOAD SWAP1 POP SWAP2 SWAP1 POP JUMP JUMPDEST PUSH0 DUP3 DUP3 MSTORE PUSH1 0x20 DUP3 ADD SWAP1 POP SWAP3 SWAP2 POP POP JUMP JUMPDEST DUP3 DUP2 DUP4 MCOPY PUSH0 DUP4 DUP4 ADD MSTORE POP POP POP JUMP JUMPDEST PUSH0 PUSH1 0x1F NOT PUSH1 0x1F DUP4 ADD AND SWAP1 POP SWAP2 SWAP1 POP JUMP JUMPDEST PUSH0 PUSH2 0x1155 DUP3 PUSH2 0x1113 JUMP JUMPDEST PUSH2 0x115F DUP2 DUP6 PUSH2 0x111D JUMP JUMPDEST SWAP4 POP PUSH2 0x116F DUP2 DUP6 PUSH1 0x20 DUP7 ADD PUSH2 0x112D JUMP JUMPDEST PUSH2 0x1178 DUP2 PUSH2 0x113B JUMP JUMPDEST DUP5 ADD SWAP2 POP POP SWAP3 SWAP2 POP POP JUMP JUMPDEST PUSH0 PUSH1 0x20 DUP3 ADD SWAP1 POP DUP2 DUP2 SUB PUSH0 DUP4 ADD MSTORE PUSH2 0x119B DUP2 DUP5 PUSH2 0x114B JUMP JUMPDEST SWAP1 POP SWAP3 SWAP2 POP POP JUMP JUMPDEST PUSH0 PUSH1 0x40 MLOAD SWAP1 POP SWAP1 JUMP JUMPDEST PUSH0 DUP1 REVERT JUMPDEST PUSH0 PUSH20 0xFFFFFFFFFFFFFFFFFFFFFFFFFFFFFFFFFFFFFFFF DUP3 AND SWAP1 POP SWAP2 SWAP1 POP JUMP JUMPDEST PUSH0 PUSH2 0x11D9 DUP3 PUSH2 0x11B0 JUMP JUMPDEST SWAP1 POP SWAP2 SWAP1 POP JUMP JUMPDEST PUSH2 0x11E9 DUP2 PUSH2 0x11CF JUMP JUMPDEST DUP2 EQ PUSH2 0x11F3 JUMPI PUSH0 DUP1 REVERT JUMPDEST POP JUMP JUMPDEST PUSH0 DUP2 CALLDATALOAD SWAP1 POP PUSH2 0x1204 DUP2 PUSH2 0x11E0 JUMP JUMPDEST SWAP3 SWAP2 POP POP JUMP JUMPDEST PUSH0 DUP2 SWAP1 POP SWAP2 SWAP1 POP JUMP JUMPDEST PUSH2 0x121C DUP2 PUSH2 0x120A JUMP JUMPDEST DUP2 EQ PUSH2 0x1226 JUMPI PUSH0 DUP1 REVERT JUMPDEST POP JUMP JUMPDEST PUSH0 DUP2 CALLDATALOAD SWAP1 POP PUSH2 0x1237 DUP2 PUSH2 0x1213 JUMP JUMPDEST SWAP3 SWAP2 POP POP JUMP JUMPDEST PUSH0 DUP1 PUSH1 0x40 DUP4 DUP6 SUB SLT ISZERO PUSH2 0x1253 JUMPI PUSH2 0x1252 PUSH2 0x11AC JUMP JUMPDEST JUMPDEST PUSH0 PUSH2 0x1260 DUP6 DUP3 DUP7 ADD PUSH2 0x11F6 JUMP JUMPDEST SWAP3 POP POP PUSH1 0x20 PUSH2 0x1271 DUP6 DUP3 DUP7 ADD PUSH2 0x1229 JUMP JUMPDEST SWAP2 POP POP SWAP3 POP SWAP3 SWAP1 POP JUMP JUMPDEST PUSH0 DUP2 ISZERO ISZERO SWAP1 POP SWAP2 SWAP1 POP JUMP JUMPDEST PUSH2 0x128F DUP2 PUSH2 0x127B JUMP JUMPDEST DUP3 MSTORE POP POP JUMP JUMPDEST PUSH0 PUSH1 0x20 DUP3 ADD SWAP1 POP PUSH2 0x12A8 PUSH0 DUP4 ADD DUP5 PUSH2 0x1286 JUMP JUMPDEST SWAP3 SWAP2 POP POP JUMP JUMPDEST PUSH2 0x12B7 DUP2 PUSH2 0x120A JUMP JUMPDEST DUP3 MSTORE POP POP JUMP JUMPDEST PUSH0 PUSH1 0x20 DUP3 ADD SWAP1 POP PUSH2 0x12D0 PUSH0 DUP4 ADD DUP5 PUSH2 0x12AE JUMP JUMPDEST SWAP3 SWAP2 POP POP JUMP JUMPDEST PUSH0 DUP1 PUSH0 PUSH1 0x60 DUP5 DUP7 SUB SLT ISZERO PUSH2 0x12ED JUMPI PUSH2 0x12EC PUSH2 0x11AC JUMP JUMPDEST JUMPDEST PUSH0 PUSH2 0x12FA DUP7 DUP3 DUP8 ADD PUSH2 0x11F6 JUMP JUMPDEST SWAP4 POP POP PUSH1 0x20 PUSH2 0x130B DUP7 DUP3 DUP8 ADD PUSH2 0x11F6 JUMP JUMPDEST SWAP3 POP POP PUSH1 0x40 PUSH2 0x131C DUP7 DUP3 DUP8 ADD PUSH2 0x1229 JUMP JUMPDEST SWAP2 POP POP SWAP3 POP SWAP3 POP SWAP3 JUMP JUMPDEST PUSH0 PUSH1 0xFF DUP3 AND SWAP1 POP SWAP2 SWAP1 POP JUMP JUMPDEST PUSH2 0x133B DUP2 PUSH2 0x1326 JUMP JUMPDEST DUP3 MSTORE POP POP JUMP JUMPDEST PUSH0 PUSH1 0x20 DUP3 ADD SWAP1 POP PUSH2 0x1354 PUSH0 DUP4 ADD DUP5 PUSH2 0x1332 JUMP JUMPDEST SWAP3 SWAP2 POP POP JUMP JUMPDEST PUSH0 DUP2 SWAP1 POP SWAP2 SWAP1 POP JUMP JUMPDEST PUSH0 PUSH2 0x137D PUSH2 0x1378 PUSH2 0x1373 DUP5 PUSH2 0x11B0 JUMP JUMPDEST PUSH2 0x135A JUMP JUMPDEST PUSH2 0x11B0 JUMP JUMPDEST SWAP1 POP SWAP2 SWAP1 POP JUMP JUMPDEST PUSH0 PUSH2 0x138E DUP3 PUSH2 0x1363 JUMP JUMPDEST SWAP1 POP SWAP2 SWAP1 POP JUMP JUMPDEST PUSH0 PUSH2 0x139F DUP3 PUSH2 0x1384 JUMP JUMPDEST SWAP1 POP SWAP2 SWAP1 POP JUMP JUMPDEST PUSH2 0x13AF DUP2 PUSH2 0x1395 JUMP JUMPDEST DUP3 MSTORE POP POP JUMP JUMPDEST PUSH0 PUSH1 0x20 DUP3 ADD SWAP1 POP PUSH2 0x13C8 PUSH0 DUP4 ADD DUP5 PUSH2 0x13A6 JUMP JUMPDEST SWAP3 SWAP2 POP POP JUMP JUMPDEST PUSH0 PUSH1 0x20 DUP3 DUP5 SUB SLT ISZERO PUSH2 0x13E3 JUMPI PUSH2 0x13E2 PUSH2 0x11AC JUMP JUMPDEST JUMPDEST PUSH0 PUSH2 0x13F0 DUP5 DUP3 DUP6 ADD PUSH2 0x11F6 JUMP JUMPDEST SWAP2 POP POP SWAP3 SWAP2 POP POP JUMP JUMPDEST PUSH0 PUSH8 0xFFFFFFFFFFFFFFFF DUP3 AND SWAP1 POP SWAP2 SWAP1 POP JUMP JUMPDEST PUSH2 0x1415 DUP2 PUSH2 0x13F9 JUMP JUMPDEST DUP2 EQ PUSH2 0x141F JUMPI PUSH0 DUP1 REVERT JUMPDEST POP JUMP JUMPDEST PUSH0 DUP2 CALLDATALOAD SWAP1 POP PUSH2 0x1430 DUP2 PUSH2 0x140C JUMP JUMPDEST SWAP3 SWAP2 POP POP JUMP JUMPDEST PUSH0 DUP1 PUSH0 PUSH1 0x60 DUP5 DUP7 SUB SLT ISZERO PUSH2 0x144D JUMPI PUSH2 0x144C PUSH2 0x11AC JUMP JUMPDEST JUMPDEST PUSH0 PUSH2 0x145A DUP7 DUP3 DUP8 ADD PUSH2 0x1422 JUMP JUMPDEST SWAP4 POP POP PUSH1 0x20 PUSH2 0x146B DUP7 DUP3 DUP8 ADD PUSH2 0x11F6 JUMP JUMPDEST SWAP3 POP POP PUSH1 0x40 PUSH2 0x147C DUP7 DUP3 DUP8 ADD PUSH2 0x1229 JUMP JUMPDEST SWAP2 POP POP SWAP3 POP SWAP3 POP SWAP3 JUMP JUMPDEST PUSH0 DUP1 PUSH1 0x40 DUP4 DUP6 SUB SLT ISZERO PUSH2 0x149C JUMPI PUSH2 0x149B PUSH2 0x11AC JUMP JUMPDEST JUMPDEST PUSH0 PUSH2 0x14A9 DUP6 DUP3 DUP7 ADD PUSH2 0x11F6 JUMP JUMPDEST SWAP3 POP POP PUSH1 0x20 PUSH2 0x14BA DUP6 DUP3 DUP7 ADD PUSH2 0x11F6 JUMP JUMPDEST SWAP2 POP POP SWAP3 POP SWAP3 SWAP1 POP JUMP JUMPDEST PUSH32 0x4E487B7100000000000000000000000000000000000000000000000000000000 PUSH0 MSTORE PUSH1 0x22 PUSH1 0x4 MSTORE PUSH1 0x24 PUSH0 REVERT JUMPDEST PUSH0 PUSH1 0x2 DUP3 DIV SWAP1 POP PUSH1 0x1 DUP3 AND DUP1 PUSH2 0x1508 JUMPI PUSH1 0x7F DUP3 AND SWAP2 POP JUMPDEST PUSH1 0x20 DUP3 LT DUP2 SUB PUSH2 0x151B JUMPI PUSH2 0x151A PUSH2 0x14C4 JUMP JUMPDEST JUMPDEST POP SWAP2 SWAP1 POP JUMP JUMPDEST PUSH0 DUP1 REVERT JUMPDEST PUSH32 0x4E487B7100000000000000000000000000000000000000000000000000000000 PUSH0 MSTORE PUSH1 0x41 PUSH1 0x4 MSTORE PUSH1 0x24 PUSH0 REVERT JUMPDEST PUSH2 0x155B DUP3 PUSH2 0x113B JUMP JUMPDEST DUP2 ADD DUP2 DUP2 LT PUSH8 0xFFFFFFFFFFFFFFFF DUP3 GT OR ISZERO PUSH2 0x157A JUMPI PUSH2 0x1579 PUSH2 0x1525 JUMP JUMPDEST JUMPDEST DUP1 PUSH1 0x40 MSTORE POP POP POP JUMP JUMPDEST PUSH0 PUSH2 0x158C PUSH2 0x11A3 JUMP JUMPDEST SWAP1 POP PUSH2 0x1598 DUP3 DUP3 PUSH2 0x1552 JUMP JUMPDEST SWAP2 SWAP1 POP JUMP JUMPDEST PUSH0 DUP2 MLOAD SWAP1 POP PUSH2 0x15AB DUP2 PUSH2 0x140C JUMP JUMPDEST SWAP3 SWAP2 POP POP JUMP JUMPDEST PUSH0 DUP2 MLOAD SWAP1 POP PUSH2 0x15BF DUP2 PUSH2 0x11E0 JUMP JUMPDEST SWAP3 SWAP2 POP POP JUMP JUMPDEST PUSH0 PUSH1 0x40 DUP3 DUP5 SUB SLT ISZERO PUSH2 0x15DA JUMPI PUSH2 0x15D9 PUSH2 0x1521 JUMP JUMPDEST JUMPDEST PUSH2 0x15E4 PUSH1 0x40 PUSH2 0x1583 JUMP JUMPDEST SWAP1 POP PUSH0 PUSH2 0x15F3 DUP5 DUP3 DUP6 ADD PUSH2 0x159D JUMP JUMPDEST PUSH0 DUP4 ADD MSTORE POP PUSH1 0x20 PUSH2 0x1606 DUP5 DUP3 DUP6 ADD PUSH2 0x15B1 JUMP JUMPDEST PUSH1 0x20 DUP4 ADD MSTORE POP SWAP3 SWAP2 POP POP JUMP JUMPDEST PUSH0 PUSH1 0x40 DUP3 DUP5 SUB SLT ISZERO PUSH2 0x1627 JUMPI PUSH2 0x1626 PUSH2 0x11AC JUMP JUMPDEST JUMPDEST PUSH0 PUSH2 0x1634 DUP5 DUP3 DUP6 ADD PUSH2 0x15C5 JUMP JUMPDEST SWAP2 POP POP SWAP3 SWAP2 POP POP JUMP JUMPDEST PUSH32 0x4F6D6E6945524332303A204F6E6C792063616C6C61626C65207669612063726F PUSH0 DUP3 ADD MSTORE PUSH32 0x73732D636861696E206D65737361676500000000000000000000000000000000 PUSH1 0x20 DUP3 ADD MSTORE POP JUMP JUMPDEST PUSH0 PUSH2 0x1697 PUSH1 0x30 DUP4 PUSH2 0x111D JUMP JUMPDEST SWAP2 POP PUSH2 0x16A2 DUP3 PUSH2 0x163D JUMP JUMPDEST PUSH1 0x40 DUP3 ADD SWAP1 POP SWAP2 SWAP1 POP JUMP JUMPDEST PUSH0 PUSH1 0x20 DUP3 ADD SWAP1 POP DUP2 DUP2 SUB PUSH0 DUP4 ADD MSTORE PUSH2 0x16C4 DUP2 PUSH2 0x168B JUMP JUMPDEST SWAP1 POP SWAP2 SWAP1 POP JUMP JUMPDEST PUSH2 0x16D4 DUP2 PUSH2 0x11CF JUMP JUMPDEST DUP3 MSTORE POP POP JUMP JUMPDEST PUSH0 PUSH1 0x60 DUP3 ADD SWAP1 POP PUSH2 0x16ED PUSH0 DUP4 ADD DUP7 PUSH2 0x16CB JUMP JUMPDEST PUSH2 0x16FA PUSH1 0x20 DUP4 ADD DUP6 PUSH2 0x16CB JUMP JUMPDEST PUSH2 0x1707 PUSH1 0x40 DUP4 ADD DUP5 PUSH2 0x12AE JUMP JUMPDEST SWAP5 SWAP4 POP POP POP POP JUMP JUMPDEST PUSH32 0x4F6D6E6945524332303A20496E73756666696369656E74206665650000000000 PUSH0 DUP3 ADD MSTORE POP JUMP JUMPDEST PUSH0 PUSH2 0x1743 PUSH1 0x1B DUP4 PUSH2 0x111D JUMP JUMPDEST SWAP2 POP PUSH2 0x174E DUP3 PUSH2 0x170F JUMP JUMPDEST PUSH1 0x20 DUP3 ADD SWAP1 POP SWAP2 SWAP1 POP JUMP JUMPDEST PUSH0 PUSH1 0x20 DUP3 ADD SWAP1 POP DUP2 DUP2 SUB PUSH0 DUP4 ADD MSTORE PUSH2 0x1770 DUP2 PUSH2 0x1737 JUMP JUMPDEST SWAP1 POP SWAP2 SWAP1 POP JUMP JUMPDEST PUSH0 PUSH1 0x60 DUP3 ADD SWAP1 POP PUSH2 0x178A PUSH0 DUP4 ADD DUP7 PUSH2 0x16CB JUMP JUMPDEST PUSH2 0x1797 PUSH1 0x20 DUP4 ADD DUP6 PUSH2 0x12AE JUMP JUMPDEST PUSH2 0x17A4 PUSH1 0x40 DUP4 ADD DUP5 PUSH2 0x12AE JUMP JUMPDEST SWAP5 SWAP4 POP POP POP POP JUMP JUMPDEST PUSH0 PUSH1 0x20 DUP3 ADD SWAP1 POP PUSH2 0x17BF PUSH0 DUP4 ADD DUP5 PUSH2 0x16CB JUMP JUMPDEST SWAP3 SWAP2 POP POP JUMP JUMPDEST PUSH2 0x17CE DUP2 PUSH2 0x127B JUMP JUMPDEST DUP2 EQ PUSH2 0x17D8 JUMPI PUSH0 DUP1 REVERT JUMPDEST POP JUMP JUMPDEST PUSH0 DUP2 MLOAD SWAP1 POP PUSH2 0x17E9 DUP2 PUSH2 0x17C5 JUMP JUMPDEST SWAP3 SWAP2 POP POP JUMP JUMPDEST PUSH0 PUSH1 0x20 DUP3 DUP5 SUB SLT ISZERO PUSH2 0x1804 JUMPI PUSH2 0x1803 PUSH2 0x11AC JUMP JUMPDEST JUMPDEST PUSH0 PUSH2 0x1811 DUP5 DUP3 DUP6 ADD PUSH2 0x17DB JUMP JUMPDEST SWAP2 POP POP SWAP3 SWAP2 POP POP JUMP JUMPDEST PUSH32 0x4E487B7100000000000000000000000000000000000000000000000000000000 PUSH0 MSTORE PUSH1 0x11 PUSH1 0x4 MSTORE PUSH1 0x24 PUSH0 REVERT JUMPDEST PUSH0 PUSH2 0x1851 DUP3 PUSH2 0x120A JUMP JUMPDEST SWAP2 POP PUSH2 0x185C DUP4 PUSH2 0x120A JUMP JUMPDEST SWAP3 POP DUP3 DUP3 ADD SWAP1 POP DUP1 DUP3 GT ISZERO PUSH2 0x1874 JUMPI PUSH2 0x1873 PUSH2 0x181A JUMP JUMPDEST JUMPDEST SWAP3 SWAP2 POP POP JUMP JUMPDEST PUSH2 0x1883 DUP2 PUSH2 0x13F9 JUMP JUMPDEST DUP3 MSTORE POP POP JUMP JUMPDEST PUSH0 DUP2 MLOAD SWAP1 POP SWAP2 SWAP1 POP JUMP JUMPDEST PUSH0 DUP3 DUP3 MSTORE PUSH1 0x20 DUP3 ADD SWAP1 POP SWAP3 SWAP2 POP POP JUMP JUMPDEST PUSH0 PUSH2 0x18AD DUP3 PUSH2 0x1889 JUMP JUMPDEST PUSH2 0x18B7 DUP2 DUP6 PUSH2 0x1893 JUMP JUMPDEST SWAP4 POP PUSH2 0x18C7 DUP2 DUP6 PUSH1 0x20 DUP7 ADD PUSH2 0x112D JUMP JUMPDEST PUSH2 0x18D0 DUP2 PUSH2 0x113B JUMP JUMPDEST DUP5 ADD SWAP2 POP POP SWAP3 SWAP2 POP POP JUMP JUMPDEST PUSH0 PUSH1 0x60 DUP3 ADD SWAP1 POP PUSH2 0x18EE PUSH0 DUP4 ADD DUP7 PUSH2 0x187A JUMP JUMPDEST DUP2 DUP2 SUB PUSH1 0x20 DUP4 ADD MSTORE PUSH2 0x1900 DUP2 DUP6 PUSH2 0x18A3 JUMP JUMPDEST SWAP1 POP PUSH2 0x190F PUSH1 0x40 DUP4 ADD DUP5 PUSH2 0x187A JUMP JUMPDEST SWAP5 SWAP4 POP POP POP POP JUMP JUMPDEST PUSH0 DUP2 MLOAD SWAP1 POP PUSH2 0x1925 DUP2 PUSH2 0x1213 JUMP JUMPDEST SWAP3 SWAP2 POP POP JUMP JUMPDEST PUSH0 PUSH1 0x20 DUP3 DUP5 SUB SLT ISZERO PUSH2 0x1940 JUMPI PUSH2 0x193F PUSH2 0x11AC JUMP JUMPDEST JUMPDEST PUSH0 PUSH2 0x194D DUP5 DUP3 DUP6 ADD PUSH2 0x1917 JUMP JUMPDEST SWAP2 POP POP SWAP3 SWAP2 POP POP JUMP JUMPDEST PUSH32 0x584170703A20696E73756666696369656E742066756E64730000000000000000 PUSH0 DUP3 ADD MSTORE POP JUMP JUMPDEST PUSH0 PUSH2 0x198A PUSH1 0x18 DUP4 PUSH2 0x111D JUMP JUMPDEST SWAP2 POP PUSH2 0x1995 DUP3 PUSH2 0x1956 JUMP JUMPDEST PUSH1 0x20 DUP3 ADD SWAP1 POP SWAP2 SWAP1 POP JUMP JUMPDEST PUSH0 PUSH1 0x20 DUP3 ADD SWAP1 POP DUP2 DUP2 SUB PUSH0 DUP4 ADD MSTORE PUSH2 0x19B7 DUP2 PUSH2 0x197E JUMP JUMPDEST SWAP1 POP SWAP2 SWAP1 POP JUMP JUMPDEST PUSH0 PUSH1 0xA0 DUP3 ADD SWAP1 POP PUSH2 0x19D1 PUSH0 DUP4 ADD DUP9 PUSH2 0x187A JUMP JUMPDEST PUSH2 0x19DE PUSH1 0x20 DUP4 ADD DUP8 PUSH2 0x1332 JUMP JUMPDEST PUSH2 0x19EB PUSH1 0x40 DUP4 ADD DUP7 PUSH2 0x16CB JUMP JUMPDEST DUP2 DUP2 SUB PUSH1 0x60 DUP4 ADD MSTORE PUSH2 0x19FD DUP2 DUP6 PUSH2 0x18A3 JUMP JUMPDEST SWAP1 POP PUSH2 0x1A0C PUSH1 0x80 DUP4 ADD DUP5 PUSH2 0x187A JUMP JUMPDEST SWAP7 SWAP6 POP POP POP POP POP POP JUMP INVALID LOG2 PUSH5 0x6970667358 0x22 SLT KECCAK256 CHAINID PUSH17 0x868C6DFBDF830947272E2181FD8499785 PUSH6 0x5D3D7CEE1665 GASPRICE LOG2 PUSH7 0x72EF4564736F6C PUSH4 0x4300081A STOP CALLER "
				},
				"gasEstimates": {
					"creation": {
						"codeDepositCost": "1346400",
						"executionCost": "infinite",
						"totalCost": "infinite"
					},
					"external": {
						"allowance(address,address)": "infinite",
						"approve(address,uint256)": "infinite",
						"balanceOf(address)": "2874",
						"decimals()": "383",
						"defaultConfLevel()": "2583",
						"mint(address,uint256)": "infinite",
						"name()": "infinite",
						"omni()": "infinite",
						"receiveTransfer(address,address,uint256)": "infinite",
						"symbol()": "infinite",
						"totalSupply()": "2500",
						"transfer(address,uint256)": "infinite",
						"transfer(uint64,address,uint256)": "infinite",
						"transferFrom(address,address,uint256)": "infinite"
					},
					"internal": {
						"_mint(address,uint256)": "infinite"
					}
				},
				"methodIdentifiers": {
					"allowance(address,address)": "dd62ed3e",
					"approve(address,uint256)": "095ea7b3",
					"balanceOf(address)": "70a08231",
					"decimals()": "313ce567",
					"defaultConfLevel()": "74eeb847",
					"mint(address,uint256)": "40c10f19",
					"name()": "06fdde03",
					"omni()": "39acf9f1",
					"receiveTransfer(address,address,uint256)": "4a536a06",
					"symbol()": "95d89b41",
					"totalSupply()": "18160ddd",
					"transfer(address,uint256)": "a9059cbb",
					"transfer(uint64,address,uint256)": "d15dcd62",
					"transferFrom(address,address,uint256)": "23b872dd"
				}
			},
			"storageLayout": {
				"storage": [
					{
						"astId": 349,
						"contract": "src/wstf token launch/contracts/token/ERC20/implementation.sol:MyOmniToken",
						"label": "omni",
						"offset": 0,
						"slot": "0",
						"type": "t_contract(IOmniPortal)175"
					},
					{
						"astId": 352,
						"contract": "src/wstf token launch/contracts/token/ERC20/implementation.sol:MyOmniToken",
						"label": "defaultConfLevel",
						"offset": 20,
						"slot": "0",
						"type": "t_uint8"
					},
					{
						"astId": 356,
						"contract": "src/wstf token launch/contracts/token/ERC20/implementation.sol:MyOmniToken",
						"label": "xmsg",
						"offset": 0,
						"slot": "1",
						"type": "t_struct(MsgContext)245_storage"
					},
					{
						"astId": 824,
						"contract": "src/wstf token launch/contracts/token/ERC20/implementation.sol:MyOmniToken",
						"label": "_balances",
						"offset": 0,
						"slot": "2",
						"type": "t_mapping(t_address,t_uint256)"
					},
					{
						"astId": 830,
						"contract": "src/wstf token launch/contracts/token/ERC20/implementation.sol:MyOmniToken",
						"label": "_allowances",
						"offset": 0,
						"slot": "3",
						"type": "t_mapping(t_address,t_mapping(t_address,t_uint256))"
					},
					{
						"astId": 832,
						"contract": "src/wstf token launch/contracts/token/ERC20/implementation.sol:MyOmniToken",
						"label": "_totalSupply",
						"offset": 0,
						"slot": "4",
						"type": "t_uint256"
					},
					{
						"astId": 834,
						"contract": "src/wstf token launch/contracts/token/ERC20/implementation.sol:MyOmniToken",
						"label": "_name",
						"offset": 0,
						"slot": "5",
						"type": "t_string_storage"
					},
					{
						"astId": 836,
						"contract": "src/wstf token launch/contracts/token/ERC20/implementation.sol:MyOmniToken",
						"label": "_symbol",
						"offset": 0,
						"slot": "6",
						"type": "t_string_storage"
					}
				],
				"types": {
					"t_address": {
						"encoding": "inplace",
						"label": "address",
						"numberOfBytes": "20"
					},
					"t_contract(IOmniPortal)175": {
						"encoding": "inplace",
						"label": "contract IOmniPortal",
						"numberOfBytes": "20"
					},
					"t_mapping(t_address,t_mapping(t_address,t_uint256))": {
						"encoding": "mapping",
						"key": "t_address",
						"label": "mapping(address => mapping(address => uint256))",
						"numberOfBytes": "32",
						"value": "t_mapping(t_address,t_uint256)"
					},
					"t_mapping(t_address,t_uint256)": {
						"encoding": "mapping",
						"key": "t_address",
						"label": "mapping(address => uint256)",
						"numberOfBytes": "32",
						"value": "t_uint256"
					},
					"t_string_storage": {
						"encoding": "bytes",
						"label": "string",
						"numberOfBytes": "32"
					},
					"t_struct(MsgContext)245_storage": {
						"encoding": "inplace",
						"label": "struct XTypes.MsgContext",
						"members": [
							{
								"astId": 242,
								"contract": "src/wstf token launch/contracts/token/ERC20/implementation.sol:MyOmniToken",
								"label": "sourceChainId",
								"offset": 0,
								"slot": "0",
								"type": "t_uint64"
							},
							{
								"astId": 244,
								"contract": "src/wstf token launch/contracts/token/ERC20/implementation.sol:MyOmniToken",
								"label": "sender",
								"offset": 8,
								"slot": "0",
								"type": "t_address"
							}
						],
						"numberOfBytes": "32"
					},
					"t_uint256": {
						"encoding": "inplace",
						"label": "uint256",
						"numberOfBytes": "32"
					},
					"t_uint64": {
						"encoding": "inplace",
						"label": "uint64",
						"numberOfBytes": "8"
					},
					"t_uint8": {
						"encoding": "inplace",
						"label": "uint8",
						"numberOfBytes": "1"
					}
				}
			},
			"userdoc": {
				"events": {
					"DefaultConfLevelSet(uint8)": {
						"notice": "Emitted when the default confirmation level is set"
					},
					"OmniPortalSet(address)": {
						"notice": "Emitted when the OmniPortal contract address is set"
					}
				},
				"kind": "user",
				"methods": {
					"defaultConfLevel()": {
						"notice": "Default confirmation level for xcalls"
					},
					"omni()": {
						"notice": "The OmniPortal contract"
					}
				},
				"version": 1
			}
		}
	}
}